:020000040800F2
:10000000F0FF0120EDFF04081D950408E5A7010895
:10001000650005086500050865000508000000008A
:10002000000000000000000000000000219504080E
:10003000259504080000000029950408C1890108DD
:1000400065000508650005086500050865000508E8
:100050006500050865000508C9B30008D1B30008AC
:10006000D9B30008E1B30008E9B300082DB10008D6
:1000700041B1000855B1000869B100087DB1000820
:1000800091B10008A5B10008650005080000000056
:10009000000000000000000000000000F1B30008B4
:1000A00035D30008CDD2000845D30008BDD20008E2
:1000B000F5D2000805D3000815D3000841AC0008AC
:1000C00089BE000849AC00088DBE0008650005081F
:1000D00065000508E5880108F188010800000000B6
:1000E000F9B3000865000508A1C504080000000078
:1000F000000000000000000000000000B9B100088E
:10010000000000006500050825D30008650005080B
:1001100000000000000000000000000000000000DF
:10012000CDB10008E1B10008F5B1000809B200083E
:100130001DB20008000000000000000000000000E8
:100140000000000000000000000000002D950408E1
:1001500031B2000845B2000859B20008FD88010814
:1001600051AC000891BE0008000000000000000033
:10017000000000000000000000000000000000007F
:1001800000000000650005080000000000000000FD
:08019000650005086500050883
:0801980080FB040001000000DF
:1001A000220201001C0100004C4E0020304D0020B6
:1001B0000000000015A600082C4D00201F020B00B7
:1001C00016000000844F00206C4F0020000000004B
:1001D000298E0008684F00201B020100100000005B
:1001E000B04F0020A04F002000000000058E000846
:1001F0009C4F00202802040004000000C84F00208B
:10020000C44F002000000000F98D0008C04F0020FE
:100210002702040004000000D44F0020D04F00202B
:1002200000000000ED8D0008CC4F002000120100FE
:100230000A000000E84F0020DC4F00200000000012
:10024000D98C0008D84F00201A0201003C000000A1
:1002500034500020F84F00200000000059A500088D
:10026000F44F00202E02010004000000803F002017
:100270007450002000000000FD6A0108705000204A
:100280000400080080000000644100207C50002031
:100290000000000000000000785000201C02020056
:1002A0001C0000000C420020005100200000000053
:1002B0000D8D0008FC5000202630010008000000D1
:1002C000284200202051002000000000E5EF030834
:1002D0001C510020081203000F000000FC41002008
:1002E0002C510020000000007D8C000828510020C7
:1002F0000A90010024000000C44800204051002062
:1003000000000000C97903083C51002003120100DD
:100310003D0000000C490020685100200000000052
:100320006C0E060864510020010201000A00000062
:10033000744C0020AC51002000000000F18C00083B
:10034000A85100200C0201000400000034420020EB
:10035000BC51002000000000498D0008B851002069
:10036000FD170100A0000000844C0020C4510020B3
:100370000000000023EE0308C0510020131001000C
:1003800004000000244D00206852002000000000FE
:10039000AC0E060864520020F5C101007400000094
:1003A000FC4B0020705200200000000029F70308D9
:1003B0006C5200200202010003000000F84B0020F4
:1003C000E852002000000000D98E0008E45200200E
:1003D000F62101000C0000005C480020F0520020D3
:1003E00000000000B00E0608EC52002012120100BE
:1003F00004000000046700200053002000000000FB
:10040000C98D0008FC520020110201000800000004
:10041000086700200853002000000000D58D000868
:100420000453002034000100100000001067002079
:100430001453002000000000D9EC020810530020E3
:10044000F831010006000000B842002028530020C7
:1004500000000000BC0E060824530020021001001A
:100460000C000000844200203453002000000000F3
:10047000C40E060830530020FE01010014000000E5
:10048000206700204453002000000000558C000825
:1004900040530020061203001200000070420020AA
:1004A0005C53002000000000C59400085853002051
:1004B000F701010006000000F44100207453002001
:1004C00000000000D00E060870530020FC0101005F
:1004D0000900000034670020805300200000000065
:1004E000198E00087C530020FB0101000100000070
:1004F000406700209053002000000000218E00087B
:100500008C5300201A0001000E000000E44100207E
:100510009853002000000000D60E060894530020D7
:100520001400010022000000863F0020AC53002090
:1005300000000000E40E0608A8530020FD010100A1
:1005400021000000FA3E0020D453002000000000EB
:10055000D36A0108D05300201D02020006000000EB
:10056000F43E0020FC5300200000000000000000CA
:10057000F85300201840010038000000BC3E002065
:100580000854002000000000B9A500080454002011
:10059000F9010100040000004467002044540020D9
:1005A00000000000896A0108405400201230010058
:1005B00010000000A43E00204C5400200000000069
:1005C000060F060848540020FA010100040000004C
:1005D000304200206066002000000000018D00080D
:1005E0005C6600200530010008000000382E002065
:1005F0006866002000000000180F060864660020EE
:100600001302010004000000302F00207466002057
:1006100000000000200F0608706600200A0201009A
:100620001400000048370020806600200000000011
:10063000058A00087C6600200620010028000000D2
:10064000502F00209866002000000000618D0008F7
:1006500094660020160215003F000000AC2E00201A
:10066000C4660020000000004D8E0008C066002017
:100670000E02010002000000449B0020589F002051
:1006800000000000240F0608549F00202F200100C6
:1006900022000000609F00203C9C00200000000021
:1006A000260F06085C9F0020150010007000000057
:1006B000CC9900200C9D00200000000000000000EC
:1006C000849F00202A000800600000006C99002030
:1006D000AC9C00200000000089FF0208889F0020D9
:1006E0002C000400100000005C990020209F0020D6
:1006F0000000000075F302088C9F002025201E00DA
:100700002C01000030980020F49D00200000000023
:1007100000000000909F00202B0012002400000029
:10072000D0900020309F00200000000085F30208D8
:10073000949F0020031101000A0000007490002023
:100740009C9F002000000000ADF00308989F00204F
:100750002920140078000000FC8F00207C9D0020E0
:100760000000000000000000A89F00200B300100E6
:100770001A000000DC8F0020B09F00200000000065
:10078000480F0608AC9F00200D1001004C0000002F
:10079000908F0020609C0020000000004977010835
:1007A000CC9F00200C60040078000000F88E002030
:1007B000D49F002000000000F9420208D09F0020D2
:1007C000012001000C000000708F002050A00020CC
:1007D00000000000620F06084CA000202700010066
:1007E000040000008C8F002060A0002000000000AA
:1007F0006E0F06085CA000202320010010000000FE
:100800007C8F002068A0002000000000B57903085C
:1008100064A000200E80040090020000648C002080
:100820007CA000200000000069FF020878A00020E2
:100830001F5001002400000034A70020D0AF00208A
:1008400000000000740F0608CCAF00203840010003
:1008500006000000FCA30020F8AF0020000000000C
:10086000980F0608F4AF00201630010008000000C1
:10087000A4AB002004B00020000000009E0F06087A
:1008800000B000201010010002000000D0A90020DC
:1008900010B0002000000000A60F06080CB00020D9
:1008A000190001000500000084AF002018B00020EE
:1008B00000000000A80F060814B00020206201000C
:1008C0000C00000074A4002024B0002000000000F0
:1008D000AE0F060820B000202D020100010000002C
:1008E000C8B10020D4B100200000000000000000CA
:1008F000D0B100202902010040000000C4B0002057
:10090000DCB1002000000000BA0F0608D8B10020BA
:10091000010101000400000088B1002020B2002085
:1009200000000000000000001CB2002000010100D7
:100930000400000084B1002028B200200000000064
:10094000FA0F060824B20020020101000300000093
:1009500080B1002030B2002000000000053D0208F8
:100960002CB200202A120100080000003CB1002037
:1009700038B2002000000000FE0F060834B200204C
:10098000030001000100000034D2002040D4002008
:1009900000000000000000003CD40020050201001F
:1009A000040000008CB3002048D4002000000000A8
:1009B0000610060844D400202C1201000600000096
:1009C00050B3002070D40020000000000A10060878
:1009D0006CD400202332010014000000F0D7002066
:1009E000F8DA00200000000010100608F4DA0020F9
:1009F000090201000100000048100120481D0120EB
:100A00000000000024100608441D0120100201000F
:100A100001000000FC2D0120F82D01200000000045
:080A200026100608F42D012048
:100A28001201000200000040830420570002010266
:100A380003010000040309041A0300000000000079
:100A4800000000000000000000000000000000009E
:100A580000000100D80000000000000005000000B0
:100A680006000000020000000000000080050020D1
:100A7800786600200200000001000000E98A0008F2
:100A88007C050020000000000100000001000000BB
:100A9800C98A0008DC0100200000000000000000F6
:100AA800000000000000000000000000000000003E
:100AB800000000000100000000000000000000002D
:100AC800000000000000000001000000000000001D
:100AD800000000000000000000000000010000000D
:100AE80000000000030000000000000005000000F6
:100AF800FFFFFFFF05000000018C00082D8C000897
:100B0800458C0008498C000891A000084D8C00080D
:100B1800518C0008EC30050865840408055D04085C
:100B2800ED8204080000000000000000257704089A
:100B380065770408000000000000000000000000C5
:100B4800455D0408618900086D890008499E000810
:100B5800219E000879890008659E0008819E00088A
:100B6800FF0000000060024010600240000000002A
:100B78000000000000000000000B00000000000062
:100B880000000000000000000060024028600240F1
:100B9800010000000000000000000000060C00003A
:100BA800000000000000000000000000006002409B
:100BB8004060024002000000000000000000000049
:100BC800100D000000000000000000000000000000
:100BD800006002405860024003000000000000006E
:100BE80000000000160E00000000000000000000D9
:100BF8000000000000600240706002400400000035
:100C08000000000000000000200F000000000000AD
:100C18000000000000000000006002408860024000
:100C28000500000000000000000000002610000081
:100C3800000000000000000000000000006002400A
:100C4800A060024006000000000000000000000054
:100C5800301100000000000000000000000000004B
:100C680000600240B8600240070000000000000079
:100C780000000000362F0000000000000000000007
:100C88000000000000640240106402400000000000
:100C98000000000000000000003800000000000014
:100CA80000000000000000000064024028640240C8
:100CB80001000000000000000000000006390000EC
:100CC8000000000000000000000000000064024076
:100CD8004064024002000000000000000000000024
:100CE800103A0000000000000000000000000000B2
:100CF8000064024058640240030000000000000045
:100D080000000000163B000000000000000000008A
:100D1800000000000064024070640240040000000B
:100D28000000000000000000203C0000000000005F
:100D380000000000000000000064024088640240D7
:100D4800050000000000000000000000264400002C
:100D580000000000000000000000000000640240E5
:100D6800A06402400600000000000000000000002F
:100D780030450000000000000000000000000000F6
:100D880000640240B8640240070000000000000050
:100D980000000000364600000000000000000000CF
:100DA8000000000000000401000002000100000231
:100DB80010000000070000001F0000001C000000D9
:100DC8001F0000001E0000001F0000001E000000A1
:100DD8001F0000001F0000001E0000001F00000090
:100DE8001E0000001F0000000068214C0101FF00E8
:100DF8005030050884300508B8300508FFFFFFFFAC
:100E0800080000000600000005000000815D0408DD
:100E1800855D0408895D0408955D0408995D0408EA
:100E28008D5D0408915D0408FFFF0000FFFFFFFFD0
:100E380001000000FFFFFFFF0001010100000000AA
:100E4800ACBB050800000802050303000000000011
:100E5800B4BB0508010008020504030000000000F7
:100E6800BCBB0508000008020503030000000000E1
:100E7800C4BB0508010008020504030000000000C7
:100E88001CF705080200FE01011003000000000025
:100E9800ACAB0508030014020003000000000000CA
:100EA800CCBB050804001F0202000B000000000074
:100EB800D4BB050805001F0202010B00000000005A
:100EC800020000007D0000000100000048BC050889
:100ED800ECBF05080000000089DB0108A0860100BE
:100EE8000400000048BC0508A0F005080000000048
:100EF8005D860108E80300000400000064A80508F6
:100F08000000000000000000014702087D0000000A
:100F1800FF00000068AC05080000000000000000A9
:100F2800416502087D000000FF00000008FD05087B
:100F380000000000000000007D2C03087D00000078
:100F4800FF00000078C00508000000000000000055
:100F5800DD750108E8030000030000005CAE050829
:100F68000000000000000000791E030810270000A0
:100F780003000000C8BB0508000000005DF502087A
:100F8800C9B501085F7600000500000054C20508D5
:100F9800000000000000000075750108102700001F
:100FA80002000000A8F00508000000000000000092
:100FB800D16C0108E803000005000000B4F0050842
:100FC8000000000000000000CD400208204E000094
:100FD80003000000C4F00508000000000000000045
:100FE8002D5B0208204E000003000000D4F0050825
:100FF800000000000000000085AF0108400D03005C
:101008000300000024BD05080000000000000000E7
:10101800D5B30108102700000200000010AD050834
:101028000000000000000000998B0108A861000082
:1010380002000000B8AA0508000000000000000037
:101048000D6E010810270000020000005CC20508B0
:10105800000000000000000051940108A00F0000EB
:10106800020000002CBD05080000000057EE030830
:101078003D320408854501000200000078AA0508F1
:101088000000000000000000E1050408102700002F
:1010980002000000F8BF0508000000000000000082
:1010A80061AA030850C3000002000000E4F005082C
:1010B8000000000000000000CD150408400D0300EA
:1010C80001000000ECF0050800000000000000002E
:1010D800FD6C0108400D030002000000F4F0050853
:1010E80000000000000000005D1A040850C3000062
:1010F8000300000000F105080000000000000000E7
:101108004958020840420F00010000000CF1050890
:1011180000000000000000009D87010850C3000087
:101128000100000018F105080000000000000000A0
:10113800F122040810270000020000000000803F90
:101148000000000000000000000000000000803FD8
:101158000000000000000000000000000000803FC8
:10116800000000000000000000000000FFFFFFFF7B
:10117800FFFFFFFF99780108000000000000000051
:1011880000000000F99101080000000000000000C4
:101198000000000001010000FFFFFF7F0000008049
:1011A800000000005CD400200800000000000000DF
:1011B8004CD40020080000007EFF7EFFE2FFE2FF23
:1011C800FFFFFFFF1CD5002070D5002001F11F3F55
:1011D800D8DA0020E6DA0020D6010000FF1FFF1F42
:1011E80079B30108000000000000000000000000C2
:1011F8000000FA430000FA430000803F00000000AE
:1012080000000000000000000000000000000000D6
:1012180000000000000000000000000000000000C6
:10122800040000000000803F00FF000000000000F4
:10123800000000004D8203080000000000000000CC
:10124800A06C05080100E001FF000000ADB703082D
:1012580000000000000000006C830508000000008A
:101268000000000000000000687105080000000090
:1012780000000000000000002072050800000000C7
:101288000000000000000000CC710508010000000B
:10129800FA0000000100000001000000000000004A
:1012A80000000000A5B2030887E4002061E50308F8
:1012B8000000000000000000CC7005086568040804
:1012C8000000000000000000407005086BE0030803
:1012D8000000000000000000F86F05082D202D2DEB
:1012E800202D2D2D2D202D2D2D000000000000007B
:1012F80000000000000000000000000101000000E4
:1013080058DC002088136F17010000005ADC002009
:1013180088136F17000000005CDC002088136F172B
:10132800010000005EDC002088136F170000000039
:10133800FD8103080000000000000000606D050842
:10134800BFE4002001000000B46D050861DC002046
:1013580001000000C06D050808DD00200200000043
:10136800C86D050825820308000000000000000081
:10137800D46D050800000000000000000000000017
:10138800286E0508000000000000000000000000B2
:10139800986E050856DC002002000000E06E050883
:1013A80034E90020E0150C1700000000C01200000E
:1013B8000AEA0020000000000000000008EA0020FF
:1013C800000000000000000006EA00200000000005
:1013D8000000000004EA00200000000000000000F7
:1013E80002EA0020000000000000000000EA0020DF
:1013F8000000000000000000240B00200000000096
:101408000000000060DC002003000000D06E05082A
:10141800000000000000000000000000EC6E05085D
:101428000EEA0020E0150C170000000010EA00206A
:1014380002000000E06E05082D202D2D202D2D2DF9
:101448002D202D2D2D2D0000000000000000000093
:101458000000000000000000000000000000000084
:1014680000000000246F050812EA00209CFF2C01F0
:10147800000000000EE90020E0150C170000000035
:1014880072E8002002000000E06E05082D202D2DD6
:10149800202D2D2D2D202D2D2D2D0000000000009C
:1014A8000000000000000000000000000000000034
:1014B80000000000000000005C6F0508F2DB00205F
:1014C80000C80100F1DB002000500100F0DB002023
:1014D800005A0100EEDB0020020000003C3E050837
:1014E80004FA05080CFA0508AEE200200100C40958
:1014F80000000000ACE200200100C4090000000068
:10150800AAE200200100C40900000000A8E20020AF
:101518000100C40900000000A4E200200100C40981
:1015280000000000A6E200200100C409000000003D
:10153800A2E200200100C40900000000A0E200208F
:101548000100C4090000000037DC002000C80100C9
:1015580036DC002000C8010034DC00200000FFFF5A
:101568000A00000032DC00200100C8000100000071
:1015780030DC002032003075320000002EDC002004
:10158800E2FF1400050000002CDC00207EFF1400A0
:10159800050000002ADC002005002C0105000000E1
:1015A80028DC0020055A05003DDC002000FF010072
:1015B8003BDC002002000000580C002039DC002031
:1015C80003000000687205083CDC002000FF0100F1
:1015D8003ADC002002000000580C002038DC002013
:1015E800030000006872050818DD0020FF7F010075
:1015F80014DD002000000000FFFFFFFF01000000D5
:1016080010DD002000000000FFFFFFFF01000000C8
:101618000CDD002000000000FFFFFFFF01000000BC
:10162800BADB0020EE02CA0801000000B9DB002086
:1016380000C8010064000000B8DB002001C80100F8
:1016480064000000B7DB0020010000007872050884
:1016580054DC00200000803E0500000052DC002021
:1016680080C1803E0500000050DC00200083007D22
:10167800050000004EDC002080C1803E050000000F
:101688004CDC002000FF01004ADC00206400F4016B
:101698000100000048DC00206400F40101000000A3
:1016A80046DC00206400F4010100000044DC002056
:1016B800040000000842050843DC00200200000086
:1016C800FC410508000000000000000000000000C8
:1016D80080720508B6DB00205A000000B03F0508FC
:1016E800B4DB002003000000B8720508B5DB002059
:1016F800040000001C42050821DC00200300000053
:10170800C872050820DC002003000000C872050824
:1017180014DC0020000A010012DC00200000E803AD
:101728000100000010DC00200000E80301000000B8
:101738000EDC0020000A01000CDC00200000E80399
:10174800010000000ADC00200000E803010000009E
:1017580002DC0020C800E8030100000008DC0020CB
:101768001400FA000100000006DC00200100E80374
:101778000100000004DC00200005010000DC00205E
:1017880002000000F03E0508FEDB00200000F40126
:1017980001000000FCDB00200000F4010100000053
:1017A800FADB00200000F40101000000F8DB002053
:1017B8000000F40101000000F6DB00200000E8034F
:1017C80001000000F4DB00200000E8030100000035
:1017D800DDDB002019640100DCDB002002000000D2
:1017E800E43E0508D1DB002000640100D0DB0020C6
:1017F80000640100D8DB0020006401000A0000003A
:10180800D7DB0020006401000A000000D6DB0020BE
:10181800006401000A000000DBDB002000FF01007B
:101828000A000000DADB002000FF01000A000000C7
:10183800D9DB002000FF01000A000000D5DB0020F2
:1018480001FF01000A000000D4DB002001FF0100B5
:101858000A000000D3DB002001FF01000A0000009D
:101868001EDC00200000F401010000001CDC002048
:101878000000E803010000001ADC00200000E80373
:101888000100000018DC00200000E803010000004F
:1018980016DC00200000E8030100000084E40020BA
:1018A800E803D0070A00000082E400200064010079
:1018B80080E40020E803D0070A0000007EE400204E
:1018C800006401000A0000007DE400200096010089
:1018D80074E4002000C8010073E4002000640100E3
:1018E80072E400200064010071E40020006401003B
:1018F80070E40020006401006FE40020FF0801008C
:101908006EE4002001640100857C0308C97C03089B
:1019180000000000D872050877E4002001320100B9
:1019280076E4002001000000B83E050875E40020B8
:1019380004000000C03E05086DE400200096010088
:101948006CE40020006401006BE4002000FA010050
:10195800640000006AE400200AFA010069E400203B
:101968000AC8010068E400200064010067E4002060
:101978000064010066E400200A5A010065E40020C2
:1019880000C8010064E4002000C801007AE40020D7
:10199800003201007CE40020001401007BE40020F8
:1019A800005F010079E4002004000000003E050803
:1019B80078E40020006401000A000000CBDB00206E
:1019C8000AC805000A000000CADB00200100000068
:1019D80080420508CDDB00200AC805000A00000087
:1019E800CCDB00200100000080420508C2DB00209B
:1019F80000C805000A000000C9DB002000C8050077
:101A08000A000000C3DB002000C805000A0000002F
:101A1800C4DB002000C805000A000000C7DB002066
:101A280000C805000A000000C8DB002000C8050047
:101A38000A000000C6DB002000C805000A000000FC
:101A4800C5DB002000C805000A000000C1DB00203B
:101A580002000000CC3D050862E400200000D00729
:101A6800010000005DE4002000C801005CE40020E3
:101A780000C801005BE4002000C8010060E4002009
:101A88000000D007010000005AE4002000C801004F
:101A980059E4002000C8010058E4002000C80100F3
:101AA8005EE400200000D0070100000057E4002099
:101AB80000C8010056E4002000C8010055E40020D9
:101AC80000C8010094040608000000000000E4E9D2
:101AD8000020A004060807080000000034120020B7
:101AE800A80406080708000000002C120020B00413
:101AF800060807080000000024120020B8040608A1
:101B080008080000000018120020C0040608070892
:101B18000000000010120020C80406080708000092
:101B2800000008120020D004060807080000000082
:101B380000120020D8040608080800000000F4116C
:101B48000020E0040608071000000000EC11002047
:101B5800E8040608071000000000E4110020F00463
:101B68000608071000000000DC110020F804060831
:101B7800081000000000D01100202CF80508010012
:101B8800000000000000000000000000100000003D
:101B98000000000000000000D97E0308E97E030869
:101BA800699503084873050827DC0020005A0100DE
:101BB80026DC002000C8010024DC0020E803D00750
:101BC80001000000000000000000000061C00308E0
:101BD800E473050842DC002003000000BC3D050852
:101BE80041DC00200003010040DC0020000301006C
:101BF800657F0308B97F03080000000038740508F2
:101C08000D8003084D80030800000000E0740508FB
:101C180005940308FDB80308000000006075050876
:101C28003EDC002001030100018303082983030827
:101C38000000000080780508ED7A0308157B03088A
:101C48000000000000790508CD8003082D810308F5
:101C58000000000064790508F9B30308AD7A0308A9
:101C6800000000001C7A0508C57E0308000000007B
:101C780000000000B87A0508857D0308F17D030897
:101C8800000000001C7B05080D7D0308497D030842
:101C980000000000D47B0508A1EC0308517C030870
:101CA80000000000607C050853E4002003000000E9
:101CB800D4E90020557E0308917E03080000000047
:101CC800407D0508E9EC030891B603080000000010
:101CD800B07D0508C97B03086DB503080000000046
:101CE8009C7F050845EC03082DB50308000000009B
:101CF8003C12002054E400200300000090E900207A
:101D0800057F0308357F030800000000A880050848
:101D180031AA030800000000000000000C8105083B
:101D28009580030819B9030800000000A881050878
:101D380000000000000000000000000044820508C8
:101D4800B9EB0308F9B4030800000000B4820508E1
:101D580001AA5507010000AA55050100000000006E
:101D6800FCFFFFFF0101FD0824F100200000000036
:101D78001CF100200000000001AA55090200000023
:101D8800AA5503009F00000001000000AA550B019E
:101D98000000AA550501000014010000FF00000022
:101DA80009024300020100C03209040000010202D6
:101DB8000100052400100105240100010424020289
:101DC8000524060001070582030800FF0904010035
:101DD800020A000000070501024000000705810211
:101DE8004000000009026400030100C03209040039
:101DF800000103000000092111010001223600073B
:101E080005830309000A080B010202020100090404
:101E1800010001020201000524001001052401004F
:101E280002042402020524060102070582030800B1
:101E3800FF09040200020A00000007050102400031
:101E4800000705810240000009022000010104C0CA
:101E58003209040000020806500507058102400007
:101E6800000705010240000012010002EF020140D4
:101E7800830456320002010203010000120100022D
:101E880002020040830440570002010203010000DF
:101E9800040309040101000005010905A101A100CD
:101EA8000501093009310932093309350934093680
:101EB80009371581257F75089508810205091901DB
:101EC800290815002501950875018102C0C0000088
:101ED80009022200010100E03209040000010301A7
:101EE80002000921110100012236000705830309B8
:101EF800000AFFFFFF000000F401000000000000DE
:101F0800000000000000000001000000ED5B040874
:101F180000000000000000000000000001000000B8
:101F28000000000000000000010203040102030495
:101F380006070809897D0408297E040865780408CD
:101F48002D5C0408A5810408115C0408F95B0408E9
:101F58003D5C04084D5C040800000000000000001F
:101F6800A1820408B15C040885810408000000000F
:101F7800E15C0408D5820408F56F0408D16F0408F1
:101F88000000000000000000D55C0408515D040852
:101F9800755D0408AD94040891940408C994040874
:101FA800E594040801950408F58104088D5C04088B
:101FB800757F0408000000005D5C0408196E0408C1
:101FC800BD6E0408AD6F04080000000000000000AA
:101FD800815C0408C700000005000000060000003E
:101FE8005C17002000000000000000000000000056
:101FF80000000000000000000000000000000000D9
:1020080000000000000000000000000000000000C8
:1020180000000000000000000000000000000000B8
:1020280000000000000000000000000000000000A8
:102038000000000000000000000000000000000098
:042048000000000094
:10800000074BD0F8E4105B68D0F8F0205B1A9A4276
:10801000B8BFC0F8F030012380F81C310020704751
:10802000001000E0B94B00EB8002F0B503EBC20595
:1080300053F832205268918ACC074FEA800C74D4EE
:10804000CCB2A70743D5BFF35F8F297F0129CCB2FC
:1080500000F0E5804100148BBFF35F8F0CEB000450
:1080600003EBC404257F022D00F005810CEB000416
:1080700003EBC404257F032D08D1A47F34B10C1871
:108080001C4494F87850002D40F05F819488A4B28D
:1080900044F4806494800C181C4494F97AE00CEB4E
:1080A000000403EBC404247F013474450ED1014461
:1080B0001944002481F8784091F87910002940F0A3
:1080C000D380604403EBC00300225A76F0BD6607FC
:1080D00062D414F0400400F0E28000EB4001194447
:1080E000148A91F97AE06E6AE4B206F80E405FFAFB
:1080F0008EF6741C64B22F7F81F87A40E51CAF4283
:108100004FEA4001A64600F046810CEB000503EB68
:10811000C5052D7FAC42C2D10C1806F1020E1C44DD
:108120004FFA8EFE84F87AE0B9E7118821F40061F5
:108130000904090C1180118889B241F48061118011
:1081400000EB40041C44AE7F002184F87A1041000B
:10815000002E53D094F87840002C4CD00CEB000447
:1081600003EBC4040144247F19440125022C81F847
:10817000785004D1118889B241F4006111800CEB70
:10818000000103EBC101897E41F0010111826044CD
:1081900003EBC0031B7FF0BD00EB400E9E44AC7FA1
:1081A00001218EF8791000FA01F1002C00F0838093
:1081B0009EF87840002C40F084800CEB000403EB28
:1081C000C404647F002C00F0C3800D181D44148883
:1081D00095F87AE0A4B244F400740EF1010E148014
:1081E0004FFA8EF485F87A40B2F800E01EF4807FF2
:1081F000FAD1A64653E7EC7EFF2CAFD00CEB00047F
:1082000003EBC404A57E05F0FE051582E27EFF2A7D
:10821000BDD001441944FF2281F87A20B7E7A97F35
:1082200000293FF417AF00EB40051D44410095F8CD
:108230007860002E3FF40FAF168826F4806636046F
:10824000360C1680BFF35F8F85F87940148B148845
:1082500095F97AE0A4B244F4007414809488A4B22E
:1082600044F4806494801AE7918821F440710904F1
:10827000090C918025E7A47F002C3FF4F7AE0C1881
:108280001C4494F87850002D3FF4F0AE94F97AE055
:10829000148824F480642404240C14804EE01FFA13
:1082A00081FE1EF0800F33D100EB40041C444100DE
:1082B00094F97AE0F3E69EF87840002C3FF47DAF25
:1082C00083E72C7F022C14884FD924F48064240483
:1082D000240C1480178A6E6A9EF97A40FFB23755D3
:1082E0006F6A1588ADB245F400751580E4B2168A40
:1082F000651C6DB2F6B27E5595880234ADB264B29B
:1083000045F480658EF87A4095806DE7C0170020AF
:1083100000EB40071F44410097F97A60B6F1FF3F38
:1083200040D02C6AA45D14822C7F06F1010E4FFA16
:108330008EFE744587F87AE07FF4B1AE948824F419
:1083400080642404240C9480A9E694F97AE0F5E78B
:108350001488A4B244F4807414800C181C440125C1
:1083600084F8785094F97A403EE7A4B244F400745B
:108370001480168A6F6A9EF97A40F6B23E55E4B2CE
:108380006F6A168A651C6DB20334F6B264B27E550C
:108390008EF87A4028E7958825F480652D042D0C09
:1083A0009580B2E6E97E1182A97F87F87A4019B9F3
:1083B000297F00297FF4EBAE918821F480610904C4
:1083C000090C9180E3E600BF1B4B01681B4A03F5D3
:1083D000727C03E063452CD053F82C2F9142F9D1E5
:1083E00070B593F804E0427996450AD0634505D00C
:1083F00053F82C2F9142F4D06345F9D14FF0FF3060
:1084000070BD9E468468DEF80C50A5424FF0000215
:1084100008D00132032A0EF10C0EE7D0DEF80C5022
:10842000A542F6D1DEF81050C668B542F1D150B27F
:1084300070BD4FF0FF307047101905080000014073
:1084400030B5EAB18E464FEA014C034600F1C00553
:10845000002419689A6841EA0C0142EA0E029A6007
:10846000C3E900140C33AB42F3D1D0F8C030C0F8EC
:10847000C44043EA0E03C0F8C030C0F8C84030BD65
:108480004FEA014E8C46E0E783691969B3F80CC0E6
:108490000A6830B49C6822F0010224680A60A2894C
:1084A00092B222EA0C02A281027D04681F2A06D938
:1084B0006568203A08209040284246D0FEE72568AB
:1084C000082090402842F9D1202000FA02F2A26050
:1084D000274A92F88120002A35D01A7E012A39D005
:1084E000D3F8F4200132C3F8F420EFF311815022C5
:1084F00082F3128858685C6C026822EA04029C6C61
:108500002243C9B2026081F31188D3E90C401A6991
:1085100099681D6C096814605061D3E90E4054607D
:1085200090600024B3F8A800D5604C62C86210685F
:108530000124204310601C7683F8F1408A899B89CE
:1085400013439BB28B8130BC7047202000FA02F2AB
:10855000E260BDE7002283F8F120D3F8F8000A6852
:10856000013022F00102C3F8F8000A60EBE700BF17
:10857000C017002010B40D4CD4F88430002B12DD4D
:10858000002004F1880C0146DCF8A03003F1C002A1
:1085900059600C339342FBD1D4F8843001308342CC
:1085A0000CF5807CF0DC5DF8044B7047C0170020B0
:1085B000704700BF024B03EB401090F8A5047047D2
:1085C000C01700204368B0F8502010B41A83EFF3AE
:1085D0001182502383F312884168446C0B6823EAAC
:1085E0000403C46C2343D2B20B6082F31188D0E938
:1085F00007418268036912681C605961D0E909412A
:108600005C60C46A9960B0F86010DC600023D162DD
:108610005DF8044B037670470C2911D8DFE801F0B0
:108620002310101019101010111010100700838B58
:1086300023F400631B041B0C43EA022292B28283E0
:108640007047838B23F008031B041B0C1A4382839F
:108650007047038B23F400631B041B0C43EA0222C4
:1086600092B202837047038B23F008031B041B0C98
:108670001A430283704700BF704700BF0B4890F851
:10868000BC1589B101EB4101002310B4490000F28F
:10869000C4501C4650F82320063302B114608B42AC
:1086A000F8D15DF8044B7047704700BFC017002039
:1086B0000B4890F8BC1589B101EB4101002310B4BF
:1086C000490000F2C4501C4650F82320063302B182
:1086D00014609942F8D15DF8044B7047704700BFB1
:1086E000C017002001207047034B00EB400003EB54
:1086F000C00090F8D5057047C017002007EE900A1B
:10870000B8EE670A704700BFBCEEC00A10EE103A20
:1087100098B2704708B51D200FF03EFE08B183796E
:108720004BB11E200FF038FE08B1837903B108BDAC
:108730005523C38008BD5523C380F2E710B50C292B
:1087400037D8DFE801F097363636663636363736B4
:1087500036360700038C5488B2F80CE023F48053BB
:108760001B041B0C0384038CB0F804C0818B21F420
:10877000E6414EEA040E0904148823F40053090C60
:1087800041EA04211B04754C1B0C43EA0E33A04242
:108790001FFA8CFC9BB289B200F0AE8004F58064B5
:1087A000A04200F0A9809268A0F804C0818302640E
:1087B000038410BD038CB2F80CC0548823F480737A
:1087C0001B041B0C0384038CB0F804E0818B23F49E
:1087D00000731B044CEA040C21F073011B0C43EAE8
:1087E0000C230904B2F800C0090C41EA0C0C5B49E7
:1087F00088421FFA8EFE9BB268D001F580618842E4
:1088000064D09268A0F804E0A0F81CC0C26303849E
:1088100010BD038CB2F80CC0548823F010031B0465
:108820001B0C0384038CB0F804E0018B23F02003BD
:108830001B044CEA040C21F4E6411B0C43EA0C1324
:108840000904B2F800C0090C41EA0C211FFA81FCAE
:10885000424988421FFA8EFE9BB269D001F58061C1
:10886000884265D09268A0F804E0A0F818C082633E
:10887000038410BD038C5488B2F80CE023F001038C
:108880001B041B0C0384038CB0F804C0018B21F083
:1088900073014EEA040E0904148823F00203090C44
:1088A0001B0421432D4C1B0C43EA0E03A0421FFA6C
:1088B0008CFC9BB228D004F58064A04224D092683E
:1088C000A0F804C001834263038410BDD189548A97
:1088D00023F4006343EA0121138A2EF4405E23430C
:1088E0004EEA031E94884FF6FF330B4043EA0423FD
:1088F0001FFA8EFE9BB284E7148A2CF4804C4CEA5B
:10890000841C1FFA8CFC4EE7D489B2F810E023F0E7
:1089100008032343548A2CF4407C4EEA040E9488C6
:1089200023F004034CEA0E0C1FFA8CFC2343C6E729
:10893000D189548A23F0800343EA0111138A2EF46B
:10894000406E23434EEA830E94884FF6BF730B406C
:1089500043EA04131FFA8EFE9BB283E70000014036
:10896000122301480B80704798010020042301481E
:108970000B807047AC0100202048D0F8103AD0F8A6
:10898000182A30B59B184FF01A040C8001D11C48EE
:1089900030BD1B4AD0F8141A4FF0000E1046754631
:1089A000B3F1204F4FEA137C0CF130040EF1020EAC
:1089B0002ABF0CF1370C847080F802C0BEF1100F92
:1089C000C5704FEA031300F10200E9D1002004460C
:1089D000B1F1204F4FEA117303F1300C00F10200A6
:1089E0002ABF373382F812C093740828D4744FEA30
:1089F000011102F10202EBD1014830BD0070FF1FEE
:108A0000B0010020B422828024224FF4A57C4FF4D0
:108A1000EB7102814FF487720023A0F802C0C1807D
:108A20004FF4E17C9621828144220370A0F80AC0B1
:108A3000C18102824382704782B01F4B00220192A3
:108A40000193019B1D4A04330193019B19689368AC
:108A500003F00C03042B07D0082B0AD0184B194A3B
:108A6000C3F8842602B07047154BC3F8841602B0D1
:108A700070475368506813F4800F00F03F0053684C
:108A800013D1C3F388130F49B1FBF0F101FB03F3DA
:108A90000A4A0B495268C2F3014201325200B3FB49
:108AA000F2F3C1F8843602B07047C3F38813B1FB08
:108AB000F0F101FB03F3EBE75028004000380240DF
:108AC000C01700200024F4000123437700207047E2
:108AD000D0E90B2108B583690B4483610AB10846CC
:108AE0009047002008BD00BF436A1B681B6A5B6893
:108AF0005B78024613F0010008BF5077704700BF53
:108B0000C2628161704700BF704700BF0430704788
:108B10000D4B93F88C26D3F888160244D2B283F812
:108B20008C2693F88C2608441206C3F8880605D5CF
:108B300093F88C2682F0800283F88C26034B012266
:108B400083F83220704700BFC01700209801002032
:108B50002DE9F047144FD7F89056ED0A1ED00026A5
:108B6000B04607F5D969D7F894361048D3F828A04D
:108B7000C7F8C086AC19641010234A46E102D047FA
:108B80000F280BDD0A4B03F1100C53F8041B0131C5
:108B900007D16345F9D12546B542E4DCE802BDE8DA
:108BA000F087661CF8E700BFC0170020541E0020A5
:108BB000881E002010B5114CD4F8D826D4F8DC3625
:108BC000D31A322B12D8D4F8E036934200D310BD1A
:108BD000D4F8E43633B119689B884869034214BF5E
:108BE0004B830B833232C4F8E02610BD00210846C7
:108BF0000FF014FD0023C4F8E03610BDC0170020AC
:108C0000094A92F8F036D2F8E42603F001031AB1CB
:108C100023B9136892881A830020704713689288DA
:108C20005A830020704700BFC01700204FF4007027
:108C3000034B1060D3F800370B600020704700BF73
:108C4000C0170020002070470120704701207047A6
:108C500000207047012142F20112002341F2011C61
:108C6000017202804FF60171FF22A0F804C0438117
:108C70008381C38101828274704700BF154BFF223C
:108C80004FF0FF3CF0B5C270027102724272427343
:108C9000827303F10C076646172516244FF0150E54
:108CA000002202EB820281189F4200F802E04C7021
:108CB0008D70CE7081F804C00BD093F9062093F824
:108CC00007E01C7A5D7A93F90A6093F90BC00633CA
:108CD000E7E7F0BD041D05084FF0000C012102225A
:108CE000032380F805C08171C2710372704700BF11
:108CF00000230222037043708370C37002717047B7
:108D00002222022302704370704700BF41F20142E9
:108D10004FF4007C40F2253142804FF4E1620023A1
:108D2000A0F800C0C18040F2012C828101214FF4E3
:108D3000807203814381A0F80EC001828282C382C7
:108D400003834383704700BF4FF0010C2C210222A4
:108D5000002380F800C041708270C370704700BF6C
:108D60004FF4F07202804FF4FA62028440F226223D
:108D700040F22E4C0621828342F21832A0F81EC027
:108D800081704FF47A7C4FF4F56102810E2200234A
:108D9000A0F822C0818441F62A7C012180F8262097
:108DA0000222A0F80AC0417140F2012C8371427482
:108DB00040F2034140F2056243820723A0F814C049
:108DC000C182028383767047FF23037043708370F0
:108DD000C370704700220123027042708270C2701B
:108DE000037143718371C371704700BF0023037027
:108DF00043708370C37070470023037043708370A7
:108E0000C3707047002306214FF47A72C0E9012332
:108E100001700373704700BF00230372704700BFE7
:108E200012230370704700BF0023411CFF2200F88B
:108E3000132001F8132001330B2BF8D1027042707C
:108E40008270C2708272C272704700BF4FF0120C03
:108E500080F800C04FF0030C80F801C04FF0FF0C09
:108E600080F802C04FF0180C80F803C04FF0230CBC
:108E700080F806C04FF02A0C80F809C04FF01F0C94
:108E800080F80CC04FF0260C80F80FC04FF0270C74
:108E900080F812C04FF0200C80F815C04FF0240C61
:108EA00001220023022180F818C04FF0100C02713B
:108EB0004271C27103728272C3724273837302740D
:108EC0004374C27403758175C3754276837680F8E6
:108ED0001BC001774377704703230370704700BFBF
:108EE000704700BFD0ED007AD0ED016A30EE677AAE
:108EF000E6EE877AB0EE670AC0ED007A704700BFF1
:108F0000D0ED017AD0ED026A30EE677A90ED000A7A
:108F1000E6EE877A37EEC07AC0ED017AA6EE870AD0
:108F200080ED000A704700BF90ED017AD0ED036A32
:108F3000D0ED027A30EE470AA6EE807A90ED000A74
:108F400080ED017A37EE676AE6EE867A37EEC07A10
:108F5000C0ED027AA6EE870A80ED000A704700BFD6
:108F6000D0ED056AD0ED017A90ED007A90ED066AB9
:108F7000D0ED025A90ED035A80ED050A66EEA77A0D
:108F8000C0ED066AE7EE007A90ED077AE5EE867AA4
:108F900090ED086AD0ED045A80ED087AE5EE477A44
:108FA000E5EEC67AB0EE670AC0ED077A704700BFFB
:108FB000D0ED057A90ED006A90ED067AD0ED035A77
:108FC000E6EE007A90ED016AF0EE406AA6EE267AAF
:108FD000B0EE670AD0ED047A90ED026A67EEC07ACF
:108FE000A5EEC07AE6EE267A80ED057AC0ED067A27
:108FF000704700BF164BD0F8E0105A6810B5044611
:10900000D0F8D80071B1131A99420BDC94F8D03023
:10901000C4F8D820012B10D0D4F8D4300133C4F8D0
:10902000D43010BDD4F8E430C4F8D8200344C4F8D8
:10903000DC3094F8D030012BEED104F1E801201D92
:109040000EF050FED4F8D4300133C4F8D43010BD43
:10905000001000E070B5224A224C234B94B0054624
:10906000CDE90042214A0992A4F108020A922A7F1E
:109070000493201D0023CDE905039A42CDE90E3368
:109080000B931093139314BF0520042011936B6A64
:109090000C9002200122029018688DF80C200E46D8
:1090A00007928DF820208DF834208DF8482045F067
:1090B000E3FE2B7F93B1330E04F8073C063C320CE1
:1090C000330A22706370A670686A69460EF00AFE61
:1090D0006B6A186845F0D0FE14B070BD073CEEE72F
:1090E000F01E0020D4010020E98A0008C98A000887
:1090F00010B5044694B050220649684648F08DFBEE
:10910000606A69460EF0EEFD636A186845F0B4FEC9
:1091100014B010BD181D05082DE9F0410446406A41
:1091200000681E460F46904645F0A6FE237F002BA2
:109130003FD02A4DA0690523EB67030E85F8453023
:1091400005F146039870020C000A58701A703B68CB
:10915000C5F888300020D8F80030C5F89030012ECE
:109160002363C5F8A0002BD0022E20D1D8F804200C
:10917000C5F89800796885F89400C5F89C101344E8
:109180001749C5F8A4200120236385F8A800C5F875
:10919000AC10144B617F606A03F11402002914BF04
:1091A000194611460EF09EFDE36A8BB1206BBDE8B7
:1091B000F0810A4DA0690423EB6705F14503C1E77F
:1091C000074B85F89460C5E92630C5F8A400E0E7B0
:1091D000636A186845F050FEE8E700BF9801002078
:1091E000D18A0008E401002000B583B081610192BA
:1091F000049A0093C26201236A4601A9FFF78CFF1B
:1092000003B05DF804FB00BF0C4AF8B5136855695C
:109210002B4003EA000555617DB1094F0126B5FADF
:1092200085F4C4F11F0407EB840306FA04F4D3F8B1
:10923000340703689847A543F1D1F8BD003C0140CD
:10924000C0170020038A2DE9F047B0F80C901FFAF0
:1092500089F919EA03092BD005460E464FF000475D
:109260004FF00008B9FA89F327FA03F2D24391B21A
:109270001B3B298209EA0209042B16D8DFE803F018
:10928000352C231A0300B36A002B37D003F1FF3AC1
:109290001FFA8AFAC6F82880746A34B12368204617
:1092A000514698476468002CF8D1B9F1000FD9D124
:1092B000BDE8F0877068696B036889B29847B9F1B7
:1092C000000FCFD1F4E7B068A96B036889B2984763
:1092D000B9F1000FC6D1EBE7F068E96B036889B21A
:1092E0009847B9F1000FBDD1E2E73069296C0368F6
:1092F00089B29847B9F1000FB4D1D9E7E96A1FFAEA
:1093000081FAC9E7F0B5836993F8DC20012A8BB0B4
:10931000054627D0023A012A2FD893F84C21D3F8DA
:109320009C10174C62F07F030B708669D6F8A03052
:109330005F1C0FCCEC46ACE80F00D6F89C30CDE9B2
:1093400000370FCCACE80F0094E803008CE8030072
:10935000694606F110000EF0C5FCAB6919690A6A8E
:10936000002AFCD1D3F8A0305A8852BAEA819A88F0
:1093700052BA2A82DB885BBA6B8201200BB0F0BD47
:10938000681D0508F0B590F8DC30D0F8A060012B1E
:109390008BB004464BD015D8D0F89C304FF0FF323C
:1093A0001A605A609A60DA60D0F8E0300522B3F5AE
:1093B0007A7FC0F8F02054D8032380F8DC300120F5
:1093C0000BB0F0BD023B012BF9D890F84D31D0F82D
:1093D0009C203A4D63F07F031370D0F8A0305F1CDF
:1093E0000FCDEC46ACE80F00D4F89C30CDE9003747
:1093F0000FCDACE80F0095E803008CE80300694648
:1094000004F110000EF06EFC2269136A002BFCD1EF
:1094100073885BBAA4F8D030B3885BBAA4F8D230B2
:10942000F38801205BBAA4F8D4300BB0F0BD90F8FB
:109430004C2190F84D319B1A5B100133DBB206EBE7
:10944000430236F813305BBAA0F8D03053885BBAC9
:10945000A0F8D23093885BBAA0F8D43001200BB0CA
:10946000F0BD03691A7B2AB35B691BB390F898308F
:1094700003B390F84C31D0F89C20C4F8A40063F0FA
:109480007F03137090F84C1190F84D31D0F8A02064
:109490000B48C4F804015B1A07330121C4F8FC30FF
:1094A000D4F89C3084F800110A44C4E93D3284F8B1
:1094B000DC1084E7022384F8DC3080E7681D0508AF
:1094C00001800008114A002330B50360838002F157
:1094D0000C054FF448744FF0290E4FF0280C03EBA5
:1094E000430300EB430100F813C081F801E0D37897
:1094F0008B70AA428C8008D092F9063092F807C08F
:1095000092F808E054890632E9E730BD901D05085D
:109510002DE9F0430446406A344D006895B00E468C
:109520009146984645F0A8FC314B0193314B04938A
:1095300005F1CC030093217F0223029305F1C402BD
:10954000012300278DF80C3005920697002936D0AC
:109550008DF834308DF84830CDE90977330ECDE9F8
:109560000E77CDE9107785F8C5300523CDF82C901E
:109570008DF82070CDF830801397C6350793330CE3
:109580001D4F2B70330A6B70AE70D7F87807656A81
:109590000EF03CFB637FA88033BB05A928460EF084
:1095A000A1FB636A186845F067FCD7F87C070EF0EA
:1095B0002DFB636A9880404615B0BDE8F0838DF8B6
:1095C00034308DF848300423CDE90911CDE90E116E
:1095D000CDE91011CDF82C908DF82010CDF8308009
:1095E0001391C5350793CAE76946D7E7980100206C
:1095F000341F0020E98A0008C01700202DE9F0413F
:109600002F4F07EB401898F8A4340BB9BDE8F08150
:109610008C2303FB00730E4693F8822788F88A2474
:10962000002183F88217044645010EF097FAC0BB6B
:109630003D442448A5F8886400EB44100EF0D8F9A6
:1096400097F88130D5F8A024A3B1D5F88C14D2F8BE
:10965000A03001248C4003F1C001420010F4004FFF
:1096600090B202D15A6822435A600C339942F4D125
:10967000BDE8F081D5F88C44D2F8A03004F1100296
:109680000124944003F1C001420010F4004F90B255
:1096900002D15A6822435A600C339942F4D1BDE892
:1096A000F08197F8403C03EB430307EBC3032344EB
:1096B00093F8ED6B002EBBD0012388F88A34B7E70E
:1096C000C0170020481C002070B5214C94F8412C94
:1096D00094F8403C9A4236D194F8423CE3B194F875
:1096E000435C1C4B002040F20D3CB5B19A6899894F
:1096F00051601668196846F001061660A1F848C066
:109700008A8992B242F480728A8194F8422C0130A4
:10971000824203F11803E8DC70BD1A68118821F059
:1097200080010904090C11809988D162118889B2DD
:1097300041F0800111805562998A9689314389B23E
:1097400091819D82E1E744F04BF80028C4D170BDBF
:10975000C0170020042400202DE9F84F037D026883
:109760001F2B044608D95068A3F120052021A940E9
:10977000014206D1BDE8F88F1068202199400142CE
:10978000F8D04C494C4D4968C5F8041D95F8431C68
:10979000A66901BB8C2101FB0651D1F88807D1F8DD
:1097A00000C80768DCF80000B1F88CE720F0010081
:1097B000CCF80000B98989B221EA0E01B98195F887
:1097C0008110E9B91F2B68D9A3F1200120238B4018
:1097D000D360BDE8F88F8C2101FB0651D1F88817C2
:1097E0000F690868396821F001013960818921F425
:1097F00080710904090C818195F881100029E1D05C
:109800008C2706FB07F705EB070B2C49DBF80098C4
:10981000DBF8883707F118084846D3F800A08844D9
:109820003FF0C4FBD5F80C3D244901228BF8D42726
:10983000002B38D0BAF800309BB243F08003AAF86E
:10984000003074374FF0FF333944CAF82C3050469B
:109850003FF032FD8C2303FB065600234146C6F839
:10986000A43748463FF038FCD6F8003816225A6034
:109870001A6842F001021A60D6F88827B6F88C37C9
:10988000126891890B439BB293810A49237D4968F1
:109890002268C5F8081D1F2B96D8202101FA03F372
:1098A0009360BDE8F88F0FF03DF90449C5F80C0D41
:1098B000C0E700BF001000E0C0170020401F0020DC
:1098C000F8B5164D1648174F00214FF4DC7247F0DB
:1098D000CCFF05F274664FF0804105F5CB643A4643
:1098E000002301E054F8332091420BD001330A2BBE
:1098F000F8D100201C3543F087FDB5420CD055F857
:109900001C1CECE7084A02EBC3031C3593F80C0B54
:1099100043F07AFDB542F2D1F8BD00BFC01D050885
:10992000D02400200000014010190508274B5B6877
:10993000C3F308032DE9F041002B3BD1EFF3118372
:10994000C3BB0FF0CBF80546214F204E4FF0000867
:10995000D7F88440002C29DD00231A4607EB0321A9
:10996000013391F879119C4242EA0102F6D142EAB0
:109970000804E4B290467368C3F308039BB9EFF39D
:10998000118383B90FF0AAF8431BB3F5FA6F02DC19
:10999000B8F1000FDCD11CB197F8C83E542B0DD0A4
:1099A0002046BDE8F0810FF029F8EDE744464FF07E
:1099B0000008E0E70FF022F80546C5E7B7F8D03E0B
:1099C0000133A7F8D03E2046BDE8F08100ED00E06D
:1099D000C01700202DE9F041234D95F8412C95F852
:1099E000403C9A423AD1D5F88460002E12DD002422
:1099F00095F881701D48A046013417B1037E012BF4
:109A000027D002691368B44243F0010300F5807067
:109A10001360F1D1164B5B68C3F30803B3B9EFF3DE
:109A200011839BB90FF05AF8D5F8DC4E002C0BDDF2
:109A3000104A02EBC40411689388888908320343F2
:109A40009BB294428B81F6D1BDE8F0810EF0D6FF37
:109A5000EAE780F8F080FEF7B5FDD2E743F0C0FEFC
:109A60000028C0D1BDE8F081C017002048180020B0
:109A700000ED00E0A02600202DE9F04F2DED028B37
:109A8000C54F83B097F8813001932BB9012003B003
:109A9000BDEC028BBDE8F08FD7F8D836DFF8109315
:109AA00008EE103A07F5706307F5916A00934FF0DE
:109AB000000BD9F8F8315B4540F3E980DAF818304B
:109AC000DAF80450D3E93A84AD000FF02BF805F131
:109AD000085505EB481597F8C88E864604F1806155
:109AE00019F8F00C3939B8F1540F05EB811105EB79
:109AF000801301D1A7F8D20E994240F22D811A6845
:109B0000002A00F022811A6C002A00F03281D3F87A
:109B10008020002A00F02F81D3F8C02003F5807345
:109B2000002AE9D15D1B99424FEAA51540F2148144
:109B3000611B45294FF0000428BF452103EB81112B
:109B40009C46204626460DE01A6C002A40F0A8806C
:109B5000D3F88020002A40F0CE80D3F8C02003F54F
:109B600080732AB9994206D91A68002AECD040338A
:109B7000994200F29980112E344640F2F180D6F1DC
:109B8000150200F1ED808549D1F8D0309D4259F899
:109B9000EC3C38BFC1F8D050AEEB0301002918DB14
:109BA00003F5F42303F590739E4588BF0EF105037A
:109BB00049F8EC3C794B7949D3F8D030052B86BF76
:109BC000053BDBB2002309F8F03C4FF0FF33C1F84E
:109BD000D03042B100FA02F2C4F11404012000FABC
:109BE00004F444EA02006E4AC0F3C43302EB830378
:109BF000D3F8581B00F01F0302EB8303D3F8583B44
:109C000043EA0133C0F3441102EB8101C0F3842025
:109C100002EB8000D1F8582B43EA0213D0F8582BFE
:109C200043EA022383EA132282EA121202F00F02AD
:109C30000F2A7BD1B3F5803F78D2B8F1540F4FEAA9
:109C4000131304D1B7F8CC2E0132A7F8CC2ED7F8D5
:109C5000082FB3F5606F02F10102C7F8082F00F07A
:109C6000A980009A019993814E4B5C2018EE102A2E
:109C700000FB0B300DF008FF009B0BF1010B1433C0
:109C8000BBF1080F0AF1200A00937FF412AF464B94
:109C9000012201201A7103B0BDEC028BBDE8F08FE8
:109CA000803399427FF667AFA3EB0C029211541CEC
:109CB0003E4A82FB04C2A2EBE472012AB8BF012231
:109CC000904001241644013A04FA02F210431C4663
:109CD000226892B1226C002A4FD0D4F88020002A4A
:109CE0004DD0D4F8C02004F580743AB1A142EFD829
:109CF0009C46234636E7C0333AE74034A142F7D9C1
:109D0000E31A9B115A1C294B83FB02C3A3EBE2739A
:109D1000012BB8BF012398401E440122013B02FAE7
:109D200003F3184323469C4623461BE7B8F1540F20
:109D300027D0D7F8083F0133C7F8083FD7F8043FCA
:109D40000133C7F8043F00218EE740335D1B994281
:109D50004FEAA5153FF6ECAE10B1013809F8F00C4A
:109D6000B8F1540F88D1B7F8CE3E0133A7F8CE3EF4
:109D700082E78033D6E6C033D4E68034BEE7C03411
:109D8000BCE7B7F8CC3E0133A7F8CC3ED7F8083F84
:109D90000133C7F8083FD1E7C01700209801002021
:109DA00010190508D0270020C0270020565555550A
:109DB000B828002097F8402C02EB420207EBC202C1
:109DC0005A4492F8ED2B0D2A7FF44BAF009A01997B
:109DD0008023937748E700BF10B5044646F06AFF3A
:109DE00081B22046BDE8104008E400BF38B50B4DF5
:109DF00000EB400005F2C45303EBC00393ED027A7D
:109E0000D3ED037AE7EE007AC4002C44B0EE670A83
:109E100046F050FFD4F8C435186038BDC017002094
:109E20000A4608B5054920B905483FF009FB034833
:109E300008BD04483FF004FB004808BDB42A0020D8
:109E4000548A05087C8A050810B5044C04480A4663
:109E500021463FF0F5FA204610BD00BFB42A00208D
:109E6000A48A050810B5044C04480A4621463FF070
:109E7000E7FA204610BD00BFB42A0020B88A0508C2
:109E800010B5044C04480A4621463FF0D9FA204652
:109E900010BD00BFB42A0020C48A050838B590F868
:109EA0002830012B044604D0407F40B10023637763
:109EB00038BD406A03681A7B92B9637F0BB90120F1
:109EC00038BD0A4D0A49022305F53F720DF03AFFED
:109ED00095F8FD3203F0010383F001006377E7E7B3
:109EE0001B6A002BE9D0002038BD00BFB828002035
:109EF0006C02002010B504462046FFF7CFFF002873
:109F0000FAD0012010BD00BFF0B511F0010583B0FB
:109F10000AD190F82860012E044607D0C368B3F137
:109F2000807F01D90123237703B0F0BD0A4B476A34
:109F3000D3F878070DF06AFEE368B880B3F1807F4C
:109F4000F2D9B7218DF80410267733462A463846D1
:109F500001A90DF0F7FEE7E7C01700202DE9F04753
:109F6000089F884615460021202204461E4647F0D9
:109F70007CFC4FB13B68E3811B0C23827B687A89B0
:109F8000E3821B0C62822383404645F085F9EB0691
:109F900019D4431EB8B108EB000701E0013B12D30E
:109FA00017F801CDBCF12E0FF8D1C01A421E032ABA
:109FB000A8BF0322082B03F1010AA8BF082391467A
:109FC000C2441A4606E008280246C246A8BF082234
:109FD0004FF000094FF0203341462360636004F1E5
:109FE0000807204647F019FC174B23815146BB70E8
:109FF0004A46384647F011FC611EE31D11F801CFB7
:10A00000ACF1610EBEF1190F9CBFACF1200C81F8D0
:10A0100000C08B42F2D1384604F10B0110F8013B2D
:10A02000A3F16102192A9CBF203B00F8013C884241
:10A03000F4D118232373330CA382E572099B668342
:10A04000E361BDE8F08700BF2020200008B53FF0A5
:10A05000A9FD0C4B93F8851529220129A3F85E234D
:10A06000A3F8662301D0012008BD0748C3F888057E
:10A0700000F120014C3044F0EBF9044B002083F850
:10A08000230008BDB82800207002002000ED00E089
:10A090002DE9F04FDFF88894D9F8D806C9F8DC0626
:10A0A00087B0002B00F0DA8001F5FE781344DFF86A
:10A0B00074B40393164601F12007C24621E0002E36
:10A0C00064D0D9F80C37B34200F0CC80D9F8083707
:10A0D000B34200F0FF80D9F81037D9F81417B34213
:10A0E0004BD8B14200F29981711A204643F03AF8F8
:10A0F000039B01369E4207F500770AF5007A00F0CF
:10A10000AD80D9F81857B542A7F12004D7D8751BF0
:10A11000D9F8288705F00702EB080492D8F8302018
:10A120000233934203D3D8F8382093420BD94146E7
:10A130001846059342F0E6FF059B8046002800F094
:10A140008C81C9F8280798F80420002A40F034814F
:10A15000D8F82850002D00F07981D8F830209B1ACB
:10A16000049A02EBC303D8F80C20204602EB4322EA
:10A170004FF400714346A847BAE7B142B4D920462C
:10A180004FF40072002147F070FBB1E74FF400720A
:10A190003146204647F069FB802387F89E310C2327
:10A1A00087F8A231D9F80837D44AD9F80017C4F88B
:10A1B000C6319342C4F8CA1100F33481D04AD14C5D
:10A1C00082FB03021A44D817C0EB621284FB0254CC
:10A1D000CD4D85FB03C5C0EB2530C2EB821587F85A
:10A1E000A1015B1B801020F03F00013303431444A6
:10A1F00087F8A031D317C3EBE4142244BF4B87F890
:10A200009F214A1E9A4200F31981BD4BBD4883FB32
:10A2100002311144D317C3EB611180FB0140BA4CEA
:10A2200084FB0254C3EB2433C1EB811487F8A531BE
:10A23000121B9B1023F03F0301321343084487F89D
:10A24000A431CB17C3EBE010014487F8A3115523C9
:10A2500087F8DE31AA2387F8DF3149E7002007B00D
:10A26000BDE8F08F4FF0FF3384F8EC3184F8ED3126
:10A2700084F8EE3184F8EF31D9F82037C4F8E831AA
:10A280005223237063706123A37084F8E731412364
:10A290000025E37084F8E631722384F8E43184F811
:10A2A000E5314FF4F0722946A7F11C0047F0DDFAC2
:10A2B0005523C7F8D051C7F8D451C7F8D85184F8FE
:10A2C000FE316FF0550384F8FC5184F8FD5184F899
:10A2D000FF310DE700214FF40072204647F0C5FA28
:10A2E0008A4A03CA47F81D0CEB2007F8200C5820B7
:10A2F00007F81F0C902047F8191C07F81E0C0023C4
:10A3000002220821F820E372227307F8131CA273BB
:10A31000E37307F8102C07F80B0CD9F8080784F83A
:10A320002C20D9F800276376121A2262D9F8100778
:10A33000D9F81427E376121A3F2020764FF0FF3029
:10A34000A0763E20207701206377A377E37784F817
:10A350002D3084F82E3084F82F30626284F830007B
:10A3600084F8313087F82610802187F820102921C1
:10A3700087F82210942187F823100E2187F82410E3
:10A380000D21634A87F82510552187F8DE11AA218F
:10A3900087F8DF1103CA5F4BC7F82700C7F82B10F7
:10A3A00003CB1388A7F82F309378C7F83200C7F88B
:10A3B000361087F831309BE64FF4007200212046BA
:10A3C00047F053FA049B002B4ED1D8F84030002BB5
:10A3D00000F0AA80049AD8F830304F49CDE9002225
:10A3E00020461122FFF7BAFDD8F840301A6C002A37
:10A3F00000F0AD80049A1B6BCDE900224749112281
:10A400003846FFF7ABFDD8F8448007F120044FF43D
:10A41000E075B8F1000F3FD16AE6F11A204642F02C
:10A42000A1FE65E6FF2387F89F3187F8A13187F801
:10A43000A031324B4A1E9A427FF7E7AEFF2387F8DE
:10A44000A33187F8A53187F8A43100E729462046D3
:10A450004FF4007247F009FA4AE6A7F1240343F8E3
:10A4600004BF9A45FBD143E6D8F84030049AD8F8A7
:10A470004480002B0CBF01230223C3EB021543468B
:10A48000002B3FF435AE013D9B6CF9D198464FF45B
:10A490000075002B3FF42CAE254420342346203594
:10A4A0004446049698460EE05CF81C1B236BCDF8DE
:10A4B00000C000260196FFF751FDA46C08F12008AA
:10A4C000CCB1A84517D02379A44604F11C0E112263
:10A4D000A8F12000002BE7D162792669236B21685F
:10A4E00042F02102CDE900E6FFF738FDA46C08F147
:10A4F0002008002CE5D1049EFAE500BFFF03FB0015
:10A50000832008828180808097554541DC8A050838
:10A51000E88A0508F48A0508D48A0508D88A050857
:10A52000C0170020DEADBEEF049BD9F80417CDE9BB
:10A53000003320460822FFF711FDD8F84480B8F117
:10A54000000F3FF4D5AD3C464FF4F075A4E7049BF3
:10A55000CDE9003352E700BF144B154910B504464E
:10A5600018681B79206284F82430152204F1250034
:10A5700047F0BBF90F4B93F88C254FF0010E84F890
:10A580003AE012B984F83B2010BD03F5B26CBCE888
:10A590000F0020606160A260E360BCE80F0084F8F7
:10A5A0003BE020616161A261E36110BD008B0508A1
:10A5B000088B0508B828002010B500213822044671
:10A5C00047F053F90D490E4A0E482061C4E90512BF
:10A5D0000D480E4AE061012341F61E614FF0090C5F
:10A5E000E18484F808C0A37384F82130A262214674
:10A5F0000748BDE810402CF0AFBF00BF1A046C073D
:10A60000001975036400DC0543080E001E7D01017E
:10A61000188B05082DE9F043002483B0064604801A
:10A6200021463046013434F0A7F9082CF8D1002334
:10A63000DFF8688086F8EA30C6F8EC30C6F8F0300B
:10A64000C6F8F430C6F8F8301F46FC3699463A464C
:10A65000414601A804F02AFE3546032401AA12F857
:10A66000013B6BB1013C05F8013BF8D10137082FE4
:10A6700085F8009006F10406E9D103B0BDE8F08347
:10A680002846224620212544013747F0EEF8082FBE
:10A6900085F8009006F10406D9D1EEE7248B050871
:10A6A000274A92F8423C7BB3D2F8441C884237D008
:10A6B000012B29D0D2F85C1C814235D0022B23D04B
:10A6C000D2F8741C884231D0032B1DD0D2F88C1CD8
:10A6D00088422DD0042B17D0D2F8A41C884229D050
:10A6E000052B11D0D2F8BC1C884225D0062B0BD0EC
:10A6F000D2F8D41C884221D0072B05D0D2F8EC1C0C
:10A70000814208BF07230CD003EB430102EBC101D8
:10A7100003F1010CC1F8440C82F842CC1846704792
:10A720000023DBB2184670470123FAE70223F8E75B
:10A730000323F6E70423F4E70523F2E70623F0E713
:10A74000C0170020F8B52B4F8C2505FB007595F838
:10A750008F3703B9F8BD04460E460DF0FFF938BB3C
:10A760008C2505FB04752448A5F8806704EB840458
:10A77000C4EBC40400EB84000DF03AF997F8433CB5
:10A78000024623BB1D4BD5F80808D3F8B03501218C
:10A790009847D5F80418B5F88C478A8AD5F8003858
:10A7A00022438A8258601A6842F001021A60F8BD9A
:10A7B00097F8403C03EB430307EBC303234493F8B0
:10A7C000ED6B002ECCD0012385F88237C8E7D5F891
:10A7D0008837D5F804185B790869084903F0FC0349
:10A7E0001844D1F8B03504219847D5F804388000D2
:10A7F0009881F8BDC0170020401F0020B828002015
:10A80000F8B5D0F8805086680446284637683EF090
:10A81000CDFB002284F8542038467179FDF7FCFE08
:10A82000717904F16002FDF789FF71790822FDF763
:10A83000F3FE4023636204F1180128463EF04CFC0D
:10A840002B6843F010032B60F8BD00BF2DE9F04FDB
:10A850006A4F2DED028B97F8814085B034B9012401
:10A86000204605B0BDEC028BBDE8F08FD7F8D83696
:10A8700008EE103A0EF056F9614A029092F8E83567
:10A88000002B00F0B58107F5F065A2F1E80A07F5A5
:10A89000706B00260FE02846FFF7B2FF584B93F885
:10A8A000E83501369E4205F18C050AF15C0A0BF190
:10A8B000140B80F2A980D7F80C3D029AD31A03D466
:10A8C000AA6D9342C0F27D818C2303FB067393F83B
:10A8D000D43703F0FF020192002BDCD0AB68A989CA
:10A8E0001A68D5F880305B681FFA83FE9389CEF131
:10A8F000160E9BB223EA0103BEF1070F9381CAD95A
:10A90000D7F8083F0133C7F8083FD5F888300393DC
:10A910009C46002201215CF8044B904689461BE0CE
:10A92000DCF80000B8F1140FA0EB04031DDC13F1F8
:10A93000080448BF03F11704231108EB2418044648
:10A94000581E013102FA03F38E4509FA00F242EA79
:10A9500003020CF1040C08D38E45E1D8C8F11503AD
:10A96000DCF800404FF01508EAE7B8F1150F39D1CF
:10A970002448C2F38423C2F3441100EB830300EBA9
:10A980008101D3F8D83BD1F8D81B1B0243EA01134D
:10A9900002F01F0100EB8101C2F3C43200EB82021E
:10A9A000D1F8D81BD2F8D82B0B4343EA023383EA01
:10A9B000132282EA121202F00F020F2A12D1C3F3FD
:10A9C0000F134FF6FF7293420CD0B3F5606F00F097
:10A9D000FF80ABF80C30019918EE102A50460DF0AC
:10A9E00053F858E7D7F8043F0133C7F8043F002E67
:10A9F00000F0E08000230193EDE700BFC0170020C6
:10AA0000B8280020101905087D4801220021027194
:10AA1000C7F80C1D002B3FF422AF97F89017890759
:10AA200000F1BE80D7F88817086849798A40018C00
:10AA300092B289B221EA02010184018C89B20A43EF
:10AA4000012B02843FF40BAF97F81C2812F0020F81
:10AA5000D7F8142810685479018C0CBF0122042205
:10AA6000A24092B289B221EA02010184018C89B22A
:10AA70000A43022B02843FF4F2AE97F8A82812F0A2
:10AA8000020FD7F8A02810685479018C0CBF01225E
:10AA90000422A24092B289B221EA02010184018C0F
:10AAA00089B20A43032B02843FF4D9AE97F83429C4
:10AAB00012F0020FD7F82C2910685479018C0CBFC2
:10AAC00001220422A24092B289B221EA0201018449
:10AAD000018C89B20A43042B02843FF4C0AE97F87C
:10AAE000C02912F0020FD7F8B82910685479018CE8
:10AAF0000CBF01220422A24092B289B221EA0201D3
:10AB00000184018C89B20A43052B02843FF4A7AE6D
:10AB100097F84C2A12F0020FD7F8442A106854799B
:10AB2000018C0CBF01220422A24092B289B221EA18
:10AB300002010184018C89B20A43062B02843FF48E
:10AB40008EAE97F8D82A12F0020FD7F8D02A1068E4
:10AB50005479018C0CBF01220422A24092B289B226
:10AB600021EA02010184018C89B20A43082B028484
:10AB70007FF475AED7F85C2B97F8643B1168507979
:10AB80000A8C9B074CBF0423012383409BB292B2E3
:10AB900022EA03020A840A8C92B213430B845EE613
:10ABA000D7F8882710685479018C0422A24089B212
:10ABB00092B23FE703991348582246F02EFE0196C1
:10ABC00009E70024204605B0BDEC028BBDE8F08FFC
:10ABD00097F8402C02EB420207EBC202324492F893
:10ABE000ED2B0D2A7FF4F5AE80238BF81E30F2E6B4
:10ABF00007F5805201211171C7F80C3D30E600BF06
:10AC0000C02700206C27002043680B4A23F04073C4
:10AC100023F4807343F48073436083681A4042F0E6
:10AC200002028260C36A0139CAB223F4700141EAA8
:10AC30000251C162704700BFFDF7FFC0704700BFFF
:10AC40000020FDF7EFB900BF0120FDF7EBB900BF11
:10AC50000220FDF7E7B900BF10B1036882881A83AC
:10AC6000704700BF10B1036882885A83704700BFE5
:10AC700010B404698269E468416814604024D460B7
:10AC8000446900230C31C2E90433C2E90633C2E946
:10AC90000833C2E90A33C2E90C339360936351600D
:10ACA00084B1C269E0689363C2E90233C2E9043344
:10ACB000C2E90633C2E90833C2E90A33C2E90C33F8
:10ACC000C2E900015DF8044B704700BF43680022F1
:10ACD0001A60037D1F2B08D9203B2022016802FA4D
:10ACE00003F343F01803CB6070472022016802FA97
:10ACF00003F343F018038B60704700BF0268136AC8
:10AD000011B1D96901B3143330B49C681D689169DD
:10AD1000DDB14FF4806088618D60104640690C6140
:10AD200080B15968D369D9B10A464FF480619A60FD
:10AD30009961224312F0010F14BF00224FF4005218
:10AD40001A621C6130BC704770478D61064D4FF030
:10AD5000FF0C85F840C105F5A07500688D60DDE742
:10AD6000024A9A609961E4E798010020A82E002029
:10AD70000168F8B5D1E9042304465568002B49D091
:10AD80009861107D5E681F2831D81768202202FA6A
:10AD900000F040F01800B8601A7D1F2A32D91868F8
:10ADA000203A202303FA02F242F01802C260002384
:10ADB0002B6033603368896943F0100333602846A1
:10ADC0003EF08AF923683046D9693EF085F92B6850
:10ADD000226843F001032B603368526843F001039B
:10ADE000336093889BB243F003039380F8BD1768E8
:10ADF0002038202202FA00F040F01800F8601A7D96
:10AE00001F2ACCD81868202303FA02F242F0180255
:10AE10008260CCE7137D90611F2B1CD81068202224
:10AE200002FA03F343F01803836000232B602B68BE
:10AE3000896943F010032B6028463EF04DF92B68DA
:10AE4000226843F0010352682B6093889BB243F061
:10AE500002039380F8BD1068203B202202FA03F31E
:10AE600043F01803C360E0E72DE9F041794E07464F
:10AE700001253C6897F888806368B8881A8884F848
:10AE8000245022F040021204120C1A8022898242BD
:10AE90001AD0B0F5807F0246A8BF4FF48072022A14
:10AEA0001988B8BF0222002A92FAA2F2B2FA82F2FC
:10AEB00089B208BF4FF0FF32013A21F0380141EA70
:10AEC000C20292B21A802081397BA27A8A420CD0C7
:10AED0001A8822F003021204120C1A801A8892B205
:10AEE000002900F092801A80A1721A8892B242F072
:10AEF00040021A80226A9168002900F0A1804FF078
:10AF0000000C1432E64652F8100C8E4400EA06019A
:10AF100020B1B1F1805F23D0616909B352F8140CFC
:10AF2000143200EA060110B1B1F1805F18D052F876
:10AF30000C1C0CF1010C0029E5D1227B82B1B8F187
:10AF4000000F0DD0BCF1010F6DD8BEF1070F6AD80C
:10AF50000CEB8C018900226A11440A7B002A62D022
:10AF6000226A92684FF00008002A51D0B8F1000F11
:10AF700002D098F80C2022B1BA6812B111689288F8
:10AF80004A83226AD2F800E0226A5168226A9268F3
:10AF9000501E9AB1BEF1000F23D01EF801CB1A89C2
:10AFA0009207FCD5A3F80CC01A89D207FCD59A8960
:10AFB00092B209B101F8012B0138EBD2236A1B7B55
:10AFC000E3B9236A1B697BB1236AD7F894001B6934
:10AFD000984701280DD0022806D100232362BDE83E
:10AFE000F0814FF0FF0CDAE7D4F82080236A1433A5
:10AFF0002362236A9B685BB16368B7E7BB68002B79
:10B00000DFD01A689B881383DBE742F003026AE70C
:10B01000236A1B68DBB1236AD3E900722262002233
:10B02000C3E9002225E700213846FFF767FEBB6829
:10B0300013B11A689B8853833846BDE8F04197E600
:10B04000227B002A8CD0B8F1000F84D188E72362DC
:10B05000C5E700BF0000FFFF10B40C4C002304F252
:10B06000F45C01E0152B0CD003EB430201331CF818
:10B0700002108142F6D122445DF8044B92F9F605A4
:10B0800070474FF0FF305DF8044B7047B828002040
:10B0900070B502EB4202104C4FEA820E4FF0000CEA
:10B0A00022460EF10805634604E00133172B11D048
:10B0B00012F81CCF6045F8D192F801C08C45F4D14C
:10B0C0005659002EF1D0C3EBC3030EEB8303181DBA
:10B0D000204470BD002070BD6825050830B502EB26
:10B0E0004202104D104C4FEA820C0CF10C0E2A4615
:10B0F000002304E00133172B11D052F82C4FA0424B
:10B10000F8D114798C42F5D152F80E40002CF1D0D0
:10B110002C2000FB03C303F10800284430BD0020AD
:10B1200030BD00BF10190508000001400348D0F8E9
:10B13000543113B100F5A2701847704798010020F0
:10B140000348D0F8783113B100F5B4701847704750
:10B15000980100200348D0F89C3113B100F5C67067
:10B1600018477047980100200348D0F8C03113B148
:10B1700000F5D87018477047980100200348D0F8B0
:10B18000E43113B100F5EA701847704798010020C8
:10B190000348D0F8083213B100F5FC701847704727
:10B1A000980100200348D0F82C3213B100F5077045
:10B1B00018477047980100200348D0F8503213B167
:10B1C00000F5107018477047980100200348D0F828
:10B1D000743213B100F519701847704798010020B8
:10B1E0000348D0F8983213B100F522701847704721
:10B1F000980100200348D0F8BC3213B100F52B7041
:10B2000018477047980100200348D0F8E03213B186
:10B2100000F5347018477047980100200348D0F8B3
:10B22000043313B100F53D701847704798010020B2
:10B230000348D0F8283313B100F54670184770471B
:10B24000980100200348D0F84C3313B100F54F703B
:10B2500018477047980100200348D0F8703313B1A5
:10B2600000F558701847704798010020094B0A4AAA
:10B27000013800EBC00003EB8000116BD0F84431C3
:10B28000064883420CBF4FF400134FF480030B4376
:10B2900013637047980100200038024000600240AC
:10B2A00070B501383C4C3D4D00EBC00C04EB8C0CF0
:10B2B0009646DCF844613A4AAE420CBF4FF40015A2
:10B2C0004FF48005166B35431563CCF85411CCF858
:10B2D0005C313449DCF848318B424FEAC0023ED041
:10B2E00001F580618B423AD0A1F57A718B4247D04B
:10B2F00001F580618B4243D0A1F57A718B4241D038
:10B3000001F580618B423DD0A1F57A718B4235D039
:10B3100001F580618B4231D0A1F57A718B4233D037
:10B3200001F580618B422FD0A1F57A718B422DD02F
:10B3300001F580618B4229D0A1F57A718B4227D02B
:10B3400001F580618B4223D0A1F57A718B4221D027
:10B35000154D01F580618B4218BF002500E0134DAB
:10B36000104404EB8003CEF38711C3F8645193F8C3
:10B370005901BDE87040002242F0D8BC0C4DEFE707
:10B380000C4DEDE70C4DEBE70C4DE9E70C4DE7E715
:10B390000C4DE5E7044DE3E7980100200060024012
:10B3A0000038024010600240008000282080001019
:10B3B00000800018008800100080201020800020ED
:10B3C00000880020008020200120FDF71DBF00BF65
:10B3D0000220FDF719BF00BF0420FDF715BF00BF15
:10B3E0000820FDF711BF00BF1020FDF70DBF00BF03
:10B3F0004FF47870FDF708BF4FF47C40FDF704BFB1
:10B4000030B50C4683B0054618B3036803F13F43DB
:10B4100003F57E039B0A104A134493F8DC0E41F0B7
:10B42000F3FFA988009104F00303C4F381028DF8AF
:10B43000043028688DF80520C4F300136946C4F36E
:10B4400041148DF806308DF807403DF017FD03B02C
:10B4500030BD4FF0FF33DEE71019050800B1CFE72C
:10B46000704700BFF8B5CB7813B900252846F8BD62
:10B4700000F110070C460646897838460CF0F0FBC0
:10B4800005460028F1D0E0780CF086FFB061237803
:10B490000133DBB210B1C371222383710921FFF79D
:10B4A000DDFFB069FFF7D8FB0D4AD2F8D836632B21
:10B4B000FBD90C480CF0AAFBB08238463BF00CFBE1
:10B4C000074630B9E0780CF067FF0CF0C5FF3D4649
:10B4D000CCE7306986F8D87043F0D2FCC6E700BFED
:10B4E000C017002040420F0038B50C4BD3F834563B
:10B4F00005440446A87D0CF04FFF68B12E220134AC
:10B500008271C4710121FFF7A9FFA87D0CF044FFEF
:10B5100010B1036882885A8338BD00BFB828002064
:10B52000F8B5044690F8210100B9F8BD0CF034FFDD
:10B53000054600287FD08388404AB3FA83F326214A
:10B54000202BC180C3F11F00E260EED03C4A3D4990
:10B5500002EB80020C340144C2F834474FF0004241
:10B5600032FA03F391F8E46E05D0374A116821EA04
:10B5700003011160536100212846FFF741FFAB88AA
:10B580002A68B3FA83F3C3F11F0000F0FC0101F154
:10B59000804101F59C3102F13F4202F57E0200F04C
:10B5A00003008C6880000F27C2F38722824007FACD
:10B5B00000F024EA00008860886802438A60224A1A
:10B5C000224811684FF0004424FA03F321EA0301F2
:10B5D0001160516821EA030151601D49D1F8007CD6
:10B5E0001F43C1F8007C976827EA03079760D76874
:10B5F00027EA0307D760D1F8082C30441A43C1F872
:10B60000082C90F83826F02A06D8002B8DD00E4949
:10B610000A6813430B60F8BDF02380F838360D4BF1
:10B620000022985D032142F081FBAB88B3FA83F3DB
:10B6300024FA03F3E9E7014BE360F8BDF58F000856
:10B64000C017002010190508003C0140B828002050
:10B6500000300140B88B05080E4B70B5D3F8F86187
:10B66000002E14DD0C4C002503E0B54204F120044B
:10B670000DD0237F0135002BF7D0E0680028F4D0EF
:10B68000217DFFF7BDFEB54204F12004F1D1012078
:10B6900070BD00BFB8280020481C002070B50C46C3
:10B6A00082B015460646002839D0036803F13F43AF
:10B6B00003F57E039B0A1B4A134493F8DC0E41F00A
:10B6C000A3FEB2880092B2FA82F304F003028DF86E
:10B6D0000420C4F3810230688DF80520C3F11F03F4
:10B6E000C4F30012C4F341148DF80740C3F3CC0433
:10B6F00000EB840403F007038DF806209B00226A08
:10B700000F269D4006FA03F322EA03032362226A0E
:10B710001543694625623DF0B1FB02B070BD4FF0A4
:10B72000FF33C8E71019050800B1B7E7704700BF3D
:10B730002DE9F043774D05EB001683B0D6F840367F
:10B74000002B00F0938004464FEA001896F8480654
:10B7500041F05AFE96F84836590903F01F020329B2
:10B760004FF0010303FA02F300F09880042900F07F
:10B77000858002297DD005EB0803013493F8440647
:10B780000CF00AFEE4B2814610B112238371C47139
:10B7900005EB080393F845060CF0FEFD074610B1D3
:10B7A0001323C471837105EB080393F846060CF06C
:10B7B000F3FD064610B11423C47183714544484615
:10B7C00095F8472601924A21FFF7AEFF019A3846C5
:10B7D0002A21FFF7A9FF019A0A213046FFF7A4FFAB
:10B7E000D5F840264C4B9A425DD04C4B9A424AD0F9
:10B7F0004B4B9A4262D04B4B9A426AD04A4B9A4288
:10B8000072D04A4B9A427AD049499088B1F886431F
:10B81000B1F88433B1F88E532343B1F888432343FE
:10B82000B1F88A4320F003002343B1F88C430004AD
:10B83000000C2343B1F8904390802B43108823439E
:10B84000B1F89243B1F8941300F4415023430343F9
:10B850009BB21380938B23F400631B041B0C938314
:10B86000118213889BB243F04003138003B0BDE8FC
:10B87000F083304A516A0B4353627CE72D4A1169C9
:10B880000B43136177E703F50033196A41F48041F4
:10B890001962196A21F480411962B5E7254A116AD3
:10B8A0000B43136267E703F58433596A41F480510F
:10B8B0005962596A21F480515962A5E703F5FE33B4
:10B8C000196A41F400411962196A21F400411962B0
:10B8D0009AE703F58233596A41F400515962596A73
:10B8E00021F4005159628FE703F56843596A41F426
:10B8F00080115962596A21F48011596284E703F575
:10B900006443596A41F400115962596A21F40011E3
:10B91000596279E7B8280020003001400038004023
:10B92000003C004000340140005001400054014000
:10B930009801002000380240431C00F0A8802DE947
:10B94000F04F00EB8003C44FDA0087B057F8029045
:10B9500081000546019107EBC303B9F1000F04D044
:10B960009C68002C4BD0A17911B107B0BDE8F08FD5
:10B97000D3F80CA0BAF1000F00F095819AF80630C8
:10B98000002BF2D11832B818D9F80480BB50691CCA
:10B99000C0E90133C3601523A371C9B21623E17155
:10B9A0008AF807108AF8063099F8180041F02CFD43
:10B9B000B8F804302268A18823F440731B041B0CE0
:10B9C000A8F80430DAF800301183BAF804201A839A
:10B9D00011212046FFF714FD11215046FFF710FDFD
:10B9E00009264FF0330B24B12268A1881069014267
:10B9F00031D1BBF1010B45D042F0F0F8F3E7D3F8B9
:10BA00000CA0BAF1000F00F0A4819AF80630002BC8
:10BA1000ABD11832BB18D9F80480BC50C3E901443B
:10BA2000DC6016238AF806306B1C8AF8073099F818
:10BA3000180041F0E9FCB8F80430BAF8042023F407
:10BA400040731B041B0CA8F80430DAF800301A838A
:10BA5000C2E7A1882268518342F014F92368A288C2
:10BA60001A8342F00FF9013EBBD1332624B123687B
:10BA7000A28819690A420DD1013E00F0FB8042F014
