:020000040800F2
:10000000F0FF00100D7C0608D101060899060208D1
:10001000AD7C0608AD7C0608AD7C0608000000003B
:10002000000000000000000000000000D5010608EC
:10003000D901060800000000DD010608B5B401087A
:10004000AD7C0608AD7C0608AD7C0608AD7C0608D4
:10005000AD7C0608AD7C0608E5B00008EDB00008F0
:10006000F5B00008FDB0000805B10008B1AD00080A
:10007000C5AD0008D9AD0008EDAD000801AE00081F
:1000800015AE000829AE0008AD7C0608AD7C060858
:10009000AD7C0608AD7C0608AD7C06080DB10008F5
:1000A00061C70008C1C6000871C70008B1C60008D2
:1000B000E9C60008F9C6000809C7000899A40008A5
:1000C00035BD0008A1A4000839BD0008AD7C0608B4
:1000D000AD7C0608E9AD0108EDAE0108F1AF0108FD
:1000E00015B10008AD7C06089937060881C70008DD
:1000F00039C7000891C7000829C700083DAE0008AD
:10010000AD7C0608AD7C060819C70008AD7C060862
:10011000F5B00108F9B10108AD7C0608AD7C060810
:1001200051AE000865AE000879AE00088DAE00083B
:10013000A1AE0008AD7C0608AD7C0608AD7C0608C3
:10014000AD7C0608AD7C0608AD7C0608E10106081A
:10015000B5AE0008C9AE0008DDAE0008FDB201086A
:10016000A9A400083DBD0008AD7C0608AD7C0608CA
:10017000AD7C0608AD7C0608AD7C0608AD7C0608A3
:08018000AD7C0608AD7C060809
:10800000074BD0F8E4105B68D0F8F0205B1A9A4276
:10801000B8BFC0F8F030012380F81C310020704751
:10802000001000E0B94B00EB8002F0B503EBC20595
:1080300053F832205268918ACC074FEA800C74D4EE
:10804000CCB2A70743D5BFF35F8F297F0129CCB2FC
:1080500000F0E5804100148BBFF35F8F0CEB000450
:1080600003EBC404257F022D00F005810CEB000416
:1080700003EBC404257F032D08D1A47F34B10C1871
:108080001C4494F87850002D40F05F819488A4B28D
:1080900044F4806494800C181C4494F97AE00CEB4E
:1080A000000403EBC404247F013474450ED1014461
:1080B0001944002481F8784091F87910002940F0A3
:1080C000D380604403EBC00300225A76F0BD6607FC
:1080D00062D414F0400400F0E28000EB4001194447
:1080E000148A91F97AE06E6AE4B206F80E405FFAFB
:1080F0008EF6741C64B22F7F81F87A40E51CAF4283
:108100004FEA4001A64600F046810CEB000503EB68
:10811000C5052D7FAC42C2D10C1806F1020E1C44DD
:108120004FFA8EFE84F87AE0B9E7118821F40061F5
:108130000904090C1180118889B241F48061118011
:1081400000EB40041C44AE7F002184F87A1041000B
:10815000002E53D094F87840002C4CD00CEB000447
:1081600003EBC4040144247F19440125022C81F847
:10817000785004D1118889B241F4006111800CEB70
:10818000000103EBC101897E41F0010111826044CD
:1081900003EBC0031B7FF0BD00EB400E9E44AC7FA1
:1081A00001218EF8791000FA01F1002C00F0838093
:1081B0009EF87840002C40F084800CEB000403EB28
:1081C000C404647F002C00F0C3800D181D44148883
:1081D00095F87AE0A4B244F400740EF1010E148014
:1081E0004FFA8EF485F87A40B2F800E01EF4807FF2
:1081F000FAD1A64653E7EC7EFF2CAFD00CEB00047F
:1082000003EBC404A57E05F0FE051582E27EFF2A7D
:10821000BDD001441944FF2281F87A20B7E7A97F35
:1082200000293FF417AF00EB40051D44410095F8CD
:108230007860002E3FF40FAF168826F4806636046F
:10824000360C1680BFF35F8F85F87940148B148845
:1082500095F97AE0A4B244F4007414809488A4B22E
:1082600044F4806494801AE7918821F440710904F1
:10827000090C918025E7A47F002C3FF4F7AE0C1881
:108280001C4494F87850002D3FF4F0AE94F97AE055
:10829000148824F480642404240C14804EE01FFA13
:1082A00081FE1EF0800F33D100EB40041C444100DE
:1082B00094F97AE0F3E69EF87840002C3FF47DAF25
:1082C00083E72C7F022C14884FD924F48064240483
:1082D000240C1480178A6E6A9EF97A40FFB23755D3
:1082E0006F6A1588ADB245F400751580E4B2168A40
:1082F000651C6DB2F6B27E5595880234ADB264B29B
:1083000045F480658EF87A4095806DE7101A00205C
:1083100000EB40071F44410097F97A60B6F1FF3F38
:1083200040D02C6AA45D14822C7F06F1010E4FFA16
:108330008EFE744587F87AE07FF4B1AE948824F419
:1083400080642404240C9480A9E694F97AE0F5E78B
:108350001488A4B244F4807414800C181C440125C1
:1083600084F8785094F97A403EE7A4B244F400745B
:108370001480168A6F6A9EF97A40F6B23E55E4B2CE
:108380006F6A168A651C6DB20334F6B264B27E550C
:108390008EF87A4028E7958825F480652D042D0C09
:1083A0009580B2E6E97E1182A97F87F87A4019B9F3
:1083B000297F00297FF4EBAE918821F480610904C4
:1083C000090C9180E3E600BF1B4B01681B4A03F5D3
:1083D000727C03E063452CD053F82C2F9142F9D1E5
:1083E00070B593F804E0427996450AD0634505D00C
:1083F00053F82C2F9142F4D06345F9D14FF0FF3060
:1084000070BD9E468468DEF80C50A5424FF0000215
:1084100008D00132032A0EF10C0EE7D0DEF80C5022
:10842000A542F6D1DEF81050C668B542F1D150B27F
:1084300070BD4FF0FF30704788970608000001407C
:1084400030B5EAB18E464FEA014C034600F1C00553
:10845000002419689A6841EA0C0142EA0E029A6007
:10846000C3E900140C33AB42F3D1D0F8C030C0F8EC
:10847000C44043EA0E03C0F8C030C0F8C84030BD65
:108480004FEA014E8C46E0E783691969B3F80CC0E6
:108490000A6830B49C6822F0010224680A60A2894C
:1084A00092B222EA0C02A281027D04681F2A06D938
:1084B0006568203A08209040284245D0FEE72568AC
:1084C000082090402842F9D1202000FA02F2A26050
:1084D000264A1278002A35D01A7E012A39D0D3F8DC
:1084E000F4200132C3F8F420EFF31181502282F31B
:1084F000128858685C6C026822EA04029C6C224371
:10850000C9B2026081F31188D3E90C401A699968F5
:108510001D6C096814605061D3E90E40546090608E
:108520000024B3F8A800D5604C62C862106801242A
:10853000204310601C7683F8F1408A899B8913439D
:108540009BB28B8130BC7047202000FA02F2E260BF
:10855000BEE7002283F8F120D3F8F8000A68013062
:1085600022F00102C3F8F8000A60EBE704000010F3
:1085700010B40C4C6368002B11DD002004F1080CD2
:108580000146DCF8A03003F1C00259600C3393427D
:10859000FBD16368013083420CF5807CF1DC5DF82F
:1085A000044B704704000010F0B5494C04EB401C2C
:1085B0009CF8242402B9F0BD464B4FF08C0E0EFB04
:1085C000003E93F8E46493F8E5249EF886708CF8F6
:1085D0000A7496424FF0000C4FEA40158EF886C0A0
:1085E0000ED002EB420C03EBCC0C57009CF8E8C415
:1085F0000CF1FF3EBEF1010F5CD9BCF1030F53D06B
:108600006019A0F80814EFF31182902383F3128805
:1086100090F80A34B0F8081443EA41030021D2B2BA
:108620009BB280F80A1482F311881A09217882EA31
:1086300013225A40D9B1D0F82044D0F80C14D4F801
:10864000A040D2431B019BB202F00F0201208840E0
:10865000134304F1C0015A0013F4004F93B202D146
:108660006268024362600C348C42F4D1F0BDD0F8F1
:108670002014D0F80C04D1F8A0401B0100F1100127
:108680009BB202F00F0201208840134304F1C001A5
:108690005A0013F4004F93B202D162680243626041
:1086A0000C34A142F4D1F0BD02F1010C0CF0030C2A
:1086B000B445A5D03A4403EBC202131893F8F5145D
:1086C00000299DD06319012283F80A2498E700BF8E
:1086D00004000010101A0020704700BF024B03EB8B
:1086E000401090F825047047040000104368B0F86B
:1086F000502010B41A83EFF31182502383F31288B1
:108700004168446C0B6823EA0403C46C2343D2B26F
:108710000B6082F31188D0E907418268036912680F
:108720001C605961D0E909415C60C46A9960B0F885
:108730006010DC600023D1625DF8044B0376704763
:1087400010B4037D01681F2B09D94C68203B2022FF
:1087500002FA03F31C4215D15DF8044B70470C6814
:10876000202202FA03F31C42F6D00D4A406800248E
:1087700082F8484502685DF8044B22F0010202606D
:108780008B607047064A4068002482F848450268BA
:108790005DF8044B22F001020260CB60704700BF1D
:1087A000101A0020704700BF0B4890F83C1589B1A3
:1087B00001EB4101002310B4490000F244501C4673
:1087C00050F82320063302B114608B42F8D15DF8D3
:1087D000044B7047704700BF040000100B4890F82E
:1087E0003C1589B101EB4101002310B4490000F2AE
:1087F00044501C4650F82320063302B114609942BD
:10880000F8D15DF8044B7047704700BF04000010BA
:1088100001207047034B00EB400003EBC00090F8D1
:1088200055057047040000101F4890F83C35002B98
:1088300039D000222DE9F04300F244531B4E1C4D69
:108840004FF0500E4FF02C0C144607E053F8181B55
:108850000C6090F83C150132914222DD197C002910
:10886000F4D05F68B90AA1F5801105EB010952291E
:108870004FF0FE0898BF99F8F483EFF311898EF357
:108880001288796A0CFB08680131C8F87415B98A36
:1088900089B241F001015FFA89F8B98288F3118841
:1088A000D4E7BDE8F083704704000010101A0020E0
:1088B0008897060807EE900AB8EE670A704700BF6F
:1088C000BCEEC00A10EE103A98B270470D4B0E493C
:1088D000DB68DB43C3F30223C3F104030122DBB2F1
:1088E00002FA03F301EB000C1B0103F0F0038CF818
:1088F0000033430900F01F0002FA00F041F82300A2
:10890000704700BF00ED00E000E100E0037D1F2B99
:1089100008D90268203B5168202202FA03F3194269
:1089200014D1704701682022096802FA03F3194242
:10893000F7D00D4A41684FF0000C82F8B4C70A68BE
:10894000006822F001020A6083607047064A4168AD
:108950004FF0000C82F8B4C70A68006822F00102E8
:108960000A60C360704700BF101A0020122301483C
:108970000B80704788010020042301480B8070475A
:108980009C0100202048D0F8103AD0F8182A30B5C1
:108990009B184FF01A040C8001D11C4830BD1B4AB3
:1089A000D0F8141A4FF0000E10467546B3F1204F60
:1089B0004FEA137C0CF130040EF1020E2ABF0CF1C9
:1089C000370C847080F802C0BEF1100FC5704FEAFA
:1089D000031300F10200E9D100200446B1F1204F59
:1089E0004FEA117303F1300C00F102002ABF373354
:1089F00082F812C093740828D4744FEA011102F16E
:108A00000202EBD1014830BD0070FF1FA001002021
:108A100082B01F4B002201920193019B1D4A043337
:108A20000193019B1968936803F00C03042B07D092
:108A3000082B0AD0184B194AC3F8B82702B0704760
:108A4000154BC3F8B81702B070475368506813F459
:108A5000800F00F03F00536813D1C3F388130F4910
:108A6000B1FBF0F101FB03F30A4A0B495268C2F370
:108A7000014201325200B3FBF2F3C1F8B83702B041
:108A80007047C3F38813B1FBF0F101FB03F3EBE78D
:108A90005028004000380240101A00200024F40042
:108AA00038B5074BD3F8BC371B6A14460D469847B8
:108AB0004FF4007302682A600020236038BD00BFB5
:108AC000101A002008B5074BD3F8BC3733B15B69E7
:108AD000984780F00100404240B208BD4FF0FF309F
:108AE00008BD00BF101A0020002070472DE9F0419A
:108AF00023B3164D164688469F18D5F8BC47002369
:108B0000A4681A4641463046A0470028F5D0D5F85B
:108B1000BC3733B15B69984720B9D5F8BC37002B17
:108B2000F8D1FEE70136B74208F50078E5D1D5F86F
:108B3000C037C5F8C4370020BDE8F081034DD5F833
:108B4000C037C5F8C4370020BDE8F081101A0020F6
:108B50002DE9F0415BB31A4C16460F4603EB0208B1
:108B600004E0D4F8BC1719B14B699847D4F8BC1786
:108B70000D6900231A4639463046A8470028F0D12F
:108B8000D4F8BC3733B15B69984720B9D4F8BC3707
:108B9000002BF8D1FEE70136B04507F50077E5D1A7
:108BA000D4F8C037C4F8C4370020BDE8F081044CC5
:108BB000D4F8C037C4F8C4370020BDE8F08100BF46
:108BC000101A002000207047034B93F8EC07003880
:108BD00018BF0120704700BF101A0020826D136A71
:108BE0005B681B78FF2B09D090F8F030013B5BB23B
:108BF000002B80F8F03006DD01207047082380F854
:108C0000F03000207047136A5B68002202201A705F
:108C1000704700BF836D1B6A5B681B78FF2B0AD10E
:108C200090F9F030002B03F1FF3280F8F020CCBF38
:108C30000120022070470020704700BF30B599B076
:108C400000230446080E0122CDE90D33CDE913338C
:108C50008DF809000493080C8DF81C300A938DF8E8
:108C600030308DF84430159317931D4B8DF80A0062
:108C700044F04005080A069210928DF8582012938D
:108C800008220DF107038DF808508DF80B00154DE3
:108C9000154805930DEB02030890099395200623D0
:108CA0008DF80D008DF80C100B9304A96B4405F59D
:108CB000026085F8B8280F9311F010FAD5F8202833
:108CC000136A002BFCD19DF80730FF2B00D01CB994
:108CD0009DF8060019B030BD4FF0FF30FAE700BF35
:108CE000158C0008101A0020DD8B0008836D1B6AAC
:108CF0005B681B78FE2B0CD0FF2B08D190F9F0306D
:108D00005A1E002B80F8F02001DD01207047022060
:108D100070470020704700BF30B597B01B4C0890DB
:108D20000846082100230DF1070284F8B8181849F5
:108D30000691CDE9023209900122022502A904F52B
:108D40000260CDE90B33CDE91033CDE912338DF854
:108D5000143007938DF828300D938DF83C3015931F
:108D60000E9504928DF8502011F0B8F9D4F82038FF
:108D7000186A0028FCD19DF80730FE2B03D0FF2B8A
:108D800014BF0220012017B030BD00BF101A002010
:108D9000ED8C000830B59BB02A4CFD2100238DF8E6
:108DA00002100DF102010122CDE90F3104F502603C
:108DB0000BA9CDE911320D928DF86020CDE90B336E
:108DC000CDE91433CDE91633C4F8E8378DF83830DF
:108DD0008DF84C30199311F081F9D4F8202804F55E
:108DE0000260136A002BFCD11749059101220DF195
:108DF000030501A9CDE90135CDE906338DF8103021
:108E000008930A9303928DF8242084F8B82811F06F
:108E100065F9D4F82038186A0028FCD19DF8033091
:108E2000FF2B08D0D4F8C037C4F8DC37092284F807
:108E3000EC271BB030BD0423022084F8EC371BB0B4
:108E400030BD00BF101A0020158C0008034B93F8AA
:108E5000EC07032894BF002001207047101A00205F
:108E6000004870470022002030B4194B00209C7B42
:108E700014B11D688D4206D001300B2803F1100398
:108E8000F5D130BC70479AB1124B03EB40218A42B6
:108E900019D0114B93F8E4278AB1104B01225A7074
:108EA00000F5B17003EB00100123837130BC7047F3
:108EB0000A4B00F5B17003EB00108271E1E701226B
:108EC00083F8E427E9E7022CE3D1183BE8E700BF89
:108ED000CC520020CC3C0020B44C0020B43C0020FC
:108EE00030B41D4C002384F8D03604F5C36004E090
:108EF00001330B2B00F1100015D005688D42F7D11E
:108F000090F80EC0BCF1030FF2D1C2B1134901EBCE
:108F10004320824209D1A1F1180203F5B17302EB9B
:108F2000031301229A7130BC704794F8E42712B9F8
:108F3000012284F8E4270A4A01215170EDE708492B
:108F4000D4F8CC2603F5B17301EB031301320421ED
:108F50009971C4F8CC26E6E7B44C0020CC3C002044
:108F6000B43C0020A8B183681BB10E4B07229A7055
:108F700070470C4A1178D36003294FF004000CBFEE
:108F800080214FF48071C2E9011113611375907053
:108F90007047044A02F580510123537081F8E43789
:108FA000704700BFB43C002010B5164CD4F81C38F4
:108FB0006BB11A689B88116994F819280B4022B18B
:108FC0002BB1002384F8EC3710BD002BF9D094F8B6
:108FD000EC37032B0FD894F8E0370133DBB2072BC3
:108FE00084F8E037EDD8D4F8C027C4F8DC27012393
:108FF00084F8EC3710BD044811F0F6F8A4F8240802
:10900000E9E700BF101A0020801A060070B5224B55
:1090100093F8E42493F8E5349A4237D11F4D95F83C
:109020000436E3B195F808461D4B002040F20D3C94
:10903000B4B19A68998951601668196846F00106BA
:109040001660A1F848C08A8992B242F480728A817F
:1090500095F804260130824203F11803E8DC70BD64
:109060001A68118821F080010904090C118099887F
:10907000D162118889B241F0800111805462998ACD
:109080009689314389B291819C82E1E75CF044F892
:109090000028C3D170BD00BF101A002004000010CA
:1090A000CC2200202DE9F0411E4B93F8E42493F8E4
:1090B000E5349A422FD11C4F7D68002D12DD3846D1
:1090C000002410F8086BA046013416B1037E012B72
:1090D0001CD002691368AC4243F0010300F58070B4
:1090E0001360F1D112F030FAD7F80C46002C0BDDEA
:1090F0000E4A02EBC404116893888889083203433E
:109100009BB294428B81F6D1BDE8F08180F8F0806B
:10911000FFF7ECFADDE75BF0FFFF0028CBD1BDE8FD
:10912000F08100BF101A0020040000101406001087
:109130002DE9F04F037D02681F2B83B0044609D947
:109140005068A3F120052021A940014207D103B0B6
:10915000BDE8F08F1068202199400142F7D05149B5
:10916000514D4968C5F8301695F80816A7694F4E55
:1091700019BB8C2101FB0761D1F88C00D1F804E107
:10918000D0F800C0DEF80000B1F8908020F00100B7
:10919000CEF80000BCF80C1089B221EA0801ACF846
:1091A0000C10297801BB1F2B6FD9A3F120012023BC
:1091B0008B40D36003B0BDE8F08F8C2101FB0761C9
:1091C000D1F88C10D1F810C00868DCF8001021F03C
:1091D0000101CCF80010818921F480710904090C87
:1091E000818129780029DED04FF08C0808FB07F830
:1091F00006EB08032E49D3F804A1D3F88C20019381
:10920000504608F11809D2F800B0894456F0C6FC5F
:10921000019BD5F838262649012083F8D800002A7A
:109220003AD0BBF800309BB243F08003ABF800307B
:1092300008F174084FF0FF334144CBF82C30584606
:1092400056F032FE8C2303FB076600234946C6F81E
:10925000A830504656F038FDD6F8043116225A6030
:109260001A6842F001021A60D6F88C20B6F89030E5
:10927000126891890B439BB293810A49237D496807
:109280002268C5F834161F2B8FD8202101FA03F36A
:10929000936003B0BDE8F08F12F056F90449C5F8A9
:1092A0003806BEE7001000E004000010101A00208D
:1092B000941A00202DE9F041324C054688461746A5
:1092C0001E4694F8EC07042839D0082807D1D4F8B2
:1092D000E437AB4206D0FFF75DFD0228F1D0012054
:1092E000BDE8F081FC23D4F8202884F87C39117B78
:1092F000254BC3F85C8051B1526942B194F8A8285B
:10930000002A0CBF4FF480724FF4007201E04FF45A
:1093100080725A661D491E4810F0E0FE01220623A5
:10932000C4F8C887C4F8CC57C4F8D477C4F8D86751
:1093300084F8D02784F8EC370020BDE8F08194F859
:10934000E2375BB969021820FFF778FCC0B238B980
:1093500094F8EC37082BC5D0FE23C4E72946F2E782
:10936000D4F82028136A002BFCD10A2016F062FAE8
:10937000D4F8283813B11A689B881383FFF714FEBA
:109380000320ADE7101A002088010020BC01002056
:109390003022002070B5244E96F8EC37042B054699
:1093A0000C4609D0082B22D1D6F8E437834238D0B6
:1093B000FFF7F0FC02281AD100213720FFF73EFC0E
:1093C00021461720FFF73AFCC0B2C0B996F8E23741
:1093D0007BB969021920FFF731FC80B9082386F8B0
:1093E000EC37C6F8E847C6F8E457022070BD012004
:1093F00070BD29461920FFF721FC0028EED0D6F8D1
:109400002028136A002BFCD10A2016F013FAD6F894
:10941000283813B11A689B881383FFF7C5FD032012
:1094200070BD022070BD00BF101A00202DE9F84366
:10943000234D95F8EC47042C8046894617461E4676
:1094400008D0082C02D00020BDE8F883FFF7A2FC6A
:109450000228F8D195F8E237BBB141461120FFF759
:10946000EDFBC0B2C8B9D5F8C037C5F8C89705221A
:1094700085F8EC27C5F8CC87C5F8D477C5F8D86748
:10948000C5F8DC370120BDE8F8834FEA48211120F8
:10949000FFF7D4FBC0B20028E5D0D5F820381C6A0D
:1094A000002CFCD10A2016F0C5F9D5F82838002B7D
:1094B000C9D01A689B8813832046BDE8F88300BF93
:1094C000101A00202DE9F04112F03EF81F4F204EF7
:1094D00005464FF000087C68002C2ADD00231A4660
:1094E00007EB0321013391F8F9109C4242EA010293
:1094F000F6D142EA0804E4B290467368C3F3080365
:10950000A3B9EFF311838BB916F072F9431BB3F5CE
:10951000FA6F02DCB8F1000FDDD124B10D4B93F8E6
:109520007D29542A09D02046BDE8F08111F0E0FFE2
:10953000ECE744464FF00008DFE7B3F88429013236
:10954000A3F884292046BDE8F08100BF0400001084
:1095500000ED00E0101A0020BC4B1B780BB9012075
:1095600070472DE9F04FBA4DBA49D5F8C027BA4B2C
:10957000A1FB02125209A3FB023A4FEADA0A0AEBF4
:109580008A0AA2EB4A0A85B0B04A5FFA8AF30393CB
:1095900002F61C1302F23C670193002307EB8A0AD0
:1095A00002F581699846A94BD3F8243A434540F324
:1095B0001781D9F81830D9F80460D3E93A34029306
:1095C00011F0C2FF029B95F87DC902904FEA860E0A
:1095D00095F890090EF1085E04F180610EEB431ED0
:1095E0003939BCF1540F0EEB81110EEB801301D110
:1095F000A5F88609994240F26A811A68002A00F0AB
:109600005E811A6C002A00F07081D3F88020002A55
:1096100000F06D81D3F8C02003F58073002AE9D1F2
:10962000A3EB0E0E99424FEAAE1E40F25081A4EB1E
:109630000E0145294FF0000428BF452103EB81119D
:109640009B46204626460DE01A6C002A40F0D0804A
:10965000D3F88020002A40F0F680D3F8C02003F52C
:1096600080732AB9994206D91A68002AECD040338F
:10967000994200F2C180112E344640F22C81D6F17D
:10968000150200F128817549029ED1F884309E456B
:10969000D5F8943938BFC1F884E0F11A002919DBF4
:1096A00003F5F42303F590739E4288BF029B6B4938
:1096B00088BF0533C5F89439684BD3F88430052B3F
:1096C00086BF053BDBB2002385F890394FF0FF33AE
:1096D000C1F8843042B100FA02F2C4F1140401204E
:1096E00000FA04F444EA02005D4BC0F3C43203EB19
:1096F0008202D2F8481400F01F0203EB8202D2F873
:10970000482442EA0131C0F3441203EB8202C0F361
:10971000842003EB8000D2F8483441EA0311D0F8EA
:10972000483441EA032181EA112383EA131303F049
:109730000F030F2B40F0B180B1F5803F80F0AD807A
:10974000BCF1540F4FEA111104D1B5F8803901333F
:10975000A5F880393D4AD2F82439B1F5606F03F19C
:109760000103C2F8243900F0D480019B998197F855
:1097700058300398834210D0DAF808203B689B1ACF
:109780003B60DAF830207B689B1A7B600023CAF8C4
:109790000830CAF8303087F858003B6801333B6026
:1097A000DAF808300133CAF808304FF6FF739942EF
:1097B00007D17B6801337B60DAF830300133CAF8B7
:1097C0003030019B08F101081433B8F1080F07F19C
:1097D0005C070AF15C0A019309F120097FF4E3AE0A
:1097E0001A4A0123012082F8203A05B0BDE8F08F23
:1097F000803399427FF63FAF5A469A1A9211541C11
:10980000184A82FB04B2A2EBE472012AB8BF01221B
:10981000904001241644013A04FA02F210431C4617
:1098200022680AB3226C002A63D0D4F88020002A70
:1098300061D0D4F8C02004F58074B2B1A142EFD851
:109840009B4623460EE7C03312E700BF040000101A
:10985000101A00201F85EB51CDCCCCCC8801002004
:1098600088970608565555554034A142E8D9E31A61
:109870009B115A1C2F4B83FB02B3A3EBE273012B0A
:10988000B8BF012398401E440122013B02FA03F3B2
:10989000184323469B462346E4E6BCF1540F2CD0E4
:1098A000254AD2F824390133C2F82439224AD2F8A1
:1098B00020390133C2F820394FF6FF7157E74033A2
:1098C000A3EB0E0E99424FEAAE1E3FF6B0AE10B1BA
:1098D000013885F89009BCF1540F7FF472AFB5F8E8
:1098E00082390133A5F882396BE7803398E6C033BB
:1098F00096E68034B9E7C034B7E7B5F880390E4A48
:109900000133A5F88039D2F824390133C2F824395B
:10991000CCE795F8E53403EB430305EBC30343447D
:1099200093F8F5340D2B7FF420AF019A80239377C1
:109930001DE700BF565555550400001010B50446EC
:109940005FF0E2F881B22046BDE81040FEF72CBE81
:1099500038B50B4D00EB400005F2445303EBC00358
:1099600093ED027AD3ED037AE7EE007AC4002C443B
:10997000B0EE670A5FF0C8F8D4F84435186038BD17
:10998000040000100C4AF8B5136855692B4003EA2F
:10999000000555617DB1094F0126B5FA85F4C4F182
:1099A0001F0407EB840306FA04F4D3F8980903684C
:1099B0009847A543F1D1F8BD003C0140101A0020A2
:1099C000038A2DE9F047B0F80C901FFA89F919EADB
:1099D00003092BD005460E464FF000474FF0000814
:1099E000B9FA89F327FA03F2D24391B21B3B2982D9
:1099F00009EA0209042B16D8DFE803F0352C231AF4
:109A00000300B36A002B37D003F1FF3A1FFA8AFA3A
:109A1000C6F82880746A34B12368204651469847B6
:109A20006468002CF8D1B9F1000FD9D1BDE8F087F6
:109A30007068696B036889B29847B9F1000FCFD19C
:109A4000F4E7B068A96B036889B29847B9F1000FD1
:109A5000C6D1EBE7F068E96B036889B29847B9F1C2
:109A6000000FBDD1E2E73069296C036889B29847DD
:109A7000B9F1000FB4D1D9E7E96A1FFA81FAC9E751
:109A80000A4608B5054920B9054856F033FB034896
:109A900008BD044856F02EFB004808BDE82300200E
:109AA0008C160708B416070810B5044C04480A467B
:109AB000214656F01FFB204610BD00BFE8230020C2
:109AC000DC16070810B5044C04480A46214656F037
:109AD00011FB204610BD00BFE8230020F016070848
:109AE00010B5044C04480A46214656F003FB2046B4
:109AF00010BD00BFE8230020FC16070810B5104C6D
:109B0000D4F8D82A94F8D73A2AB103F001039BB9C4
:109B1000136892881A835AF0EFFC02E05B69984759
:109B200020B9D4F8BC37002BF8D1FEE7D4F8C03701
:109B3000C4F8C437002010BD136892885A83EAE73E
:109B4000101A0020817899B10C48D0F8E43A102B13
:109B50000FD003EB430202444FF0200C013382F894
:109B6000E81A012182F8E9CA82F8EA1AC0F8E43A50
:109B700070470521002016F009B900BF101A002017
:109B80002DE9F041B84C94F8186892B0002E00F01E
:109B9000BC8194F8EC3704F608075A1E082A00F234
:109BA0005081DFE812F03C007700C3004E013C0119
:109BB00065011C004E0109005AF06EFC05460028A4
:109BC00040F00883D4F8DC37D4F8C027FA33934246
:109BD00080F03481FFF7E8F994F8EC37DDE75AF0CC
:109BE0005BFC0028EED0D4F8E8270023012A84F893
:109BF000E03740F21A83D4F8E417013A0131082320
:109C0000C4F8E827C4F8E41784F8EC37A3F1080691
:109C1000B6FA86F67609304612B0BDE8F08100212A
:109C20000846FFF70BF8D4F82028C5B2136A002BBA
:109C3000FCD10A2015F0FEFDD4F8283813B11A68BB
:109C40009B881383012D40F0F9804FF0000840F20B
:109C5000AB11082084F8E187FEF7F0FFC0B20528B9
:109C600000F0B981012800F06D81D4F82028136A32
:109C7000002BFCD10A2015F0DDFDD4F8283813B1F3
:109C80001A689B88138394F8E137002BBCD0022319
:109C900084F8EC3794F8E1370021022B0CBF4FF029
:109CA00080450D463720FEF7C9FF29462920FEF7DB
:109CB000C5FFD4F82028C5B2136A002BFCD10A20B6
:109CC00015F0B8FDD4F8283813B11A689B881383AF
:109CD000002D40F0B38094F8E137022B00F0E981C9
:109CE00084F8E25700210920FEF7A8FF002800F0C1
:109CF00077810025D4F82028136A002BFCD10A2094
:109D000015F098FDD4F8283813B11A689B8813838E
:109D1000002D00F0938000210A20FEF78FFFC0B2D3
:109D2000002840F09181032384F8EC37102103A828
:109D3000FEF7F2FF002840F08180BDF80D209DF86D
:109D400014309DF80C1084F8F61752BAA4F8F427D2
:109D50009DF80F2084F8F7279DF8102084F8F82745
:109D60009DF8112084F8F9279DF8122084F8FA272D
:109D70009DF8132084F8FB2703F00F011A099DF8C2
:109D8000193084F800281B019DF81A20DDF8150011
:109D900084F80118DBB243EA121302F00F0200BA92
:109DA00003F5FA6384F80428D4F82028C4F8FC07E3
:109DB000A4F80238136A002BFCD10A2015F03AFDF2
:109DC000D4F8283813B11A689B88138394F8E237C3
:109DD000B3B94FF400711020FEF730FFD4F82028FB
:109DE000C5B2136A002BFCD10A2015F023FDD4F86C
:109DF000283813B11A689B881383002D7FF4EAAECC
:109E00001A4810F0F1F900220423A4F8240830467F
:109E1000C4F8E82784F8EC3712B0BDE8F081D4F834
:109E2000C8074FF40071FEF777FF012800F0AB8000
:109E3000022800F0B080002800F0178194F8EC3779
:109E40005A1ED2B2022A0BD8D4F8C027D4F8DC1795
:109E5000521AC82A7FF6DAAEFFF7A6F894F8EC3764
:109E6000042B7FF4D3AED6E6101A002040787D0193
:109E7000D4F82028117B136A00294CD05269002A9B
:109E800049D094F8A828002A45D0B3FA83F35B0997
:109E9000002BD3D002AA002303920222CDE9043280
:109EA0000DF107020992B748ADF80830012203A965
:109EB000CDE90733CDE90C33CDE90E338DF81830F9
:109EC0008DF82C3011930A928DF8402010F006F98D
:109ED000D4F820381D6A002DFCD19DF8073003F01E
:109EE0001F03052B00F08981FFF75EF8D4F8D487B3
:109EF000B8F1000F6CD0D4F8D837D4F8CC172A4674
:109F00000120C04794F8EC3747E6304684F8EC6708
:109F100012B0BDE8F081D4F8C83794F8D01799484A
:109F200003EB01214FF480725AF070FA94F8D037A5
:109F30000133DBB284F8D037A3F10203B3FA83F321
:109F40005B09A5E702AB04938E488DF82C500423DF
:109F500003A9CDE90788CDE90988CDF80C808DF8F3
:109F60001880CDF83080059310F0B8F8D4F8202888
:109F7000136A002BFCD19DF80B30AB2B04BF0223DE
:109F800084F8E13773E6D4F8DC37D4F8C0276433BB
:109F90009342BFF453AFD4F82028136A002BFCD1AE
:109FA0000A2015F047FCD4F8283813B11A689B88AA
:109FB0001383FEF7F9FFD4F8D4574DB10022D4F83B
:109FC000D837D4F8CC171046A84794F8EC37E4E516
:109FD00094F8EC37E1E5D4F8202884F8E15746E618
:109FE00010213846FEF798FE00287FF482AE94F8E0
:109FF0001738DB077FF57DAE94F80818891100F05B
:10A00000938001297FF475AE94F80F28DFF878C1AA
:10A0100092000546D2B216210220C0F108038B42FD
:10A0200028BF0B46C3F1080002419D40C91A45EA0A
:10A0300002054FF000001CF8012FEED16B1C9B02B3
:10A04000C4F8F037354655E6D4F82028136A002BBB
:10A05000FCD10A2015F0EEFBD4F82838002B3FF491
:10A06000B9AD1A689B881383B4E5D4F82028136A25
:10A07000002BFCD10A2015F0DDFBD4F8283813B1F1
:10A080001A689B881383D4F8D4570423002084F8DB
:10A09000EC3784F8E007002D3FF4BDADD4F8D83795
:10A0A000D4F8C827D4F8CC17A84794F8EC375A1E30
:10A0B000C7E629463A20FEF7C1FD02AB049304230C
:10A0C00005935FFA80F801232E488DF82C3003A900
:10A0D000CDE90755CDE9095503958DF818500C9534
:10A0E0000FF0FCFFD4F820381A6A002AFCD1B8F12E
:10A0F000000F12D11A6A002AFCD10A2015F09AFB2F
:10A10000D4F8283813B11A689B881383029B1BBAB2
:10A11000C3F3807384F8E237E4E51A6A002A98D022
:10A120001A6A002AF9D194E794F80D3894F81108C6
:10A13000DFF858E003F00F03800101255FFA80FC8F
:10A140009D4006200323C0F108029A4228BF1A4608
:10A15000C2F108004CFA00F091409B1A41EA00015C
:10A160001EF801CF4FF00000EDD194F80EE8DFF8B3
:10A1700020804FEA8E1E02315FFA8EFE4FF00C0CEB
:10A18000062208E0302200201F2200202122002089
:10A190001E2200200022C2F10802624528BF62464A
:10A1A000C2F108004EFA00F09340BCEB020C18F824
:10A1B00001EF43EA0003EDD101338B40E917A3FB24
:10A1C000055203FB01226D0A45EAC255C4F8F05757
:10A1D00035468FE5D4F82028136A002BFCD10A20DD
:10A1E00015F028FBD4F8283813B11A689B8813831C
:10A1F000042384F8EC372E460DE5D4F8D457D4F870
:10A20000C027C4F8DC27072384F8EC37002D3FF47F
:10A21000FDACD4F8D837D4F8C827D4F8CC1701202F
:10A22000A84794F8EC375A1E0BE616D00423D4F84E
:10A23000202884F8EC37136A002BFCD10A2015F093
:10A24000F9FAD4F82838002B3FF4F8AD1A689B8847
:10A25000138394F8EC375A1EF3E5FEF79BFD0228B2
:10A260007FF4ECADD4F820381A6A002AFCD1E5E777
:10A27000084B10B5D3F8183B18440C46807D10F0FD
:10A280007BFA18B1828803680CB11A8310BD5A8317
:10A29000FCE700BF101A002010B42A492A4A91F89E
:10A2A00004367BB3D2F8BC48A04239D0012B29D068
:10A2B000D2F8D448844239D0022B23D0D2F8EC48CB
:10A2C000A04235D0032B1DD0D2F80449A04231D092
:10A2D000042B17D0D2F81C49A0422DD0052B11D049
:10A2E000D2F83449A04229D0062B0BD0D2F84C49E1
:10A2F000A04225D0072B05D0D2F86449844208BF7C
:10A3000007230ED003F1010C81F804C603EB4301CF
:10A3100002EBC1025DF8044BC2F8BC081846704756
:10A320000023DBB218465DF8044B70470123F8E7C1
:10A330000223F6E70323F4E70423F2E70523F0E71B
:10A340000623EEE704000010101A002038B5424C36
:10A350008C2303FB004393F8933003B938BD94F882
:10A36000E4C494F8E5349C450ED003EB430204EBBF
:10A37000C20292F8E8E40EF1FF35012D4FEA4302E4
:10A3800046D9BEF1030F3ED08C2202FB0042A2F858
:10A390008410EFF31181902383F31288B2F8845074
:10A3A00092F8863043EA45030025C9B29BB282F891
:10A3B000865081F3118829491A090D7882EA1322FF
:10A3C0005A4005B1D2431B019BB202F00F021A435F
:10A3D00091F808365BBB8C2303FB0044D1F8283A84
:10A3E000D4F80C0101219847D4F80811B4F8905022
:10A3F0008A8AD4F804312A438A8258601A6842F063
:10A4000001021A6038BD5D1C05F003056545BBD02F
:10A41000134404EBC303034493F8F5140029B3D0A9
:10A420008C2303FB0043012283F88620ACE78C23B6
:10A4300003FB0044D1F8285AD4F88C30D4F8081122
:10A440005B79086903F0FC0318440421A847D4F899
:10A4500008318000988138BD101A002004000010D7
:10A4600043680B4A23F0407323F4807343F48073F2
:10A47000436083681A4042F002028260C36A013975
:10A48000CAB223F4700141EA0251C162704700BFB1
:10A49000FDF7FFC0704700BF0020FDF7C3BD00BF40
:10A4A0000120FDF7BFBD00BF0220FDF7BBBD00BF0F
:10A4B00010B1036882881A83704700BF30B1036807
:10A4C00082881B691A4214BF01200020704700BF18
:10A4D00010B1036882885A83704700BF10B40469C2
:10A4E0008269E468416814604024D46044690023B0
:10A4F0000C31C2E90433C2E90633C2E90833C2E9C8
:10A500000A33C2E90C3393609363516084B1C2692A
:10A51000E0689363C2E90233C2E90433C2E9063357
:10A52000C2E90833C2E90A33C2E90C33C2E90001C7
:10A530005DF8044B704700BF436800221A60037D3A
:10A540001F2B08D9203B2022016802FA03F343F0B5
:10A550001803CB6070472022016802FA03F343F02E
:10A5600018038B60704700BF0268136A11B1D96984
:10A5700001B3143330B49C681D689169DDB14FF4A8
:10A58000806088618D60104640690C6180B15968B7
:10A59000D369C9B10A464FF480619A609961224338
:10A5A00012F0010F14BF00224FF400521A621C6116
:10A5B00030BC704770478D61054D4FF0FF0C05F8BA
:10A5C00088CF00688D60DFE7024A9A609961E6E70C
:10A5D000880100202C2500200168F8B5D1E904236A
:10A5E00004465568002B49D09861107D5E681F288D
:10A5F00031D81768202202FA00F040F01800B86045
:10A600001A7D1F2A32D91868203A202303FA02F251
:10A6100042F01802C26000232B60336033688969FE
:10A6200043F010033360284655F04EFB2368304654
:10A63000D96955F049FB2B68226843F001032B6070
:10A640003368526843F00103336093889BB243F050
:10A6500003039380F8BD17682038202202FA00F027
:10A6600040F01800F8601A7D1F2ACCD81868202303
:10A6700003FA02F242F018028260CCE7137D906187
:10A680001F2B1CD81068202202FA03F343F0180392
:10A69000836000232B602B68896943F010032B60D3
:10A6A000284655F011FB2B68226843F001035268DD
:10A6B0002B6093889BB243F002039380F8BD10682F
:10A6C000203B202202FA03F343F01803C360E0E7C3
:10A6D0002DE9F0417F4D804E07463C6897F8888011
:10A6E0006368B888012284F824201A8822F0400286
:10A6F0001204120C1A802289824223D0198821F078
:10A7000038010904AB424FEA114100F0BF80734A9F
:10A71000934200F0BB800246B2F5807FA8BF4FF4A1
:10A720008072022AB8BF0222002A92FAA2F2B2FA7A
:10A7300082F208BF4FF0FF32013A41EAC20292B200
:10A740001A802081397BA27A8A420CD01A8822F0A2
:10A7500003021204120C1A801A8892B2002900F027
:10A7600092801A80A1721A8892B242F040021A8036
:10A77000226A9168002900F0A3804FF0000C143287
:10A78000E64652F8100C8E4400EA060120B1B1F101
:10A79000805F23D0616909B352F8140C143200EAC7
:10A7A000060110B1B1F1805F18D052F80C1C0CF109
:10A7B000010C0029E5D1227B82B1B8F1000F0DD048
:10A7C000BCF1010F6FD8BEF1070F6CD80CEB8C01F8
:10A7D0008900226A11440A7B002A64D0226A9268A6
:10A7E0004FF00008002A53D0B8F1000F02D098F8BB
:10A7F0000C2022B1BA6812B1116892884A83226A89
:10A80000D2F800E0226A5168226A9268501E9AB11A
:10A81000BEF1000F23D01EF801CB1A899207FCD598
:10A82000A3F80CC01A89D207FCD59A8992B209B153
:10A8300001F8012B0138EBD2236A1B7BE3B9236AB1
:10A840001B697BB1236AD7F894001B6998470128DC
:10A850000DD0022806D100232362BDE8F0814FF01D
:10A86000FF0CDAE7D4F82080236A14332362236ACA
:10A870009B686BB16368B7E7BB68002BDFD01A68D1
:10A880009B881383DBE742F003026AE7420843E751
:10A89000236A1B68DBB1236AD3E9007222620022BB
:10A8A000C3E9002219E700213846FFF75DFEBB68C7
:10A8B00013B11A689B8853833846BDE8F0418BE694
:10A8C000227B002A8AD0B8F1000F82D186E723626A
:10A8D000C3E700BF003800400000FFFF003C00401D
:10A8E00038B5D0F8E0102B4B04465A68D0F8D800A1
:10A8F00071B1131A99420BDC94F8D030C4F8D82007
:10A90000012B10D0D4F8D4300133C4F8D43038BD82
:10A91000D4F8E430C4F8D8200344C4F8DC3094F808
:10A92000D030012BEED16168201D04F1E805EFF372
:10A93000118C102383F3128863681B6A0BB3D4F85D
:10A94000F0302A461BB1D3691432002BFBD10B6ABD
:10A950006BB1996839B9934209D0196829B15B681C
:10A9600099680029F7D01433F3E7C3E900055FFACB
:10A970008CFC8CF31188D4F8D4300133C4F8D43073
:10A9800038BD0D625FFA8CFC8CF31188FFF7A0FED6
:10A99000B8E700BF001000E02DE9F041826992F8AD
:10A9A000DC30012B8AB005464CD0023B012B54D839
:10A9B00092F84C31D2F89C202E4C63F07F03137038
:10A9C0008669D6F8A030D6F8108003F1010E0FCCBE
:10A9D000EC46ACE80F00D6F89C30CDE9003E0FCC39
:10A9E000ACE80F0094E8030006F110078CE80300C0
:10A9F000EFF31180102383F3128833691B6A002B55
:10AA00002FD0029B6A461BB1D3691432002BFBD1B5
:10AA1000D8F8203073B1996839B993420AD01968CF
:10AA200029B15B6899680029F7D01433F3E71F60F8
:10AA3000C3F804D0C0B280F31188AA6911690B6A07
:10AA4000002BFCD1D2F8A0305A8852BAEA819A88F9
:10AA500052BA2A82DB885BBA6B8201200AB0BDE859
:10AA6000F081C8F820D0C0B280F311883846FFF7D3
:10AA70002FFEE2E7509C06082DE9F04190F8DC300B
:10AA8000D0F8A050012B8AB0044672D016D8D0F866
:10AA90009C304FF0FF321A605A609A60DA60D0F84A
:10AAA000E0300522B3F57A7FC0F8F0207CD803238C
:10AAB00080F8DC3001200AB0BDE8F081023B012BB8
:10AAC000F8D890F84D31D0F89C20524E63F07F03B7
:10AAD0001370D0F8A030D0F8108003F1010E00F10F
:10AAE00010070FCEEC46ACE80F00D4F89C30CDE94F
:10AAF000003E0FCEACE80F0096E803008CE80300A0
:10AB0000EFF31180102383F3128823691B6A002B53
:10AB100073D0029B6A461BB1D3691432002BFBD160
:10AB2000D8F8203073B1996839B993420AD01968BE
:10AB300029B15B6899680029F7D01433F3E71F60E7
:10AB4000C3F804D0C0B280F311882269136A002BC5
:10AB5000FCD16B885BBAA4F8D030AB885BBAA4F8A0
:10AB6000D230EB8801205BBAA4F8D4300AB0BDE83B
:10AB7000F08190F84C2190F84D319B1A5B10013315
:10AB8000DBB205EB430235F813305BBAA0F8D030E6
:10AB900053885BBAA0F8D23093885BBAA0F8D4305F
:10ABA00001200AB0BDE8F08103691A7B72B35B69CA
:10ABB00063B390F898304BB390F84C31D0F89C20A8
:10ABC000C4F8A40063F07F03137090F84C1190F860
:10ABD0004D31D0F8A0201048C4F804015B1A0733A7
:10ABE0000121C4F8FC30D4F89C3084F800110A44E8
:10ABF000C4E93D3284F8DC105CE7C8F820D0C0B26C
:10AC000080F311883846FFF763FD9EE7022384F83E
:10AC1000DC304FE7509C06080180000808B51D2075
:10AC20000FF0AAFD08B183794BB11E200FF0A4FDEF
:10AC300008B1837903B108BD5523C38008BD5523EE
:10AC4000C380F2E7D3B2012B23D870B502EB4202E6
:10AC5000114C4FEA820E4FF0000C22460EF108050F
:10AC6000634604E00133152B11D012F81CCF604568
:10AC7000F8D192F801C08C45F4D15659002EF1D08C
:10AC8000C3EBC3030EEB83030433E01870BD002055
:10AC900070BD0020704700BF789C060810B40C4CB3
:10ACA000002304F5326C01E0152B0CD003EB4302BA
:10ACB00001331CF802108142F6D122445DF8044BA6
:10ACC00092F9220B70474FF0FF305DF8044B70474C
:10ACD000101A0020D3B2022B21D830B502EB420269
:10ACE000104D114C4FEA820C0CF10C0E2A46002339
:10ACF00004E00133172B10D052F82C4FA042F8D1AA
:10AD000014798C42F5D152F80E40002CF1D02C224F
:10AD100002FB03C30833E81830BD002030BD00201B
:10AD2000704700BF8897060800000140002838D00F
:10AD300030B51C4D90F804C0002305F5326401E0E5
:10AD4000152B2CD003EB43020133A15C6145F7D1F5
:10AD50002A44046892F9223B90F805E0DAB2022A0C
:10AD60001DD803EB4303104810494FEA830C0246F9
:10AD70000CF10C05002304E00133172B0FD052F81F
:10AD80002C1F8C42F8D111797145F5D15159002908
:10AD9000F2D02C2202FB03C30833184430BD00203C
:10ADA00030BD7047101A0020889706080000014047
:10ADB0000348D0F89C300BB18C301847704700BF67
:10ADC000880100200348D0F8C0300BB1B0301847DC
:10ADD000704700BF880100200348D0F8E4300BB171
:10ADE000D4301847704700BF880100200348D0F8CE
:10ADF00008310BB1F8301847704700BF88010020B8
:10AE00000348D0F82C3113B100F58E701847704705
:10AE1000880100200348D0F8503113B100F5A0702C
:10AE200018477047880100200348D0F8743113B1E7
:10AE300000F5B27018477047880100200348D0F829
:10AE4000983113B100F5C47018477047880100208D
:10AE50000348D0F8BC3113B100F5D67018477047DD
:10AE6000880100200348D0F8E03113B100F5E87004
:10AE700018477047880100200348D0F8043213B106
:10AE800000F5FA7018477047880100200348D0F891
:10AE9000283213B100F5067018477047880100206A
:10AEA0000348D0F84C3213B100F50F7018477047C3
:10AEB000880100200348D0F8703213B100F51870F3
:10AEC00018477047880100200348D0F8943213B126
:10AED00000F5217018477047880100200348D0F81A
:10AEE000B83213B100F52A70184770478801002066
:10AEF000094B0A4A013800EBC00003EB8000116BDC
:10AF0000D0F88C30064883420CBF4FF400134FF446
:10AF100080030B4313637047880100200038024010
:10AF20000060024070B501383C4C3D4D00EBC00C58
:10AF300004EB8C0C9646DCF88C603A4AAE420CBFAF
:10AF40004FF400154FF48005166B35431563CCF8AC
:10AF50009C10CCF8A4303449DCF890308B424FEA96
:10AF6000C0023ED001F580618B423AD0A1F57A71E2
:10AF70008B4247D001F580618B4243D0A1F57A71B5
:10AF80008B4241D001F580618B423DD0A1F57A71B1
:10AF90008B4235D001F580618B4231D0A1F57A71B9
:10AFA0008B4233D001F580618B422FD0A1F57A71AD
:10AFB0008B422DD001F580618B4229D0A1F57A71A9
:10AFC0008B4227D001F580618B4223D0A1F57A71A5
:10AFD0008B4221D0154D01F580618B4218BF0025B1
:10AFE00000E0134D104404EB8003CEF38711C3F847
:10AFF000AC5093F8A100BDE87040002259F0B2BCFB
:10B000000C4DEFE70C4DEDE70C4DEBE70C4DE9E790
:10B010000C4DE7E70C4DE5E7044DE3E78801002020
:10B0200000600240003802401060024000800028AA
:10B030002080001000800018008800100080201080
:10B040002080002000880020008020200D4B9842A6
:10B0500014D0A3F58063984210D003F58043984242
:10B060000CD003F58063984208D003F580639842C2
:10B0700004D0054BD3F8B80740087047024BD3F80B
:10B08000B807704700040140101A0020800AA0F59C
:10B090008010522808D8054B184490F8F4330D2B33
:10B0A00002D8034AD0567047002070478897060898
:10B0B0000C170708094910B54B6C094C43F4804341
:10B0C0004B644022002104F698105EF0F8FA4FF02D
:10B0D000FF33C4F8603BC4F8633B10BD0038024046
:10B0E000101A00200120FEF74DBC00BF0220FEF721
:10B0F00049BC00BF0420FEF745BC00BF0820FEF796
:10B1000041BC00BF1020FEF73DBC00BF4FF478707B
:10B11000FEF738BC4FF47C40FEF734BC30B50C462B
:10B1200083B0054618B3036803F13F4303F57E037C
:10B130009B0A104A134493F83C0759F011FDA98863
:10B14000009104F00303C4F381028DF804302868F1
:10B150008DF80520C4F300136946C4F341148DF83B
:10B1600006308DF8074054F081FC03B030BD4FF03D
:10B17000FF33DEE78897060800B1CFE7704700BFCE
:10B180002DE9F041CB781BB900263046BDE8F081AF
:10B1900000F110040D468046897820460FF04EF8E5
:10B1A00006460028F0D0E8780FF0E6FAC8F8180054
:10B1B0002B780133DBB210B1C371222383710921D3
:10B1C000FFF7DAFFD8F81800214FFFF771F9D7F829
:10B1D000C037632BFBD91F480FF006F8A8F81400FE
:10B1E000204651F0ABFB0446E0B9E8780FF0C4FA12
:10B1F000D7F8E47A002F0646C6DDDFF85C8002E06F
:10B200000134A742C0D004EB440518F805000FF044
:10B21000B3FA8642F4D1214608EB05000FF0F0FAAC
:10B220000026B2E7D8F8103088F8D8001B78012B38
:10B2300007D0022BA9D197F8673B013387F8673B0A
:10B24000A3E797F8683B013387F8683B9DE700BFA9
:10B25000101A002040420F00F82400200B4B10B5BC
:10B26000D3F8183B03440446987D0FF085FA60B18B
:10B270002E228271621CC2710121FFF77DFF2046E0
:10B280000021BDE81040FEF7F3BF10BD101A0020EA
:10B2900070B50E4CD4F8246A002E15DD04F58164D7
:10B2A000002503E0B54204F120040DD0237F0135D1
:10B2B000002BF7D0E0680028F4D0217DFFF72EFFA7
:10B2C000B54204F12004F1D1012070BD040000104A
:10B2D000F8B5037D85691F2B04464DD90168A3F19C
:10B2E00020024E6820209040064234D01023934024
:10B2F000C860CB604B68D340DE0700F18380EFF37A
:10B300001183502282F312882A6C1168C9075AD41B
:10B31000516889B271B9D5E90960864250D0AF69E8
:10B320000744D76073D9301A80B25060AE620021F2
:10B3300085F86410116841F00101DBB2116083F3FC
:10B34000118895F86430002B44D1237D1F2B27D919
:10B350002168A3F120024C6808209040044200D0EC
:10B36000C8604C68042000FA02F2224203D0203B5D
:10B3700000FA03F3CB60F8BD0268202016689840FD
:10B38000064219460ED010219940906091601168D4
:10B39000D940C807B3D5012101FA03F39360AEE7A2
:10B3A00022681946106808238B40184200D0936029
:10B3B0001068042303FA01F10142DCD09160F8BD6A
:10B3C000012285F86420DBB283F3118895F864309C
:10B3D000002BBAD095F87C30002BB6D195F87100CF
:10B3E0000FF0CAF92A6E938923F008031B04012188
:10B3F0001B0C938185F87C100028A6D02021FFF734
:10B400008DFEA2E7012303FA02F2CA6077E72E69F4
:10B41000301A80B25060A96289E700BFF0B50379A5
:10B420002E4C002B14BF012200228BB084F8182868
:10B4300003D184F8EC370BB0F0BD054604F5026784
:10B4400090F9001038460EF0F9FEAE78002E39D192
:10B45000234B2448C4F8B438C4F828680EF0C4FE5E
:10B46000A4F824084FF47A7014F006FCD4F82838B5
:10B4700013B11A689B8813831B4D0FCDEC46ACE8C3
:10B480000F000FCDACE80F0095E803008CE8030037
:10B49000694638460EF022FED4F82028136A002BA5
:10B4A000FCD11EB109213046FFF738FED4F8C01791
:10B4B000C4F8DC170122002384F8EC2784F8E03775
:10B4C0000BB0F0BD30460FF057F906460028BFD04C
:10B4D0001E23C3802821FFF721FEB9E7101A0020A0
:10B4E000D8210020801A0600CC9E060870B50C46B4
:10B4F00082B015460646002839D0036803F13F4361
:10B5000003F57E039B0A1B4A134493F83C0759F04A
:10B5100027FBB2880092B2FA82F304F003028DF89E
:10B520000420C4F3810230688DF80520C3F11F03A5
:10B53000C4F30012C4F341148DF80740C3F3CC04E4
:10B5400000EB840403F007038DF806209B00226AB9
:10B550000F269D4006FA03F322EA03032362226AC0
:10B5600015436946256254F081FA02B070BD4FF070
:10B57000FF33C8E78897060800B1B7E7704700BFF8
:10B580002DE9F043774D05EB001683B0D6F86C3B00
:10B59000002B00F0938004464FEA001896F8740BD5
:10B5A00059F0DEFA96F8743B590903F01F0203299B
:10B5B0004FF0010303FA02F300F09880042900F031
:10B5C000858002297DD005EB0803013493F8700BC8
:10B5D0000FF0D2F8E4B2814610B112238371C47126
:10B5E00005EB080393F8710B0FF0C6F8074610B18E
:10B5F0001323C471837105EB080393F8720B0FF0EA
:10B60000BBF8064610B11423C47183714544484603
:10B6100095F8732B01924A21FFF7AEFF019A384645
:10B620002A21FFF7A9FF019A0A213046FFF7A4FF5C
:10B63000D5F86C2B4C4B9A425DD04C4B9A424AD079
:10B640004B4B9A4262D04B4B9A426AD04A4B9A4239
:10B6500072D04A4B9A427AD049499088B1F8CE428A
:10B66000B1F8CC32B1F8D6522343B1F8D0422343DB
:10B67000B1F8D24220F003002343B1F8D4420004D1
:10B68000000C2343B1F8D84290802B431088234309
:10B69000B1F8DA42B1F8DC1200F44150234303431D
:10B6A0009BB21380938B23F400631B041B0C9383C6
:10B6B000118213889BB243F04003138003B0BDE8AE
:10B6C000F083304A516A0B4353627CE72D4A11697B
:10B6D0000B43136177E703F50033196A41F48041A6
:10B6E0001962196A21F480411962B5E7254A116A85
:10B6F0000B43136267E703F58433596A41F48051C1
:10B700005962596A21F480515962A5E703F5FE3365
:10B71000196A41F400411962196A21F40041196261
:10B720009AE703F58233596A41F400515962596A24
:10B7300021F4005159628FE703F56843596A41F4D7
:10B7400080115962596A21F48011596284E703F526
:10B750006443596A41F400115962596A21F4001195
:10B76000596279E7101A002000300140003800408B
:10B77000003C0040003401400050014000540140B2
:10B780008801002000380240431C00F074812DE93C
:10B79000F04F00EB8003BE4FDA0087B057F80290FD
:10B7A00081000546019107EBC303B9F1000F05D0F5
:10B7B0009C68002C00F02F81A17911B107B0BDE881
:10B7C000F08FD3F80CA0BAF1000F00F0A2819AF824
:10B7D0000630002BF2D11832B818D9F80480BB50CB
:10B7E000691CC0E90133C3601523A371C9B21623D4
:10B7F000E1718AF807108AF8063099F8180059F0B4
:10B80000AFF9B8F804302268A18823F440731B0410
:10B810001B0CA8F80430DAF800301183BAF80420C1
:10B820001A8311212046FFF779FC11215046FFF7BA
:10B8300075FC09264FF0330B05E0BBF1010B00F05E
:10B84000158113F0F7FF0A20002CF6D02268A1889A
:10B8500013691942F1D05183052013F0EBFF2368DF
:10B86000A2881A83052013F0E5FF013EE2D13326BA
:10B8700004E0013E00F0308113F0DCFF0A20002CD0
:10B88000F7D02368A28819690A42F2D05A830520AA
:10B8900013F0D0FFBAF1000F00F05D81DAF800304C
:10B8A000BAF804205A83052013F0C4FF002C00F0DE
:10B8B00024812368A2881A83052013F0BBFFDAF8DD
:10B8C0000030BAF804201A83052013F0B3FF236870
:10B8D000A2881B691A4240F0D580019B2B4407EBDC
:10B8E000C3039A7C002A40F0CA801A7C12212046A9
:10B8F000FFF7FCFD019B2B4407EBC3039B7C002B54
:10B9000000F0C4803221BAF1000F07D0019B2B4414
:10B9100007EBC30350465A7CFFF7E8FD5D4B9845A3
:10B9200000F028815C4B984500F02F815B4B9845D7
:10B9300000F03681019B2B4407EBC3074FF47A7369
:10B94000BC8A03FB04F4B8F8043023F440731B04EE
:10B950001B0CA8F80430B8F800309BB243F0010388
:10B96000A8F80030B8F8045002A854F0C9F825F03F
:10B970003F0504994A4B2D04A3FB01232D0C45EAF6
:10B980009345A8F80450B8F8002022F001021204F0
:10B99000120CA8F80020434A980C9442034600F386
:10B9A00083806200B1FBF2F292B20133042A38BF05
:10B9B0000422A8F82030A8F81C20B8F800309BB268
:10B9C00043F00103A8F80030B8F8003023F4816395
:10B9D00023F002031B041B0C4FF4804143F48063EB
:10B9E000A8F80030A8F80810B8F8003023F0800359
:10B9F0001B041B0C0022A8F8003099F81A0011460D
:10BA000058F0B0FF002299F81900114607B0BDE8C0
:10BA1000F04F58F0A7BFD3F80CA0BAF1000F00F018
:10BA2000D4809AF80630002B7FF4C8AE1832BB18C9
:10BA3000D9F80480BC50C3E90144DC6016238AF8BD
:10BA400006306B1C8AF8073099F8180059F088F80E
:10BA5000B8F80430BAF8042023F440731B041B0C1C
:10BA6000A8F80430DAF800301A83DEE624B905209D
:10BA700013F0E0FEF6E67047A1882268EBE61A7C38
:10BA8000322134E7DAF800301B6926E712213AE761
:10BA9000101A00200054004000580040005C004094
:10BAA00083DE1B43A086010004EB4404B1FBF4F1E8
:10BAB0008AB2C1F30B0109B942F0010250494FF4B7
:10BAC000967300FB03F3A1FB03139B09013342F4BC
:10BAD0000042A8F820306EE7002C40F08D80052051
:10BAE00013F0A8FEBAF1000F65D0DAF80030BAF80A
:10BAF00004205A83052013F09DFE052013F09AFEC2
:10BB0000DAF80030BAF804201A83052013F092FE08
:10BB1000F0E61832BB18D9F8048047F802A0C3E950
:10BB200001AAC3F80CA01523A371431CE37199F873
:10BB3000180059F015F8B8F80430A28823F44073BF
:10BB40001B041B0CA8F80430236811211A8320461B
:10BB5000FFF7E4FA6DE6052013F06CFE2368A28877
:10BB60001A83052013F066FE052013F063FE236898
:10BB70001B69B2E603F5F2331A6A42F400121A6244
:10BB80001A6A22F400121A62D4E603F5F0331A6A34
:10BB900042F480021A621A6A22F480021A62C9E62A
:10BBA00003F5EE331A6A42F400021A621A6A22F4AA
:10BBB00000021A62BEE6052013F03CFE052013F0D9
:10BBC00039FE052013F036FE94E61832BB18D9F87A
:10BBD000048047F802A0C3E901AAC3F80CA099F8B1
:10BBE000180058F0BDFFB8F8043023F440731B046C
:10BBF0001B0CA8F804301CE6A288236846E600BFA8
:10BC0000D34D62102DE9F84307460FF071FCDFF8C1
:10BC10004C8007EB8709044608EBC90542F20F7612
:10BC200004E00FF065FC031BB3420ADC6B7E002BC3
:10BC3000F7D108EBC90898F8180080F00100BDE8BA
:10BC4000F883B8F89C3B013338469BB2A8F89C3B7C
:10BC5000FFF79AFD0020BDE8F88300BF101A00200E
:10BC600010B582B08DF80730431C0CD00228044672
:10BC700009DC0DF1070358F019FF20B12046FFF74A
:10BC8000C1FF02B010BD002002B010BD70B500EBC6
:10BC90008003274D05EBC30255F833305C68A38A57
:10BCA00084B09BB20393039B13F4706F1CBF0123FA
:10BCB0001376039B13F4E06F4FEA80060CD1A38A3E
:10BCC000304423F4706305EBC0051B041B0C0022F9
:10BCD000A3826A7604B070BD238BA38823F48063AB
:10BCE0001B041B0CA380039B9A05E8D423889B05A7
:10BCF000E5D42388D9050FD52388DA05FCD4238819
:10BD00009BB243F40073238023889B05FCD40190ED
:10BD1000FFF73AFD0198D2E723889BB243F4007302
:10BD20002380A38823F440731B041B0CA380C6E765
:10BD3000101A00200020A9E70120A7E70220A5E7AC
:10BD4000F8B590F871301C09013C052C0FD81B4E3A
:10BD500006EB44020546B2F86C0703F00F0340FA05
:10BD600003F2D20703D595F87C70012F01D0012092
:10BD7000F8BD07FA03F3013B184034445BF072FD51
:10BD800094F878270E4C104454F8302004EBC0048B
:10BD90001069A3881840EBD0EB6E002285F87C2058
:10BDA00093F8212020460221FFF7A0FB2A6E9389F9
:10BDB0009BB243F0080338469381F8BD8897060884
:10BDC000B0250020094BD3F8A02ED3F8A41E40F2D2
:10BDD0002A40002350604B620B889BB243F0010362
:10BDE0000B80136843F0010313607047101A0020A2
:10BDF0001D4B1E48196C1E4A10B441F0805101249D
:10BE0000196404625321FF24CA20546250625162B3
:10BE10005B6FDB0085B017D4164804230021029124
:10BE20000290029A1A440292029A04331C2B116067
:10BE3000F5D103910390039B0393039B0E4A1A6071
:10BE400005B05DF8044B70470A4B00220192019344
:10BE5000019B0193019A084B12689A42DCD105B00C
:10BE60005DF8044B704700BF0038024000000E42EE
:10BE700000280040502800403166654210B5174C3C
:10BE800084B00139002389B2A042ADF80C30ADF87E
:10BE900006308DF80E30029113D0114B984210D01D
:10BEA00003F5804398420CD003F58063984208D094
:10BEB00003F58063984204D00A4BD3F8B8375B0887
:10BEC00002E0084BD3F8B837B3FBF2F201A9013A0C
:10BED000ADF8042053F09AFF04B010BD00040140F7
:10BEE00000000140101A002030B50446006EA26820
:10BEF000838923F400531B041B0C8381637995B061
:10BF000013F0040F4FF00001019214BF4FF4805260
:10BF10000A46ADF808201A031B0203F48063ADF84B
:10BF20000C302379ADF80E1002F40052ADF80A205F
:10BF3000DA0744BF0422ADF80E209B07ADF81010BD
:10BF400005D5BDF80E3043F00803ADF80E3001A959
:10BF500054F06EF86279236ED50700F18B8012F0F1
:10BF6000080F9A8A48D092B242F008029A829A89BF
:10BF700092B242F400529A812279D00732D5E06B16
:10BF8000002800F089800023E26D0893CDE90C338E
:10BF9000CDE91033CDE912334FF480750A9363690C
:10BFA000E1680E9506920793626C05924FF48063E8
:10BFB0004FF480350B9309910F9553F0EFFD05A9D0
:10BFC000E06B53F081FEE26B216E136843F00103D6
:10BFD00013608B8A9BB243F040038B8253682279B3
:10BFE0009BB2636591070DD4226E93899BB243F493
:10BFF0000053938115B030BD22F008021204120CD8
:10C000009A82B4E7206C002852D02369A26D09936C
:10C01000A36CCDE90532402300254FF4803108930D
:10C020004FF480630B930F91CDE90C55CDE910557A
:10C03000CDE9125507950A950E9553F0AFFD206C8A
:10C0400005A953F041FE236C226E586940F0800030
:10C050005861186840F0160018605D60938A9BB2C2
:10C0600043F0800302F10C0193820B6843F040031C
:10C070000B60BAE71E498B4224D0A1F54C418B429C
:10C080001ED001F580618B421ED102200121FEF7F6
:10C09000EFF86279236E62E74FF6DF711980D96895
:10C0A00041F02001D960D96841F01001D96099E7C9
:10C0B000226ED36843F0800302F10C01D360D4E711
:10C0C0000120E3E70020E1E701F580618B420AD01F
:10C0D00001F580618B4208D001F544418B427FF429
:10C0E0003EAF0520D2E70320D0E70420CEE700BF13
:10C0F000001001402DE9F84F4F4C04EB8004D4F8B8
:10C100002C4A002C00F08180E56E002D79D01F466E
:10C11000EB6A6361AB6AA3616B8EE3602B8E236174
:10C120006B682366454B2360454BA160A3660646BA
:10C13000204690460EF0A2FC94F871000EF01CFB15
:10C14000814695F8200094F870B0A24600284FD19F
:10C1500002213B0784F87C1037D418F0020F11D06D
:10C16000B9F1000F0ED00B2389F806303A0606F11C
:10C17000010389F807304AD495F821204846222146
:10C18000FFF7B4F918F0010F04D1E26B9AB15046F1
:10C19000BDE8F88F58460EF0EFFA0028F5D00C22D3
:10C1A0000136C671827195F821202221FFF79EF990
:10C1B000E26B002AEBD195F8241095F8220089094A
:10C1C00058F0D0FB5046BDE8F88F0136F6B2B9F111
:10C1D000000FDAD00B23780689F8076089F806305B
:10C1E00009D595F8212042214846FFF77FF9CCE791
:10C1F00058F0B6FCACE7FB0695F82120F4D41221E8
:10C20000F2E7AA465046BDE8F88FA246BFE794F889
:10C2100071000EF0B1FA226E938923F008031B041B
:10C2200001211B0C938184F87C100028AAD02021C6
:10C23000FEF774FFA6E700BF04000010089F060881
:10C2400041BD0008BFF34F8F0549064BCA6802F491
:10C25000E0621343CB60BFF34F8F00BFFDE700BF29
:10C2600000ED00E00400FA0508B572B6FFF7EAFF3A
:10C2700000B583B00D49002200920091009B0C3361
:10C280000093009B1B68012B02D003B05DF804FBF8
:10C2900001920191019B06490C330193019B1A60A5
:10C2A0000B6883F308884B689847FEE750280040E6
:10C2B0000000FF1F38B5FFF79BFDFFF7D9FF0120F6
:10C2C00053F094FD714A936823F0030393609368DD
:10C2D00013F00C0FFBD113686C49002842D143F0D6
:10C2E0000103136041F288330A6895075DD4013B6E
:10C2F000FAD1674C674D654B674AEA60596F674AE8
:10C30000C4F8C01EAA60596B654821F080015963CA
:10C31000596F41F080715967196B41F4CE0119636F
:10C320005A6B5A639A6B9A631A6C02431A64596C7B
:10C330005C4A0A435A640FF093F8D4F8B8375A4A63
:10C34000A2FB03239B09013BB3F1807F09D24FF08D
:10C35000E022F02053610021072385F8230091613A
:10C36000136138BD43F4803313600A68940341F2CB
:10C37000883304D4013BBCD00A689403FAD5444CFA
:10C380004A4A4B4BB0FBF3F3B0FBF2F0B3EB400F78
:10C3900018BF18464FF48002B3FBF0F3C4F8BC2E6C
:10C3A000C4F8A80EC4F8AC3E09E0394C00210822BC
:10C3B0000223C4F8BC1EC4F8A82EC4F8AC3E022068
:10C3C00053F014FD03280FD83A4BD4F8AC1E03EBFE
:10C3D000C0008588C2884388C4F8B45EB3FBF1F31B
:10C3E000C4F8B82EC4F8B03E284B33491A6C42F05A
:10C3F00080521A640A6842F440420A609A689A605D
:10C400009A6842F400429A609A6842F4A0529A6094
:10C41000D4F8BC0ED4F8A82ED4F8B01E024342EAD9
:10C420008112D4F8B41ED4F8B80E490842EA00626A
:10C43000013942EA01425A601A6842F080721A6079
:10C440001A689201FCD51D4A40F205711160996885
:10C4500021F003019960996841F00201A2F5806220
:10C460009960936803F00C03082BFAD1D4F8AC0E52
:10C470001349D823B3FBF0F39B0143F00053012091
:10C48000C2F884308866FCF7C3FA33E7003802400C
:10C49000101A002000ED00E00005FA050000002061
:10C4A000FFC9FE36335F0700D34D621080841E0043
:10C4B00040420F00389F060800700040003C0240D8
:10C4C0000000474210B584B000230446ADF80C309C
:10C4D0000068ADF806308DF80E3003F18043013965
:10C4E00003F5823389B29842029114D0A3F5806398
:10C4F000984210D003F5804398420CD003F5806336
:10C50000984208D003F58063984204D0204BD3F8BA
:10C51000B8375B0802E01E4BD3F8B837B3FBF2F331
:10C5200001A9013BADF8043053F070FC2168194AB1
:10C530000B8819489BB243F001030B80002301E0F4
:10C5400050F83320914208D001330E2BF8D100204F
:10C5500004B0BDE81040FCF7B9B9104A02EBC303C0
:10C5600093F8D5472046FCF7B1F91B2C05D11920CB
:10C5700004B0BDE81040FCF7A9B92E2C08BF2C2050
:10C5800004D104B0BDE81040FCF7A0B904B010BD60
:10C59000101A002000000140589F060888970608DE
:10C5A00070B50468A30AA3F58013522B51D83C4DF3
:10C5B0002B4493F8F4530D2D4BD84079860800296D
:10C5C00054D005EB850305EB4303B4F80CE04FEAC8
:10C5D000900C33440220334E00FA0CF040EA0E0077
:10C5E00006EB830C80B2CCF85015CCF86025A08106
:10C5F000EFF3118C502383F312882C2305FB03F3F4
:10C60000F118D1F84C2562B3274BC1F870250432DC
:10C6100026482C2105FB01F1084414310B4453F842
:10C62000041B19B1116053F8042C04329842F6D15E
:10C6300000235FFA8CFC13608CF311882C2303FB1E
:10C640000565D5F870352BB1A3899BB243F0010382
:10C65000A38170BDA38923F001031B041B0CA381DC
:10C6600070BD03F12402104B1A44D1E7B4F80CC09A
:10C6700005EB8503304605EB43034FF0020E3344D0
:10C680001FFA8CFC074E0EFA00F02CEA0000A08185
:10C6900006EB8300C0F85015C0F86025A8E700BF7E
:10C6A00088970608101A00205C1F0020801F0020B9
:10C6B00001490248FDF784B95C1F002000000140D9
:10C6C00010B5064C064804F24C51FDF779F904F513
:10C6D000DB610448BDE81040FDF772B9101A002074
:10C6E000000001400044014002494FF08040FDF746
:10C6F00067B900BF881F002001490248FDF760B9F3
:10C70000B41F00200004004001490248FDF758B959
:10C71000E01F00200008004001490248FDF750B921
:10C720000C200020000C004001490248FDF748B9E8
:10C73000902000200004014010B5064C064804F586
:10C74000D061FDF73DF904F25C710448BDE810408A
:10C75000FDF736B9101A002000040140001C00400B
:10C7600001490248FDF72CB9BC20002000400140DF
:10C7700001490248FDF724B9142100200048014076
:10C7800001490248FDF71CB9402100200018004073
:10C7900001490248FDF714B998210020002000400B
:10C7A000F8B5164D1648174F00214FF41A725CF079
:10C7B00086FF05F688064FF08041A5F18C043A46C5
:10C7C000002301E054F8332091420BD001330E2BAB
:10C7D000F8D100201C3558F0C3F9B5420CD055F8FB
:10C7E0001C1CECE7084A02EBC3031C3593F8D40782
:10C7F00058F0B6F9B542F2D1F8BD00BFE49F060883
:10C800005C1F0020000001408897060810B50C2925
:10C8100037D8DFE801F097363636663636363736A3
:10C8200036360700038C5488B2F80CE023F48053AA
:10C830001B041B0C0384038CB0F804C0818B21F40F
:10C84000E6414EEA040E0904148823F40053090C4F
:10C8500041EA04211B04754C1B0C43EA0E33A04231
:10C860001FFA8CFC9BB289B200F0AE8004F58064A4
:10C87000A04200F0A9809268A0F804C081830264FD
:10C88000038410BD038CB2F80CC0548823F4807369
:10C890001B041B0C0384038CB0F804E0818B23F48D
:10C8A00000731B044CEA040C21F073011B0C43EAD7
:10C8B0000C230904B2F800C0090C41EA0C0C5B49D6
:10C8C00088421FFA8EFE9BB268D001F580618842D3
:10C8D00064D09268A0F804E0A0F81CC0C26303848E
:10C8E00010BD038CB2F80CC0548823F010031B0455
:10C8F0001B0C0384038CB0F804E0018B23F02003AD
:10C900001B044CEA040C21F4E6411B0C43EA0C1313
:10C910000904B2F800C0090C41EA0C211FFA81FC9D
:10C92000424988421FFA8EFE9BB269D001F58061B0
:10C93000884265D09268A0F804E0A0F818C082632D
:10C94000038410BD038C5488B2F80CE023F001037B
:10C950001B041B0C0384038CB0F804C0018B21F072
:10C9600073014EEA040E0904148823F00203090C33
:10C970001B0421432D4C1B0C43EA0E03A0421FFA5B
:10C980008CFC9BB228D004F58064A04224D092682D
:10C99000A0F804C001834263038410BDD189548A86
:10C9A00023F4006343EA0121138A2EF4405E2343FB
:10C9B0004EEA031E94884FF6FF330B4043EA0423EC
:10C9C0001FFA8EFE9BB284E7148A2CF4804C4CEA4A
:10C9D000841C1FFA8CFC4EE7D489B2F810E023F0D7
:10C9E00008032343548A2CF4407C4EEA040E9488B6
:10C9F00023F004034CEA0E0C1FFA8CFC2343C6E719
:10CA0000D189548A23F0800343EA0111138A2EF45A
:10CA1000406E23434EEA830E94884FF6BF730B405B
:10CA200043EA04131FFA8EFE9BB283E70000014025
:10CA30002DE9F04FA24BDFF8A49293F8D63EA14E19
:10CA4000A14F8FB0CDE90139013BDBB20093002546
:10CA5000DFF88CB2DFF88CA25B46D3469A464FEAE9
:10CA60009A23A3F58013522B4CD8334493F8F43314
:10CA70000D2B47D8FC56019B012B40F00181012C66
:10CA800035D14FF000084146204613F0B9FC13F0B1
:10CA900045FD037813B1542B40F0F98008F10408E8
:10CAA0001FFA88F8B8F1100FEDD14FF0000E8DB3DA
:10CAB000494600200CE0334493F8F4330D2B0ED894
:10CAC000FB56A3420ED00130A84201F580711EDA58
:10CAD0008A6813689B0AA3F58013522BEBD90023B5
:10CAE000A342F0D153799BF805209A42EBD1774BC2
:10CAF0005B454BD05BF81CAF4FEA9A23A3F580133C
:10CB0000522BB2D9009B012BF1D90024B9E7BEF119
:10CB1000000FECD15846FBF757FCC3B2022B9BF831
:10CB200005C000F23483431C5BB203EB43034FEABE
:10CB3000830E644B664903F5727004E0984200F07E
:10CB4000268353F82C1F5145F8D11A796245F5D147
:10CB500053F80E40002CF1D05E4800234268A242F8
:10CB600003F1010300F08980102B00F12400F5D1BE
:10CB70004FF0FF33584A03EBC30302EB830393F8F0
:10CB8000A830002BB3D1029BC3F808B0029B01353B
:10CB900003F58073042D02937FF45AAFDFF848B198
:10CBA0000BF59E730027ABF5816A9846DAF8243AB4
:10CBB000BB425FDDDBF80C50002D5BD09BF81030E2
:10CBC000A88802932B68DAF80460019303F13F41CF
:10CBD000B0FA80F301F57E010393002EC3F11F0329
:10CBE0004FEA9121009340F38480002302E0013357
:10CBF000B3427BD01C0259F804208A42F7D14C443E
:10CC00000099029B8BF8103003260137CBF80410F3
:10CC1000CBF80C50CBF81840AE71EF71636CE26C3E
:10CC20000D4649008E401E43012303FA01F11143D2
:10CC30009AF800206664E1647AB303FA05F11A46B3
:10CC4000236D0B432365019B89B21883D4F8A000A0
:10CC5000FBF7F6FB2046FBF749FD0123082F8BF875
:10CC60001C308BF81D3088F811300BF1200B08F1C7
:10CC700018089BD10FB0BDE8F08FDBB2013B79E71C
:10CC8000022B7FF4FEAE082C3FF4FBAE2FE74FF0F3
:10CC9000010E002D7FF40CAF29E70399C1F12F0598
:10CCA000009903FA05F58B4099B2236D2B43236558
:10CCB000019B5883D4F8A000FBF7C2FBCAE700BF72
:10CCC000101A0020889706080C17070830A90608D4
:10CCD0000000014014020020880100200C00001018
:10CCE0000004014050A806080C040010032B00F3B8
:10CCF0001F820AEB0623320218690492002800F012
:10CD00003F8299600131CAB283F80521069254220C
:10CD100083F804210136026805924479CAF8046058
:10CD2000FBF752FB934AC3B2022B92F8EDEE844616
:10CD300000F22D82461C76B206EB46068E498F48DD
:10CD4000059AB600002305E00133172B00F01F827F
:10CD500051F82C0F8242F7D10879A042F4D18859BA
:10CD60000028F1D02C2101FB03F30CEB4C0C03EB5E
:10CD70008C0C814B63441969049B5344C3E906013D
:10CD80007F4B00211E461C466368984216D0013135
:10CD9000102904F12404F7D17A4B93F88420002A57
:10CDA00000F0E7817849794A794BCAF8681ACAF8DD
:10CDB000602ACAF8703A0FB0BDE8F08F01F1010C9B
:10CDC0005FFA8CFC6F4B07960CF1FF3C0CEBCC0C24
:10CDD00003EB8C0C9CF8A8300593002BE2D1049E49
:10CDE000069B8CF8A930F31103EB262000EB00130F
:10CDF00068488C2400EB83003112674B04FB01F17F
:10CE000003EB41010AEB0603C3E93C145421019EE4
:10CE10008CF8A8103321C3F8AC10DE60C3F8A8006A
:10CE20005E4B04999A4209EB010400F07681534B62
:10CE30009A4200F0728103F580439A4200F06D81BE
:10CE400003F580639A4200F0688103F580639A429B
:10CE500000F06381474BD3F8B807BEF1060F4FEAE5
:10CE6000500000F061814E4B4E49BEF1070F18BFD4
:10CE70009C464D4B08BF8C464C4918BF1946B0FB29
:10CE8000F1F1B0FBFCFC1046049A01390AEB0203F5
:10CE900089B20CF1FF3CA3F8B0C0A3F868104FF0C2
:10CEA00000060193A165002302F154014944A4F84E
:10CEB0005C60636552F0AAFF019B3D4A1B690193C8
:10CEC000186803889BB243F08003038003880992AB
:10CED0000A210B914FF48072022123F00103CDE966
:10CEE0000C121B04ADF828601B0C019E03807179A5
:10CEF00009AAFFF78BFC3079002840F02281049BBF
:10CF0000079E0AEB030200231069D2F818C00168DB
:10CF10000A8892B242F001020A807268944503F1D5
:10CF2000010300F00A81102B06F12406F5D14FF021
:10CF3000FF33144A1F4E03EBC30302EB83031E4A65
:10CF4000D3F88C30B3420CBF4FF400134FF480037E
:10CF5000166B33431363427918480C2A9BBF184B56
:10CF600003EB42030026B3F8CC60049B53449E823B
:10CF700000232EE0101A00208897060800000140C8
:10CF80001402002088010020FD720108F9720108D6
:10CF90000573010800290020302C00200004014006
:10CFA0004495080010552200D0DD060040771B0094
:10CFB00060000100006002400038024014060010CA
:10CFC00080A80608914200F0E0800133042B00F0B5
:10CFD000E18050F83320002AF4D1DAF80C2601322F
:10CFE000CAF80C260AEBC302DB00C2F81016034491
:10CFF0006A499A88059816439E80049B0AEB0306AB
:10D0000090222346FDF78EFFB0690268002342F0AC
:10D0100010020260C4E92533A367C4F88830C4F85D
:10D020009C30F26962664FF48062E26704214FF43B
:10D030000032C4E9232140222267D6F8AC2062677F
:10D04000F268049B1832A2664FF48052C4F8802024
:10D05000D6F8A820E26603F164014FF48042494407
:10D06000C4F8842052F030FEB069049BD0F800E090
:10D07000C4F81CE0D0F814E0C4F820E0D0F804E0D4
:10D08000C4F824E003F1AC01D0F808E0C4F828E0CB
:10D090000023D0F80CE0C4F82CE0C4E93733C4F81E
:10D0A000B830C4F8C030C4F8D030C4F8E430F36904
:10D0B000C4F8AC304FF48063C4F8C4304FF4403C43
:10D0C0000423C4E935C3D6F8F430C4F8BC30F3689F
:10D0D0001033C4F8B0304FF40063C4F8C830D6F849
:10D0E000F030C4F8B4304FF48042C4F8CC20494446
:10D0F00052F0EAFDB369A8881A6822635A6962632C
:10D100005A68A2639A68E263DA6822641A6842F095
:10D1100010021A602B68019372E5214BBEF1060FD5
:10D12000D3F8B8077FF49FAEDFF87CC01D49A6E6B0
:10D130001B4A032382F8EC3E34E6DBB20593013B45
:10D14000F7E60DF019FB069038B1019B0221DA7960
:10D15000FEF7CCF9069B5422DA80019B1A68B2F8DC
:10D1600044306FEA43436FEA53439BB2A2F8443022
:10D17000C5E6542283F88420069A83F8852011E6B8
:10D18000074A022382F8EC3E0CE6DB002FE700237F
:10D190005B68FFDE00239B88FFDE00BF89840008F8
:10D1A000101A0020A0BB0D00882A11000C2911D8EC
:10D1B000DFE801F0231010101910101011101010DA
:10D1C0000700838B23F400631B041B0C43EA022239
:10D1D00092B282837047838B23F008031B041B0CDD
:10D1E0001A4382837047038B23F400631B041B0CD8
:10D1F00043EA022292B202837047038B23F00803B2
:10D200001B041B0C1A430283704700BF2DE9F04F2B
:10D21000DFF870B29BF8004087B024B901242046A3
:10D2200007B0BDE8F08F934ED6F8C0570EF08CF9DA
:10D230009BF8B43A0390002B00F058828E4AA2FB70
:10D2400005328E4B5209A3FB0213DB0803EB830369
:10D25000A2EB4303DAB204920BF23C6202EB8303CB
:10D2600000930BF61C1306F1E40401934FF0000940
:10D27000924635E03B680293009B5C330093019B30
:10D2800030461433019352F089FC7A4B02988C2279
:10D2900002FB0933002583F8D85079792A46FFF735
:10D2A00085FF22467979FFF7B1FA79790822FFF7ED
:10D2B0007DFF402344F83C3CA4F14801304652F045
:10D2C00003FD336843F0100333609BF8B43A09F16F
:10D2D000010999450AF15C0A04F18C0480F2D480BA
:10D2E000DBF83836039AD31A04D454F8082C934246
:10D2F000C0F2AB815F4B54F8587C266A8C2202FB4B
:10D30000093393F8D830002BB4D03968736834F8F7
:10D31000542C02911FFA83FE8B89CEF1160E9BB21C
:10D3200023EA0203BEF1070F8B81A5D9DBF824396C
:10D330000133CBF82439A36A05939C4600225CF89C
:10D34000045B012190461BE0DCF80000B8F1140FEB
:10D35000A0EB05031DDC13F1080548BF03F1170519
:10D360002B1108EB25180546581E013102FA03F36C
:10D37000012282408E4542EA03020CF1040C08D3DC
:10D380008E45E1D8C8F11503DCF800504FF01508C0
:10D39000EAE7B8F1150F60D13948C2F38423C2F32C
:10D3A000441100EB830300EB8101D3F8E830D1F89E
:10D3B000E8101B0243EA011302F01F0100EB810198
:10D3C000C2F3C43200EB8202D1F8E810D2F8E820B0
:10D3D0000B4343EA023383EA132282EA121202F079
:10D3E0000F020F2A39D1C3F30F134FF6FF72934286
:10D3F00033D0B3F5606F00F03681019A93819AF8CB
:10D400005820049DAA4211D00098DAF800208168C3
:10D41000521ACAF80020016BDAF80420521ACAF82E
:10D4200004200022826002638AF85850DAF8002053
:10D4300000990132CAF800208A6801328A604FF6EA
:10D44000FF7293427FF418AFDAF804300133CAF860
:10D4500004300B6B01330B630EE7DBF8203901332B
:10D46000CBF82039B9F1000F00F0E5804FF6FF73DB
:10D47000C5E700BF101A00201F85EB51CDCCCCCCE6
:10D4800080A806080400001001228BF8202ACBF89F
:10D490003856002B3FF4C2AE974890F89410890795
:10D4A00000F1BE80D0F88C10086849798A40018C60
:10D4B00092B289B221EA02010184018C89B20A4345
:10D4C000012B02843FF4AAAE8B4991F820219707E3
:10D4D00000F1C080D1F8182110685479018C012224
:10D4E00089B2A24092B221EA02010184018C89B280
:10D4F0000A43022B02843FF491AE7F4991F8AC219C
:10D50000960700F1C180D1F8A42110685479018CEC
:10D51000012289B2A24092B221EA02010184018C67
:10D5200089B20A43032B02843FF478AE724991F822
:10D530003822950700F1B180D1F830221068547973
:10D54000018C012289B2A24092B221EA0201018437
:10D55000018C89B20A43042B02843FF45FAE664912
:10D5600091F8C422940700F1A180D1F8BC22106880
:10D570005479018C012289B2A24092B221EA0201BF
:10D580000184018C89B20A43052B02843FF446AE24
:10D59000594991F85023900700F19180D1F8482320
:10D5A00010685479018C012289B2A24092B221EA1A
:10D5B00002010184018C89B20A43062B02843FF4E4
:10D5C0002DAE4D4991F8DC23920700F18180D1F80E
:10D5D000D42310685479018C012289B2A24092B2FE
:10D5E00021EA02010184018C89B20A43082B0284DA
:10D5F0007FF414AE404A92F868349B0771D5D2F894
:10D6000060240423116850790A8C83409BB292B243
:10D6100022EA03020A840A8C92B213430B84FDE5CA
:10D62000354AD2F88C2010685479018C0422A2402B
:10D6300089B292B23EE70599304858225BF0DCFF90
:10D640003B6802934FF6FF73D9E60024204607B0EB
:10D65000BDE8F08F284AD2F8182110685479018C5F
:10D66000042289B23DE7244991F8E52402EB420205
:10D6700001EBC2024A4492F8F5240D2A7FF4BDAEB4
:10D68000019980228A77BAE61B4AD2F8A421106851
:10D690005479018C042289B23CE7174AD2F830222F
:10D6A00010685479018C042289B24CE7124AD2F8EE
:10D6B000BC2210685479018C042289B25CE70E4ABE
:10D6C000D2F8482310685479018C042289B26CE79F
:10D6D000094AD2F8D42310685479018C042289B203
:10D6E0007CE7054BD3F8602401238BE701228BF8FC
:10D6F000202ACBF8383692E5101A0020CC09001009
:10D700002DE9F04F002299B02F21074612F05CFF5F
:10D7100000B3BE4ED0F80080C6F8A48E0446FDF7D4
:10D7200005FB0246B0B1D0F804C0C6F8A0CEBCF1EB
:10D73000000F0FD0B64D002329464868844501F1FB
:10D74000240103F101030FD0102BF6D1B14B93F854
:10D75000840018B1002019B0BDE8F08F2F2283F8A3
:10D76000842083F88500F6E7DBB2DFF8A892013B5E
:10D7700003EBC30309EB830393F8A8A0BAF1000FEE
:10D78000E8D138469768DFF8C0B22F22A3F8A82066
:10D790000CF0F2FF2F220346CBF88C0520B1DA8083
:10D7A000E2792A21FDF7A2FE9B4A9C49002301E071
:10D7B00051F83320904500F0228101330E2BF7D130
:10D7C000002057F0CDF9D6F8A40E954A038823F02F
:10D7D00001031B041B0C9042038000F070818E4BF0
:10D7E000984216D003F58043984212D003F5806327
:10D7F00098420ED003F580639842D6F8B8270AD035
:10D800008849B1EB520F4FEA520340F25281002196
:10D810000AE0D6F8B827834B9A4280F017814FF080
:10D82000010C0021B2FBFCF37F4AADF804101B0A87
:10D830007E49A2FB03231A09A1FB021252084FF0F2
:10D8400000081B09ABF88A2501A952000293ABF826
:10D850008825ADF80C80ADF806808DF80E8052F06A
:10D86000D5FACDE90688CDF82080A379ADF81480EB
:10D87000602204929A0740F1AF80DB0003F00803B6
:10D88000ADF81E300423ADF81430D6F8A40E61793B
:10D8900004AAFEF7BBFF61790822FFF787FCB0F806
:10D8A0004430D6F8A08E6FEA43436FEA53439BB2ED
:10D8B000A0F8443003889BB243F080030380A3792F
:10D8C0006179028C9B074CBF042301238B409BB2E0
:10D8D00092B222EA03020284028C92B213430384BE
:10D8E00003889BB243F0010303802A46002351685A
:10D8F000884502F1240203F101037DD0102BF6D1FB
:10D900004FF0FF3303EBC30309EB8309484AD9F80F
:10D910008C3048498B420CBF4FF400134FF4800306
:10D92000116B0B43136300236A68904505F12405CE
:10D9300003F101035DD0102BF6D13F496022002393
:10D940005046FDF7EFFA404652F028F9D6F8A00EFF
