:020000040800F2
:100000000000012025310508C1310508B1C70108EC
:1000100009C60108C1310508C1310508000000000A
:10002000000000000000000000000000C1310508D1
:10003000C131050800000000C1310508E9B301081D
:10004000C1310508C1310508C1310508C1310508B4
:10005000C1310508C13105085DB0000865B0000870
:100060006DB0000875B000087DB0000869AE0008EA
:100070007DAE000891AE0008A5AE0008B9AE00083C
:10008000CDAE0008E1AE0008C1310508C131050858
:10009000C1310508C1310508C131050885B0000826
:1000A000A5EA000891E90008B5EA000881E900081E
:1000B000B9E90008C9E90008D9E90008FDA9000864
:1000C000F1A9000831AA000825AA0008C1310508D5
:1000D000C131050835B3010841B301084DB301082A
:1000E0008DB00008C1310508C1310508C5EA000816
:1000F0007DEA0008C13105086DEA0008F5AE000888
:10010000C13105089DDB0008E9E90008C131050897
:1001100059B3010865B30108F9E900083DAA0408CC
:1001200009AF00081DAF000831AF000845AF000857
:1001300059AF0008000000000000000000000000AF
:10014000000000000000000000000000C19F040843
:100150006DAF000881AF000895AF000871B30108CA
:1001600065AA000859AA0008C1310508C13105086F
:10017000C1310508C1310508000000000000000081
:10018000C1310508C1310508C1310508C131050873
:10019000C1310508C131050800000000C131050862
:1001A000000000000000000000000000C131050850
:1001B000C1310508C1310508000000000000000041
:1001C000000000000000000000000000000000002F
:1001D000000000000000000000000000C131050820
:10800000084A0346D0F8E4005268D3F8F010121A78
:1080100000209142B8BFC3F8F020012283F81C2150
:10802000704700BF001000E01B4B1C4A03F5727C38
:10803000016803E063452BD053F82C2F9142F9D10E
:1080400070B593F804E0427996450AD0634505D0AF
:1080500053F82C2F9142F4D06345F9D14FF0FF3003
:1080600070BD9E4684680022DEF80C50A54208D000
:1080700001320EF10C0E032AE8D0DEF80C50A542B6
:10808000F6D1DEF81050C668B542F1D150B270BDDD
:108090004FF0FF30704700BF984C050800000140CA
:1080A0004368426D30B49A61EFF31182502383F339
:1080B00012884168D2B2856C0B68046D23EA05030F
:1080C00023430B6082F31188436981681A68096849
:1080D00022F00102D0E908541A60826A1D605C61D6
:1080E0005A60D0E90B429C60DA600023B0F86C2043
:1080F00030BCCA620377704730B5FAB18E464FEA9A
:10810000014C034600F1C005002419680C3353F8F4
:10811000042C43F8084C41EA0C0142EA0E02AB423F
:1081200043F80C1C43F8042CEFD1D0F8C03043EADC
:108130000E03C0E93144C0F8C03030BD4FEA014EF3
:108140008C46DEE783695969B3F810C00A6830B419
:108150009C6822F0010224680A60E26822EA0C02AC
:10816000E260027D04681F2A06D9203A082065686B
:108170009040284242D0FEE70820256890402842DF
:10818000F9D1202000FA02F2A260254A1278002AD2
:1081900032D01A7F012A36D0D3F800210132C3F839
:1081A0000021EFF31181502282F312885868C9B27E
:1081B0009D6C0268DC6C22EA05022243026081F3B6
:1081C00011885A699968D3E90D40096814605061B3
:1081D000D3E90F40546090605C6CB3F8B400D46095
:1081E0000124C8621068204310601A8A1C7783F843
:1081F000FD40CB681343CB6030BC7047202000FAB1
:1082000002F2E260C1E70022D3F8040183F8FD2006
:1082100001300A68C3F8040122F001020A60EBE7AA
:108220009001002010B40C4C6368002B11DD00207D
:1082300004F1080C0146DCF8AC3003F1C0025960CF
:108240000C339342FBD1013063680CF5867C83428A
:10825000F1DC5DF8044B704790010020704700BFCF
:10826000024B03EB401090F855047047900100203A
:10827000704700BF0B4890F86C1589B101EB4101C4
:10828000002300F27450490010B41C4650F823201B
:10829000063302B114608B42F8D15DF8044B70478D
:1082A000704700BF900100200B4890F86C1589B111
:1082B00001EB4101002300F27450490010B41C4648
:1082C00050F82320063302B114609942F8D15DF8CA
:1082D000044B7047704700BF900100200120704799
:1082E000034B00EB400003EBC00090F8850570479E
:1082F00090010020204890F86C35002B3AD00022E5
:1083000000F274534FF02C0C2DE9F0434FF0500E57
:108310001A4E1B4D144607E053F8181B01320C602F
:1083200090F86C15914223DD197C0029F4D05F6828
:108330004FF0FE08B90AA1F580115229294498BFCF
:1083400091F8F483EFF311818EF31288D7F824901B
:108350000CFB0868C9B209F10109C8F82890D7F8E0
:10836000148048F00108C7F8148081F31188D3E71E
:10837000BDE8F083704700BF90010020E0180120A5
:10838000984C050807EE900AB8EE670A704700BFE0
:10839000BCEEC00A10EE103A98B270472DE9F041D9
:1083A0000022794B846982B0D3F89462019208224A
:1083B00004F19C07D4E93D839A40D8F80050154257
:1083C00005D0D4F89C100868400700F1B080012265
:1083D0009A40154205D0D4F89C104969080600F16E
:1083E0009D8004229A40154205D0D4F89C1009685B
:1083F000890700F18A8010229A40154204D0D4F8EF
:108400009C10086800076AD420229A40154218D0B0
:10841000D4F89C100868C00613D5C8F8082094F852
:10842000D120052A39D00B6813F4802F0B6800F097
:108430009280190340F19D80D4F8D8300BB13846B2
:108440009847D4F8F030002B46D0D4F8F030DA0753
:108450001BD54E4BD4F89C20A3FB0636052384F88D
:10846000D130B60A136823F00103136002E01368E9
:10847000DB0704D5019B01339E420193F7D2002212
:10848000012384F8D02084F8D130D4F8E8301BB32D
:10849000384602B0BDE8F04118470A6822F01602DB
:1084A0000A604A6922F080024A61D4F8DC20002A7E
:1084B00065D00A6822F008020A603F22002102FA11
:1084C00003F30122C8F80830D4F8EC3084F8D01057
:1084D00084F8D120002BDBD102B0BDE8F081C8F8D0
:1084E00008200A6812F4802F0A682DD1D20503D41F
:1084F0000A6822F008020A60D4F8DC20002A83D03F
:1085000038469047D4F8F8307EE7C8F80820D4F809
:10851000F02042F00402C4F8F0206CE7C8F808200C
:10852000D4F8F02042F00202C4F8F02059E70868BD
:1085300020F004000860C8F80820D4F8F02042F0C9
:108540000102C4F8F02042E71103D5D5D4F8E420A5
:10855000002AD5D158E713F480737FF46DAF0A6811
:1085600022F010020A60012284F8D03084F8D12071
:1085700062E7D4F8E030002B7FF461AF61E7D4F814
:10858000E420002A95D198E7E0180120B5814E1B20
:10859000C2628161704700BF436A02461B681B6A62
:1085A0005B689B7813F0010008BF5077704700BFED
:1085B0000346012200205A77704700BF08B5D0E972
:1085C0000B2183690B4483610AB108469047002060
:1085D00008BD00BF704700BF043070470C4B93F8D4
:1085E0009C22D3F8981202440844D2B2C3F89802ED
:1085F00083F89C2293F89C22120605D593F89C22BE
:1086000082F0800283F89C22024B01221A7070478C
:10861000E0180120000001202DE9F84F154FD7F890
:10862000A052ED0A20D00026DFF84CA007F52979EA
:10863000B046AC19D7F8A412102352466410D1F8F2
:1086400028B04846C7F8D082E102D8470F280BDD92
:10865000094B03F1100253F8041B013107D1934277
:10866000F9D12546B542E4DCE802BDE8F88F661C86
:10867000F8E700BFE018012000000020184BD3F8F5
:10868000D812D3F8DC228A1A322A15D8D3F8F0226D
:108690008A4200D37047D3F8E022E2B11068323149
:1086A000928810B44469C3F8F01222425DF8044B7A
:1086B00018BF120482617047D3F8E0223AB193F8F0
:1086C000EC021168C007928848BF12048A61002238
:1086D000C3F8F02270473231C3F8F012704700BF80
:1086E000E0180120064AD2F8E0323BB192F8EC12D1
:1086F0001A68C9079B8848BF1B0493610020704714
:10870000E0180120044B4FF4007C0020D3F8003324
:10871000A2F800C00B607047E018012000207047ED
:1087200001207047012070470020704700207047EB
:108730000020704738B5074B14460D46D3F8303348
:108740001B6A984702464FF40073002012682A60A3
:10875000238038BDE018012008B5074BD3F830332B
:1087600033B15B69984780F00100404240B208BDD8
:108770004FF0FF3008BD00BFE01801200020704717
:108780002DE9F04123B3164688469F18144DD5F8BD
:108790003043002341463046A4681A46A0470028CB
:1087A000F5D0D5F8303333B15B69984720B9D5F8A7
:1087B0003033002BF8D1FEE7013608F50078B742D8
:1087C000E5D1D5F8D8320020C5F8DC32BDE8F0811B
:1087D000034D0020D5F8D832C5F8DC32BDE8F08171
:1087E000E01801202DE9F0415BB316460F4603EB7C
:1087F0000208184C04E0D4F8301319B14B699847BB
:10880000D4F8301300230D69304639461A46A8477C
:108810000028F0D1D4F8303333B15B69984720B9E0
:10882000D4F83033002BF8D1FEE7013607F5007796
:10883000B045E5D1D4F8D8320020C4F8DC32BDE828
:10884000F081044C0020D4F8D832C4F8DC32BDE802
:10885000F08100BFE018012000207047034B93F81F
:108860005803003818BF0120704700BFE0180120EE
:108870001C4AD2F888336BB1186892F885139B882C
:108880000069034021B12BB1002382F858337047AF
:10889000002BF9D092F85833032B0FD892F84C33B1
:1088A0000133DBB2072B82F84C33EDD8D2F8D81263
:1088B0000123C2F8481382F858337047D2F8943233
:1088C00009489908B0EB930F4FF0020306D249080C
:1088D0005B0081429BB201D9FF2BF8D9A2F89033FB
:1088E000DCE700BFE0180120801A0600816D034616
:1088F0000A6A52681278FF2A09D090F8F020013AEB
:1089000052B2002A80F8F02006DD012070470822CC
:10891000002083F8F02070470B6A002202205B6879
:108920001A707047836D1B6A5B681B78FF2B0AD136
:1089300090F9F030002B03F1FF3280F8F020CCBF2B
:108940000120022070470020704700BF836D1B6A22
:108950005B681B78FE2B0CD0FF2B08D190F9F03010
:108960005A1E002B80F8F02001DD01207047022004
:1089700070470020704700BF034B93F8580303284B
:1089800094BF002001207047E01801200048704784
:108990003C1C0120034B93F85803003818BF0120FA
:1089A000704700BFE0180120134BD0F8D8105B6867
:1089B000D0F8E02010B50446581A824200DC22B9F3
:1089C000D4F8E4200A44C4F8DC2094F8D020C4F899
:1089D000D830012A05D0D4F8D4300133C4F8D430CB
:1089E00010BD04F1E801201D11F0B6FCD4F8D4301C
:1089F0000133C4F8D43010BD001000E02DE9F84F69
:108A00000546406A0F460468236A002BFCD1404E9D
:108A100096F82834002B43D0D6F82C94B5F806C02D
:108A2000DFF804E13B49B9FBFCF30CFB13938EF830
:108A300012301B0A8EF811303B68374FD2F8008095
:108A4000C7F8A4300023C7F8AC80C7F8B4308B68EF
:108A5000002B5BD00B46DC691433002CFBD114686F
:108A6000DFF8C8A0A1441860C3F804A00123C6F829
:108A70002C9486F82834B9FBFCFB0CFB1B9BBBF148
:108A8000000F20D0254BC7F8B4306B7F03B91431E9
:108A90002C6311F061FCEB6A83B3286BBDE8F88F9F
:108AA000D5F81890B5F806C0DFF87CE01C49C6F888
:108AB0003094B9FBFCF30CFB13938EF816301B0AB1
:108AC0008EF81530B8E7D6F830445346B4FBFCF4C2
:108AD000C7F8CC4064BAAEF81A40B8F1000F03D022
:108AE000DC691433002CFBD114680E4A18605A60FC
:108AF0000023C6F8309486F82834C6E76B6A1A68F3
:108B0000136A002BFCD1286BBDE8F88F0B46A6E753
:108B1000E01801200400012000000120BD850008AC
:108B200054000120D000012000000020A4000120FA
:108B300033B910B51C46C36A20469847204610BD7D
:108B40005CE700BF10B582B00C46019201A9049AFF
:108B50008461C2626A460093FFF750FF02B010BD05
:108B600030B5044699B0080E95258DF80C100122F9
:108B70008DF80900080C8DF80D5044F040058DF873
:108B80000A00080A0DF107018DF808508DF80B0056
:108B9000002305911B491C4D089102A906920991D9
:108BA000062110920DEB01000B9108218DF8582041
:108BB000164A0F9005F5637085F8241404A91292E3
:108BC00004938DF81C300A938DF830300D930E937A
:108BD0008DF8443013931793CDE9143311F0BCFB97
:108BE000D5F88C23136A002BFCD19DF80730FF2B9E
:108BF00000D01CB99DF8060019B030BD4FF0FF3011
:108C0000FAE700BFED880008E01801202589000878
:108C100030B597B01B4C0023022508900846082168
:108C20000DF10702099004F5637084F824141649C5
:108C30008DF81430069102A907938DF828300D9312
:108C40008DF83C3015930E95CDE902320122CDE925
:108C50000B33CDE91033CDE9123304928DF8502057
:108C600011F07AFBD4F88C33186A0028FCD19DF8F7
:108C70000730FE2B03D0FF2B14BF0220012017B0BA
:108C800030BD00BFE01801204D89000830B59BB011
:108C90002A4CFD21002301220DF1020504F5637029
:108CA0008DF802100BA90D928DF860201095C4F874
:108CB00054338DF838300F938DF84C301993CDE93B
:108CC0001132CDE90B33CDE91433CDE9163311F070
:108CD00043FBD4F88C2304F56370136A002BFCD19A
:108CE0000DF1030101228DF8103008930A930392CD
:108CF0008DF8242084F82424CDE901311049059110
:108D000001A9CDE9063311F027FBD4F88C33186A9A
:108D10000028FCD19DF80330FF2B08D00922D4F89D
:108D2000D83284F85823C4F848331BB030BD04232C
:108D3000022084F858331BB030BD00BFE01801207A
:108D4000258900080C4AF8B5136855692B4003EAD9
:108D5000000555617DB1094F0126B5FA85F4C4F1CE
:108D60001F0407EB840306FA04F4D3F83404036801
:108D70009847A543F1D1F8BD003C0140E01801201F
:108D80000269C3682DE9F04712EA03092AD00546B3
:108D90000E464FF000474FF00008B9FA89F327FA62
:108DA00003F21B3BD24309EA02092A61042B16D8BD
:108DB000DFE803F03B30251A0300B36A002B3FD0F5
:108DC00003F1FF3AC6F828801FFA8AFA746A34B1B0
:108DD00023682046514698476468002CF8D1B9F1C1
:108DE000000FDAD1BDE8F08770680028F7D0696B12
:108DF000036889B29847B9F1000FCED1F2E7B068A5
:108E00000028ECD0A96B036889B29847B9F1000F2C
:108E1000C3D1E7E7F0680028E1D0E96B036889B2C5
:108E20009847B9F1000FB8D1DCE730690028D6D0F7
:108E3000296C036889B29847B9F1000FADD1D1E729
:108E4000E96A1FFA81FAC1E78369F0B593F8DC207B
:108E50008BB00546012A27D0023A012A2FD893F871
:108E60004C21EC46D3F89C1062F07F03154C0B703C
:108E70008669D6F8A0305F1C0FCCACE80F00D6F89E
:108E80009C30CDE900370FCCACE80F0094E803002C
:108E90008CE80300694606F1100011F05DFAAB6939
:108EA00019690A6A002AFCD1D3F8A0305A8852BA4C
:108EB000EA819A8852BA2A82DB885BBA6B820120E7
:108EC0000BB0F0BDE0500508F0B590F8DC308BB089
:108ED0000446D0F8A060012B4BD015D8D0F89C30B8
:108EE0004FF0FF3205211A605A609A60DA60D0F8BC
:108EF000E030C0F8F010B3F57A7F54D8032380F83F
:108F0000DC3001200BB0F0BD023B012BF9D890F80A
:108F10004D31EC46D0F89C2063F07F03384D137040
:108F2000D0F8A0305F1C0FCDACE80F00D4F89C3017
:108F3000CDE900370FCDACE80F0095E803008CE8D1
:108F40000300694604F1100011F006FA2269136A61
:108F5000002BFCD1738801205BBAA4F8D030B38811
:108F60005BBAA4F8D230F3885BBAA4F8D4300BB063
:108F7000F0BD90F84C2190F84D319B1A5B100133F5
:108F8000DBB236F8132006EB430653BAA0F8D03014
:108F900073885BBAA0F8D230B3885BBAA0F8D4303B
:108FA00001200BB0F0BD03691A7B2AB35B691BB3C8
:108FB00090F8983003B390F84C310122D0F89C001F
:108FC00063F07F03C4F8A4400E49037094F84D3158
:108FD00094F84C0184F800211B1A84F8DC20D4F8A2
:108FE000A0200733C4F804110132D4F89C10C4E95E
:108FF0003E23C4F8F41084E7022384F8DC3080E7D1
:10900000E0500508018000082DE9F041304F07EBE2
:10901000401898F854340BB9BDE8F08100EB800398
:109020000E460021044607EB4313450193F836260C
:1090300083F8361688F83A244BF0DEFDB8BB3D4481
:109040002448A5F8386400EB44104BF0D1FD3B7880
:10905000D5F85024A3B1D5F83C140124D2F8AC3093
:109060008C4003F1C001420010F4004F90B202D1D5
:109070005A6822435A600C339942F4D1BDE8F0811A
:10908000D5F83C140124D2F8AC3001F1100203F100
:10909000C0019440420010F4004F90B202D15A68CF
:1090A00022435A600C339942F4D1BDE8F0810A4B57
:1090B00093F8EC2402EB420203EBC203234493F83F
:1090C0009964002EBBD0012388F83A34B7E700BF7B
:1090D00090010020C8050020E01801202DE9F84F7C
:1090E000374D2B7813B90120BDE8F88F354F05F5C2
:1090F000876A05F634360024D7F8D8B24FF6FE79E1
:109100004FF6FF7815E0B0F5606F4AD0B081B0EB54
:1091100008012D4B4FF05C005A4618BF012100FB9F
:10912000043010F02DFF01340AF1200A1436082C07
:1091300031D0D5F81C2FA2422DDDDAF81800DAF86C
:109140000420D0E93D014BF08FFD484597F8752488
:1091500014D0542A04D1B7F878240132A7F878241F
:10916000D5F83C2B404502F10102C5F83C2BCAD191
:10917000D5F8382B0132C5F8382BC8E7542AD2D19C
:10918000B7F87A2401340AF1200A14360132082C87
:10919000A7F87A24CDD10123012085F8383CBDE819
:1091A000F88F97F8EC2402EB420207EBC20222444C
:1091B00092F899240D2AA9D18022B277A7E700BF9F
:1091C00090010020E0180120CC0D00202DE9F8438B
:1091D00012F060FA2F4E4FF0000C0746DFF8BC800B
:1091E0002D4C716800294ADD00234FF486701D461E
:1091F00000FB0362013392F80521994245EA02051A
:10920000F6D145EA0C0C5FFA8CF9D8F80430C3F3B8
:1092100008038BBBEFF3118373BB4FF0E02CD4F842
:10922000D832DCF81810D4F8D8229342F7D1D4F809
:10923000F0249142F3D8D4F8F4C44FF47A7202FBCC
:109240000CF0401AB0FBFCF002FB0300C31BB3F5AB
:10925000FA6FCCBF4FF0000C05F0010CBCF1000F11
:10926000BFD1B9F1000F04D00B4B93F87524542AE9
:1092700008D04846BDE8F88312F0DCF8E6E7E1469E
:109280000025C2E7B3F87C2448460132A3F87C24C9
:10929000BDE8F88390010020E018012000ED00E017
:1092A00010B504464AF050FD0146204689B2BDE89B
:1092B0001040A9E638B50B4D00EB400005F27453A1
:1092C000C40003EBC0032C4493ED027AD3ED037A80
:1092D000E7EE007AB0EE670A4AF036FDD4F874354E
:1092E000186038BD900100202DE9F0414BF078FC6A
:1092F00080B31B4F7D68002D12DD3846002410F826
:10930000086BA046013416B1037F012B1DD04269C2
:10931000AC4200F58670136843F001031360F1D18D
:1093200012F0B8F9D7F8204F002C0CDD0D4B03EBF1
:10933000C4041968083333F8042CC8689C4242EA14
:109340000002CA60F5D1BDE8F08180F8FC80FEF72C
:10935000A7FEDCE745F09EF90028CAD1BDE8F08100
:1093600090010020B4100020830AA3F58013522B33
:1093700052D8F0B504466A4885B0034493F8F40324
:109380000D2847D8674D860105EB8013D3F8FC7490
:10939000A7423FD00139C3F8FC4489B2C3F808158D
:1093A000D5F89412B1FBF2F2013AC3F8002500227D
:1093B000C3F80C25C3F80425C3F8102593F8392504
:1093C00002F0FF014AB358490223AF1901EB8011A3
:1093D000204687F83935043140F0C0FA012387F878
:1093E0003935524B9C421BD0B4F1804F18D0A3F5B5
:1093F0007C439C4275D003F580639C4271D04C4AFB
:1094000003F57C439C4218BF944249D003F5705346
:109410009C4245D005B0F0BD704783F83815D2E7BF
:1094200000234FF48051AA19CDE9001392F83815A2
:109430000129CDE90233EDD00221D2F8FC04012448
:1094400082F839153B4987683940816082F839458F
:1094500082F838350023AA19CDE90033029392F837
:109460003835012BD6D0D2F8FC3402212F4882F8AF
:10947000391583425A6899684ED000F5806083425E
:109480004AD022F0700221F08001354401205A6058
:109490009960002385F8390585F8383505B0F0BDA9
:1094A00000214FF48053CDE90031AB1993F83825F2
:1094B000012ACDE90211ADD0D3F8FC04022283F8D1
:1094C00039251C4A87683A4082601B4A83F8381560
:1094D0000121944283F83915BCD0154B9C4299D197
:1094E000B8E700224FF48051AB19CDE9001293F890
:1094F00038150129CDE902228CD00221D3F8FC04D1
:10950000012483F839150B4987683940816083F855
:10951000394583F838259DE722F47002B1E700BF92
:10952000984C0508E0180120DC1D012000000140D6
:10953000000C00408800FEFF0004014010B590F8C8
:1095400028300446012B03D000230120637710BD8F
:10955000406A03681A7B3AB945F076FE00F00103D1
:1095600083F001006377F2E71B6A002BF4D0002040
:1095700010BD00BF38B5114D044694F82830012BBA
:1095800005D00023637700230120236238BD606A81
:1095900003681A7B72B945F057FE00F0010060774E
:1095A0000028F0D0D5F8D832226A9B1A002BE4DBD1
:1095B000002038BD1B6A002BEDD0F3E7E018012036
:1095C00010B5FF22044690F82810406A48F080FE4B
:1095D0000E4B2046D3F8D83203F5FA732362FFF717
:1095E000C9FF94F82830012B00D010BD0022A02123
:1095F000606A48F045FE94F82830012BF5D1606A86
:109600001822B021BDE8104048F03ABEE018012011
:10961000CB0700D5704710B50446FFF7D1FF94F88B
:109620002830012B00D010BD0A4B0B49D3F89432DF
:10963000606AB1EB930F4FEA93024FF0020306D238
:1096400052085B008A429BB201D9FF2BF8D9838074
:1096500010BD00BFE018012000E1F50538B5044653
:109660000D46FFF787FF062294F82810606A48F03D
:109670002FFE012294F828306277934205D0074BE1
:10968000D3F8D8320F33236238BDE288D821606A1C
:10969000B5FBF2F248F0CEFDF1E700BFE018012083
:1096A0002DE9F843838853B304460025DFF854803E
:1096B000012707E0D8F8D8320135A2880F33AA4233
:1096C00023621CD92046268AB4F80690FFF752FF81
:1096D000062294F82810606A48F0FAFD94F82830C1
:1096E0006777012BE6D109FB06F6E288D821606A8C
:1096F00005FB06F6B6FBF2F248F09CFDDAE7BDE8A2
:10970000F88300BFE018012070B5114D95F828349A
:1097100003B970BDC2880446D5F830640D4BB6FB62
:10972000F2F6C3F8CC60FFF725FF94F82830012B40
:1097300007D0D5F8D8320022023385F828242362D6
:1097400070BD32461021606A48F074FDF1E700BF39
:10975000E018012000000120B0F806C02DE9F04714
:10976000B1FBFCF5DFF80CA11F4690B00646DAF815
:10977000CC300C469046AB4222D1DFF8FC900CFB7B
:10978000154496F82830ACEB040CBC4534BF1FFAE6
:109790008CF5BDB2012B3ED0D9F8D8323046023319
:1097A0003362FFF7E7FE38B196F82830012B25D059
:1097B000284610B0BDE8F087002010B0BDE8F08763
:1097C000FFF7D8FE0028F7D04FF0FF33CAF8CC30AF
:1097D00096F82830012B47D0DFF89C903046D9F816
:1097E000D83202333362FFF7C5FE0028E4D0B6F862
:1097F00006C0CAF8CC50B4FBFCF5C0E7706A45F06F
:1098000023FDC0F3011001380228D1D83046FFF7FC
:10981000D7FE2846CDE78DF80240240A8DF8243083
:1098200000228DF8383003238DF8014001A9746AB5
:109830008DF80030042320468DF8032002928DF825
:1098400010200F92CDF804D00393CDE90522CDE985
:109850000A22CDE90C22CDE9078710F07DFD2268B0
:10986000136A002BFCD197E72A461321706A48F04F
:10987000E1FCB1E700000120E01801202DE9F843E8
:10988000DDF820800F4616460021202204461D46A2
:109890004BF046F8B8F1000F0CD0D8F80030B8F80B
:1098A0000A20E3811B0C2382D8F804306282E38211
:1098B0001B0C2383384648F08BFDF30619D4431E56
:1098C000B8B107EB000C01E0013B12D31CF801ED2D
:1098D000BEF12E0FF8D1C01A03F10109421EB9449E
:1098E000032AA8BF0322082BA8BF082390461A46C4
:1098F00006E008280246B9464FF00008A8BF082233
:109900004FF0203339462046236063604AF0E0FF81
:1099100004F108031748424649462081A0721846C0
:109920004AF0D6FF04F1FF3C0346E21D1CF8011F7C
:10993000A1F1610E2039BEF1190F98BF8CF800100B
:109940006245F3D1184604F10B0110F8013BA3F175
:109950006102203B192A98BF00F8013C8842F4D1EB
:10996000182365832D0CE6722373099BA582E3619E
:10997000BDE8F883202020002DE9F04FDFF88C941B
:1099800087B0D9F8D802C9F8DC02002B00F0DA80E1
:109990001344154601F1200601F5FE77DFF870A4A7
:1099A00003931FE0002D63D0D9F80C23AA4200F0E6
:1099B000CD80D9F80823AA4200F00281D9E9C42158
:1099C000AA424CD8A94200F2CF81691A184643F046
:1099D00049FF0135039B06F5007607F500779D42A8
:1099E00000F0B080D9F81843A6F12003AC42D9D8D2
:1099F0002C1BD9F82883E208D8F8301004F00704AB
:109A000002328A4203D3D8F838108A420DD941462F
:109A100010460593049243F0F5FE8046DDE90423E9
:109A2000002800F0C181C9F8280398F80410002923
:109A300040F03F81D8F828B0BBF1000F00F0AD81B5
:109A40001846D8F830304FF40071D21AD8F80C30DC
:109A500004EBC20203EB42224346D847B9E7A942CE
:109A6000B3D918464FF4007200214AF059FFB0E70D
:109A70004FF40072294618464AF052FF80220346EE
:109A8000D94886F89E210C2286F8A221D9F808131D
:109A9000D9F800238142C3F8C611C3F8CA2100F3E4
:109AA0006881D24B013AD24C83FB0103C81784FB77
:109AB00001C40B44C0EB6313C0EB2430CD4C84FBDA
:109AC00003C4C3EB831C86F8A1018010A1EB0C0139
:109AD0001C4420F03F000131014386F8A011D91742
:109AE000C1EBE4110B4486F89F31BF4B9A4200F35F
:109AF0004C81BE4BBE4883FB0213D11780FB024052
:109B00001344C1EB6313C1EB2031BA4880FB03401F
:109B1000C3EB831486F8A5118910121B184421F099
:109B20003F0101320A4386F8A421DA17C2EBE010A4
:109B3000034486F8A331552386F8DE31AA2386F83C
:109B4000DF3146E7002007B0BDE8F08F4FF0FF326D
:109B50000024A6F11C00049383F8EC21214683F82D
:109B6000ED2183F8EE2183F8EF2152221A705A700A
:109B700061229A7083F8E7214122DA7083F8E621A6
:109B8000722283F8E42183F8E521D9F82023C3F871
:109B9000E8214FF4F0724AF0C3FE049B5522C6F848
:109BA000D041C6F8D441C6F8D84183F8FE216FF001
:109BB000550283F8FC4183F8FD4183F8FF2108E753
:109BC0008D4C00214FF4007218464AF0A9FE03465E
:109BD0004FF0000C022203CC46F8191CEB2146F88A
:109BE0001D0C082006F8201C582106F81F1C902187
:109BF00006F81E1CF8211A7383F80BC006F8130C24
:109C00009A7383F80FC006F8102C06F80B1C83F823
:109C10002C20D9F80813D9F8002383F819C0521A58
:109C200083F81BC083F81DC01A6283F81EC083F836
:109C30001FC083F82DC083F82EC083F82FC0D9E948
:109C4000C412521A80215A623F221A764FF0FF3214
:109C50009A763E221A77012283F8302083F831C0A9
:109C600086F820102921654B86F82210942186F869
:109C7000260086F823100E21614A86F824100D2153
:109C800086F82510552186F8DE11AA2186F8DF1105
:109C900003CBC6F82B101988C6F827009B78A6F8C6
:109CA0002F1086F8313003CAC6F83200C6F83610D5
:109CB0008FE64FF40072184600214AF031FED8F8C2
:109CC00040200346002C76D1002A00F0A380D8F86B
:109CD000303011224B49CDE90044FFF7CFFDD8F8D1
:109CE00040301A6C002A00F0A1801B6BCDE90044C3
:109CF0001122454930464FF4E07BFFF7BFFD06F1E6
:109D00002003D8F84480B8F1000F3FF462AE03F1AD
:109D100020049B44049523464446984610E05CF892
:109D20001C1B0025236BCDE900C5FFF7A7FDABEB9E
:109D30000803A46C08F12008002C18BF1F2B51D970
:109D40002379A44604F11C0E1122A8F12000002B57
:109D5000E5D162792569236B42F021022168CDE9C2
:109D600000E5FFF78BFDE2E7A91A184643F07AFDFC
:109D70002FE6FF23013A86F89F3186F8A13186F855
:109D8000A031194B9A427FF7B4AEFF2386F8A33176
:109D900086F8A53186F8A431CDE6594618464FF429
:109DA00000724AF0BDFD14E6A6F1240343F804AFA7
:109DB0009F42FBD10DE6002AD8F844800CBF012257
:109DC0000222C2EB0414B8F1000F3FF402AE424687
:109DD000013C926C002C01DD002AF9D190464FF431
:109DE000007B90E7049DF4E5FF03FB0083200882DD
:109DF000975545418180808080C405088CC4050842
:109E000098C4050878C405087CC40508E01801203A
:109E1000DEADBEEF23460822D9F804134FF4F07BE1
:109E2000CDE90044FFF72AFD33466AE72346CDE932
:109E300000445DE710B50E4CD4F8E0323BB194F825
:109E4000EC121A68C9079B8848BF1B04936143F052
:109E500099FC02E05B69984720B9D4F83033002BB5
:109E6000F8D1FEE7D4F8D8320020C4F8DC3210BDB7
:109E7000E0180120817899B10C48D0F8BC38102B3B
:109E80000FD003EB430201334FF0200C0244C0F823
:109E9000BC38012382F8C01882F8C1C882F8C238E1
:109EA00070470521002012F05DB800BFE0180120C6
:109EB0002DE9F043BE4C93B094F88463002E00F07B
:109EC000C98194F8583304F55D775A1E082A00F2C8
:109ED0005E81DFE812F035007100BD005C014A01CF
:109EE00071011C005C01090043F01CFC05460028C0
:109EF00040F04A83D4F84833D4F8D822FA33934256
:109F000080F04281FEF7B4FC94F85833DDE743F06B
:109F100009FC0028EED0D4F854330022012B84F839
:109F20004C2340F24483D4F85023013B08210646D9
:109F30000132C4F8543384F85813C4F8502310E1A4
:109F400000210846FEF70CFED4F88C23C5B2136A34
:109F5000002BFCD10A2011F0CBFBD4F8943313B1C1
:109F60001A689B889361012D40F00E814FF0000824
:109F700040F2AB11082084F84D83FEF7F1FDC0B22A
:109F8000052800F0ED81012800F0A081D4F88C2391
:109F9000136A002BFCD10A2011F0AAFBD4F89433E9
:109FA00013B11A689B88936194F84D33002B00F02D
:109FB000E782022384F8583394F84D330021372088
:109FC000022B0CBF4FF080450D46FEF7C9FD29203E
:109FD0002946FEF7C5FDD4F88C23C5B2136A002BC1
:109FE000FCD10A2011F084FBD4F8943313B11A6821
:109FF0009B889361002D40F0C78094F84D33022B6D
:10A0000000F01A8284F84E5300210920FEF7A8FDC3
:10A01000002800F0AA810025D4F88C23136A002BB5
:10A02000FCD10A2011F064FBD4F8943313B11A6800
:10A030009B889361002D00F0A78000210A20FEF785
:10A040008FFDC0B2002840F0C481032384F8583348
:10A05000102103A8FEF7DCFD002840F09580BDF834
:10A060000D209DF8143052BA9DF80C10DDF8150043
:10A07000A4F860239DF80F2000BA84F8621303F05F
:10A080000F0184F863239DF8102084F86D1384F881
:10A0900064239DF81120C4F8680384F865239DF8B3
:10A0A000122084F866239DF8132084F867231A0988
:10A0B0009DF8193084F86C231B019DF81A20DBB23F
:10A0C00043EA121302F00F0203F5FA6384F87023D7
:10A0D000D4F88C23A4F86E33136A002BFCD10A2029
:10A0E00011F006FBD4F8943313B11A689B8893617E
:10A0F00094F84E33B3B94FF400711020FEF730FDE1
:10A10000D4F88C23C5B2136A002BFCD10A2011F0BD
:10A11000EFFAD4F8943313B11A689B889361002D39
:10A120007FF4F0AED4F8943222499A08B1EB930F41
:10A130004FF0020306D252085B008A429BB201D95B
:10A14000FF2BF8D904220021A4F890331346C4F859
:10A15000541384F85823082B18BF042B0CBF012676
:10A160000026304613B0BDE8F0834FF40071D4F8F8
:10A170003403FEF74DFD012800F0CA80022800F0EC
:10A18000CF80002800F0368194F858335A1ED2B29E
:10A19000022AE0D8D4F8D832D4F848239B1AC82B26
:10A1A00000F289800026304613B0BDE8F08300BF7E
:10A1B000E018012040787D01D4F88C23117B136ACC
:10A1C00000294DD05269002A4AD094F81424002A5C
:10A1D00046D0B3FA83F35B09002BD5D002AA002343
:10A1E00003A9B34803920222ADF8083005920DF19D
:10A1F00007020493099201228DF8183007930893FF
:10A200008DF82C3011930A928DF84020CDE90C3353
:10A21000CDE90E3310F0A0F8D4F88C331D6A002D70
:10A22000FCD19DF8073003F01F03052B00F092814D
:10A23000FEF71EFBD4F84083B8F1000F00F08D80CC
:10A24000D4F844332A46D4F838130120C04794F890
:10A2500058333AE6304684F8586313B0BDE8F083CB
:10A26000D4F8343303A994F83C23914803EB022239
:10A270000023CDE90323CDE90733CDE909330C935E
:10A2800001238DF818308DF82C304FF4807305932E
:10A2900010F062F8D4F88C23136A002BFCD194F8E8
:10A2A0003C230132D2B2A2F1020384F83C23B3FA78
:10A2B00083F35B0990E7FEF7DBFA94F85863042E0A
:10A2C00018BF082E0CBF012600264AE702AB03A9DF
:10A2D0007748049304238DF82C50CDF80C808DF82A
:10A2E0001880CDF830800593CDE90788CDE909883D
:10A2F00010F032F8D4F88C23136A002BFCD19DF8AF
:10A300000B30AB2B7FF444AE022384F84D333FE691
:10A31000D4F84833D4F8D82264339342BFF434AF2E
:10A32000D4F88C23136A002BFCD10A2011F0E0F939
:10A33000D4F8943313B11A689B889361FEF798FAA6
:10A34000D4F840534DB10022D4F84433D4F8381334
:10A350001046A84794F85833B7E594F85833B4E555
:10A36000D4F88C2384F84D5312E610213846FEF7BA
:10A370004FFC00287FF44FAE94F88333DB077FF562
:10A380004AAE94F87423921100F09680012A7FF46B
:10A3900042AE94F87B231621DFF818C10225920003
:10A3A000D2B2C5F108038B4228BF0B46C3F10805A2
:10A3B0009840C91A42FA05F24FF0000540EA02003F
:10A3C0001CF8012FEDD1431C35469B02C4F85C33C9
:10A3D00022E6D4F88C23136A002BFCD10A2011F05A
:10A3E00087F9D4F89433002B3FF48CAD1A689B881E
:10A3F000936187E5D4F88C23136A002BFCD10A20E3
:10A4000011F076F9D4F8943313B11A689B889361EC
:10A4100004230020D4F8405384F8583384F84C03C4
:10A42000002D3FF49EAED4F84433D4E9CD21A847A3
:10A4300094F858335A1EAAE629463A20FEF790FBB4
:10A4400002AB5FFA80F803A904930423184805932C
:10A45000012303958DF82C308DF818500C95CDE91B
:10A460000755CDE909550FF077FFD4F88C331A6AF8
:10A47000002AFCD1B8F1000F12D11A6A002AFCD1CF
:10A480000A2011F035F9D4F8943313B11A689B8877
:10A490009361029B1BBAC3F3807384F84E33B3E518
:10A4A0001A6A002A9AD01A6A002AF9D196E700BFE0
:10A4B0006C1C01205B1C012094F87933012094F876
:10A4C0007D134FF0030C03F00F03DFF828E189013F
:10A4D0009840CDB20621C1F10803634528BF634609
:10A4E000C3F108019A40BCEB030C45FA01F11EF8D8
:10A4F000015F42EA01024FF00001ECD194F87A13B7
:10A500000232DFF8F4800C2589014FF0060EC9B243
:10A51000CEF108034FF0000EAB4228BF2B46C3F12B
:10A5200008090CFA03FCED1A41FA09F141EA0C0C96
:10A5300018F8011FECD10CF10103C1173546934007
:10A54000A3FB000203FB0122400A40EAC250C4F808
:10A550005C0361E50722D4F8D832D4F8406384F86C
:10A560005823C4F84833002E3FF4FBADD4F84433ED
:10A570000120D4E9CD21B04794F858335A1E06E69D
:10A580001E4684F85833ECE5D4F88C23136A002B6C
:10A59000FCD10A2011F0ACF8D4F8943313B11A6846
:10A5A0009B88936104232E4684F85833D9E516D04E
:10A5B0000423D4F88C2384F85833136A002BFCD17D
:10A5C0000A2011F095F8D4F89433002B3FF4DCAD59
:10A5D0001A689B88936194F858335A1ED7E5FEF7A2
:10A5E00055FB02287FF4D0ADD4F88C331A6A002AC8
:10A5F000FCD1E5E75D1C01205A1C01202DE9F0414A
:10A600000546884617461E46314C94F858030428E0
:10A610003AD0082807D1D4F85033AB4206D0FEF721
:10A6200035FB0228F1D00120BDE8F081FC23D4F8ED
:10A630008C2384F8F038117B264BC3F84C8151B140
:10A64000526942B194F81424002A0CBF4FF480726E
:10A650004FF4007201E04FF48072C3F854211E4998
:10A660001E480FF079FE012206230020C4F834832F
:10A67000C4F83853C4F84073C4F8446384F83C23E6
:10A6800084F85833BDE8F08194F84E335BB9690221
:10A690001820FEF765FAC0B238B994F85833082B81
:10A6A000C4D0FE23C3E72946F2E7D4F88C23136A0B
:10A6B000002BFCD10A2011F01BF8D4F8943313B10D
:10A6C0001A689B889361FEF7D3F80320ACE700BFBC
:10A6D000E018012000000120240101206C1C012051
:10A6E00070B5234E05460C4696F85833042B09D016
:10A6F000082B20D1D6F85033834236D0FEF7C6FA65
:10A70000022818D100213720FEF72AFA2146172007
:10A71000FEF726FAC0B2B0B996F84E336BB96902AB
:10A720001920FEF71DFA70B908230220C6E9D45497
:10A7300086F8583370BD012070BD29461920FEF7F8
:10A740000FFA0028F0D0D6F88C23136A002BFCD126
:10A750000A2010F0CDFFD6F8943313B11A689B8805
:10A760009361FEF785F8032070BD022070BD00BF25
:10A77000E01801202DE9F843234D8046894617460D
:10A7800095F858431E46042C08D0082C02D000200F
:10A79000BDE8F883FEF77AFA0228F8D195F84E332F
:10A7A000BBB141461120FEF7DBF9C0B2C8B90522A2
:10A7B000D5F8D8320120C5F83493C5F83883C5F8E8
:10A7C0004073C5F8446385F85823C5F84833BDE89D
:10A7D000F8834FEA48211120FEF7C2F9C0B20028E1
:10A7E000E5D0D5F88C331C6A002CFCD10A2010F07F
:10A7F0007FFFD5F89433002BC9D01A6820469B8878
:10A800009361BDE8F88300BFE018012038B5044625
:10A8100090F8210100B938BD10F0FAFB2146054639
:10A8200098B126220C4BC28041F80C3F44F008F945
:10A83000AB884FF00042B3FA83F332FA03F3EAD065
:10A8400006490A6813430B6038BD034B41F80C3FBF
:10A85000BDE8384044F0F4B8A9890008003C014044
:10A8600058B183884FF00042B3FA83F332FA03F30E
:10A8700003D002490A6813430B607047003C014053
:10A8800090F8DB30052B03D890F81E31032B01D054
:10A890000020704790F8233103F0FB03022B0CBF1C
:10A8A00000200720704700BF30B490F8443000F11A
:10A8B0000801484A012BC2F8F4186ED08368464953
:10A8C000DC68464D24F46004AB42DC60DC6844F490
:10A8D0006004DC609C6B24F440149C639C6B44F427
:10A8E00080149C639C6B24F4F8449C639C6B44F43C
:10A8F00088449C639C6824F470249C609C689C60E1
:10A900009C6824F440149C609C689C605C6824F4FF
:10A9100080645C605C6824F480545C605C6901EA7B
:10A92000040159615969596147D0DC682A4924F00A
:10A93000E064DC60DC6844F0E064DC609C6B24F480
:10A9400040149C639C6B44F480149C639C6B24F4C3
:10A9500078249C639C6B44F410249C639C6824F4CE
:10A9600070249C609C689C609C6824F440149C60EB
:10A970009C689C605C6824F480645C605C6824F47F
:10A9800080545C609C692140144C9961A342996990
:10A99000996118D0002380F844301148114B848D00
:10A9A000C18D408D091BC2F8FC48C2F8F80893FB22
:10A9B000F1F330BCC2F8003970470B4C616841F4C8
:10A9C00000016160B1E708494B6843F400034B6044
:10A9D000E0E700BFE018012000F0FFFF0020014089
:10A9E000007AF01F8038010000230140704700BF4B
:10A9F00001483CF0C9BC00BFF8210120084810B450
:10AA0000D0F81839D0F84C4999691A682CB1234606
:10AA100000F618105DF8044B18475DF8044B7047BA
:10AA2000E018012001483CF0AFBC00BF58220120D3
:10AA3000084810B4D0F87839D0F8AC4999691A6848
:10AA40002CB1234600F678105DF8044B18475DF8EA
:10AA5000044B7047E018012001483CF095BC00BF52
:10AA6000B8220120084810B4D0F8D839D0F80C4AE0
:10AA700099691A682CB1234600F6D8105DF8044B8A
:10AA800018475DF8044B7047E018012030B40469A2
:10AA9000002341684025E46882690C3154624469AE
:10AAA0009560536093631160C2E90333C2E90533D3
:10AAB000C2E90733C2E90A33C2E90C3384B1C2697F
:10AAC000E068936350621160C2E90133C2E9033365
:10AAD000C2E90533C2E90733C2E90A33C2E90C33DC
:10AAE00030BC7047114A037A0168D35C10B4CC586B
:10AAF000CA1824F00104CC501368DB07FCD4037D92
:10AB00001F2B09D9203B20225DF8044B02FA03F3E6
:10AB100043F01803CB60704720225DF8044B02FA23
:10AB200003F343F018038B60704700BF34C505087A
:10AB3000F0B50668356A00295CD12F68AC68D6F894
:10AB400018E0002F5FD0364B3B40B3F1005F61D07F
:10AB500007F01F0104F11F0327F01F02194421F021
:10AB60001F01BFF34F8F00290BDD114402F12003B9
:10AB7000DFF8B0C08B42CCF868221A4603F12003FC
:10AB8000F8D1BFF34F8FBFF36F8F03684FF480622C
:10AB9000CEF80470CEF814205B69CEF8204043B3A1
:10ABA0006868F669002837D01D4B0340B3F1005F99
:10ABB0001AD000F01F0220F01F011F32224422F0A1
:10ABC0001F02BFF34F8F002A0ADD0A4401F1200360
:10ABD000144D9A42C5F87012194603F12003F8D1BA
:10ABE000BFF34F8FBFF36F8F4FF48063706073615B
:10ABF0003462F0BDEC69002CFBD06F691435D6F8D7
:10AC000018E0002F9FD1084A3346CEF81470CEF8D2
:10AC10000420C1E73346B9E7044B70617360E7E78E
:10AC20000000FFFF00ED00E01C00002020000020DD
:10AC3000F8B507680646D7E90454002C50D0A06147
:10AC40002B7D1F2B39D82022286802FA03F343F00A
:10AC500018038360237D1F2B3AD92022203B02FA60
:10AC600003F3226843F01803D36063680022696825
:10AC70000A601A601A6842F010021A60BA69297AEA
:10AC800045F0C2FFFA69217A206845F0BDFF2A7AB3
:10AC90002A492F6833688D5C5A687B59206843F0D5
:10ACA00001037B51237AC95C435843F001034350AD
:10ACB000536843F003035360F8BD203B202228680B
:10ACC00002FA03F343F01803C360237D1F2BC4D89B
:10ACD000202202FA03F3226843F018039360C4E7CA
:10ACE0002A7D6B681F2AA8611FD82021286801FAD5
:10ACF00002F242F0180282600021BA6919601968F4
:10AD000041F010011960297A45F07EFF2A7A0B493B
:10AD100033682868895C5A68435843F001034350FC
:10AD2000536843F002035360F8BD203A202128689D
:10AD300001FA02F242F01802C260DDE734C50508EC
:10AD400010B1036882889A61704700BF18B1838888
:10AD500002681B049361704708B51D2010F058F974
:10AD600008B183794BB11E2010F052F908B18379F4
:10AD700003B108BD5523C38008BD5523C380F2E746
:10AD8000D3B2012B23D802EB42024FF0000C70B576
:10AD90004FEA820E0F4C634622460EF1080504E08E
:10ADA0000133182B11D012F81CCF6045F8D192F85E
:10ADB00001C08C45F4D15659002EF1D0C3EBC3032A
:10ADC0000EEB83030433E01870BD002070BD00203B
:10ADD000704700BF8851050810B40C4C002304F6DE
:10ADE000842C01E0152B0CD003EB430201331CF83B
:10ADF00002108142F6D122445DF8044B92F9860A92
:10AE000070474FF0FF305DF8044B7047E0180120A9
:10AE1000D3B2022B21D802EB4202002330B54FEA15
:10AE2000820C0F4D0F4C2A460CF10C0E04E001333E
:10AE3000172B10D052F82C4FA042F8D114798C4225
:10AE4000F5D152F80E40002CF1D02C2202FB03C3A6
:10AE50000833E81830BD002030BD0020704700BF27
:10AE6000984C0508000001400348D0F8843113B124
:10AE700000F5BA7018477047000001200348D0F869
:10AE8000A83113B100F5CC701847704700000120BD
:10AE90000348D0F8CC3113B100F5DE701847704785
:10AEA000000001200348D0F8F03113B100F5F07034
:10AEB00018477047000001200348D0F8143213B13E
:10AEC00000F5017018477047000001200348D0F8D2
:10AED000383213B100F50A7018477047000001209E
:10AEE0000348D0F85C3213B100F51370184770476F
:10AEF000000001200348D0F8803213B100F51C7027
:10AF000018477047000001200348D0F8A43213B15D
:10AF100000F5257018477047000001200348D0F85D
:10AF2000C83213B100F52E70184770470000012099
:10AF30000348D0F8EC3213B100F53770184770476A
:10AF4000000001200348D0F8103313B100F5407021
:10AF500018477047000001200348D0F8343313B17C
:10AF600000F5497018477047000001200348D0F8E9
:10AF7000583313B100F55270184770470000012094
:10AF80000348D0F87C3313B100F55B701847704765
:10AF9000000001200348D0F8A03313B100F564701D
:10AFA00018477047000001200138074B074A00EBA3
:10AFB000C00003EB8000D0F8740190420CBF9520D4
:10AFC000962043F08FBD00BF0000012000600240CA
:10AFD00001382DE9E84100EBC000134D1E46134B2C
:10AFE00005EB800590460F46D5F8740198420CBFDA
:10AFF0009520962043F076FD95F989014FEA981146
:10B00000C5F88471C5F88C6143F0EAFC95F9893183
:10B01000002B07DB03F01F0001225B09044982407B
:10B0200041F82320BDE8E8810000012000600240D3
:10B0300000E100E0800AA0F58010522808D8054BF6
:10B04000184490F8F4330D2B02D8034AD0567047B9
:10B0500000207047984C050824C505080120FDF71D
:10B0600071BE00BF0220FDF76DBE00BF0420FDF7DA
:10B0700069BE00BF0820FDF765BE00BF1020FDF7C8
:10B0800061BE00BF4FF47870FDF75CBE4FF47C40AA
:10B09000FDF758BE30B1036882881B691A4214BF9D
:10B0A00001200020704700BF2DE9F04F884683B093
:10B0B00004461746002800F0BC8002685E4B13442B
:10B0C0009B0A5E4AC8F3411B134493F8900743F070
:10B0D00009FDC8F38103B4F804E008F00302256811
:10B0E00001939EFAAEF0B0FA80F002F1FF3A3EFA18
:10B0F00000F35ED00126032103E001303EFA00F3A5
:10B1000057D006FA00F313EA0E03F6D0D5F80090F4
:10B1100093FAA3F4B4FA84F493FAA3FCBCFA8CFC7B
:10B120006400BAF1010F4FEA4C0C01FA04F402FA80
:10B130000CFC29EA040444EA0C042C6049D9D5F833
:10B140000C9093FAA3F4B4FA84F493FAA3FCBCFA37
:10B150008CFC6400022A4FEA4C0C01FA04F40BFA4E
:10B160000CFC29EA040444EA0C04EC60C5D193FA0F
:10B17000A3FCBCFA8CFC1C0ABCF1070F41DC2C6A56
:10B1800093FAA3FCBCFA8CFC93FAA3F34FF00F09DB
:10B19000B3FA83F34FEA8C0C01309B0009FA0CFCE4
:10B1A00007FA03F324EA0C0423432B623EFA00F36C
:10B1B000A7D1BAF1010F09D86B68C8F3001823EAC8
:10B1C0000E030EFB08FE4EEA03036B6003B0BDE8FE
:10B1D000F08FD5F8089093FAA3F4B4FA84F493FAB4
:10B1E000A3FC6400BCFA8CFC01FA04F44FEA4C0C9A
:10B1F00029EA0409019C04FA0CFC49EA0C04AC603D
:10B200009DE7D5F824C094FAA4F9B9FA89F994FA1B
:10B21000A4F30F24B3FA83F34FEA89099B0004FADD
:10B2200009F907FA03F32CEA090C4CEA03036B62F1
:10B2300063E74FF0FF3344E70000FEBF984C05087A
:10B2400000B131E770472DE9F84FC04F6023064643
:10B2500003FB0073D3F80449002C00F06B81D3F892
:10B260000CA9BAF1000F04D09AF80630002B40F078
:10B270006181602303FB0673D3F810591DB1AB79CC
:10B28000002B40F05781731CDBB2BAF1000F04D0E1
:10B2900015228AF807308AF8062015B11622EB71BC
:10B2A000AA714FF06009207C43F01CFC294609FB81
:10B2B00006F9504646F048FB042207EB09085046C1
:10B2C00098F81439002B14BF3E211E21FFF7B8FF58
:10B2D00098F8143928469E4D002B4FF004024D4437
:10B2E00014BF3E211E21FFF7ABFF4C220021284650
:10B2F00049F016FBD8F804399FED967AB0EE084A6B
:10B300005B68F7EE003AB8F816994FF0000EC8F8EF
:10B31000183940F21458904B9FED905A9A68904B10
:10B32000C2F38222134493F89827D7F89432D3407B
:10B3300007EE903AF8EE677AC7EE275A07EE909A32
:10B340009FED887AF8EEE77AC7EE274ADFED867A36
:10B35000B0EE007AE5EE877AA5EE875A25EE844AAC
:10B3600037EE856A74EEE72AB9F5C87F0EF1010C55
:10B37000D5BF642332234FF49670782007EE90CA2D
:10B38000D8BF4FF4167A0344C8BF4FF4827AB8EEA0
:10B39000E77AD8BF414607EE903AC8BF4FF4FA713A
:10B3A00027EE257A01EB0A03F8EEE76A86EE873A84
:10B3B00073EE636AFCEEE67A17EE902A07EE90AA27
:10B3C000B8EEE73A07EE903AF8EEE77A23EE243A41
:10B3D000C3EE276A36EEC53A72EEE66AC3EE077A26
:10B3E00077EEE37AFCEEE77A17EE901AC6EE877AEC
:10B3F00077EEE37AFCEEE77A17EE903A03F1020A71
:10B400000AEB010BF0EE466A07EE90BAF8EE677AA7
:10B41000E7EE276AF4EEE64AF1EE10FA00F38E80CA
:10B420005FFA82FABAF10F0F00F28A80323807EE23
:10B43000900AF8EEE77A77EEC47AC7EE876AFCEEF8
:10B44000E67A17EE900A5FFA80FABAF10F0F77D812
:10B450001FFA81FABAF1FF0F72D81FFA83FABAF114
:10B46000FF0F6DD812054AEA0E7302F07F620004E6
:10B47000134300F47F003D4A034302EA01210B43DA
:10B48000602000FB067600272846C6F81C390123F9
:10B49000C6F82079C6F82439C6F82879C6F82C7978
:10B4A000C6F83479C6F8387945F0DEFD96F8593992
:10B4B000202BD9B21AD196F85839012B16D0242353
:10B4C00086F85939D6F818391A6822F001021A603C
:10B4D0001A6822F480521A601A681A601A6842F0D8
:10B4E00001021A6086F8591986F85879002194F9F2
:10B4F000120043F075FA94F91230A27C002B07DB9E
:10B5000002F01F0101225B098A40194941F82320FA
:10B51000002194F9110043F063FA94F91130627C30
:10B52000002B07DB02F01F0101225B098A40104952
:10B5300041F82320BDE8F88FE64615E701315FE7C3
:10B54000BCF10F0FF8D100239AE700BFE0180120EB
:10B55000F8210120286B6E4E00380240000016438F
:10B56000984C0508002474490000704200FFFF0059
:10B5700000E100E02DE9F047814DC0EB001605EB3E
:10B58000C606D6F8C43A002B00F0B880044607017E
:10B5900096F8340B43F0A6FA96F8343B012203F0F8
:10B5A0001F015B09013B8A40032B0AD8DFE813F037
:10B5B000DC000400E200D60072494B6A23EA020272
:10B5C0004A623B1B04F1010905EBC3035FFA89F9E9
:10B5D00093F8C80A0FF01CFD064618B1122380F834
:10B5E000079083713B1B05EBC30393F8C90A0FF067
:10B5F0000FFD824618B1132380F8079083713B1B1F
:10B6000005EBC30393F8CA0A0FF002FD804618B198
:10B61000142380F8079083713C1B50462E2105EBC4
:10B62000C40595F8CC2AFFF70BFE95F8CD2A0E211C
:10B630004046FFF705FE95F8CB2A2E213046FFF74E
:10B64000FFFDD5F8C43A50491A688B4222F04002F7
:10B650001A6055D04D4A934269D002F580629342F8
:10B6600058D1484A116A41F400411162116A21F42B
:10B67000004111625A6842F480525A601A685206B8
:10B6800034D443491E68D1F8C843D1F8D403D1E972
:10B69000ED25B0F5005F42EA0502D1F8C05342EA59
:10B6A0000502D1F8C45342EA0502D1F8CC5342EA6C
:10B6B000040242EA0502D1F8D05342EA0502354DB0
:10B6C00042EA000205EA060542EA05021A60D1F8DC
:10B6D000BC235D6842EA14422F4C04EA050442EAA6
:10B6E00004025A6002D1B1F8D8231A61DA6922F44F
:10B6F0000062DA611A6842F040021A60BDE8F08721
:10B70000204A516A41F480515162516A21F48051BA
:10B710005162AFE7214A934213D11A4A516A41F468
:10B7200000515162516A21F400515162A2E7154A59
:10B73000116A41F480411162116A21F48041116261
:10B7400098E7174A934295D10E4A516A41F4801105
:10B750005162516A21F4801151628BE709490B69EA
:10B7600023EA02020A612CE706494B6923EA020236
:10B770004A6126E703490B6A23EA02020A6220E7CC
:10B78000E01801200038024000300140003800403D
:10B79000000001204000FFFFFBF0FFFF00340140EC
:10B7A0000050014008B100227EE470472DE9F041CD
:10B7B000CB781BB900263046BDE8F08100F11007B8
:10B7C0000C460546897838460EF048FC06460028A7
:10B7D000F0D0E0780FF01CFCA86123780133DBB2D5
:10B7E00010B1C371222383710D21FFF7DBFFA8691C
:10B7F000FFF7A6FA104AD2F8D832632BFBD90F48CC
:10B800000EF018FCDFF83C800D4BA88202E058F8DF
:10B81000043B53B13846984703460028F7D02869BF
:10B8200085F8D83046F05AF9C5E7E0781E460FF0A3
:10B83000EFFB0FF04BFCBEE7E018012040420F0089
:10B84000093604083C54050870B50E4CD4F81C6F3A
:10B85000002E15DD04F58764002503E0B54204F1F0
:10B8600020040DD0237F0135002BF7D0E0680022A3
:10B870000028F3D0217D2034FFF716FCB542F1D12A
:10B88000012070BD90010020AB4B2DE9F04F91B02D
:10B8900093F8B68CA94B0025A94F0093A94BA3F6AA
:10B8A0008C0ADFF8B892DFF8B8B24E46B30AA3F5B7
:10B8B0008013522B55D8534493F8F4330D2B50D8A2
:10B8C000B8F1010FFC5640F01E81012C3FD14FF022
:10B8D00000094946204610F057FC10F0DDFC90F8B6
:10B8E00000C0BCF1000F18BFBCF1540F14BF4FF0E3
:10B8F000010C4FF0000C40F0028109F104091FFA1D
:10B9000089F9B9F1100FE4D1002D00F0BA808B4A0B
:10B9100000210DE0534493F8F4330D2B0FD8FB5660
:10B92000A3420FD0013102F58672A94280F2A580B0
:10B93000906803689B0AA3F58013522BEAD9002371
:10B94000A342EFD143799BF805009842EAD17D4BA1
:10B950005B4513D05BF81C6FB30AA3F58013522B21
:10B96000A9D9B8F1010FF2D001230024B8F1020FD8
:10B97000ADD1002BABD0734B5B45EBD1009B0135B8
:10B9800003F58673042D00938BD1DFF8D8814FF037
:10B99000000B08F59E77A8F5876ADAF81C3F5B452F
:10B9A00068DDD8F80C60002E64D098F81030B088AC
:10B9B000D6F80090DAF8045063490193B0FA80F3A6
:10B9C0004944002D0293C3F11F034FEA91210093D4
:10B9D00040F3CD80594B002405E0013403F5867314
:10B9E000AC4200F0C1801A688A42F6D14FF48673E7
:10B9F000524A03FB0424009A0BF1010B019B5100F6
:10BA0000C8F8042088F810300323C8F80C6003FA43
:10BA100001F5C8F81840B371012386F807B016463F
:10BA2000A26C03FA01F12A43A264226D0A43226543
:10BA30009AF80020002A6BD003FA06F11A46636DCB
:10BA40000B4389B26365C9F81800D4F8AC00FCF761
:10BA500053FB204608F12008FCF722FB0123BBF131
:10BA6000080F07F1180708F8043C08F8033C07F82A
:10BA7000073C92D111B0BDE8F08FBCF1000F7FF40C
:10BA800066AF5846FCF7D0FA9BF80540C3B2022BCC
:10BA900000F24C83431C2D4A5BB203EB4303980036
:10BAA0002B4B03F5727104E0994200F03F8353F889
:10BAB0002C2FB242F8D11A79A242F5D11A58002A95
:10BAC000F2D094460023234A51680133614513D0D4
:10BAD000102B02F12402F7D14FF0FF3303EBC30325
:10BAE0001D4A02EB830393F89031002B7FF42FAFB4
:10BAF000009BC3F808B041E7DBB2013BEEE7002D45
:10BB00007FF405AF23E7B4F1080318BF01232DE745
:10BB100002990004C1F12F05009903FA01F1AB402D
:10BB2000656D89B22B436365C9F81800D4F8AC0081
:10BB3000FCF7E2FA8DE700BFE01801209801002031
:10BB400024C50508245505080000FEBF000001407B
:10BB5000984C0508740101200000012000040140F8
:10BB600044540508C8050020032C00F399824FF4C3
:10BB7000867303FB05A31869002800F0C182996051
:10BB80000131CAB283F811210492542283F81021A2
:10BB90006B1C0268CAF8043044790392FCF744FA3B
:10BBA000A04B864693F8CD3C0593C3B2022B00F21E
:10BBB000BD8200F1010C9C499C4800234FFA8CFC8B
:10BBC000039A0CEB4C0C4FEA8C0C05E00133172B5D
:10BBD00000F0AC8251F82C0F9042F7D10879A042C6
:10BBE000F4D151F80C000028F0D02C210EEB4E0EB1
:10BBF000002401FB03F303EB8E0E8B4B7344196996
:10BC00004FF4867303FB05A3C3E90701884B9C46E9
:10BC1000DCF80410884217D001340CF1240C102CED
:10BC2000F6D1844B93F86C21002A00F06282824B9B
:10BC300082488349834AC3F84804C3F84014C3F8D0
:10BC4000502411B0BDE8F08F611C7A48C9B20139A7
:10BC500001EBC10100EB810191F8900106900028F1
:10BC6000E5D104984FF08C0C81F891014FF4867067
:10BC700000FB05F42046542481F8904104468110CD
:10BC800071480394544400FB01F1C4F800C101FB66
:10BC90000CF001EB4101C4F80C9001EB011C6B4965
:10BCA00001EB4000A1F54C7101EB8C01C4F8FC00E4
:10BCB000C4F8B4103321C4F8B8106549039C0C19BA
:10BCC0005849D1F894920599062900F00E82072967
:10BCD00060486149DFF888E10CBF84468C465F49C3
:10BCE00008BF714610460593039BB9FBF1F1B9FB00
:10BCF000FCFC4A1E4FF486790CF1FF3192B209FB2D
:10BD000005A9A9F8BC1003F15801A9F87420504BFB
:10BD1000226600221944A4F858206266E26544F0C5
:10BD20000BFED9F8103018680493026842F08002C4
:10BD300002605A79059B0C2A08D8DFE802F06B07ED
:10BD40000707640707075C07070754004FF486726C
:10BD500002FB05A251694FF0600C02684FF0000928
:10BD60004FF0020ECDF820C04FF4807C22F001028B
:10BD7000CDF82890CDF838C04FF0010CCDF83490B4
:10BD8000CDF824C04FF00A0CCDF83C900593CDE9D6
:10BD90000BCE026008AA44F08DFC4FF48672049B1F
:10BDA00002FB05A219685269059B012A5AD0042A90
:10BDB00058D0102A00F0A981402A53D0B2F5807FD4
:10BDC00000F0A681B2F5806F00F0A281B2F5805F2D
:10BDD00000F0A481B2F5803F4FF03C090CBF08226F
:10BDE0004FF400623FE04FF486724FF4805102FB43
:10BDF00005A25161AFE74FF486724FF4807102FBE8
:10BE000005A25161A7E74FF48672102102FB05A23B
:10BE10005161A0E74FF48672012102FB05A2516136
:10BE200099E700BFE0180120984C05080000014088
:10BE30007401012000000120881200206D7B0108A0
:10BE4000697B0108757B01086B4CA407181A002058
:10BE5000980100201055220044950800D0DD06000E
:10BE600040771B00082201F1180050F809C042EA8F
:10BE70000C0240F80920049A1079002840F01C8137
:10BE80004FF48671002201FB05A1D1F810C0C869EA
:10BE9000DCF800C0DCF8001041F00101CCF8001023
:10BEA00059680132884200F00381102A03F124030B
:10BEB000F6D14FF0FF339F4A03EBC30302EB83033A
:10BEC000D3F874019C4B98420CBF9520962042F009
:10BED00009FE4FF4867303FB05A31A6953790C2BF3
:10BEE00000F2E380954901EB4303B3F8A8C84FF48F
:10BEF00086731068924903FB05A3A3F818C00023BA
:10BF000006E0904200F008810133042B00F00B8121
:10BF100051F83320002AF4D1DAF8202F0132CAF880
:10BF2000202F0AEBC302DB00C2F8240F1944069845
:10BF300023469022B1F804E0DFF818924CEA0E0C88
:10BF4000A1F804C07F49FFF743F84FF486734FF41C
:10BF5000403C402103FB05A50023E869026842F04C
:10BF600010020260026842F014020260C4F8A830B5
:10BF7000C4E91F33C4E9283304232A6AC4F898C0EB
:10BF80004FF4804CC4F89C304FF48063A167C4F830
:10BF90008430C4F89420D5F8B820C4F89020C2B2F8
:10BFA00020F0FF00103AA9FB0231EA68039B183227
:10BFB000090922674FF48052C4F8882003F1700207
:10BFC000614B1A44D5F8B430C4F88CC0636744F0B0
:10BFD0001BFEE869039B4FF40031D0F800E04FF4FA
:10BFE000006C03F1B802584BC4F820E0D0F814E01C
:10BFF0001A440023C4F824E0D0F804E0C4F828E090
:10C00000D0F808E0C4F82CE0D0F80CE0C4F8C83050
:10C01000C4F830E0C4F8F030C4E93033C4E93A334E
:10C020002B6A03930423C4F8E4304FF48063C4F80C
:10C03000CC30039BC4E93731D5F80031C4F8D8308F
:10C04000C3B220F0FF00103BA9FB0331EB68C4F83A
:10C05000D0C010330909C4F8B830D5F8FC300393C8
:10C060004FF48043C4F8D430039BC4F8BC3044F090
:10C07000CBFDEB69B0881A68D6F8009062635A6904
:10C08000A2635A68E2639A682264DA6862641A6892
:10C0900042F010021A601A6842F014021A60AAE410
:10C0A00003232A4A82F8CC3CC1E54FF0000C1EE77E
:10C0B000D3B20693013BFEE6079305910EF0A8FF6D
:10C0C00005998146079B58B105930221049BDA79B3
:10C0D000FEF7EAFF049B5422A9F806201968059B85
:10C0E0004A6C42F400424A64CAE6DFF86CC0184960
:10C0F000F8E50499542283F86D1183F86C2196E5D4
:10C100000223124A82F8CC3C91E54FF40062AAE681
:10C1100008224FF00409A6E6DB0007E74FF40062AF
:10C120004FF004099FE600239B88FFDE00235B6835
:10C13000FFDE00BF0000012000600240984C0508AF
:10C14000B41000204581000898010020E01801206B
:10C15000A0BB0D00ABAAAAAA882A1100F8B590F8D6
:10C16000B2311C09013C052C0FD81B4E054603F0CB
:10C170000F0306EB4402B2F8C40840FA03F2D207F8
:10C1800003D595F8BD71012F01D00120F8BD07FA44
:10C1900003F33444013B184046F046FE94F8D0289F
:10C1A00013180E4A02EBC30152F833208B88106932
:10C1B0001840EBD0002395F8B3210846022185F8FA
:10C1C000BD31FEF771FFD5F820213846136843F0E2
:10C1D00008031360F8BD00BF984C0508B025012086
:10C1E000F0B503798BB0364C002B14BF012200222E
:10C1F00084F8842303D184F858330BB0F0BD04F5E0
:10C200006377054690F9001038460DF027FFAE78A9
:10C21000002E47D1D4F894322A492B4AB1EB930F20
:10C22000C4F89463C4F820244FEA93024FF0020349
:10C2300006D252085B008A429BB201D9FF2BF8D983
:10C240004FF47A70A4F890330FF06EFCD4F8943366
:10C2500013B11A689B8893611C4DEC460FCDACE876
:10C260000F000FCDACE80F0095E803008CE8030049
:10C27000694638460EF070F8D4F88C331A6A002AF2
:10C28000FCD11EB10D213046FEF70EFFD4F8D812B6
:10C2900001220023C4F8481384F8582384F84C334F
:10C2A0000BB0F0BD30460EF0B3FE06460028B1D00C
:10C2B0001E2300222C21C380FEF7F6FEAAE700BF52
:10C2C000E0180120801A0600141C01207055050892
:10C2D000014B53F82000704750280040014B43F8B1
:10C2E00020107047502800401D4B1E48196C1E4AF4
:10C2F00041F0805130B4196482B0196CFF2401F010
:10C30000805101910199016841F480710160CA2056
:10C31000196C41F480611964196C01F48061009119
:10C320005321009D5462506251625B6FDB000DD45B
:10C330000E4B00210E4A43F8041B9342FBD10D4BD8
:10C340000D4AC3F8502802B030BC7047094A0A4B66
:10C35000D2F850289A42EBD102B030BC704700BFEF
:10C36000003802400070004000280040542800407F
:10C370006C28004000200040316665422DE9F04FF6
:10C380000646086883B0850ABDF83040A5F58015DB
:10C390009DF8349001940C46522D59D8DFF828832B
:10C3A000454495F8F4530D2D52D81946FCF7DCFF9F
:10C3B00021686279B9F1000F4DD18B0A94F806B06B
:10C3C000A3F58013DC46522B4ED9BC4B1CF0020F58
:10C3D00000F0CD8002F01F0703EB8512AD01D2F80B
:10C3E000FC040422BA40076A27EA02070762076AC8
:10C3F0003A430262426C42F400424264B04A8768A7
:10C400003A40062A06D0B2F5803F03D0026842F0D7
:10C41000010202605A19022082F83905D2F8FC04A0
:10C42000A74A87683A40062A06D0B2F5803F03D073
:10C43000026842F0010202602B44012283F8392590
:10C4400001F13402637971600021D0183060D1505D
:10C4500003B0BDE8F08F8B0A94F806C0A3F58013F3
:10C460008CF0010B522BB0D8434493F8F483934BD8
:10C47000B8F10D0FAAD84FEA4B0003EB881E4FEA24
:10C48000CB0B00F002000BF0080A4FEA881B9EF865
:10C490003885B8F1010F99D04FF001088EF8388532
:10C4A0004FF002088EF83985142A53D8DFE812F0CD
:10C4B0008C015200520052005101520052005200B1
:10C4C0001401520052005200C700520052005200A4
:10C4D0008900520052005200150003EB0B0EDFF8EA
:10C4E000EC81DFF8E0A1DEF8FCE4DEF82090D64530
:10C4F00029F48019CEF82090DEF8209029F4001954
:10C5000049EA0050DEF80490DEF8547007EA0808A3
:10C5100048F4C04800F096810AF5806AD64500F0DC
:10C520009181019FCEF80490CEF85480CEF85C70D3
:10C53000CEF82000DEF8540040F40060CEF854003D
:10C54000DEF8540020F48060CEF85400DEF8540089
:10C55000CEF8540003EB0B0001271CF0020F80F80B
:10C5600039754FF0000780F838757FF433AF03EB6F
:10C570008510012702F01F02AD01D0F8FC0407FA74
:10C5800002F2076A27EA02070762076A3A43026271
:10C590004C4A90420AD002F58062904206D08768E9
:10C5A000474A3A40062A7FF42EAF33E7426C42F402
:10C5B00000424264424A87683A40062A7FF423AF29
:10C5C00028E703EB0B0EDFF80881DFF8F8A0DEF8B0
:10C5D000FCE4DEF82090D64529F48039CEF820908E
:10C5E000DEF8209029F4003949EA0040DEF8049092
:10C5F000DEF8547007EA080848F0600800F01F8170
:10C600000AF5806AD64500F01A81019FCEF80490A1
:10C61000CEF85480CEF85870CEF82000DEF85400E2
:10C6200040F00800CEF85400DEF8540020F004007A
:10C63000CEF85400DEF85400CEF854008AE703EB3D
:10C640000B0EDFF89080DFF87CA0DEF8FCE4DEF86B
:10C650002090D64529F48059CEF82090DEF820901D
:10C6600029F4005949EA0030DEF80490DEF81C7025
:10C6700007EA080848F4C04800F0F0800AF5806A2C
:10C68000D64500F0EB80019FCEF80490CEF81C80D8
:10C69000CEF84070CEF82000DEF81C0040F40060B8
:10C6A000CEF81C00DEF81C0020F48060CEF81C00E0
:10C6B000DEF81C00CEF81C004CE700BFE01801209B
:10C6C0000700010000000140984C0508FF8FFFFEA5
:10C6D0008FFFFEFFFF8CFFFE03EB0B0EDFF8AC813C
:10C6E000DEF8FCE4DEF8209029F48079CEF8209082
:10C6F000DEF8209029F4007949EA0020DEF8049061
:10C70000DEF81C7007EA08085F4FBE4548F0600875
:10C7100000F09B8007F58067BE4500F09680019F82
:10C72000CEF80490CEF81C80CEF83C70CEF82000F5
:10C73000DEF81C0040F00800CEF81C00DEF81C00FB
:10C7400020F00400CEF81C00DEF81C00CEF81C001F
:10C7500000E703EB0B0EDFF83881DEF8FCE4DEF8CF
:10C76000209029F01009CEF82090DEF8209029F0D2
:10C77000200949EA0010DEF80490DEF8187007EA94
:10C780000808414FBE4548F4C04873D007F580679C
:10C79000BE456FD0019FCEF80490CEF81880CEF839
:10C7A0003870CEF82000DEF8180040F40060CEF8B3
:10C7B0001800DEF8180020F48060CEF81800DEF8CB
:10C7C0001800CEF81800C5E603EB0B0EDFF8BC80AE
:10C7D000DEF8FCE4DEF8209029F00109CEF8209084
:10C7E000DEF8209029F0020940EA0900DEF8049002
:10C7F000DEF8187007EA0808234FBE4548F06008C5
:10C800002FD007F58067BE452BD0019FCEF804904E
:10C81000CEF81880CEF83470CEF82000DEF818007C
:10C8200040F00800CEF81800DEF8180020F00400F0
:10C83000CEF81800DEF81800CEF818008AE649F4A1
:10C840008039E2E649F480296BE620F4006049F47F
:10C85000405940EA0A2020F4806060E749F48049AA
:10C8600011E720F0080049F440794AEA000020F07E
:10C870000400CAE720F0800049F4406940EA0A1049
:10C8800020F0400086E700BF000001408CFFFEFF63
:10C89000FF8CFFFEF0B50446D0F89400434B83B004
:10C8A000A16804F1640204F118070E68C1B220F017
:10C8B000FF0001921039A3FB0131090944F0EEF9A0
:10C8C000616D0023019A012984F8583018D0042999
:10C8D00016D0102955D0402912D0B1F5807F53D001
:10C8E000B1F5806F50D0B1F5805F55D0B1F5803F84
:10C8F0004FF03C030CBF6FF0080C6FF4006C01E0CC
:10C900006FF0080C06F118053046E95801EA0C01F1
:10C91000E950616D43F0CEFE636D012B16D0042B00
:10C9200014D0102B0FD0402B10D0B3F5807F2FD018
:10C93000B3F5806F2CD0B3F5805F31D0B3F5803F75
:10C9400006F1540502D04FF4006100E008212B6885
:10C950003A46D4F894000B4340212B602162C1B2C7
:10C96000124B20F0FF001039A3FB0131090944F0FC
:10C970004BF9D4F89420136843F01003136003B00C
:10C98000F0BD6FF4006CBDE76FF0080C0423B9E74D
:10C9900006F11C050821DAE76FF4006C0423B1E707
:10C9A00006F11C054FF40061D1E700BFABAAAAAAAB
:10C9B0002DE9F04FDFF85CB29BF800402DED028BC3
:10C9C00087B034B90124204607B0BDEC028BBDE826
:10C9D000F08F8B4BDFF840A2D3F8D83208EE103A34
:10C9E0000EF058FE9AF8243C0390002B00F00181D1
:10C9F0000BF234670BF634330BF63C4400263D460D
:10CA000001930597DAF81C34039AD31A03D4EA6D1C
:10CA10009A4200F3D08006EB86030BEB431393F8A6
:10CA20008C3603F0FF020292002B00F08D80D5F8C7
:10CA30009410AB6873481A68CBB221F0FF01103B29
:10CA4000A0FB030370481B09C35C19444B68A98908
:10CA50001FFA83FCD368CCF1160C23EA0103BCF166
:10CA6000070FD36070D9DBF83C3B00220121013372
:10CA700096468946CBF83C3BD5F89C301F4604933C
:10CA800057F8048B40461CE0D7F80080BEF1140F25
:10CA9000A8EB000340461CDC13F1080848BF03F173
:10CAA00017084FEA28130EEB281E03F1FF38013157
:10CAB00002FA03F3043709FA08F28C4542EA03024A
:10CAC00007D38C45E0D8CEF1150338684FF0150E2A
:10CAD000EBE7BEF1150F65D14C49C2F38423C2F3D5
:10CAE000441001EB830301EB8000D3F80039D0F848
:10CAF00000091B0243EA001302F01F00C2F3C43214
:10CB000001EB800001EB8202D0F80019D2F8002975
:10CB10000B4343EA023383EA132282EA121202F041
:10CB20000F020F2A3ED1C3F30F134FF6FF72934249
:10CB300038D0B3F5606F45D0019A9381029918EE11
:10CB4000102A20460DF01CFA019B284601365C3461
:10CB50001433A0350193FFF79DFE9AF8243CB342AD
:10CB60003FF750AF0122059F8BF8382C0022CAF8FE
:10CB70001C24002B3FF426AF03EB830307EB431386
:10CB80003A7CA03757F84C0C12F0020F57F8982C4B
:10CB900011680A6A14BF42EA80020243BB420A6279
:10CBA000EED10FE7DBF8383B0133CBF8383BCEB1A1
:10CBB00000230293C2E70024204607B0BDEC028B9D
:10CBC000BDE8F08F0E4991F8EC2402EB420201EB34
:10CBD000C202324492F899240D2AADD18023019AE1
:10CBE0009377ABE704995822094847F071FE029603
:10CBF000A4E70122CAF81C348BF8382CE3E600BF06
:10CC0000E0180120ABAAAAAA34C50508984C05086B
:10CC1000700D002090010020881200204A1C4FF463
:10CC2000003310B408BF4FF0800C4C4C18BF4FF0CD
:10CC3000450C00E0FBB1626B013B12EA0C0FF9D02E
:10CC4000002923DD626B52071CD403291ED0434AFE
:10CC5000536B13F0010320D1022908D01369DBB212
:10CC600083421ED1012953692BD006291BD00020F5
:10CC70005DF8044B7047002904DD636B5C0701D449
:10CC80000329E4D103205DF8044B7047002B5DF8C5
:10CC9000044B14BF00200320704701205DF8044BB3
:10CCA00070471020EFE713F4604F02D12C4AC2F80E
:10CCB000D03F990431D45A04F3D41B04D7D50F20A4
:10CCC000E1E7284818400028DDD0002B29DB5C0074
:10CCD00025D4980029D4D90025D41A0129D45C017F
:10CCE00025D4D8012FD41902E9D45A02D9D49C02F0
:10CCF00027D4D8022FD419030FD45A0329D49C0364
:10CD000025D4D80321D4190419D45A0415D49C0469
:10CD100011D41807ABD51A20B5E71320B3E70920C3
:10CD2000B1E71C20AFE70B20ADE70A20ABE70D20F1
:10CD3000A9E70C20A7E71920A5E71820A3E71720EB
:10CD4000A1E711209FE70E209DE716209BE7152005
:10CD500099E7142097E7122095E700BF002C0140C7
:10CD6000E018012008E0FFFDF8B5174DD5F8FC3FAD
:10CD7000ABB105F5805304465968012915D0134B12
:10CD800040F2FF500021DA6A22F00802DA6298636A
:10CD9000C5F8FC1F236823F001032360F8BD0B4A8C
:10CDA000D36B43F48073D363F8BD084E40F2FF5752
:10CDB00000230C20B763B36040F24C43F360FFF7ED
:10CDC0002DFFB763DBE700BFE0180120002C014016
:10CDD0002F4B1A68910102D59A6D52074BD42C4BF8
:10CDE0001A68500202D5DA6E11063CD4284B1A6834
:10CDF000D20102D59A6D90072DD4254B1A685101A6
:10CE000002D59A6D120717D4214B1A68120112D558
:10CE10009A6DD0060FD59A6D510334D49A6DD20510
:10CE200003D49A6D22F010029A65194B4FF00062FC
:10CE300018489A6098E770479A6D500307D49A6D26
:10CE4000D10503D49A6D22F008029A65104B4FF079
:10CE500080629A60D8E79A6D4FF0807122F00202EA
:10CE60009A659960C9E7DA6E4FF4800122F080027A
:10CE7000DA669960BAE79A6D4FF0007122F0040209
:10CE80009A659960ABE74FF000629A60704700BF07
:10CE90000064024058640240384B5A68110303D5BD
:10CEA000D3F8A02052075BD4344B5A68D00303D583
:10CEB000D3F8B420110649D4304B5A68520303D535
:10CEC000D3F8A020900737D42C4B5A68D10203D551
:10CED000D3F8A02012071CD4284B5A68920217D509
:10CEE000D3F8A020D00613D5D3F8A020510341D405
:10CEF000D3F8A020D20505D4D3F8A02022F0100248
:10CF0000C3F8A0201D4B4FF400121D48DA602BE738
:10CF10007047D3F8A02050030AD4D3F8A020D1053D
:10CF200005D4D3F8A02022F00802C3F8A020134BA8
:10CF30004FF48012DA60CFE7D3F8A0204FF48021BD
:10CF400022F00202C3F8A020D960BDE7D3F8B420D4
:10CF50004FF4803122F08002C3F8B420D960ABE7EF
:10CF6000D3F8A0204FF4002122F00402C3F8A0203F
:10CF7000D96099E74FF40012DA607047006402400C
:10CF8000A0640240554B13F8F03C022B00F2958050
:10CF90002DE9F041524D82B06B6913F0007303D05C
:10CFA0000E2002B0BDE8F081CDE9003340F2FF561B
:10CFB0004FF48A6308270446AE630121AF60102056
:10CFC000EB60FFF72BFEAE630028EAD1DFF81C818F
:10CFD00040F27743AE630121D8F8D02F3720AA6002
:10CFE000EB60FFF71BFEAE630028DAD13D4A40F24A
:10CFF000734301216A62AF62EA6A42F03302EA6275
:10D00000AE63A8603320EB60FFF708FEAE63002834
:10D01000C7D1694640F22A4201E09F0251D46B6BAE
:10D0200013426B6BF9D01E0750D46B6B98074FD42B
:10D030006B6B99064ED46B6B9B024DD4B4F5006FAD
:10D04000009B08BF4FF480221BBA18BF4FF48032F8
:10D050001A4234D0224D40F2FF56D8F8D02F40F279
:10D060007743AE630121AA603720EB60FFF7D6FD5E
:10D07000AE63002895D1B4F5006F40F24643AE632D
:10D080004FF0010108BF0220A8600620EB60FFF707
:10D09000C5FDAE63002884D16B6803F400639C4235
:10D0A0003FF47FAF104A6B68134023436B606B689B
:10D0B00003F40063A342F6D173E7282070472620CB
:10D0C0006FE7D5F8803041F8043BA8E7042068E713
:10D0D000022066E7062064E7222062E7D8290120C3
:10D0E000002C014000E1F5050081FFFFE018012060
:10D0F00070B5184D40F2FF56174C40F24D43D5F82D
:10D10000D02F0121A6630D20A260E360FFF786FD0A
:10D11000A66320B96369C3F34323042B02D04FF005
:10D12000FF3070BDD5F888030028FAD001688388E5
:10D13000096995F885230B402AB1002B0CBF00200C
:10D140004FF0FF3070BD002B14BF00204FF0FF30B8
:10D1500070BD00BFE0180120002C014070B51B4DD0
:10D160001046D5F888433CB12668A288346922402D
:10D1700095F8854324B32ABB0A46002141F0F8F80C
:10D1800000BBD5F8FC3F002BFBD1114C40F2FF5601
:10D19000D5F8D02F40F24D43A6630121A2600D20A7
:10D1A000E360FFF73BFDA6630028F1D16369C3F399
:10D1B0004323042BECD1D5F8D832C5F8DC3270BD4E
:10D1C000002AD9D14FF0FF3070BD00BFE018012018
:10D1D000002C014070B51B4E1046D6F888433CB178
:10D1E0002568A2882C69224096F8854324B32ABB7F
:10D1F0000A46002141F056F800BB134A1368002B81
:10D20000FCD1124C40F2FF55D6F8D02F40F24D43DE
:10D21000A5630121A2600D20E360FFF7FFFCA56379
:10D220000028F1D16369C3F34323042BECD1D6F872
:10D23000D832C6F8DC3270BD002AD9D14FF0FF30A9
:10D2400070BD00BFE0180120E0280120002C014043
:10D25000F0B5C94CC94BD4F8D41FD4F8D82F880FD7
:10D26000C2F38035C2F3072C03F8E80CC1F38360E6
:10D2700003F8E70CC1F3016003F8E60CC1F30740C3
:10D2800003F8E50CC1F30720C9B203F8E40C100E53
:10D2900003F8E31C0101C2F3035023F8E21C33F846
:10D2A000E21C89B20143C2F3034023F8E21CC2F33B
:10D2B000C03103F8E00C002003F8DF1CC2F340315A
:10D2C00003F8DE5C03F8DD1CC2F3003103F8DC1C5C
:10D2D00013F8F01C03F8DB0C012940F2F38002295B
:10D2E00000F0C580D4F8DC1F2A204FEA4C0C03F86C
:10D2F000CF5CC1F3C016D4F8E02F0CF07E0C01F027
:10D300007F0103F8CECC4FF0010C13F8CE5C35430F
:10D31000C2F3815603F8CE5C03F8CD1CD10FD4F8CC
:10D32000E45F03F8CC1CC2F3417103F8CB1CC2F3D9
:10D33000826103F8CA1C910D01F00C0103F8C91CAD
:10D3400013F8C91C3143C2F3405603F8C91CC5F396
:10D35000074103F8C86C0026090203F8C76CC2F342
:10D36000004603F8C66CC2F3C03603F8C56CC2F3BE
:10D37000803603F8C46CC2F3403603F8C36CC2F3C2
:10D38000003603F8C26CC2F3812603F8C16CC2F305
:10D390000126C2F3460203F8C06C03F8BF2C2A0E24
:10D3A00003F8BECC03F8BC2CC5F3072223F8BA1C43
:10D3B0002D0633F8BA1CD4F8E86F89B2114323F86C
:10D3C000BA1C310E43F8B85CC6F3072553F8B82CE5
:10D3D00042EA014243F8B82C320A53F8B81C02F46E
:10D3E0007F420A43D4F8F01F43F8B82CD4F8EC2F4E
:10D3F00053F8B84C2543F4B243F8B85C150E03F863
:10D40000B44C140C03F8B35C240643F8B04C14027B
:10D4100053F8B05C224604F47F042C4392B243F8E4
:10D42000B04C53F8B04C2243C1F3035443F8B02C32
:10D4300053F8B02C42EA116243F8B02C13F8AC2C2C
:10D440002243C1F3072403F8AC2C0A0AC1F34601B6
:10D4500002F4706223F8AA2C33F8AA2C92B2224369
:10D4600023F8AA2C03F8A81C03F8A7CCF0BD1204DB
:10D47000D4F8DC1F02F47C120D0EC1F3072C43F824
:10D48000D82C53F8D82C42EA052243F8D82CC1F303
:10D49000074253F8D85C2A434FF4007543F8D82C60
:10D4A00053F8D82C43F8985C013240F10005AD02E6
:10D4B00045EA9255920243F89C5CC1F3803543F8EB
:10D4C000A02C12E74FEA8C2C4FF0010E92000CF4C6
:10D4D000406102F47F7243F8D81C53F8D81C0A4309
:10D4E000D4F8DC1F43F8D82CCA0B53F8D85CC1F32E
:10D4F000072C02F0060245EA917543F8D85CC1F3A7
:10D50000C26503F8D45CC1F3026503F8D35CC1F3D0
:10D51000425503F8D25CC1F3824503F8D15CC1F3F4
:10D52000C03503F8D02C13F8D02C2A4303F8D02CA4
:10D5300053F8D85C13F8D02C13F8E06C02320EFAD2
:10D5400006F60EFA02F243F8986CD717A2FB062EE5
:10D5500006FB07EE05FB0EEE0135A2FB0525AE44EA
:10D56000520AC1F3803542EACE5243F8A02C4FEA6A
:10D570005E2243F89C2CB8E6E0180120D82901204F
:10D580000F4838B5D0F888330D4614463BB11968BA
:10D5900090F885239B8809690B405AB163B9FFF75E
:10D5A00057FE084A4FF40073002052F8A02C2A605E
:10D5B000238038BD002BF2D14FF0FF3038BD00BFC3
:10D5C000E0180120D82901202DE9F84F744E0022DF
:10D5D000744B054656F8904C5968013224338C42FE
:10D5E00000F0B480102AF7D100246F4B9D4205D083
:10D5F00048339D4202D00020BDE8F88F04F1FF3986
:10D600006A4F09EBC9034FEAC90807EB830393F894
:10D610009021002AEFD11722A3F89021002CEAD004
:10D62000DFF89CA10120DFF8B4B1DAF8243043F42C
:10D630000063CAF824300EF077FADAF824300120BB
:10D6400023F40063CAF824300EF06EFA1722ABF808
:10D65000162EDAF8443043F40063CAF84430DAF89E
:10D66000303043F48003CAF83030DAF8303043F019
:10D670000C03CAF8303016F88A3C002B68D1ABF89E
:10D68000362E0BF56160ABF8662E0E210C22FDF7ED
:10D690000BFD0C220E214648FDF706FD0C220E2143
:10D6A0004448FDF701FD444BDA6846F8905CC2F34C
:10D6B0000222C2F10701131D042928BF0421062BF1
:10D6C0004FF0FF338CBF033A00228B403B49DB43D2
:10D6D00003F0010393403A4A1B01DBB281F8313376
:10D6E0004FF400334B60136B43F480031363002348
:10D6F0002B60344BAB6003F59B3303F5EC739D4219
:10D7000049D0314B4FF47412DA60C8442F4B07EB09
:10D710008807D7F8740198420CBF952096202C4BAF
:10D720002B6007236B6141F0DDF956F8902C1E4BFE
:10D7300020469A424FF000034FF001020CBF2549EA
:10D740002549FDF745FC0120BDE8F88FD4B24CE730
:10D750000BF56160ABF81E2EABF8262E0E21ABF850
:10D760002E2EABF8362EABF8662E0C22FDF79CFC65
:10D770000BF618600C220E21FDF796FC0BF562608B
:10D780000C220E21FDF790FC0BF628600C220E21D6
:10D79000FDF78AFC7DE74FF0746243F8502CB4E744
:10D7A000D8290120740101205864024000000120A2
:10D7B000102701204027012000ED00E000E100E0FB
:10D7C00000380240802C01400064024000600240AA
:10D7D0006054A308D1CD000899CE0008E0180120BC
:10D7E0000E4A01210D20D2F8D02F38B50C4C40F252
:10D7F000FF5540F24D43A563A260E360FFF70EFAC8
:10D80000A56340B96069C0F34320A0F10400B0FAF9
:10D8100080F0400938BD002038BD00BFE01801206D
:10D82000002C0140A44A0220A44B516C41F4006139
:10D830002DE9F043516483B0526C0325A04C02F4EF
:10D8400000620192019A6268134043F076036360BC
:10D85000636823F48073636025600EF065F9636884
:10D8600040F2FF50002143F480734FF48062636004
:10D870004FF40033A063A160E26001E0002B60D0B0
:10D88000626B013B1606F9D5002B5AD040F2FF55CA
:10D890004FF4D5724FF489630721A5630820A5636F
:10D8A000A260E360FFF7BAF9A563002842D04FF009
:10D8B0000009834F40F2774340F2FF5800220121D4
:10D8C0003720C7F83880BA60FB60FFF7A7F9C7F8C0
:10D8D0003880034650BB7B4D0446064649EA0505A1
:10D8E00010E0C7F83880BD60FA60FFF797F94FF68F
:10D8F000FE720346C7F83880C0B97B69002B29DB6C
