:020000040800F2
:10000000F8FF0120191D0A08B51D0A082965050811
:10001000B51D0A08B51D0A08B51D0A080000000034
:10002000000000000000000000000000B51D0A08EC
:10003000B51D0A0800000000B51D0A08F9130508DF
:10004000B51D0A08B51D0A08B51D0A08B51D0A0820
:10005000B51D0A08B51D0A08391C0408411C04080E
:10006000491C0408511C0408591C040839070000E5
:100070004D070000610700007507000089070000B8
:100080009D070000B1070000B51D0A08B51D0A084C
:10009000B51D0A08B51D0A08B51D0A08611C04082B
:1000A000B51D0A0819330408B51D0A0809330408E8
:1000B000293304083933040849330408C1150408F6
:1000C000B5150408F5150408E9150408B51D0A0856
:1000D000B51D0A08A5100000F91100004D1300001D
:1000E000691C0408B51D0A08000000001534040846
:1000F000ED33040825340408DD330408C507000087
:10010000B51D0A08B51D0A0859330408B51D0A08AB
:10011000A1140000F515000069330408355A0908D8
:10012000D9070000ED0700000108000015080000D5
:1001300029080000B51D0A08B51D0A08B51D0A08E2
:1001400000000000000000000000000000000000AF
:100150003D08000051080000650800004917000034
:10016000291604081D160408B51D0A08B51D0A083D
:10017000B51D0A08B51D0A08B51D0A0800000000D3
:10018000B51D0A08B51D0A089D180000F1190000E8
:10019000B51D0A08B51D0A08B51D0A08B51D0A08CF
:1001A000B51D0A08B51D0A08B51D0A08B51D0A08BF
:1001B000B51D0A08B51D0A08B51D0A085D16040814
:1001C00051160408B51D0A08B51D0A08B51D0A0810
:1001D000B51D0A08855D0908B51D0A08B51D0A0880
:1001E000B51D0A08B51D0A08B51D0A08B51D0A087F
:1001F000B51D0A08B51D0A08B51D0A08B51D0A086F
:10020000B51D0A08B51D0A08B51D0A08B51D0A085E
:10021000353404084534040855340408B51D0A086B
:10022000B51D0A08B51D0A08B51D0A080000000022
:10023000B51D0A08B51D0A0800000000B51D0A0812
:10024000B51D0A08B51D0A08B51D0A08B51D0A081E
:10025000B51D0A08B51D0A08B51D0A08B51D0A080E
:10026000B51D0A08B51D0A08B51D0A08B51D0A08FE
:10027000B51D0A08B51D0A08451B00000000000056
:10028000B51D0A0800000000B51D0A0800000000A6
:0802900000000000B51D0A0882
:020000040804EE
:100000004368426D30B49A61EFF31182502383F359
:1000100012884168D2B2856C0B68046D23EA05032F
:1000200023430B6082F31188436981681A68096869
:1000300022F00102D0E908541A60826A1D605C61F6
:100040005A60D0E90B429C60DA600023B0F86C2063
:1000500030BCCA620377704730B5FAB18E464FEABA
:10006000014C034600F1C005002419680C3353F815
:10007000042C43F8084C41EA0C0142EA0E02AB4260
:1000800043F80C1C43F8042CEFD1D0F8C03043EAFD
:100090000E03C0E93144C0F8C03030BD4FEA014E14
:1000A0008C46DEE710B40C4C6368002B11DD002099
:1000B00004F1080C0146DCF8AC3003F1C0025960D1
:1000C0000C339342FBD1013063680CF5867C83428C
:1000D000F1DC5DF8044B704704000020F0B5474C9C
:1000E00004EB401292F8543403B9F0BD4FF4B47CE1
:1000F000434B00264FEA401E0CFB004C9CF83A553F
:100100008CF83A6582F83A541D785A7895420DD0A9
:1001100002EB420C560003EBCC0C9CF804C00CF133
:10012000FF37012F5DD9BCF1030F55D004EB0E0052
:10013000A0F83814EFF31183902282F3128890F81C
:100140003A24DBB2B0F8381442EA4102002192B2FC
:1001500080F83A1483F311881309247883EA122370
:1001600083EA0201DCB11301C943D0F85024012411
:10017000D0F83C049BB201F00F01D2F8AC208440CF
:100180000B4302F1C000590013F4004F8BB202D1AF
:100190005168214351600C328242F4D1F0BD130109
:1001A000D0F83C44D0F8502401F00F0104F11000C5
:1001B0009BB20124D2F8AC200B43844002F1C00072
:1001C000590013F4004F8BB202D1516821435160A2
:1001D0000C329042F4D1F0BD571C07F00307AF4238
:1001E000A4D0324403EBC2030344597C00299DD0C0
:1001F00004EB0E03012283F83A2497E70400002061
:10020000701B0024704700BF024B03EB401090F8B6
:100210005504704704000020704700BF0A4810F8DA
:100220004C1C81B101EB410100234438490010B45A
:100230001C4650F82320063302B114608B42F8D1DB
:100240005DF8044B70477047FC1000200A4810F816
:100250004C1C81B101EB410100234438490010B42A
:100260001C4650F82320063302B114609942F8D19D
:100270005DF8044B70477047FC1000200120704768
:10028000034B00EB400003EBC00010F8330C704749
:10029000FC1000202DE9F0431D4C14F84C3CABB38E
:1002A0000022A4F144034FF0500E1A4E4FF02C0CD4
:1002B000194F154607E053F8181B01320D6014F86A
:1002C0004C1C914222DD197C0029F4D05968FE2093
:1002D0004FEA9128A8F58018B8F1520F98BF17F887
:1002E0000800EFF311888EF31288D1F824900CFBEC
:1002F00000605FFA88F809F10109C0F88C9048693C
:1003000040F00100486188F31188D4E7BDE8F0832C
:10031000FC100020701B0024B03A0A0807EE900A77
:10032000B8EE670A704700BFBCEEC00A10EE103A84
:1003300098B27047B4224FF4A57C4FF4EB710023C0
:1003400082804922A0F802C04FF4E17C02814FF480
:100350008772C1809621828144220370A0F80AC06E
:10036000C1814382028270470346012200205A77EE
:10037000704700BF08B5D0E90B2183690B44836146
:100380000AB108469047002008BD00BF436A0246F4
:100390001B681B6A5B685B7813F0010008BF50772D
:1003A000704700BFC2628161704700BF704700BFE5
:1003B000043070470C4B93F8FC22D3F8F812024437
:1003C0000844D2B2C3F8F80283F8FC2293F8FC2266
:1003D000120605D593F8FC2282F0800283F8FC22F5
:1003E000024B01221A707047701B00240000002489
:1003F0002DE9F84F154FD7F80053ED0A20D000260D
:10040000DFF84CA007F54179B046AC19D7F80413D2
:10041000102352466410D1F828B04846C7F83083FC
:10042000E102D8470F280BDD094B03F1100253F806
:10043000041B013107D19342F9D12546B542E4DCD2
:10044000E802BDE8F88F661CF8E700BF701B0024C7
:10045000E0F40024184BD3F83813D3F83C238A1A5D
:10046000322A15D8D3F850238A4200D37047D3F8E4
:100470004023E2B110683231928810B44469C3F865
:10048000501322425DF8044B18BF1204826170477A
:10049000D3F840233AB193F84C031168C00792880F
:1004A00048BF12048A610022C3F8502370473231DA
:1004B000C3F85013704700BF701B0024064AD2F8DF
:1004C00040333BB192F84C131A68C9079B8848BF68
:1004D0001B04936100207047701B0024044B4FF4F1
:1004E000007C0020D3F86033A2F800C00B60704796
:1004F000701B0024002070470120704701207047C6
:100500000020704700B596461A6972450CD38C4698
:1005100071448A42996938BFA2EB0E0C71445DF8B0
:1005200004EB624663F0D0B85DF804FB2DE9F843B4
:1005300010F0B2FF224F4FF0000C05464FF48678C2
:10054000204E7968002930DD00231C4608FB037229
:10055000013392F805218B4244EA0204F6D144EAC1
:100560000C0C5FFA8CF97368C3F30803D3B9EFF38B
:100570001183BBB915F090F8431BB3F5FA6FCCBFEC
:100580004FF0000C04F0010CBCF1000FD9D1B9F10F
:10059000000F04D00C4B93F89023542A08D04846FF
:1005A000BDE8F88310F04CFFE6E7E1460024DAE707
:1005B000B3F8982348460132A3F89823BDE8F8839E
:1005C0000400002000ED00E0701B00242DE9F04F36
:1005D000BD4D87B02B781BB9012007B0BDE8F08F67
:1005E0006B68BA4A002BD2F8387318DD05F108049D
:1005F0000020B749D4F8F430BFF34F8F03F5907261
:10060000C1F85C3220339342FAD1BFF34F8FBFF36E
:100610006F8F01306B6804F586749842EADBAD4B4E
:10062000AD4EA3FB0723AD4FDFF8C8A25B09A7F1CE
:100630007C0BA6FB0326F60806EB8606A3EB460614
:10064000F3B207EB8606059307F538730293002390
:100650009946DBF864344B4540F30F81DAF81830E3
:10066000DAF80480D3E93D5410F016FF012204901B
:1006700002FA08F39A4901936118944B05EB410182
:1006800093F8A40393F890331A46039305EB4003C1
:10069000542A00F04181019A994240F24481B3F812
:1006A00000C01CEA020F00F04D81B3F802C01CEA42
:1006B000020F00F04A81B3F804C01CEA020F00F0F8
:1006C0004781B3F806C008331CEA020FE4D1019257
:1006D000A3EB050E99424FEA6E0E40F22481A4EB83
:1006E0000E04452C28BF452403EB4404A34280F0AC
:1006F0001F8100259C46019AA84629460196188824
:100700001040884214D158881040814240F0D78070
:1007100098881040814240F0D480D8880833104037
:10072000814206D19C4207D9188810408842EAD0FD
:1007300002339C4200F2A880B8F1110F019E40F2F2
:10074000F780D8F1150200F1F3806649049C4B68EC
:100750009E455E4BD3F8A80338BFC1F804E0231AC6
:10076000002B13DB604B03449C4200F2F680574899
:10077000C0F8A8334B68052B40F2ED80053BDBB297
:10078000524880F8A4334FF0FF334B6042B105FA72
:1007900002F2C8F11408012505FA08F848EA020532
:1007A000524BC5F3C43203EB8202506D05F01F02B9
:1007B00003EB8202516DC5F34412C5F3842503EBAC
:1007C000820203EB850541EA0031536D41EA0311D2
:1007D0006B6D41EA032181EA112383EA131303F0CD
:1007E0000F030F2B40F08880B1F5803F80F08480AC
:1007F000039B0909542B05D1344AB2F894330133D1
:10080000A2F89433DBF86433B1F5606F03F10103B0
:10081000CBF8643300F0B380029B998197F858308D
:10082000059883420CD0B2683B689B1A3B607B689A
:10083000326B9B1A7B600023B360336387F85800E8
:100840003B6801333B60B3680133B3604FF6FF731D
:10085000994205D17B6801337B60336B013333638D
:10086000029B09F101095C375C361433B9F1080FBA
:100870000AF1200A02937FF4ECAE012301208BF8E9
:10088000603407B0BDE8F08FA3EB0C0C184833F8C8
:10089000021C4FEA6C0C11400CF1010C80FB0C6047
:1008A000A0EBEC704FF0010C0128B8BF012085408F
:1008B000804401380CFA00F09C4605431FE70433DE
:1008C00037E7063335E700BF04000020701B002423
:1008D00000ED00E01F85EB51CDCCCCCC7811002091
:1008E000C7FFFF7F0000002420A10700B03A0A08DC
:1008F000565555553C040020039B542B33D0DBF850
:1009000064330133CBF86433DBF860334FF6FF71A7
:100910000133CBF8603381E7204A9942A2F89A0369
:10092000019A3FF6BCAE18B101381C4B83F8A40302
:10093000039B542B94D1194AB2F896330133A2F891
:1009400096338DE702330192C2E604330192BFE68B
:1009500006330192BCE6002312E704980F4B0530E2
:10096000C3F8A80306E70D4AB2F894330133A2F89E
:100970009433DBF864330133CBF86433C4E7074ABC
:10098000537803EB430302EBC3034B445B7C0D2B17
:100990007FF442AF8023029A93773FE7701B0024D5
:1009A00010B5044662F012F90146204689B2BDE84E
:1009B0001040FFF793BB00BF00EB400010B5084CA0
:1009C00004EBC00414ED0F7A54ED0E7AE7EE007AD2
:1009D000B0EE670A62F0FAF854F8443C186010BDB3
:1009E000FC100020F8B5264B1A785B789A4242D169
:1009F000244E7368002B23DD002506F10800224CED
:100A00002F46D0F8AC30BFF34F8F03F1E002C4F8AB
:100A1000683220339342FAD1BFF34F8FBFF36F8F09
:100A2000337813B1037F012B20D0426901357168FF
:100A300000F586701368A94243F001031360E0DCFF
:100A400010F02AFD114BD3F86844002C0DDD03F2A1
:100A50006C4303EBC4041968083333F8042CC868EA
:100A60009C4242EA0002CA60F5D1F8BD80F8FC70F1
:100A7000FFF7C6FAD9E75BF025FC0028B8D1F8BD2E
:100A8000701B00240400002000ED00E0FC1000209A
:100A90004FF0B042F8B5D2F88030D2F888502B40F1
:100AA00003EA0005C2F888507DB1084F0126B5FA67
:100AB00085F4C4F11F0407EB840306FA04F4D3F8A9
:100AC000AC0303689847A543F1D1F8BD701B00241F
:100AD0000269C3682DE9F04712EA03092AD00546E6
:100AE0000E464FF000474FF00008B9FA89F327FA95
:100AF00003F21B3BD24309EA02092A61042B16D8F0
:100B0000DFE803F03B30251A0300B36A002B3FD027
:100B100003F1FF3AC6F828801FFA8AFA746A34B1E2
:100B200023682046514698476468002CF8D1B9F1F3
:100B3000000FDAD1BDE8F08770680028F7D0696B44
:100B4000036889B29847B9F1000FCED1F2E7B068D7
:100B50000028ECD0A96B036889B29847B9F1000F5F
:100B6000C3D1E7E7F0680028E1D0E96B036889B2F8
:100B70009847B9F1000FB8D1DCE730690028D6D02A
:100B8000296C036889B29847B9F1000FADD1D1E75C
:100B9000E96A1FFA81FAC1E78069B43050F060BF9A
:100BA00038B590F828300446012B04D0407F40B17E
:100BB0000023637738BD406A03681A7B9AB9637F64
:100BC0000BB9012038BD0A4D022305F1200205F1C1
:100BD00040010FF0D9FB95F8213003F0010383F0B9
:100BE00001006377E6E71B6A002BE8D0002038BDE0
:100BF000E0F40024F8B5144E044690F8281006F1ED
:100C00002007437F012904D00BB100236377012023
:100C1000F8BD606A01680D7B85B9002BF7D002230F
:100C20003A460A490FF0B0FB96F8213003F0010371
:100C30006377002BEBD094F82810E3E70A6A002AC8
:100C4000E8D1002BE3D0EAE7E0F4002420F500240B
:100C5000F0B511F0010583B00AD190F82860044680
:100C6000012E07D0C368B3F1807F01D90123237718
:100C700003B0F0BD0A4B476AD3F88C040FF076FC42
:100C8000E368B880B3F1807FF2D9B7212A463846AD
:100C900033468DF8041001A926770FF075FBE7E7BE
:100CA000701B002470B5002394B00546224C0693B7
:100CB00002200B9304F120021093139311930192DD
:100CC0001E4E6A6A04960E4600940290CDE90E33D9
:100CD00001238DF80C3007938DF820308DF83430D7
:100CE0008DF848302B7F002B14BF052304230C9371
:100CF00004F140030593124B0993A4F120030A93D6
:100D000010685FF0E7FD2B7FA3B1A4F18002330EE2
:100D10001E3C82F86130320C6946330AA67022709C
:100D20006370686A0FF000FB6B6A18685FF0D2FDB1
:100D300014B070BD1F3CEEE760F500248D0304087D
:100D40006903040810B594B0044650220649684669
:100D500062F0BAFC6946606A0FF0E6FA636A1868E6
:100D60005FF0B8FD14B010BD843B0A082DE9F843CC
:100D70001F46436A04468846186891465FF0AAFDFC
:100D8000237F002B3BD0A0690523264D264EAB6365
:100D9000030EE23606F8013CB070030C000A012F86
:100DA000337070704FF00000D8F800306B64D9F8E1
:100DB0000030EB642363E86527D0022F1DD1D9F8FA
:100DC000042068651344D8F8041085F850002A669A
:100DD0000122A9652363154B85F86420AB66144B8B
:100DE000617F03F11402606A002914BF194611469D
:100DF0000FF09AFAE36A7BB1206BBDE8F883094DE6
:100E00000423A0690B4EAB63C6E7084B85F850700E
:100E1000A86528666B65E2E7636A18685FF05AFDAB
:100E2000EAE700BF00000024E0F400247503040892
:100E300008000024C1F5002400B583B0816101924F
:100E400001A9049A00930123C2626A46FFF78EFF4C
:100E500003B05DF804FB00BF2DE9F0439846436AF8
:100E600095B0054618680E46344C91465FF032FD49
:100E70000223334A0027029304F59073049204F589
:100E80008072009304F5A073297F019301230592DA
:100E90008DF80C300697002937D08DF8343004F5E2
:100EA00081748DF84830330ECDF82C9004F8013C55
:100EB00005238DF82070CDF8308013970793CDE986
:100EC0000977CDE90E77CDE91077330CA6701D4F69
:100ED000360A23706670D7F88C040FF047FB6C6AF3
:100EE0006B7FA0803BBB05A920460FF01DFA6B6A03
:100EF00018685FF0EFFCD7F890040FF037FB6B6ACF
:100F00009880404615B0BDE8F0838DF8343004F287
:100F100001148DF848300423CDF82C908DF8201062
:100F2000CDF8308013910793CDE90911CDE90E1169
:100F3000CDE91011C9E76946D6E700BFE0F4002407
:100F40008D030408701B00242DE9F843DDF8208090
:100F50000F4616460021202204461D4662F028FC5A
:100F6000B8F1000F0CD0D8F80030B8F80A20E381AF
:100F70001B0C2382D8F804306282E3821B0C23838B
:100F800038465FF0C9FFF30619D4431EB8B107EB2A
:100F9000000C01E0013B12D31CF801EDBEF12E0F55
:100FA000F8D1C01A03F10109421EB944032AA8BFAF
:100FB0000322082BA8BF082390461A4606E00828FB
:100FC0000246B9464FF00008A8BF08224FF0203370
:100FD000394620462360636062F076FB04F1080323
:100FE0001748424649462081A072184662F06CFBC1
:100FF00004F1FF3C0346E21D1CF8011FA1F1610E44
:101000002039BEF1190F98BF8CF800106245F3D15A
:10101000184604F10B0110F8013BA3F16102203BDB
:10102000192A98BF00F8013C8842F4D1182365833F
:101030002D0CE6722373099BA582E361BDE8F8835A
:10104000202020002DE9F04FDFF88C9487B0D9F8EC
:101050003803C9F83C03002B00F0DA80134415462E
:1010600001F1200601F5FE77DFF870A403931FE07D
:10107000002D63D0D9F86C23AA4200F0CD80D9F8B6
:101080006823AA4200F00281D9E9DC21AA424CD8A7
:10109000A94200F2CF81691A184659F03BFE01358A
:1010A000039B06F5007607F500779D4200F0B080BF
:1010B000D9F87843A6F12003AC42D9D82C1BD9F833
:1010C0008883E208D8F8301004F0070402328A421C
:1010D00003D3D8F838108A420DD9414610460593FB
:1010E000049259F0E7FD8046DDE90423002800F072
:1010F000C181C9F8880398F80410002940F03F81A5
:10110000D8F828B0BBF1000F00F0AD811846D8F830
:1011100030304FF40071D21AD8F80C3004EBC20210
:1011200003EB42224346D847B9E7A942B3D9184650
:101130004FF40072002162F03BFBB0E74FF4007205
:101140002946184662F034FB80220346D94886F8C7
:101150009E210C2286F8A221D9F86813D9F86023C1
:101160008142C3F8C611C3F8CA2100F36881D24B8B
:10117000013AD24C83FB0103C81784FB01C40B4422
:10118000C0EB6313C0EB2430CD4C84FB03C4C3EB32
:10119000831C86F8A1018010A1EB0C011C4420F0F7
:1011A0003F000131014386F8A011D917C1EBE411CA
:1011B0000B4486F89F31BF4B9A4200F34C81BE4BE3
:1011C000BE4883FB0213D11780FB02401344C1EBDE
:1011D0006313C1EB2031BA4880FB0340C3EB831497
:1011E00086F8A5118910121B184421F03F01013225
:1011F0000A4386F8A421DA17C2EBE010034486F80C
:10120000A331552386F8DE31AA2386F8DF3146E77D
:10121000002007B0BDE8F08F4FF0FF320024A6F1A8
:101220001C00049383F8EC21214683F8ED2183F818
:10123000EE2183F8EF2152221A705A7061229A70BF
:1012400083F8E7214122DA7083F8E621722283F8DD
:10125000E42183F8E521D9F88023C3F8E8214FF48D
:10126000F07262F0A5FA049B5522C6F8D041C6F888
:10127000D441C6F8D84183F8FE216FF0550283F8B7
:10128000FC4183F8FD4183F8FF2108E78D4C0021E4
:101290004FF40072184662F08BFA03464FF0000CD0
:1012A000022203CC46F8191CEB2146F81D0C08203D
:1012B00006F8201C582106F81F1C902106F81E1C59
:1012C000F8211A7383F80BC006F8130C9A7383F88D
:1012D0000FC006F8102C06F80B1C83F82C20D9F848
:1012E0006813D9F8602383F819C0521A83F81BC019
:1012F00083F81DC01A6283F81EC083F81FC083F8EC
:101300002DC083F82EC083F82FC0D9E9DC12521A01
:1013100080215A623F221A764FF0FF329A763E229F
:101320001A77012283F8302083F831C086F8201024
:101330002921654B86F82210942186F8260086F82C
:1013400023100E21614A86F824100D2186F82510FD
:10135000552186F8DE11AA2186F8DF1103CBC6F8E5
:101360002B101988C6F827009B78A6F82F1086F84E
:10137000313003CAC6F83200C6F836108FE64FF493
:1013800000721846002162F013FAD8F84020034694
:10139000002C76D1002A00F0A380D8F8303011223A
:1013A0004B49CDE90044FFF7CFFDD8F840301A6C27
:1013B000002A00F0A1801B6BCDE9004411224549B1
:1013C00030464FF4E07BFFF7BFFD06F12003D8F86D
:1013D0004480B8F1000F3FF462AE03F120049B4457
:1013E000049523464446984610E05CF81C1B0025F3
:1013F000236BCDE900C5FFF7A7FDABEB0803A46C99
:1014000008F12008002C18BF1F2B51D92379A446BE
:1014100004F11C0E1122A8F12000002BE5D1627905
:101420002569236B42F021022168CDE900E5FFF731
:101430008BFDE2E7A91A184659F06CFC2FE6FF2352
:10144000013A86F89F3186F8A13186F8A031194B10
:101450009A427FF7B4AEFF2386F8A33186F8A53110
:1014600086F8A431CDE6594618464FF4007262F072
:101470009FF914E6A6F1240343F804AF9F42FBD181
:101480000DE6002AD8F844800CBF01220222C2EBEC
:101490000414B8F1000F3FF402AE4246013C926CD6
:1014A000002C01DD002AF9D190464FF4007B90E733
:1014B000049DF4E5FF03FB00832008829755454116
:1014C0008180808028CE0A0834CE0A0840CE0A08DF
:1014D00020CE0A0824CE0A08701B0024DEADBEEF21
:1014E00023460822D9F864134FF4F07BCDE9004479
:1014F000FFF72AFD33466AE72346CDE900445DE75E
:1015000010B4294C94F88C346BB3D4F894249042E2
:1015100035D0012B27D0D4F87025824237D0022B4A
:1015200021D0D4F84C26904233D0032B1BD0D4F8D2
:10153000282790422FD0042B15D0D4F804289042AD
:101540002BD0052B0FD0D4F8E028904227D0062BC3
:1015500009D0D4F8BC29904223D0072B03D0D4F86B
:10156000982A824211D0DC22591C02FB034284F8E3
:101570008C14C2F8940418465DF8044B704700239D
:10158000DBB25DF8044B184670470723F8E70123E8
:10159000F6E70223F4E70323F2E70423F0E7052349
:1015A000EEE70623ECE700BFFC10002000207047A8
:1015B000704700BF014851F01FBD00BF1C20002430
:1015C000084810B4D0F8AC34D0F8E04499691A68EF
:1015D0002CB1234600F2AC405DF8044B18475DF88F
:1015E000044B7047701B0024014851F005BD00BF3B
:1015F00080200024084810B4D0F81035D0F84445B5
:1016000099691A682CB1234600F5A2605DF8044B75
:1016100018475DF8044B7047701B0024014851F0D7
:10162000EBBC00BFE4200024084810B4D0F87435A7
:10163000D0F8A84599691A682CB1234600F2745075
:101640005DF8044B18475DF8044B7047701B00248D
:10165000014851F0D1BC00BF48210024084810B413
:10166000D0F8D835D0F80C4699691A682CB12346C1
:1016700000F5BB605DF8044B18475DF8044B7047FC
:10168000701B002403282DE9F04FD4BF002601264B
:1016900085B0B0F1FF3F08BF46F001068DF80F306E
:1016A000002E40F0AC80894F6423054603FB007395
:1016B000D3F8AC04002800F0A38093F8ED44202C6C
:1016C00040F0B28093F8EC44012C00F0AD8001248E
:1016D000D7F8248683F8EC4406E0D7F82436A3EB49
:1016E0000803192B00F29080846914F40044F4D1AB
:1016F0004FF0640B764BCDF800804FEA41090BFBAD
:1017000005FB49460BEB030ABB4421235046CBF8AB
:10171000E0448BF8ED3440238BF8EE340DF10F03E9
:10172000CBF8F044CBF8D0340123ABF8D6340A23FD
:101730005AF064FE002840F0B080BBF8D6349BB26B
:10174000FF2B7BD8BBF8D634DBF8AC149BB26148D6
:101750004A68ABF8D434DBB2024049EA034313438E
:1017600043F000734B60642404FB057405E0B4F897
:10177000D6349BB2002B00F0938042460A2150469B
:1017800051F078FC00284FD1D4F8D034D4F8AC24F0
:1017900013F8010BB4F8D4149062C4F8D0340139B2
:1017A000B4F8D63489B2013BA4F8D4149BB2A4F89F
:1017B000D634B4F8D6349BB2002BD8D00029D6D179
:1017C000916911F0800109D1D7F82436A3EB080301
:1017D0000A2B51D8916911F08001F5D0B4F8D634B4
:1017E0009BB2FF2B38D953683A490B403A4943EA38
:1017F00009031943FF23A4F8D4345160B7E7002646
:10180000304605B0BDE8F08F64232021002203FBA1
:101810000575D5F8F03485F8EC240B43C5F8F034A1
:1018200085F8ED1485F8EE24B7F8283630460133F4
:101830009BB2A7F8283605B0BDE8F08FDBF8AC14F2
:10184000FF232448ABF8D4344B68234A034043EACF
:1018500009031A434A6086E7B4F8D6341D489BB2A0
:101860005168A4F8D434DBB2014049EA03430B4386
:1018700043F0007353607AE7642303FB0575D5F8E2
:10188000F03485F8EC1443F02003C5F8F03420233D
:1018900085F8ED3485F8EE14C6E78BF8EC44C3E721
:1018A000414650465AF026FE0028BDD1D4F8AC344B
:1018B00020210A4D0126D9615A682A405A6084F8CD
:1018C000ED1484F8EC0484F8EE0499E7701B00240E
:1018D0001C200024009C00FC0000FF0100E800FE2A
:1018E000114A037A0168D35C10B4CC58CA1824F0AA
:1018F0000104CC501368DB07FCD4037D1F2B09D9EE
:10190000203B20225DF8044B02FA03F343F0180356
:10191000CB60704720225DF8044B02FA03F343F0DA
:1019200018038B60704700BF44CF0A08F8B50768FA
:101930000646D7E90454A0612B7D1F2B49D9203BD3
:101940002022286802FA03F343F01803C360237DC2
:101950001F2B48D92022203B02FA03F3226843F0D0
:101960001803D3606368002269680A601A601A6805
:1019700042F010021A60BA69297A5CF071FCFA69C7
:10198000217A20685CF06CFC33682E681A6A5B6808
:1019900091685868184A024020680A4317495A60FB
:1019A0002A7A8D5C725942F001027251227A895C66
:1019B000425842F0010242509A6842F440429A6012
:1019C0001A6842F001021A601A6842F400721A6042
:1019D000F8BD2022286802FA03F343F0180383605D
:1019E000237D1F2BB6D8202202FA03F3226843F08E
:1019F00018039360B6E700BF0000FFFF44CF0A085A
:101A000010B1036882889A61704700BF18B183885B
:101A100002681B049361704708B51D200FF042F95E
:101A200008B183794BB11E200FF03CF908B18379DE
:101A300003B108BD5523C38008BD5523C380F2E719
:101A4000D3B20F2B2AD84FF0000C10B46346144CBD
:101A500004E001332A2B1DD014F803CF6045F8D1E0
:101A600094F801C08C45F4D10E4C03EB43030E49AE
:101A700002EB420C23445DF8044B01EB8C0201F1B4
:101A8000800093F8263100EB8C00C2F8883082F891
:101A90008030704700205DF8044B7047002070478D
:101AA000D43B0A08B03A0A080000002410B40C4CD9
:101AB000002304F22C6C01E0152B0CD003EB430245
:101AC00001331CF802108142F6D122445DF8044B28
:101AD00092F92E0670474FF0FF305DF8044B7047C7
:101AE000701B002430B40023114C124D04E001336C
:101AF0001A2B1AD054F8085FA842F8D125798D42E4
:101B0000F5D10D4C02EB42050C4904EBC30301EB8C
:101B1000850201F1800093F8A93100EB8500C2F83D
:101B2000883082F8803030BC7047002030BC70476D
:101B3000543C0A0800000140B03A0A0800000024A2
:101B4000F0B1002310B504460E4894F804E000F20A
:101B50002C6C01E0152B11D003EB430201331CF870
:101B600002107145F6D102446179206892F92E265F
:101B7000D3B20F2B02D8BDE81040B3E7002010BD50
:101B800000207047701B00240138074B074A00EB08
:101B9000C00003EB8000D0F8400190420CBFA020B1
:101BA000A1205AF081BF00BF0000002400000240C5
:101BB00001382DE9E84100EBC000134D1E46134BE0
:101BC00005EB800590460F46D5F8400198420CBFC2
:101BD000A020A1205AF068FFB5F956014FEA9811EC
:101BE000C5F85071C5F858615AF0DEFEB5F95631A6
:101BF000002B07DB03F01F0001225B090449824030
:101C000041F82320BDE8E8810000002400000240E4
:101C100000E100E0800AA0F58010522806D8044BAD
:101C20001B5C0D2B02D8034AD0567047002070472A
:101C3000B03A0A0834CF0A080120FEF729BF00BFD6
:101C40000220FEF725BF00BF0420FEF721BF00BF22
:101C50000820FEF71DBF00BF1020FEF719BF00BF10
:101C60004FF47870FEF714BF4FF47C40FEF710BFBE
:101C700030B1036882881B691A4214BF012000201A
:101C8000704700BF70B50C4686B00546164640B199
:101C900001680E4B0E4A0B449B0A02EB4303B3F858
:101CA00074025AF001FF04F01303AA8801A90293F9
:101CB000C4F341132868C4F3810401920596CDE969
:101CC000033451F053F806B070BD00BF0000FEA70A
:101CD000B03A0A0800B1D5E770472DE9F84FC34F75
:101CE0006423044603FB0073D3F89464002E00F0D1
:101CF0006D81D3F89CA4BAF1000F04D09AF8063095
:101D0000002B40F06381642303FB0473D3F8A054D9
:101D10001DB1AB79002B40F05981631CDBB2BAF1E5
:101D2000000F04D015228AF807308AF8062015B172
:101D30001622EB71AA714FF06409308B5AF0B4FE91
:101D4000294609FB04F950465EF0C8FD504607EBF2
:101D5000090898F8A63498F8A424002B14BF3E2153
:101D60001E21FFF7B7FF98F8A6342846A04D002B98
:101D700098F8A5244D44DFF8989214BF3E211E2107
:101D8000FFF7A8FF4C220021284661F011FDD8F88A
:101D90009434984A5B689342C8F8AC34DFF8748294
:101DA00040F0168151F098FCD9F82030C3F30213AB
:101DB0009FED917A9FED915AB0EE084A4344F7EEB9
:101DC000003A4FF0000E40F2145893F8883203F0B6
:101DD0001F03D840642307EE900A03FB0473F8EE58
:101DE000677AB3F8A894C7EE275A07EE909A9FED4A
:101DF000847AF8EEE77AC7EE274ADFED827AB0EE12
:101E0000007AE5EE877AA5EE875A25EE844A37EE0A
:101E1000856A74EEE72AB9F5C87F0EF1010CD5BFCB
:101E2000642332234FF49670782007EE90CAD8BF0F
:101E30004FF4167A0344C8BF4FF4827AB8EEE77ABB
:101E4000D8BF414607EE903AC8BF4FF4FA7127EE6B
:101E5000257A01EB0A03F8EEE76A86EE873A73EE1D
:101E6000636AFCEEE67A17EE902A07EE90AAB8EEC7
:101E7000E73A07EE903AF8EEE77A23EE243AC3EE1B
:101E8000276A36EEC53A72EEE66AC3EE077A77EE57
:101E9000E37AFCEEE77A17EE901AC6EE877A77EED1
:101EA000E37AFCEEE77A17EE903A03F1020A0AEBC6
:101EB000010BF0EE466A07EE90BAF8EE677AE7EEAD
:101EC000276AF4EEE64AF1EE10FA00F388805FFA32
:101ED00082FABAF10F0F00F28480323807EE900ACE
:101EE000F8EEE77A77EEC47AC7EE876AFCEEE67A18
:101EF00017EE900A5FFA80FABAF10F0F71D81FFA45
:101F000081FABAF1FF0F6CD81FFA83FABAF1FF0F0A
:101F100067D812054AEA0E7302F07F620004134389
:101F200000F47F00384A034302EA01210B43642096
:101F300000FB047400272846C4F8B0340123C4F819
:101F4000B474C4F8B834C4F8BC74C4F8C074C4F829
:101F5000C874C4F8CC745DF0D9F894F8ED34202B33
:101F6000D9B21AD194F8EC34012B16D0242384F87A
:101F7000ED34D4F8AC341A6822F001021A601A6801
:101F800022F480521A601A681A601A6842F001023C
:101F90001A6084F8ED1484F8EC740021F07E5AF095
:101FA00003FDF37E0124194D5A0903F01F0300219C
:101FB00004FA03F345F82230B07E5AF0F5FCB37E04
:101FC0005A0903F01F039C4045F82240BDE8F88FF2
:101FD00051F082FBD9F81C30E8E6E6461BE70131F8
:101FE00065E7BCF10F0FF8D10023A0E7701B0024B8
:101FF0001C200024001C0058286B6E4E0000164365
:10200000002474490000704200FFFF0000E100E07E
:1020100000440258B03A0A082DE9F843B14C04EBE9
:102020000017D7F86C36002B00F0BF80054606017C
:10203000B7F876065AF038FDB7F87636012103F086
:102040001F025B09023B01FA02F2082B0FD8DFE8FE
:1020500013F00801100118012001280109003001C6
:1020600038014001A04BD96F21EA0202DA67A319B7
:10207000013593F87006EDB20EF014FE074610B16C
:102080001223C5718371A31993F871060EF00AFE2D
:10209000814610B11323C5718371A31993F8720699
:1020A0000EF000FE804610B11423C57183713444D4
:1020B00048462E2194F87426FFF70CFE94F87526F6
:1020C0000E214046FFF706FE94F873262E2138466F
:1020D000FFF700FED4F86C3684491A688B4222F070
:1020E00001021A6063D0824A934200F08F8002F5A9
:1020F0008062934279D17C4AD2F8901041F4004139
:10210000C2F89010D2F8901021F40041C2F890105B
:10211000DA6842F00042DA609A6822F4F0729A605B
:102120001A68D60741D473499D68D1F89823D1F82D
:10213000A04344EA0200D1F8882310436E4A2A40A3
:102140001043D1F894239860DD68D1F88403ED0042
:102150007BD50243D1F88C03DE68B4F5800F42EAE8
:102160000002D1F89003654D42EA0002D1F89C03C9
:1021700005EA060542EA0002D1F8800300F4C02611
:1021800000F4006042EA060242EA0502DA601A68D8
:1021900022F4006242EA00021A6002D1D1F8A423BC
:1021A0001A641A6D22F001021A65BDE8F8834E4ADE
:1021B000D2F8981041F48051C2F89810D2F89810D3
:1021C00021F48051C2F898104D4A9342A0D1464A5A
:1021D000D2F89C1041F02001C2F89C10D2F89C105B
:1021E00021F02001C2F89C1092E7464A93421BD18D
:1021F0003D4AD2F8981041F40051C2F89810D2F834
:10220000981021F40051C2F8981081E7364AD2F8AC
:10221000901041F48041C2F89010D2F8901021F44F
:102220008041C2F89010CFE7374A9342CCD12E4A72
:10223000D2F8981041F48011C2F89810D2F8981092
:1022400021F48011C2F8981062E7B2F1806F80D15A
:10225000B0F5800F7FF47DAF1D6845F480551D609B
:1022600077E7214BD3F8981021EA0202C3F89820AF
:10227000FDE61D4BD3F8901021EA0202C3F890202E
:10228000F5E6194BD3F8941021EA0202C3F8942022
:10229000EDE6154BD3F8801021EA0202C3F8802046
:1022A000E5E6114BD3F8841021EA0202C3F884203A
:1022B000DDE60D4BD3F88C1021EA0202C3F88C2026
:1022C000D5E6094BD3F8881021EA0202C3F888202A
:1022D000CDE6054BD3F89C1021EA0202C3F89C20FE
:1022E000C5E600BF701B00240044025800300140C6
:1022F0000038004000000024E0FFBF8FFFFF39D806
:1023000000140058003401400050014008B1002280
:10231000B8E470470E4B70B5D3F86464002E14DD3A
:102320000C4C002503E0B54204F120040DD0237FBE
:102330000135002BF7D0E06800220028F3D0217D82
:102340002034FFF79FFCB542F1D1012070BD00BFE2
:10235000FC1000203C040020F8B590F8EE311C0978
:10236000013C062C0FD81B4E054603F00F0306EB6D
:102370004402B2F8B80240FA03F2D20703D595F846
:10238000F971012F01D00120F8BD07FA03F334449D
:10239000013B18405FF0ECFA94F8C82213180E4A7B
:1023A00002EBC30152F833208B8810691840EBD040
:1023B000002395F8EF210846022185F8F931FFF74F
:1023C00061FCD5F850213846136843F008031360C8
:1023D000F8BD00BFB03A0A083C220024014B53F874
:1023E0002000704750400058014B43F820107047C0
:1023F0005040005819481A4B01681A4A41F480713C
:1024000030B4016082B0D3F8F410FF24CA2041F444
:102410008031C3F8F410D3F8F41001F48031019145
:102420005321019D546250625162D3F8D030DB01D8
:102430000CD40D4B00210D4A43F8041B9342FBD1F1
:10244000084B0B4A1A6502B030BC7047126D084B3E
:102450009A42EED102B030BC704700BF004802582B
:102460000044025800400058544000586C40005846
:1024700031666542F0B50446D0F85C01454B83B047
:10248000A16804F5967204F1E0070E68C1B220F06D
:10249000FF0001921039A3FB013109095BF030FF05
:1024A000D4F81C110023019A012984F8203118D096
:1024B000042916D0102958D0402912D0B1F5807FB8
:1024C00056D0B1F5806F53D0B1F5805F58D0B1F5DB
:1024D000803F4FF03C030CBF6FF0080C6FF4006CB2
:1024E00001E06FF0080C06F118053046E95801EAE2
:1024F0000C01E950D4F81C115BF0A2FBD4F81C319C
:10250000012B16D0042B14D0102B0FD0402B10D041
:10251000B3F5807F30D0B3F5806F2DD0B3F5805FF9
:1025200032D0B3F5803F06F1540502D04FF400617C
:1025300000E008212B683A46D4F85C010B434021A7
:102540002B60C4F8E810C1B2124B20F0FF00103924
:10255000A3FB013109095BF083FED4F85C21136809
:1025600043F01003136003B0F0BD6FF4006CBAE7E2
:102570006FF0080C0423B6E706F11C050821D9E723
:102580006FF4006C0423AEE706F11C054FF4006104
:10259000D0E700BFABAAAAAA2DE9F04FDFF848B1F7
:1025A00085B09BF8004024B90124204605B0BDE861
:1025B000F08F474BD3F838530EF06EFF454A92F830
:1025C000B83B002B00F0BC81434B02F17C070BF5BC
:1025D000A7640026A3FB0513404D5B09A5FB03156B
:1025E000ED0805EB8505A3EB4505D2F87C3BC31A46
:1025F0000193EBB207EB8505029302F55773009345
:10260000019A002A04DBD4F82431934200F37C8140
:102610004FF4B47303FB06B393F85836002B00F065
:10262000C080D4F85C11A3682D481A68CBB221F0A1
:10263000FF01103BA0FB03032A481B09C35C19449C
:102640004B68A1891FFA83FED368CEF1160E23EAE8
:102650000103BEF1070FD36040F2A3801D4A0121A0
:10266000D2F864338A460133C2F864330022D4F8C6
:10267000643190469C4603935CF8049B48461DE0F9
:10268000DCF80090B8F1140FA9EB000348462DDCEC
:1026900013F1080948BF03F117094FEA291308EBA2
:1026A000291803F1FF39013102FA03F30CF1040C8C
:1026B0000AFA09F28E4542EA030217D38E45DFD8A3
:1026C000C8F11503DCF800004FF01508E9E700BF7A
:1026D000701B0024FC1000201F85EB51CDCCCCCC0E
:1026E000ABAAAAAA44CF0A0804000020B8F1150F2B
:1026F00040F000819649C2F38423C2F3441001EBF9
:10270000830301EB8000D3F8D032D0F8D0021B0253
:1027100043EA001302F01F00C2F3C43201EB800051
:1027200001EB8202D0F8D012D2F8D0220B4343EA58
:10273000023383EA132282EA121202F00F020F2AF6
:1027400040F0D880C3F30F134FF6FF72934200F0AE
:10275000D180B3F5606F00F0DC80009A938197F828
:102760005820029882420CD0A9683A68521A3A60FE
:102770007A68296B521A7A600022AA602A6387F865
:1027800058003A6801323A60AA680132AA604FF6EE
:10279000FF72934205D17B6801337B602B6B013361
:1027A0002B63009B204601365C3714335C3504F5FF
:1027B000B4740093FFF75EFE664B93F8B83BB342E8
:1027C0003FF71EAF63480121002280F86014C0F873
:1027D0007C2B002B3FF4E8AE9BF81026DBF8540668
:1027E00012F0020FDBF8402511680A6A0CBF0243A1
:1027F00042EA8002012B0A623FF4D6AE9BF87827AA
:10280000DBF8BC0712F0020FDBF8A82611680A6A91
:102810000CBF024342EA8002022B0A623FF4C4AEBC
:102820009BF8E028DBF8240912F0020FDBF81028EF
:1028300011680A6A0CBF024342EA8002032B0A6253
:102840003FF4B2AE9BF8482ADBF88C0A12F0020F74
:10285000DBF8782911680A6A0CBF024342EA800259
:10286000042B0A623FF4A0AE9BF8B02BDBF8F40B0C
:1028700012F0020FDBF8E02A11680A6A0CBF02436B
:1028800042EA8002052B0A623FF48EAE9BF8182DB7
:10289000DBF85C0D12F0020FDBF8482C11680A6AB5
:1028A0000CBF024342EA8002062B0A623FF47CAE70
:1028B0009BF8802EDBF8C40E12F0020FDBF8B02D6F
:1028C00011680A6A0CBF024342EA8002082B0A62BE
:1028D0007FF46AAE9BF8E83FDBF8182F13F0020F85
:1028E0001D4B1268D96A136A14BF43EA81030B4374
:1028F000136259E6174AD2F860330133C2F86033E5
:10290000B6B14FF6FF732AE70024204605B0BDE8B4
:10291000F08F12494A7802EB420201EBC2023244C4
:10292000527C0D2A7FF419AF802200998A7716E72E
:10293000039958220A4860F0C7FE4FF6FF730EE76E
:1029400004490122C1F87C3B81F860242DE600BFD8
:10295000B03A0A08FC10002004100020701B00246C
:1029600004150020D0F850112422F8B5C0F8D02169
:1029700004460A680023806804F5A87522F0010265
:102980000A600B604B608B6094F805C0C4F8D831C6
:1029900084F8CC31C4F8D031C4F86831C4F8D431EB
:1029A000C4F87031C4F864314FEA8C23B44A03F49C
:1029B0008053C4F854019142C4F858314FEA0C33A3
:1029C00003F40053C4F85C314FEA0C2303F4806332
:1029D000C4F8603100F0AE81237913F0010002D019
:1029E0000422C4F8642113F0020305D0D4F8642152
:1029F00042F00802C4F864211CF0010F0DD048B168
:102A0000D4F8782142F00202C4F878214FF48032E1
:102A1000C4F88021002B40F081819A4B03F12C00F7
:102A200053F8042B944200F03F819842F8D11CF0F7
:102A3000080F40F04F81D4F8D031002B00F09C817A
:102A400024232846C4F8D0310B6823F001030B601F
:102A500051F024FA012815D0D4F87831002B40F039
:102A60009181D4F8503128465A6822F490425A6035
:102A70009A6822F02A029A601A6842F001021A60EB
:102A80005BF03CFD2379DA076DD5D4F82C21002AC0
:102A900000F05F810023D4F8341104F13C06E263B6
:102AA0004FF48062C4F8B8103046E264C4E91133D0
:102AB000C4E91433C4E91833C4E91A334FF480333A
:102AC000E3654FF48073A3655CF06EFB30464FF016
:102AD00051FCD4F8D431C4F8C861202B65673DD1CE
:102AE000E368626999B2CAB3B1FA81F04009A9B347
:102AF00094F8CCC1BCF1010F30D02227C4F8D80122
:102B000094F870C0C4F8D4715F4FA4F8AC110121DF
:102B1000A7675E4F8C45C4F8A821E7675C4FC4F8EF
:102B20008C0084F8CC11C4F888700ED094F87170C1
:102B300084F87010012FD4F8501100F02B814FF45D
:102B4000006384F87000C4F8903010210022202324
:102B5000C4F8D81184F8CC21C4F8D031E26B2379C1
:102B60005268C4F844219B0740F18880D4F8302192
:102B7000002A00F0E3800023D4F8381104F1B406F1
:102B8000C4F8B420C4F8C0304022C4F8D030304675
:102B9000C4E93233C4E93633C4E938334FF48033FF
:102BA000C4F8D4304FF48063C4E92E12C4F8C430A2
:102BB0005CF0FAFA30464FF0DDFB002840F0B980B7
:102BC000D4F8B420334B34483449824218BF9A4277
:102BD000C4F8C461C4F8EC5000F160000CBF0123DC
:102BE00000232F4C8A4208BF43F001033031A24238
:102BF00008BF43F0010360348A4208BF43F0010379
:102C00003031824208BF43F0010300F568708A4208
:102C100008BF43F0010301F55C71A24208BF43F015
:102C2000010304F568748A4208BF43F001033031A0
:102C3000824208BF43F0010360308A4208BF43F07C
:102C400001033031A24208BF43F001038A4208BFAA
:102C500043F001033031824208BF43F001038A424E
:102C600008BF43F001033BB90E4BD31AB3FA83F309
:102C70005B09002B00F0A78000235360F8BD00BF64
:102C8000000C0058BC1C0020C5EA0808F9EA080836
:102C9000FDEA0808100002402800024040000240FF
:102CA00058000240B8040240002C3FF4C0AE94F833
:102CB000F831002B3FF4BBAED4F878311CF0080F8C
:102CC00043F00803C4F878314FF40043C4F8883166
:102CD0003FF4B1AED4F8D031002B50D02423284695
:102CE000C4F8D0310B6823F001030B6051F0D6F823
:102CF00001283FF4C7AED4F87831002B46D1D4F880
:102D0000503128465A6822F490425A609A6822F05C
:102D100022029A609A6842F00802ACE6D4F8783150
:102D200043F00103C4F878314FF40033C4F87C3128
:102D300073E6FEE70423C4F874314DE6D4F8DC31C1
:102D40001A6842F080021A601A6842F040021A6063
:102D5000F8BDD4F8DC21116841F4807111609168EC
:102D600041F001019160116841F02001116011688A
:102D700041F010011160F6E684F8CC3160E684F889
:102D8000CC31ABE7284651F065FB6AE6284651F0A6
:102D900061FBB4E79BB2243130464FF00BFD0028B5
:102DA0007FF4D3AED4F8503184F8CC011A6842F4E1
:102DB00080721A609A6842F001029A609A6842F042
:102DC00040029A60CAE65360F8BD00BFF8B50446F9
:102DD000EFF31185502383F31288D0F830311B684C
:102DE00003F001031BB1EDB285F31188F8BDD0F8F3
:102DF000D021D0F8D4110A4302F02102212AF2D0C6
:102E0000D0E909218A424FD04BD800691A46431AAB
:102E10009BB2A262002284F8E021D4F8D021202ABB
:102E2000E1D1A2695118DED0B3FA83F25209002B26
:102E3000D9D094F8CC010128D5D02120A4F8A6310E
:102E40004FF0010CC4F8D821C4F8D001D4F8C40163
:102E5000C4F8A011A4F8A43184F8CCC170B31D4EFD
:102E600090F834E0C6631C4EE645026506641B4ECE
:102E7000C6640CD090F83560D4F85071664580F87F
:102E800034C015D04FF4006380F83420436510211E
:102E900000222023C4F8D81184F8CC21C4F8D03102
:102EA000A1E7531A9BB2B4E7012380F8E0319AE717
:102EB00007F128024FF07EFC0028E8D1D4F8503109
:102EC00000224021196284F8CC219A6842F08002E5
:102ED0009A6088E79DEA0808C1EA0808FDEA080840
:102EE0002DE9F8434D4C04EB8004D4F8C04B002C82
:102EF00044D0D4F8E8511F46494B0646A16020460D
:102F0000236090466B68C4F8DC31AB6B63616B6B1C
:102F1000A361EB8FE360AB8F2361424BC4F8E431D4
:102F20000EF04CF86B68A88DC4F85031002863D1BE
:102F300094F8EE010DF0B6FE022117F008020346E8
:102F400094F8EC9184F8F9111BD060B317F0510F8D
:102F50004FF00B0206F1010614BF0A211A2117F0E7
:102F6000410FC671827114BF4023202394F8EF21D2
:102F70001943FEF787FED4F82C314BB32046BDE849
:102F8000F88318F0020F0ED068B14FF00B0C3B061F
:102F900080F806C006F1010C80F807C02FD494F821
:102FA000EF21FEF76FFE48460DF07CFE0028E2D0D0
:102FB00018F0010FDFD00C2201360221C671827198
:102FC00094F8ED21FEF75EFED4F82C31002BD5D11C
:102FD00095F8321095F83000890959F0E5FC95F81C
:102FE00030300122104903F01F005B098240204667
:102FF00041F82320BDE8F88359F056FD98E7D4F84E
:1030000050714FF0010C20213B6823F008033B6016
:1030100084F8F9C1FEF736FEC5E700BFFC100020BA
:10302000003E0A085923040800E100E0BFF34F8F77
:103030000549064BCA6802F4E0621343CB60BFF354
:103040004F8F00BFFDE700BF00ED00E00400FA0570
:103050001C481D4AC1681D4B10B44FF6FF0485B0D3
:1030600021401B4C0A43C260D3F8D010D3F8DC20B7
:10307000C4F84C1A42F00052C3F8DC20D3F8DC202C
:1030800002F000520192019AD3F8DC2042F0804213
:10309000C3F8DC20D3F8DC2002F080420292029ACE
:1030A000D3F8DC2042F00042C3F8DC20D3F8DC3057
:1030B00003F000430393039B05B05DF8044B0EF04F
:1030C00073B900BF00ED00E00005FA0500440258A6
:1030D000701B002408B51D480023C0F88430BFF3DE
:1030E0004F8F436923F480334361BFF34F8FD0F890
:1030F000803043F6E074C3F34E3CC3F3C90E4FEA8D
:103100004C1C0CEA0401734641EA8372013BC0F88F
:1031100074225A1CF8D1ACF1200C1CF1200FF0D114
:10312000BFF34F8FBFF36F8FBFF34F8FBFF36F8F1F
:103130004369002223F400334361C0F85022BFF3F7
:103140004F8FBFF36F8F72B6FFF770FF00ED00E097
:1031500003689B0AA3F58013522B57D870B53E4CD9
:1031600014F803C0BCF10D0F4FD840798508002931
:1031700051D04FEA900E4C2438480CEB8C0304FBE2
:103180000C040CEB4303D4F8506A02242B4404FAD9
:103190000EFEF46800EB83054EEA0404A966AA67F4
:1031A000F460EFF31184502383F312882C2303FB84
:1031B0000CF3C1184A6E52B3131DC1F88820284A77
:1031C0002C21284D01FB0CF105EB010E14310A44B2
:1031D00052F8041B19B1196052F8043C04339645A7
:1031E000F6D10022E4B21A6084F311882C2303FB89
:1031F0000C03D3F888302BB34C2303FB0C00D0F81E
:10320000502AD36843F00103D36070BD7047144A5D
:1032100024331344D4E711484C23022403FB0C034A
:1032200004FA05FED3F8506A0CEB8C03F4680CEB3F
:10323000430324EA0E042B44F46000EB8304A166EC
:10324000A267AEE74C2303FB0C00D0F8502AD368EA
:1032500023F00103D36070BDB03A0A08701B00244C
:10326000D41B0024F81B002403689B0AA3F58013D9
:10327000522B00D97047144AD35C0D2BFAD84FF06B
:103280004C0C10B4114C79B9417902220CFB03406B
:103290005DF8044B21FA02F3D0F8501A9A40CB683B
:1032A00023EA0203CB607047417902220CFB034002
:1032B0005DF8044B21FA02F3D0F8501A02FA03F336
:1032C000CA681343CB607047B03A0A08701B0024E9
:1032D00003689B0AA3F58013522B10D8084AD25CCE
:1032E0000D2A0CD84079022306494FF04C0CD840E7
:1032F0000CFB02128340D2F8502ADB431361704763
:10330000B03A0A08701B002401490248FDF7E0BBEF
:10331000D41B00240000014001490248FDF7D8BB3E
:10332000D41B00240000014002494FF08040FDF70B
:10333000CFBB00BF001C002401490248FDF7C8BBF9
:103340002C1C00240004004001490248FDF7C0BBCA
:10335000581C00240008004001490248FDF7B8BB92
:10336000841C0024000C00402DE9F843194E3569F7
:10337000F3681D4010D04FF00047DFF85C80B5FACD
:1033800085F227FA02F31F2A6FEA030305EA030511
:10339000336103D0002DF2D1BDE8F883D8F868314D
:1033A000A3B103F1FF3900231FFA89F9C8F8683186
:1033B000D8F86441002CEDD0236820464946984750
:1033C0006468002CF8D1002DD9D1E5E7F16A1FFA25
:1033D00081F9EDE700100040701B0024014902480C
:1033E000FDF776BB081D00240004014010B5064C13
:1033F000064804F5CC71FDF76BFB04F5F871044841
:10340000BDE81040FDF764BB701B002400040140C0
:10341000001C004001490248FDF75ABB341D00243E
:103420000018004001490248FDF752BB8C1D0024E2
:103430000020004001490248FDF74ABBB81D0024A6
:103440000040014001490248FDF742BBE41D002451
:103450000044014001490248FDF73ABB101E002418
:10346000004801402DE9F0414FF425728EB0002153
:103470007B4860F09DF97B4B7B4E4FF08041D3F849
:10348000F02006F68415374642F00102DFF8E081AD
:1034900006F66814C3F8F020D3F8F02002F0010219
:1034A0000092009AD3F8E82042F00102C3F8E82025
:1034B000D3F8E82002F001020192019AD3F8E82043
:1034C00042F00202C3F8E820D3F8E82002F002023A
:1034D0000292029AD3F8E82042F00402C3F8E820EE
:1034E000D3F8E82002F004020392039AD3F8E8200C
:1034F00042F00802C3F8E820D3F8E82002F00802FE
:103500000492049AD3F8E82042F01002C3F8E820AD
:10351000D3F8E82002F010020592059AD3F8E820CB
:1035200042F02002C3F8E820D3F8E82002F020029D
:103530000692069AD3F8F02042F00202C3F8F02077
:10354000D3F8F02002F002020792079AD3F8E8209D
:1035500042F04002C3F8E820D3F8E82002F040022D
:103560000892089AD3F8E82042F08002C3F8E820D5
:10357000D3F8E82002F080020992099AD3F8E820F3
:1035800042F48072C3F8E820D3F8E82002F4807295
:103590000A920A9AD3F8F02042F48032C3F8F0205D
:1035A000D3F8F02002F480320B920B9AD3F8F0207B
:1035B00042F40032C3F8F020D3F8F02002F40032D5
:1035C0000C920C9AD3F8F02042F48022C3F8F02039
:1035D000D3F8F03003F480230D930D9B4246002373
:1035E00001E054F8332091420BD00133112BF8D174
:1035F0001C37002059F058FAAF420CD057F81C1C69
:10360000ECE71A4A1C3702EBC303B3F8080D59F074
:103610004BFAAF42F2D14FF08041154F154C3A466C
:10362000002301E054F8332091420BD00133112BD9
:10363000F8D11C36002059F037FAAE420CD056F8BB
:103640001C1CECE7094A1C3602EBC303B3F8080D57
:1036500059F02AFAAE42F2D10EB0BDE8F08100BFB7
:10366000D41B0024004402584C3E0A08B03A0A0811
:1036700000000140B4470A08800AA0F580105228D3
:103680000DD8074B1A5C0D2A09D8064B4C2101FBBB
:103690000233D3F8502A136843F0010313607047D4
:1036A000B03A0A08701B002438B590F83DE0844613
:1036B000BEF1020F5FFA8EF018D014469CF83D2040
:1036C000012A02D102228CF83D200C290DD8DFE816
:1036D00001F05D0C0C0C290C0C0C430C0C0C0E00B6
:1036E0004032214628464FF065F8002038BDDCF80E
:1036F0003050334AEA63334AEA6495F83420012AA9
:10370000F3D00121DCF8002085F8341095F835104D
:103710000129E5D000234FF40062184685F83430C3
:103720006A6538BDDCF82850254AEA63254AEA6410
:1037300095F83420012AD8D00121DCF8002085F842
:10374000341095F835100129E4D138322146284645
:103750004FF030F8002038BDDCF82C50184AEA63EE
:10376000184AEA6495F83420012ABED00121DCF819
:10377000002085F8341095F835100129CAD13C3263
:10378000214628464FF016F8002038BDDCF82450BA
:103790000B49DCF80020E9630A49E96495F8341024
:1037A0000129A2D0012185F8341095F8351001299E
:1037B000B0D13432214628464EF0FCFF002038BDFF
:1037C0003DEA0808E5E908081F4B984210B50ED0FD
:1037D00003F5806398420AD01C4A03F5804398425F
:1037E00018BF904203D003F5806398421BD14FF07D
:1037F00073FF174B1749DC69DA69C4F3022CC2F373
:10380000022201EB0C0393F8883203F01F03D84027
:103810000F4B11491B69C3F3C03342EAC303CB5CAE
:1038200003FB00F010BD4FF057FF094B0949DC695D
:10383000DA69C4F30214C2F302120B1993F8883246
:1038400003F01F03D840E3E70000014000400140BF
:1038500000440258B03A0A0820CF0A082DE9F04F78
:10386000B34B91B00024DFF8F0820193B14BA3F683
:103870008C5BB14E0025DFF8BC92B30AA3F5801330
:10388000522B57D81BF803300D2B53D818F903705F
:10389000AA4B93F8D63E012B40F01081012F3FD167
:1038A0004FF0000A5146384612F0C4FC12F04AFDAF
:1038B00090F800C0BCF1000F18BFBCF1540F14BF4A
:1038C0004FF0010C4FF0000C40F0F4800AF1040AB4
:1038D0001FFA8AFABAF1100FE4D1002C00F0B5807B
:1038E000934A00210DE01BF803300D2B10D818F976
:1038F0000330BB420FD0013102F58672A14280F243
:10390000A080906803689B0AA3F58013522BEAD924
:103910000023BB42EFD1437999F805009842EAD1E0
:103920000135082D14D059F81C6FB30AA3F5801384
:10393000522BA7D9814B93F8D63E012BF0D0012210
:103940000027022BACD1002AAAD00135082DEAD1DC
:10395000019B013403F58673042C019389D1784FC0
:103960000026DFF8F8B1774BD3F86434B34265DD55
:10397000D7F80C80B8F1000F60D0734BB8F8041082
:103980005D68D8F800003B7C002DDFF8D4C10193BE
:10399000B1FA81F38444C3F11F0902934FEA9C2CCE
:1039A00040F3A980624A002405E0013402F58672E2
:1039B000AC4200F09D8013686345F6D14FF48673E6
:1039C0005B4A03FB0424019B0322C7F804900136E1
:1039D0003B744FEA4903C7F80C8002FA03FCBC6150
:1039E00088F80620012288F8076002FA03F5A36C24
:1039F00043EA0C03A364236D2B432365524B1B78CE
:103A0000002B60D0636D02FA09F943EA090363658C
:103A100081611FFA89F1D4F8AC00FCF71DFB204648
:103A20002037FCF7EDFA0123082E0BF1180B07F8ED
:103A3000043C07F8033C0BF8073C94D111B0BDE8F7
:103A4000F08FBCF1000F7FF46BAFD9F808000022B3
:103A50003E4B04E001320C33102A00F02A835968EF
:103A60008842F7D152B2304699F80510FEF73AF87D
:103A7000374A4068002351680133884217D0102B21
:103A800002F12402F7D14FF0FF3303EBC303314AB5
:103A900002EB830393F85C31002B7FF441AF254B9D
:103AA000C5EBC50503EB8505019B9D6050E7DBB2C7
:103AB000013BEAE7002C7FF413AF31E7B7F10802CE
:103AC00018BF01223DE7029D4FEA014C02FA09F1BD
:103AD000C5F12F0589B202FA05F51A46636D2B432D
:103AE0006365C0F818C0D4F8AC00FCF7B5FA96E7E7
:103AF000032C00F3E9804FF48673134A03FB05237C
:103B00001869002800F0C1825422C3F808C00CF1E3
:103B1000010C0E4C83F8102183F811C16B1C0A4A6A
:103B200053600022054B93F8ED3E039383681EE03B
:103B30000C0000203C480A0800040140701B0024CF
:103B40003C040020FC100020040000208000002421
:103B5000400100240000002434CF0A08B8100020DF
:103B60000000FEA701320C34102A00F0A282616826
:103B70008B42F7D1417952B20068FDF7B3FF4FF4A1
:103B80008672B14BDFF804A302FB0532D0E9014194
:103B9000C2E90741002251464B6801329C4217D0CE
:103BA000102A01F12401F7D1A84BA94693F8382136
:103BB000002A00F05C82A648A649A74AA74BC0F895
:103BC000101CC0F8082CC0F8183C11B0BDE8F08FEC
:103BD000D2B24FF48671013A01FB05F39B4902EB27
:103BE000C202049301EB82029749194492F85C31B6
:103BF000B1F810010593002BDDD1049CA2F85C0103
:103C0000974BA210086903FB02F2964B0068C2EBC7
:103C1000C20C02EBC20203EB4C1C03F5607303EB16
:103C20004212D8F80030C1F8B4C0C1F8FC203322E9
:103C3000CB60C1F8B8208C22C1F80021FFF7C4FD89
:103C4000894B1C19039B062B00F00E82072B874B18
:103C5000874908BF1946874B874A18BF1A464FF451
:103C60008673B0FBF2F2B0FBF1F1013A764801390C
:103C700003FB050392B2A3F8BC10A3F874202266DC
:103C800000220393A4F858206266E265049A02F1C8
:103C9000580100F1080211441A6910685AF04CF9F1
:103CA000039B1A6910680392036843F08003036062
:103CB00053790C2B0DD8DFE803F06F0C0C0C670C5C
:103CC0000C0C5E0C0C0C550003236C4A82F8EC3E85
:103CD00071E74FF486735C4A03FB052359694FF083
:103CE000600C02680023CDF820C04FF4807C0A935A
:103CF00022F00102CDF838C04FF0010C0D930F9364
:103D00000223CDF824C04FF00A0CCDE90BC30260AA
:103D100008AA59F095FF4C4B4FF4867202FB05320E
:103D2000039B526919680023012A3DD0042A3BD025
:103D3000102A00F0AF81402A36D0B2F5807F00F023
:103D4000AC81B2F5806F00F0A881B2F5805F00F021
:103D5000A981B2F5803F4FF03C030CBF08224FF41D
:103D6000006222E04FF48673374A4FF4805103FB20
:103D700005235961B3E74FF48673334A4FF48071DA
:103D800003FB05235961AAE74FF486732E4A1021DD
:103D900003FB05235961A2E74FF486732A4A0121E8
:103DA00003FB052359619AE7082201F1180050F836
:103DB00003C042EA0C02C250039B1879002840F06D
:103DC0003E81214B4FF4867202FB053200231069BD
:103DD000D1690068026842F001020260DAF804204A
:103DE0000133914200F02781102B0AF1240AF5D10A
:103DF0004FF0FF33154A03EBC30302EB8303D3F801
:103E000040011F4B98420CBFA020A12058F04CFE4F
:103E10000D4A4FF4867303FB05231A6951790C2967
:103E200000F20681174B03EB4103B3F86CCED2F8D6
:103E300000E04FF48673044A1349704603FB0523E0
:103E4000A3F818C000232AE004000020000000248A
:103E5000FC10002091D704088DD7040899D70408D6
:103E60006B4CA407A04601240C0000201055220032
:103E700044950800D0DD060040771B00701B00242D
:103E800000000240B03A0A086815002040010024F2
:103E9000904200F005810133042B00F0078151F8B6
:103EA0003320002AF4D1844A86461046D2F868248A
:103EB0000132C0F8682400EBC302DB00C2F86CE4F6
:103EC0001944059823469022B1F804E0DFF804A2D3
:103ED0004CEA0E0CA1F804C07849FDF769FE4FF4D6
:103EE0008673774A4FF4403E40214FF4805C03FBD9
:103EF00005250023E869026842F0100202600268AA
:103F000042F014020260C4E91F33C4E92733C4E954
:103F100029334FF480632A6AC4F898E0C4F88430E7
:103F2000A167C4F89420D5F8B820C4F89020C2B294
:103F300020F0FF00103AAAFB0231EA68049B183215
:103F4000C4F888C04FF4804C0909226703F170025D
:103F50005C4B1A44D5F8B430C4F88CC063675AF08F
:103F60007FF9E869049B4FF40031D0F800E04FF48A
:103F7000006C03F1B802534BC4F820E0D0F814E011
:103F80001A440023C4F824E0D0F804E0C4F828E080
:103F9000D0F808E0C4F82CE0D0F80CE0C4F8C83041
:103FA000C4F830E0C4E93033C4E93933C4E93B3301
:103FB0002B6AC4F8E01003934FF48063C4F8CC304C
:103FC000039BC4F8DC30D5F80031C4F8D830C3B254
:103FD00020F0FF00103BAAFB0331EB68C4F8D0C00F
:103FE00010330909C4F8B830D5F8FC3003934FF406
:103FF0008043C4F8D430039BC4F8BC305AF030F985
:10400000EB69B8F804101A68D8F8000062635A69BE
:10401000A2635A68E2639A682264DA6862641A6882
:1040200042F010021A601A6842F014021A60CAE4E0
:104030004FF0000CFBE6DBB20593013BDAE607919B
:104040000CF030FE0799069048B1039B0221DA7903
:10405000FDF718FE069B5422DA80039B19684B6C0F
:1040600043F400434B64ACE61749184AF7E5144A99
:104070004FF4867808FB092898F8111198F8102158
:1040800083F8391183F8382195E50223104A82F824
:10409000EC3E90E54FF4006287E60822042384E6B4
:1040A000DB000DE74FF4006204237EE600239B88CB
:1040B000FFDE00235B68FFDEFC1000200100000033
:1040C000040000200C000020882A1100A0BB0D0075
:1040D000701B0024ABAAAAAA2DE9F04F00228FB0D2
:1040E0002F21074612F086F9D0B1B04C064643792D
:1040F000D0F80080A4F83834FDF722FD80B145687F
:1041000075B1DFF8E0B2002259464B680132243124
:104110009D4210D0102AF8D1A54B93F838211AB13E
:1041200000200FB0BDE8F08F2F21104683F8392111
:1041300083F83811F5E7D2B2DFF874A2013A02EB46
:10414000C2020AEB820292F85C91B9F1000FE7D14A
:104150002F2183684046C4F8EC83A2F85C110393D6
:10416000FFF732FB934A904280F0FF8001234A46DA
:10417000029340460192FFF727FB029B019A8E496A
:10418000C4F8F023B0FBF3F2120A0020A1FB0232C4
:104190008A4BC4F8FC031109C4F8F4031209A3FB09
:1041A0000131C4F8F8234A08A4F8F02E5200A4F80C
:1041B000EE2E94F8292402F0FF01002A00F0E3809B
:1041C00002227F49D4F8EC0384F829244FF08CFDB7
:1041D0000122384684F8342484F82A2484F82B24D5
:1041E00084F82C2484F82D2484F82E2484F82F2499
:1041F00084F8302484F8312484F8322484F8332479
:1042000084F829240CF04EFDC4F8F40E28B12F21B7
:10421000C1804E21F279FDF735FD6A4A0021039BEA
:10422000C4F8041FC4F8FC3EC4F8141FC4F81C1FD3
:10423000C4F8241FC4F8281FD2F8D800C4F8F85EC8
:1042400040F00100C2F8D800D2F8D80000F0010018
:1042500005900598D2F8D80040F00200C2F8D800C6
:10426000D2F8D82002F002020692069A4022C4F840
:10427000002F4FF48062C4F8082F4FF48052C4F826
:104280000C2F4FF48042C4F8102F4FF40032C4F8C2
:10429000182F0322C4F8202F94F838240C2A75D83C
:1042A000494901EB4202B2F8887EB84608374748D0
:1042B0005946002204EB870CCCF8EC03A0F60C3036
:1042C000C4F8300F486801322431854264D0102A86
:1042D000F8D14FF0FF3202EBC2020AEB820A3C4AED
:1042E000DAF8400190420CBFA020A12058F0DCFB7E
:1042F0000022DBF8041001320BF1240B8D4248D070
:10430000102AF6D104EB870748464346602231491C
:10431000FDF74EFCD7F8EC034EF02CF800287FF4A4
:10432000FFAE60210C90B379079159000D90DB002E
:10433000089001F002010B9003F00803B4F8382450
:104340002548CDE9091307A957F0ECFD00287FF4B3
:10435000E7AEB379B4F838149B071F481FD54FF068
:104360004FFDB0FA80F04009DBE64046FFF72CFA3B
:104370001A4A1B490244A1FB0232920D013A92B241
:10438000531C0293F5E684F8281419E788460F4673
:104390008CE75FFA82F9B5E7D2B2013A9BE74FF0BA
:1043A00019FCB0FA80F04009BBE600BF701B002486
:1043B00000000024006CDC02598B4F01ABAAAAAAB2
:1043C000601F002400440258B03A0A08682A0024FA
:1043D000000002409D0100005C1F002400366E01B9
:1043E000819F5E1640010024830AA3F58013522B9F
:1043F00000D970472DE9F04115460F4AD65C0D2EC5
:1044000017D80E4C4FF04C08013908FB064789B20B
:10441000C7F85C1AFFF7D8F907F65421B0FBF5F29C
:10442000013AD7F8500AC7F8542ABDE8F0414FF0D6
:104430005BBCBDE8F08100BFB03A0A08701B0024E5
:10444000830AA3F58013522B6BD82DE9F041164651
:10445000794A84B0D75C0D2F60D8DFF804824C25F0
:10446000044605FB0785D5F8503A834256D00139FA
:10447000C5F8500A89B2C5F85C1AFFF7A5F9002300
:10448000B0FBF6F2C5F8603A013AC5F8583AC5F8FB
:10449000643A95F88D3AC5F8542A03F0FF02002BD0
:1044A00040D04C23654903FB078503FB071102231A
:1044B000D5F8500A85F88D3A04314FF015FC0123E8
:1044C00085F8983A85F88E3A85F88F3A85F8903ACB
:1044D00085F8913A85F8923A85F8933A85F8943AB6
:1044E00085F8953A85F8963A85F8973A85F88D3AA1
:1044F000534B9C4219D0B4F1804F16D0A3F57C43A6
:104500009C4212D003F580639C420ED003F5806379
:104510009C426CD003F578439C4268D004B0BDE85F
:10452000F081704785F88C2ABBE74C234FF480510B
:10453000002203FB0783009193F88C1A0392012950
:10454000CDE90122EAD00221D3F8500A012483F8F0
:104550008D1A3C4985682940816083F88D4A83F82B
:104560008C2A4C22002302FB07820293CDE9003300
:1045700092F88C3A012BD1D0D2F8503A022130482F
:1045800082F88D1A83425A6899682CD000F58060B1
:10459000834228D022F070022B485A602B4A934263
:1045A00018BFB3F1804F0CBF01220022834208BF25
:1045B00042F0010200F58060834208BF42F0010230
:1045C00012B9234A934202D121F0800199604C2311
:1045D0000121002203FB078787F88D1A87F88C2AB0
:1045E00004B0BDE8F0811B4810405860ECE70021A2
:1045F0004FF48053CDE900314C2303FB078393F83C
:104600008C2A012ACDE9021188D0D3F8500A02225F
:1046100083F88D2A0B4A85682A4082600E4A83F807
:104620008C1A0121944283F88D1A9AD00B4B9C422C
:104630007FF474AF95E700BFB03A0A08C0250024A4
:10464000000001408800CEFF000800400004004048
:10465000001800408FFF0FFF00040140000C0040D5
:10466000701B00242DE9F04F0546086889B00C4600
:104670004FEA902CBDF84880ACF5801C9DF84CA00A
:10468000BCF1520F69D8DFF8EC9019F80C700D2FBF
:1046900063D807EBC706DFF8E0B0194607EB46061C
:1046A000FFF7CEFE23680BEB86066179A279BAF19B
:1046B000000F55D194469B0AA3F58013522B25D8A1
:1046C00019F803000D2821D800EBC0030A4601A900
:1046D000CDF8088000EB43004FEA4C034FEACC0CC6
:1046E00003F002030BEB800003930CF008034FF47C
:1046F000807C0493602301934FF40073CDE906C3DB
:104700000023059357F00EFC6179A2799307304698
:1047100029D54FF075FB154B4C2202FB073797F854
:104720008D3A012B10D10223D7F8502A87F88D3A01
:104730000F4B91680B40062B06D0B3F5803F03D09A
:10474000136843F0010313602168637901F13402B7
:1047500069600021D0182860D15009B0BDE8F08F01
:1047600082F0010CA7E74FF035FAD4E7701B002464
:1047700007000100B03A0A08C025002470B50446BD
:104780000068830AA3F58013522B03D82B4DEE5CEF
:104790000D2E00D970BDFFF753FE294B4C2202FBB2
:1047A000063696F88D3A012B13D021680023254A4E
:1047B000254801E050F8332091421CD00133112BE1
:1047C000F8D10121002058F0EFF8204B01221A60A7
:1047D00070BD0223D6F8502A86F88D3A1C4B91689A
:1047E0000B40062BE1D0B3F5803FDED0136843F0D9
:1047F00001031360D9E705EBC3030121134D93F8BF
:104800000A4D204658F0D0F804F01F030121620938
:104810001B2C01FA03F345F8223006D1192058F079
:10482000C3F84FF000732B6070BD2E2CB2D12C203A
:1048300058F0BAF84FF480536B6070BDB03A0A0874
:10484000701B002400000140B4470A0800E100E0AA
:104850000700010070B5154C82B094F88A3403F05B
:10486000FF05002BF9D1012694F8703F84F88A6483
:104870000BB902B070BD0E4AB4F88814138A143212
:104880000C480191FEF710FF0199034618B184F816
:104890008A5402B070BDD4F83C4432460548636285
:1048A00002B0BDE870405CF05BBA00BF701B002432
:1048B00060F90024AC1F002438B5264C94F8743FEE
:1048C000012B12D1042894BF002301236BB904EB00
:1048D00040000D4694F88C1FC4F8A03FB4F88E2F0A
:1048E000B0F8963FB4F8920F01B138BD07EE902AA8
:1048F000D4F8842F9FED180AB8EEE77ADFED177A27
:1049000027EE277A07EE902A6422F8EE676A02FB08
:1049100003F307EE903A02FB003366EE806AB8EECE
:10492000E76A07EE903AF8EEE77A27EE067A87EE26
:10493000270A20EE260A5EF049F9D4F87C2FB4F855
:10494000903F1060D4F8381319442944C4F8A41FC8
:1049500038BD00BF701B0024CA269B3E0AD7233CEB
:104960002DE9F043BDB0BFF35F8FA34A0020516A29
:104970000346044621F4803151620146C2F8940096
:10498000C2F898300133C2F89C10112BC2F8A01065
:10499000F6D10523C2F89430536A43F4803353624E
:1049A000BFF34F8FBFF36F8F9448954A9549121A02
:1049B0005EF08AFE9448954A9549121A5EF084FE8C
:1049C000944AD368042B00F0FD8005D8012B00F039
:1049D0008183022B00F07783874A00238E4C0120CD
:1049E000D2F888108D4E41F470018D4DC2F88810B8
:1049F00020602361216841F080012160216801432A
:104A00002160216841F480312160216841F48051A6
:104A10002160A361E3612362A362E36223636363B2
:104A2000A363E36323646364216821F4802121602C
:104A30007C492366C1F808014FF000614FF6FF0082
:104A4000794B9160D16801400B43D3604EF022FE58
:104A5000A36902460F20C3F30323A169334493F8EB
:104A6000883203F01F0322FA03F3C5F8D0334CF069
:104A7000CBFF6E4AD36813F0040FD36840F0A480D4
:104A80006B4B0021694A0391D96A21F00101D96277
:104A9000DB6A03F001030393936943F4404393619A
:104AA000936903F440430393039B93699B04FCD5F0
:104AB0004C2200210DA85F4C5EF07AFE5E4A42F265
:104AC00003031268B3EB124F4FF00003079304F196
:104AD000140318BF1C46E268002A4FD0544B5349B8
:104AE000D86A20F00100D862DB6A03F00103079363
:104AF0008B6923F4404313438B618B6903F4404378
:104B00000793079B494A93699F04FCD5424B4FF496
:104B100040314A484FF00108D3F8E020002742F026
:104B20008002C3F8E020D3F8E03003F0800306935E
:104B3000069B0323816108A908930B93CDE909879C
:104B40004EF014F902230DA8CDF834801E97CDE95C
:104B50001633A3781893A3881993A3791A93E3794A
:104B60001B93237A1C9323691D934FF480330E9378
:104B70004EF0D2FA03283BD098B1FEE72B4A2C4BDB
:104B8000916941F440419161926902F44042079277
:104B9000DA6A42F00102DA62DB6A03F0010307938A
:104BA000AFE7274B1A6812F00E0F4DD11A6822F0AA
:104BB0000F0242F002021A601B6803F00F03022B7F
:104BC00042D0FEE7D46007E723F007031D4C43F013
:104BD0000203D360D4F8241606E0D4F824365B1A16
:104BE000B3F57A7F3FF64CAF53689804F5D547E7A5
:104BF00072B6FEF71BFA00BF00ED00E000000000F7
:104C00005047000034640B0800000020040000201E
:104C1000BFD20B085040005800440258B03A0A086E
:104C200000000024008000510003FA0500480258EB
:104C300000040058A80300240010005C001C025867
:104C400000200052701B00246E4A936903F0700329
:104C50003F2B05D8936923F0700343F04003936121
:104C6000684AD36903F070033F2B05D8D36923F05A
:104C7000700343F04003D361624AD36903F4E063F5
:104C8000B3F5806F05D2D36923F4E06343F4806306
:104C9000D3615C4A136A03F070033F2B05D8136A93
:104CA00023F0700343F040031362564B9A691407D4
:104CB00005D49A6922F00F0242F008029A61514A23
:104CC000936923F470639361136898017FF579AF5A
:104CD000136941F288304C4C23F0070343F003037F
:104CE0001361D4F8241605E0D4F824365B1A834205
:104CF00000F2A181136903F03803182BF4D19369F2
:104D000003F00F03082B05D9936923F00F0343F039
:104D1000080393613D4A136803F00F03022B0BD97C
:104D2000136823F00F0343F002031360136803F0CA
:104D30000F03022B7FF445AF324A936903F07003EF
:104D4000402B05D9936923F0700343F0400393612E
:104D50002C4AD36903F07003402B05D9D36923F0A3
:104D6000700343F04003D361264AD36903F4E06340
:104D7000B3F5806F05D9D36923F4E06343F480630E
:104D8000D361204A136A03F07003402B00F24B8179
:104D90001C4F4EF07FFC0346D5F8D403BA69B969BD
:104DA000C2F30322164496F8882202F01F02D34071
:104DB000C5F8D0334CF028FE002840F03D81102388
:104DC000149016900DA80D934EF0A6F9002840F00F
:104DD00029813B680E4943F080033B60D7F8F430EB
:104DE00043F00203C7F8F430D7F8F43003F00203BD
:104DF0000293029B0A6A074B42F001020A62D4F84E
:104E000024160CE000440258701B002400200052BD
:104E10000004005800E20400013B3FF4E9AED4F87E
:104E200024269142F8D0D4F82426D4F824369B1AAC
:104E30000A2BFAD94FF48023B14C0DA84FF000088B
:104E40000D934FF44013032602272E9359F054FC80
:104E5000D4F8EC300DA843F00203C4F8EC30D4F8D9
:104E6000EC3003F002030193019BD4F8943043F03B
:104E70000203C4F89430D4F8943023F00203C4F849
:104E80009430A04B1A6841F20303B3EB124F9E4BD0
:104E90009E4A38BF1A469E4B5A601A6822F47C52CA
:104EA00042F400521A601A6842F060021A600D96CD
:104EB000CDE92A8859F020FC4FF4E0430DA8CDF845
:104EC000E0800D93CDE9248859F016FC18230DA835
:104ED000CDF8B4800D93CDF8C88059F00DFC4FF497
:104EE00000230DA80D934FF40033359359F004FCC3
:104EF000D4F8E03008A9874843F00103C4F8E03053
:104F0000D4F8E030CDF8308003F001030593059B21
:104F10004FF48073CDE90A86CDE908374DF026FFBE
:104F2000236908A97C4823F0FE7343F0887323614A
:104F3000D4F8E03043F00403C4F8E030D4F8E030B3
:104F4000099703F004030B96CDF8288004934FF4DF
:104F50000073049A0893CDF830804DF007FF236961
:104F600023F07E4343F0FC4323614EF093FB6B4BF5
:104F70006B4A4146C5F8D0031846D21A5EF018FCB9
:104F80006848694A6949121A5EF09EFBBFF35F8F59
:104F9000674D4646674C01276B6A23F480336B628A
:104FA000C5F8948023E0002A44D0D4F80080637AC6
:104FB000103414F8061C1B0643EA017343EA42034B
:104FC00014F8052C43EA824314F8042C43EA4243C4
:104FD00014F8032CC5F89860013643EA0243C5F87B
:104FE0009C80032E43F00103C5F8A03025D06368F0
:104FF000227A002BD7D0D4F80080002AD7D128F00D
:105000001F09A3EB0903202B38BF2023184699461C
:105010005EF054FB431E07FA03F2914518BF0346A6
:10502000DAB2C4E7FEE7136A23F0700343F04003EB
:105030001362ADE6FEE7C4E5C3E50523C5F8943089
:105040006B6A43F480336B62BFF34F8FBFF36F8F94
:10505000BFF34F8FBFF36F8F0022C5F85022BFF30D
:105060004F8FBFF36F8F6B6943F400336B61BFF3F6
:105070004F8FBFF36F8FC5F88420BFF34F8FD5F8E4
:10508000805043F6E0762A49C5F34E34C5F3C9058E
:10509000640104EA06002B4640EA8372013BC1F832
:1050A0006022F9D2203C14F1200FF2D1BFF34F8FD0
:1050B0004B6943F480334B61BFF34F8FBFF36F8F66
:1050C0003DB0BDE8F08304210320FDF78DF972B6F1
:1050D000FDF7ACFF02200A4B1749D060D3F8F4204B
:1050E0000243C3F8F420D3F8F43003400D930D9A33
:1050F000D1F8003883F30888D1F804389847FEE7E0
:10510000004402580010005C7FBB22307FBB2200AD
:10511000008400400000025800080258C0F8002433
:1051200060F90024E0F40024C0F80024C3D20B0886
:1051300000ED00E0D80300240090F01F0548D0F8EF
:10514000043323B1DB6A13B100F5417018470248FC
:10515000704700BF701B002454490A0810B5174C53
:10516000D4F8A83F1B883BB9002384F8B43F84F8E7
:10517000FC32C4F8F83210BDD4F8AC2F002AF3DDAD
:10518000012A08D0D4F8B03F59880123A4F8B61FEB
:1051900084F8B83FE8E7D4F8B01F8A88498801321C
:1051A000521A9A42F1D10022D4F8043304F5417026
:1051B0001B69C4F830239847D6E700BF701B002452
:1051C0000748D0F8003313B190F8B83F0BB1002076
:1051D0007047D0F8043300F541705B68184700BF92
:1051E000701B0024174B10B4174C93F8FC22224478
:1051F000C0E9002493F8FC0293F8B42F824217D838
:1052000093F8FC02824206D300235DF8044B184653
:10521000C1E90033704793F8FC32002A5DF8044B73
:10522000C3F180030CBF012002204A600B6070476D
:1052300093F8FC4200230120121B5DF8044BC1E9E6
:1052400000237047701B0024C0F800240F4B93F814
:10525000FC2293F8B40F93F8FC22904293F8FC22BE
:105260000FD8904204D3D3F8F83200201844704786
:1052700093F8FC22D3F8F832C2F1800210441844AB
:105280007047801AD3F8F83218447047701B002416
:1052900010B51B4C84B01B4B94F8FC2203931344B1
:1052A00094F8B41F029394F8FC32994294F8FC32BB
:1052B00014D899420AD294F8FC320191C3F18003C8
:1052C0000093C9B901223F2B0ED868B994F8FC02AB
:1052D000401AB0FA80F0400904B010BD0022CB1A89
:1052E000019201220093EEE76946002302A85BF0D9
:1052F000E5FC94F8B41FE9E70B440222E3E700BFA2
:10530000701B0024C0F800242DE9F043164685B038
:1053100000293BD0451E284CDFF8A4804FF000093F
:105320006F180DE094F8FC3208468B4294F8FC327A
:105330001CD9C3F1800318443F281AD8AF4225D0A6
:1053400094F8B40F15F8013F411C08F80030C9B2B9
:105350000B0684F8B41FE5D5002094F8FC3284F8DD
:10536000B49F01468B4294F8FC32E2D8C01A3F2821
:10537000E4D994F8FC328B42E0D0104B1B78002B20
:10538000DCD00020FFF784FFAF42D9D1694602A8E4
:10539000FFF728FFDDE9003213443F2B00D910B995
:1053A00005B0BDE8F0830246334602A85BF086FCF8
:1053B00005B0BDE8F08300BF701B0024000000248E
:1053C000C0F8002430B585B0694602A8FFF70AFF8F
:1053D00058B9094C04F54175D4F8043328465B6884
:1053E00098470028F8D005B030BD0246012302A836
:1053F0005BF064FCEDE700BF701B002470B5114C3E
:1054000016460A4682B0D4F80033811905469942FF
:1054100094F8B41F88BF1E1A94F8FC32994203D046
:105420000192FFF7CFFF019A002033462946C4F8C6
:105430003003D4F80403846A0348A44602B0BDE8EC
:1054400070406047701B0024741E00248C46134675
:10545000014662461846D1E738B5244C002204F6CE
:10546000BC701346C4F800230246117806320229A4
:105470002BD00133062BF8D10022D4F80433C4F822
:10548000B02FF3B1DA6AE2B119489047D4F8B03FCF
:10549000C4F8A80FA3B159889A884368521A02FB2E
:1054A0000333C4F80033FAF7A3FF94F8FC3205463F
:1054B00094F8B42F9A4201D0FFF784FFC4F8F85251
:1054C00038BD0C4BC4F8A83F38BD03EB4303D4F8F8
:1054D000042300EB4303C4F8B03F12B1D26A002AA0
:1054E000D2D1044A1046C4F8A82FD4E7701B002478
:1054F000741E002454490A0810B50A4CD4F8043329
:105500005B6A13B104F541709847D4F8F832D4F8C7
:10551000A82F013B5288134452421340C4F8F8327A
:1055200010BD00BF701B00242DE9F043384E93B02E
:10553000FFF714FEFFF790FF96F8FC3296F8B42FB1
:105540009A4201D0FFF73EFF0025D6F80073C6F857
:10555000F85297B16C46DFF8BC802A464146204697
:10556000203501F0F1FE20465BF0D6FC0122014619
:105570002046FFF7C9FEAF42EFD896F8FC3296F806
:10558000B42F9A4201D0FFF71DFFD6F8A83F9B7BAE
:10559000012B36D096F8FC3296F8B42F9A4201D0FF
:1055A000FFF710FF0020C6F8F8026FB380466C4684
:1055B000DFF86090054601E0AF421CD92A46494613
:1055C00009A801F0C1FE2122002120465EF0F0F87A
:1055D000202221462846FFF711FF2022064609A96E
:1055E000204620355EF011FA08B9202EE4D0AF42F3
:1055F00008F10108E2D8B8FA88F0400913B0BDE814
:10560000F083FFF779FFC5E7012013B0BDE8F08311
:10561000701B00244CCE0A08F0B583B050F0FAFAA3
:10562000214B292203F58054A3F82A27A3F8322717
:10563000D4F8982212B10022C4F89822D4F8A022FB
:1056400012B10022C4F8A022184E0027012506F549
:10565000816283F8E07F84F87C52C4F8942257F08A
:105660008FFB06F224430DF10600ADF80670C4F876
:105670009832D6F8503498470D4BC4F8A00293F8EE
:10568000CD31AB4202D0284603B0F0BD06F25C46F5
:10569000D4F8BC02C4F8B86259F00EFD054B384688
:1056A00083F82370F0E700BF701B00240000002483
:1056B000682C002400ED00E00A4B93F87C0418B934
:1056C000094B93F8D0017047084AD1680329F7D1F4
:1056D00005494FF0010C81F8D0C10021D16083F859
:1056E0007C14704700000024682C002450400058AF
:1056F0000321044608B50846FCF776FE72B6104B47
:10570000D3E9760350EA03020AD1002211460420AD
:10571000FCF76AFE11460520FCF766FEFDF786FCE5
:10572000084A21B24EF66024D2F8382304FB01F176
:10573000121843F100038A1843EBE171E7E700BF59
:10574000682C0024701B00240021032008B5FCF7FE
:105750004BFE72B6FDF76AFC184CD4F8E02194F8C1
:10576000E60108B54AB11168938809690B40F8B998
:10577000003B18BF0123002BF4D1142010F02CFAA9
:1057800000BFD4F8E03163B1196894F8E6219B8832
:1057900009690B4042B9003B18BF01230BB1FFF769
:1057A000D3FFFAF757FEEBE7B3FA83F35B09F5E7AC
:1057B000B3FA83F35B09002BD4D1DEE7682C002415
:1057C0002DE9F04F00218BB041F62C72AF485DF00F
:1057D000EFFF0420FCF702FE01460520FCF7FEFD6A
:1057E00051EA000340F04381A94B0393039BE42259
:1057F000A849A648D3F8B0445DF066FFA34BC3E9BF
:1058000007445C621E461C67C3F8B440C3F8B84046
:10581000C3F8BC40C3E91A4457F0C6F9FFF71CFEB1
:10582000002108460BF0CEFAFAF7E2FDB0F10009CC
:1058300040F38C810024984D984B06F1E4082746EC
