:020000040800F2
:10000000F0FF00106D4006084DCA0508C1E7010861
:100010000D4106080D4106080D41060800000000CC
:1000200000000000000000000000000051CA0508A8
:1000300055CA05080000000059CA05084193010887
:100040000D4106080D4106080D4106080D41060840
:100050000D4106080D41060815A900081DA9000854
:1000600025A900082DA9000835A9000801A6000847
:1000700011A6000821A6000831A6000845A6000820
:1000800059A600086DA600080D4106080D41060896
:100090000D4106080D4106080D4106083DA900085E
:1000A0007DBF0008DDBE00088DBF0008CDBE000882
:1000B00005BF000815BF000825BF0008119D0008F6
:1000C00089B40008199D00088DB400080D41060888
:1000D0000D410608758C0108798D01087D8E010897
:1000E00045A900080D41060831FE05089DBF00081E
:1000F00055BF0008ADBF000845BF000881A6000835
:100100000D4106080D41060835BF00080D410608DF
:10011000818F0108859001080D4106080D410608F0
:1001200095A60008A9A60008BDA60008D1A600084B
:10013000E5A600080D4106080D4106080D41060818
:100140000D4106080D4106080D4106085DCA050867
:10015000F9A600080DA7000821A700088991010849
:10016000219D000891B400080D4106080D410608C4
:100170000D4106080D4106080D4106080D4106080F
:080180000D4106080D410608BF
:10800000074BD0F8E4105B68D0F8F0205B1A9A4276
:10801000B8BFC0F8F030012380F81C310020704751
:10802000001000E0B94B00EB8002F0B503EBC20595
:1080300053F832205268918ACC074FEA800C74D4EE
:10804000CCB2A70743D5BFF35F8F297F0129CCB2FC
:1080500000F0E5804100148BBFF35F8F0CEB000450
:1080600003EBC404257F022D00F005810CEB000416
:1080700003EBC404257F032D08D1A47F34B10C1871
:108080001C4494F87850002D40F05F819488A4B28D
:1080900044F4806494800C181C4494F97AE00CEB4E
:1080A000000403EBC404247F013474450ED1014461
:1080B0001944002481F8784091F87910002940F0A3
:1080C000D380604403EBC00300225A76F0BD6607FC
:1080D00062D414F0400400F0E28000EB4001194447
:1080E000148A91F97AE06E6AE4B206F80E405FFAFB
:1080F0008EF6741C64B22F7F81F87A40E51CAF4283
:108100004FEA4001A64600F046810CEB000503EB68
:10811000C5052D7FAC42C2D10C1806F1020E1C44DD
:108120004FFA8EFE84F87AE0B9E7118821F40061F5
:108130000904090C1180118889B241F48061118011
:1081400000EB40041C44AE7F002184F87A1041000B
:10815000002E53D094F87840002C4CD00CEB000447
:1081600003EBC4040144247F19440125022C81F847
:10817000785004D1118889B241F4006111800CEB70
:10818000000103EBC101897E41F0010111826044CD
:1081900003EBC0031B7FF0BD00EB400E9E44AC7FA1
:1081A00001218EF8791000FA01F1002C00F0838093
:1081B0009EF87840002C40F084800CEB000403EB28
:1081C000C404647F002C00F0C3800D181D44148883
:1081D00095F87AE0A4B244F400740EF1010E148014
:1081E0004FFA8EF485F87A40B2F800E01EF4807FF2
:1081F000FAD1A64653E7EC7EFF2CAFD00CEB00047F
:1082000003EBC404A57E05F0FE051582E27EFF2A7D
:10821000BDD001441944FF2281F87A20B7E7A97F35
:1082200000293FF417AF00EB40051D44410095F8CD
:108230007860002E3FF40FAF168826F4806636046F
:10824000360C1680BFF35F8F85F87940148B148845
:1082500095F97AE0A4B244F4007414809488A4B22E
:1082600044F4806494801AE7918821F440710904F1
:10827000090C918025E7A47F002C3FF4F7AE0C1881
:108280001C4494F87850002D3FF4F0AE94F97AE055
:10829000148824F480642404240C14804EE01FFA13
:1082A00081FE1EF0800F33D100EB40041C444100DE
:1082B00094F97AE0F3E69EF87840002C3FF47DAF25
:1082C00083E72C7F022C14884FD924F48064240483
:1082D000240C1480178A6E6A9EF97A40FFB23755D3
:1082E0006F6A1588ADB245F400751580E4B2168A40
:1082F000651C6DB2F6B27E5595880234ADB264B29B
:1083000045F480658EF87A4095806DE7D01800209E
:1083100000EB40071F44410097F97A60B6F1FF3F38
:1083200040D02C6AA45D14822C7F06F1010E4FFA16
:108330008EFE744587F87AE07FF4B1AE948824F419
:1083400080642404240C9480A9E694F97AE0F5E78B
:108350001488A4B244F4807414800C181C440125C1
:1083600084F8785094F97A403EE7A4B244F400745B
:108370001480168A6F6A9EF97A40F6B23E55E4B2CE
:108380006F6A168A651C6DB20334F6B264B27E550C
:108390008EF87A4028E7958825F480652D042D0C09
:1083A0009580B2E6E97E1182A97F87F87A4019B9F3
:1083B000297F00297FF4EBAE918821F480610904C4
:1083C000090C9180E3E600BF1B4B01681B4A03F5D3
:1083D000727C03E063452CD053F82C2F9142F9D1E5
:1083E00070B593F804E0427996450AD0634505D00C
:1083F00053F82C2F9142F4D06345F9D14FF0FF3060
:1084000070BD9E468468DEF80C50A5424FF0000215
:1084100008D00132032A0EF10C0EE7D0DEF80C5022
:10842000A542F6D1DEF81050C668B542F1D150B27F
:1084300070BD4FF0FF307047205B06080000014020
:1084400030B5EAB18E464FEA014C034600F1C00553
:10845000002419689A6841EA0C0142EA0E029A6007
:10846000C3E900140C33AB42F3D1D0F8C030C0F8EC
:10847000C44043EA0E03C0F8C030C0F8C84030BD65
:108480004FEA014E8C46E0E783691969B3F80CC0E6
:108490000A6830B49C6822F0010224680A60A2894C
:1084A00092B222EA0C02A281027D04681F2A06D938
:1084B0006568203A08209040284245D0FEE72568AC
:1084C000082090402842F9D1202000FA02F2A26050
:1084D000264A1278002A35D01A7E012A39D0D3F8DC
:1084E000F4200132C3F8F420EFF31181502282F31B
:1084F000128858685C6C026822EA04029C6C224371
:10850000C9B2026081F31188D3E90C401A699968F5
:108510001D6C096814605061D3E90E40546090608E
:108520000024B3F8A800D5604C62C862106801242A
:10853000204310601C7683F8F1408A899B8913439D
:108540009BB28B8130BC7047202000FA02F2E260BF
:10855000BEE7002283F8F120D3F8F8000A68013062
:1085600022F00102C3F8F8000A60EBE704000010F3
:1085700010B40C4C6368002B11DD002004F1080CD2
:108580000146DCF8A03003F1C00259600C3393427D
:10859000FBD16368013083420CF5807CF1DC5DF82F
:1085A000044B704704000010F0B5494C04EB401C2C
:1085B0009CF8242402B9F0BD464B4FF08C0E0EFB04
:1085C000003E93F8E46493F8E5249EF886708CF8F6
:1085D0000A7496424FF0000C4FEA40158EF886C0A0
:1085E0000ED002EB420C03EBCC0C57009CF8E8C415
:1085F0000CF1FF3EBEF1010F5CD9BCF1030F53D06B
:108600006019A0F80814EFF31182902383F3128805
:1086100090F80A34B0F8081443EA41030021D2B2BA
:108620009BB280F80A1482F311881A09217882EA31
:1086300013225A40D9B1D0F82044D0F80C14D4F801
:10864000A040D2431B019BB202F00F0201208840E0
:10865000134304F1C0015A0013F4004F93B202D146
:108660006268024362600C348C42F4D1F0BDD0F8F1
:108670002014D0F80C04D1F8A0401B0100F1100127
:108680009BB202F00F0201208840134304F1C001A5
:108690005A0013F4004F93B202D162680243626041
:1086A0000C34A142F4D1F0BD02F1010C0CF0030C2A
:1086B000B445A5D03A4403EBC202131893F8F5145D
:1086C00000299DD06319012283F80A2498E700BF8E
:1086D00004000010D0180020704700BF024B03EBCD
:1086E000401090F825047047040000104368B0F86B
:1086F000502010B41A83EFF31182502383F31288B1
:108700004168446C0B6823EA0403C46C2343D2B26F
:108710000B6082F31188D0E907418268036912680F
:108720001C605961D0E909415C60C46A9960B0F885
:108730006010DC600023D1625DF8044B0376704763
:1087400010B4037D01681F2B09D94C68203B2022FF
:1087500002FA03F31C4215D15DF8044B70470C6814
:10876000202202FA03F31C42F6D00D4A406800248E
:1087700082F8484502685DF8044B22F0010202606D
:108780008B607047064A4068002482F848450268BA
:108790005DF8044B22F001020260CB60704700BF1D
:1087A000D0180020704700BF0B4890F83C1589B1E5
:1087B00001EB4101002310B4490000F244501C4673
:1087C00050F82320063302B114608B42F8D15DF8D3
:1087D000044B7047704700BF040000100B4890F82E
:1087E0003C1589B101EB4101002310B4490000F2AE
:1087F00044501C4650F82320063302B114609942BD
:10880000F8D15DF8044B7047704700BF04000010BA
:1088100001207047034B00EB400003EBC00090F8D1
:1088200055057047040000101F4890F83C35002B98
:1088300039D000222DE9F04300F244531B4E1C4D69
:108840004FF0500E4FF02C0C144607E053F8181B55
:108850000C6090F83C150132914222DD197C002910
:10886000F4D05F68B90AA1F5801105EB010952291E
:108870004FF0FE0898BF99F8F483EFF311898EF357
:108880001288796A0CFB08680131C8F87415B98A36
:1088900089B241F001015FFA89F8B98288F3118841
:1088A000D4E7BDE8F083704704000010D018002022
:1088B000205B060807EE900AB8EE670A704700BF13
:1088C000BCEEC00A10EE103A98B2704708B51D20F1
:1088D0000FF090FE08B183794BB11E200FF08AFE95
:1088E00008B1837903B108BD5523C38008BD552362
:1088F000C380F2E70D4B0E49DB68DB43C3F3022371
:10890000C3F104030122DBB202FA03F301EB000C12
:108910001B0103F0F0038CF80033430900F01F0043
:1089200002FA00F041F82300704700BF00ED00E0BC
:1089300000E100E0037D1F2B08D90268203B51684D
:10894000202202FA03F3194214D170470168202251
:10895000096802FA03F31942F7D00D4A41684FF053
:10896000000C82F8B4C70A68006822F001020A60AD
:1089700083607047064A41684FF0000C82F8B4C724
:108980000A68006822F001020A60C360704700BFF5
:10899000D018002082B01F4B002201920193019B4E
:1089A0001D4A04330193019B1968936803F00C037B
:1089B000042B07D0082B0AD0184B194AC3F8B82744
:1089C00002B07047154BC3F8B81702B07047536830
:1089D000506813F4800F00F03F00536813D1C3F3C5
:1089E00088130F49B1FBF0F101FB03F30A4A0B496D
:1089F0005268C2F3014201325200B3FBF2F3C1F8F4
:108A0000B83702B07047C3F38813B1FBF0F101FB34
:108A100003F3EBE75028004000380240D018002054
:108A20000024F400012143F20122002343F2011C3F
:108A3000017202804FF60171FF22A0F804C0438149
:108A40008381C38101828274704700BF154BFF226E
:108A50004FF0FF3CF0B5C270027102724272427375
:108A6000827303F10C076646172516244FF0150E86
:108A7000002202EB820281189F4200F802E04C7053
:108A80008D70CE7081F804C00BD093F9062093F856
:108A900007E01C7A5D7A93F90A6093F90BC00633FC
:108AA000E7E7F0BD685F06084FF0000C01210222E5
:108AB000032380F805C08171C2710372704700BF43
:108AC00000230222037043708370C37002717047E9
:108AD0004FF4007141F2014200234FF44D7C0180BC
:108AE00042804FF4E1610122A0F806C00381438176
:108AF0008181C281704700BF002301220270437050
:108B00008370C370704700BF4FF4F07140F22E4C79
:108B100001804FF47A71A0F81EC041844FF4FA6CC2
:108B20004FF4F561A0F820C0818440F2262C41F278
:108B30001321A0F81CC0418142F2201C0E21002309
:108B4000A0F808C080F8261041F2110C022107227B
:108B5000A0F80CC0437140F2012C83714174438230
:108B600040F2034140F205638270A0F814C0C18254
:108B700003838276704700BF8388C3F30B0393425D
:108B8000A8BF134670B51A461D460C4606468068B7
:108B90005CF0FEFE62199442B569074B08D00748A5
:108BA00014F8011B00FB03F3A24283EA0103F7D18F
:108BB0002B60012070BD00BFC59D1C819301000189
:108BC000FF23037043708370C3707047012300223A
:108BD0003821017042708270C270037143718371D9
:108BE000C37170470023037043708370C370704774
:108BF0000023037043708370C37070470023062105
:108C00004FF47A72C0E9012301700373704700BF0B
:108C10002E234FF0000C2F2136220370372380F8CB
:108C200008C041708270C370704700BF2E2303706C
:108C3000704700BF10B50023411CFF2200F813202D
:108C400001F8132001330B2BF8D10B4B4FF0FF3100
:108C500003F10F0400228C4605E093F904C093F958
:108C6000051013F8032F00F812C000EB420E9C42CF
:108C70008EF80110F1D110BD7C5F06084FF0030C97
:108C800080F801C080F804C04FF0360C80F806C0B0
:108C90004FF0370C80F809C04FF0380C80F80CC04A
:108CA0004FF0390C80F80FC04FF0200C00B580F861
:108CB00012C04FF0210C80F815C04FF0130C0121A9
:108CC00080F818C04FF0120C4176817680F81BC0F6
:108CD00001774FF0110CFF210023022280F81EC003
:108CE000817041714FF02E0E4FF0100C2F2180F843
:108CF00000E0C27103728272C372427383730274A2
:108D00004374C27403758275C3754377C277C170AB
:108D100080F8203080F821C080F8222080F82330AD
:108D20005DF804FB03230370704700BF002303704A
:108D30004370C37083700371704700BF704700BFFA
:108D4000D0ED007AD0ED016A30EE677AE6EE877AF0
:108D5000B0EE670AC0ED007A704700BFD0ED017A2F
:108D6000D0ED026A30EE677A90ED000AE6EE877A7F
:108D700037EEC07AC0ED017AA6EE870A80ED000AD0
:108D8000704700BF90ED017AD0ED036AD0ED027A12
:108D900030EE470AA6EE807A90ED000A80ED017A67
:108DA00037EE676AE6EE867A37EEC07AC0ED027A71
:108DB000A6EE870A80ED000A704700BFDFED277A34
:108DC000B4EEE70AF1EE10FA0CDDDFED256A9FED57
:108DD000257AF0EE407AF4EEC77AF1EE10FA30EE32
:108DE000660AF6DCDFED207AB4EEE70AF1EE10FA5F
:108DF0000CD5DFED1B6A9FED1D7AF0EE407AF4EEA4
:108E0000C77AF1EE10FA30EE260AF6D4DFED187AC2
:108E1000B4EEE70AF1EE10FA14DDDFED107A37EE6A
:108E2000C00A60EE006A9FED136A9FED137ADFEDD2
:108E3000137AA6EE867A20EE266AE6EE877AA6EE0A
:108E4000270A7047DFED0E7AB4EEE70AF1EE10FA6A
:108E500044BFDFED057A37EEC00AE2E7DB0F494099
:108E6000DB0FC940E4CB1641DB0F49C0E4CB16C190
:108E7000DB0FC93F92E741B99730083C15A82ABEDD
:108E8000DB0FC9BFD0ED056AD0ED017A90ED007A15
:108E900090ED066AD0ED025A90ED035A80ED050A76
:108EA00066EEA77AC0ED066AE7EE007A90ED077AE3
:108EB000E5EE867A90ED086AD0ED045A80ED087AE6
:108EC000E5EE477AE5EEC67AB0EE670AC0ED077ABE
:108ED000704700BFD0ED057A90ED006A90ED067AFC
:108EE000D0ED035AE6EE007A90ED016AF0EE406AAA
:108EF000A6EE267AB0EE670AD0ED047A90ED026A0B
:108F000067EEC07AA5EEC07AE6EE267A80ED057AA5
:108F1000C0ED067A704700BF2DE9F047089F3C4638
:108F20000E4614F8011B002B054614BF4FF0300904
:108F30004FF0200941B3002A2CDD234600E0B2B1F6
:108F400013F8010B9046013A0028F8D1A8F1020865
:108F50006AB1C24649462846B0475346002B0AF13B
:108F6000FF3AF7DC397828EAE872013249B1D71BB9
:108F70002846B047E01914F8011B0029F8D1BDE8D4
:108F8000F0871046BDE8F087002A02F1FF38E0DCE8
:108F90000846F4E70022EAE703685A1C02601970E9
:108FA000704700BF024BD3F8BC0703681B68184723
:108FB000D0180020884210B54FF001043ED301FBC9
:108FC00004F4B0FBF4FC8C45F9D2CCB122BB08E030
:108FD000A14203F801EBB4FBF1F211D8B0FBF2FCB3
:108FE0001446BCF1090F0CF1570E0CF1300204FBD2
:108FF0001C00EDDCA14203F8012BB4FBF1F2EDD92A
:1090000000221A7010BDA14203F801EBB4FBF1F28B
:10901000F6D8B0FBF2FC1446BCF1090F0CF1370E88
:109020000CF1300204FB1C00EDDCA14203F8012B23
:10903000B4FBF1F2EDD900221A7010BD8446002A6B
:10904000EAD1CEE7002870B503DA2D2301F8013B01
:109050004042092886464FF0010307DD03EB8303F6
:109060005B00B0FBF3F2092AF8D8EBB1104CBEFB61
:10907000F3FCA4FB0320C008BCF1090F0CF130067F
:109080000CF15705024607D8092B01F8016B03FBC9
:109090001CEE09D90346EAE7092B01F8015B03FB43
:1090A0001CEE01D91346E2E700230B7070BD00BF30
:1090B000CDCCCCCC114A002330B50360838002F1C3
:1090C0000C054FF448744FF0290E4FF0280C03EBB9
:1090D000430300EB430100F813C081F801E0D378AB
:1090E0008B70AA428C8008D092F9063092F807C0A3
:1090F00092F808E054890632E9E730BD905F06082F
:10910000092900D001B9704701394B0003F008026A
:10911000930001F00301A3EB9203C1EB0111C3EB38
:109120000313C1EB011100229B00890002608180C2
:1091300043807047094910B54B6C094C43F4804398
:109140004B644022002104F5F8605CF084FC4FF091
:10915000FF33C4F80038C4F8033810BD00380240AB
:10916000D018002070B5224B93F8E42493F8E5342E
:109170009A4237D11F4D95F80436E3B195F8084669
:109180001D4B002040F20D3CB4B19A6899895160A2
:109190001668196846F001061660A1F848C08A8969
:1091A00092B242F480728A8195F80426013082429C
:1091B00003F11803E8DC70BD1A68118821F0800102
:1091C0000904090C11809988D162118889B241F093
:1091D000800111805462998A9689314389B29181C4
:1091E0009C82E1E758F0CEFC0028C3D170BD00BFDF
:1091F000D018002004000010D82000202DE9F041F4
:109200001E4B93F8E42493F8E5349A422FD11C4F77
:109210007D68002D12DD3846002410F8086BA0464A
:10922000013416B1037E012B1CD002691368AC42D5
:1092300043F0010300F580701360F1D110F0CCF819
:10924000D7F80C46002C0BDD0E4A02EBC404116863
:1092500093888889083203439BB294428B81F6D16C
:10926000BDE8F08180F8F080FFF740FADDE758F0C4
:1092700089FC0028CBD1BDE8F08100BFD0180020C8
:1092800004000010140600102DE9F04F037D026861
:109290001F2B83B0044609D95068A3F12005202173
:1092A000A940014207D103B0BDE8F08F106820212A
:1092B00099400142F7D05149514D4968C5F83016DF
:1092C00095F80816A7694F4E19BB8C2101FB076161
:1092D000D1F88C00D1F804E1D0F800C0DEF800002D
:1092E000B1F8908020F00100CEF80000BCF80C101E
:1092F00089B221EA0801ACF80C10297801BB1F2BB8
:109300006FD9A3F1200120238B40D36003B0BDE8C7
:10931000F08F8C2101FB0761D1F88C10D1F810C0BF
:109320000868DCF8001021F00101CCF800108189F8
:1093300021F480710904090C818129780029DED08B
:109340004FF08C0808FB07F806EB08032E49D3F80A
:1093500004A1D3F88C200193504608F11809D2F8E3
:1093600000B0894453F0C6F8019BD5F83826264949
:10937000012083F8D800002A3AD0BBF800309BB215
:1093800043F08003ABF8003008F174084FF0FF336E
:109390004144CBF82C30584653F032FA8C2303FB6F
:1093A000076600234946C6F8A830504653F038F9FE
:1093B000D6F8043116225A601A6842F001021A6087
:1093C000D6F88C20B6F89030126891890B439BB286
:1093D00093810A49237D49682268C5F834161F2BFA
:1093E0008FD8202101FA03F3936003B0BDE8F08F1A
:1093F0000FF0F2FF0449C5F83806BEE7001000E0A0
:1094000004000010D018002054190020F8B5164DA3
:109410001648174F00214FF41A725CF01CFB05F63A
:1094200088064FF0804105F66C043A46002301E0BF
:1094300054F8332091420BD001330E2BF8D1002089
:109440001C3558F0C3F8B5420CD055F81C1CECE79D
:10945000084A02EBC3031C3593F8100D58F0B6F818
:10946000B542F2D1F8BD00BFC05F06081C1E002047
:1094700000000140205B06082DE9F0410FF0ACFF31
:109480001F4F204E05464FF000087C68002C2ADD57
:1094900000231A4607EB0321013391F8F9109C428F
:1094A00042EA0102F6D142EA0804E4B29046736847
:1094B000C3F30803A3B9EFF311838BB914F062FA75
:1094C000431BB3F5FA6F02DCB8F1000FDDD124B114
:1094D0000D4B93F8C828542A09D02046BDE8F081E6
:1094E0000FF04CFFECE744464FF00008DFE7B3F81D
:1094F000D0280132A3F8D0282046BDE8F08100BF73
:109500000400001000ED00E0D0180020BA4B1B78DA
:109510000BB9012070472DE9F04FB84DB849D5F887
:10952000DC28B84BA1FB02125209A3FB023A4FEA16
:10953000DA0A0AEB8A0AA2EB4A0A85B0AE4A5FFA57
:109540008AF3039302F61C1302F23C670193002393
:1095500007EB8A0A02F581699846A74BD3F8243AAB
:10956000434540F31481D9F81830D9F80460D3E9A1
:109570003A3402930FF030FF029B95F8C8C802906E
:109580004FEA860E95F8E0080EF1085E04F180615E
:109590000EEB431E3939BCF1540F0EEB81110EEB6B
:1095A000801301D1A5F8D208994240F266811A6869
:1095B000002A00F05A811A6C002A00F06C81D3F85E
:1095C0008020002A00F06981D3F8C02003F5807361
:1095D000002AE9D1A3EB0E0E99424FEAAE1E40F2EB
:1095E0004C81A4EB0E0145294FF0000428BF452112
:1095F00003EB81119B46204626460DE01A6C002A9B
:1096000040F0CD80D3F88020002A40F0F380D3F8DA
:10961000C02003F580732AB9994206D91A68002A36
:10962000ECD04033994200F2BE80112E344640F215
:109630002881D6F1150200F124817349029E0B683E
:109640009E45D5F8E43838BFC1F800E0F11A00298A
:1096500017DB03F5F42303F590739E4288BF029B4A
:10966000694988BF0533C5F8E438674B1B68052B8B
:1096700086BF053BDBB2002385F8E0384FF0FF33AF
:109680000B6042B100FA02F2C4F11404012000FAA6
:1096900004F444EA02005D4BC0F3C43203EB8202DF
:1096A000D2F87C1D00F01F0203EB8202D2F87C2D61
:1096B00042EA0131C0F3441203EB8202C0F384207A
:1096C00003EB8000D2F87C3D41EA0311D0F87C3DE9
:1096D00041EA032181EA112383EA131303F00F0304
:1096E0000F2B40F0B080B1F5803F80F0AC80BCF132
:1096F000540F4FEA111104D1B5F8CC380133A5F855
:10970000CC383D4AD2F82439B1F5606F03F101033A
:10971000C2F8243900F0D380019B998197F8583022
:109720000398834210D0DAF808203B689B1A3B600C
:10973000DAF830207B689B1A7B600023CAF8083077
:10974000CAF8303087F858003B6801333B60DAF8DC
:1097500008300133CAF808304FF6FF73994207D139
:109760007B6801337B60DAF830300133CAF830307F
:10977000019B08F101081433B8F1080F07F15C07E9
:109780000AF15C0A019309F120097FF4E6AE1A4A56
:109790000123012082F8203A05B0BDE8F08F803324
:1097A00099427FF642AF5A469A1A9211541C184AAF
:1097B00082FB04B2A2EBE472012AB8BF01229040FE
:1097C00001241644013A04FA02F210431C462268AE
:1097D00002B3226C002A62D0D4F88020002A60D024
:1097E000D4F8C02004F58074AAB1A142EFD89B46FA
:1097F000234611E7C03315E704000010D0180020FD
:109800001F85EB51CDCCCCCC88010020205B060815
:10981000565555554034A142E9D9E31A9B115A1CBB
:109820002F4B83FB02B3A3EBE273012BB8BF0123E1
:1098300098401E440122013B02FA03F318432346D9
:109840009B462346E8E6BCF1540F2CD0254AD2F8BB
:1098500024390133C2F82439224AD2F8203901339D
:10986000C2F820394FF6FF7158E74033A3EB0E0ED4
:1098700099424FEAAE1E3FF6B4AE10B1013885F8FA
:10988000E008BCF1540F7FF473AFB5F8CE38013364
:10989000A5F8CE386CE780339CE6C0339AE6803476
:1098A000B9E7C034B7E7B5F8CC380E4A0133A5F8AC
:1098B000CC38D2F824390133C2F82439CCE795F8F2
:1098C000E53403EB430305EBC303434493F8F5345A
:1098D0000D2B7FF421AF019A802393771EE700BF01
:1098E000565555550400001010B504465BF0D8FAE3
:1098F00081B22046BDE81040FEF756BE38B50B4D8C
:1099000000EB400005F2445303EBC00393ED027AF1
:10991000D3ED037AE7EE007AC4002C44B0EE670A78
:109920005BF0BEFAD4F84435186038BD040000106E
:109930000C4AF8B5136855692B4003EA00055561D8
:109940007DB1094F0126B5FA85F4C4F11F0407EB78
:10995000840306FA04F4D3F8C00703689847A543C4
:10996000F1D1F8BD003C0140D0180020038A2DE958
:10997000F047B0F80C901FFA89F919EA03092BD0C7
:1099800005460E464FF000474FF00008B9FA89F33C
:1099900027FA03F2D24391B21B3B298209EA02095A
:1099A000042B16D8DFE803F0352C231A0300B36A22
:1099B000002B37D003F1FF3A1FFA8AFAC6F8288045
:1099C000746A34B123682046514698476468002C75
:1099D000F8D1B9F1000FD9D1BDE8F0877068696B93
:1099E000036889B29847B9F1000FCFD1F4E7B068A6
:1099F000A96B036889B29847B9F1000FC6D1EBE7AC
:109A0000F068E96B036889B29847B9F1000FBDD1DE
:109A1000E2E73069296C036889B29847B9F1000F11
:109A2000B4D1D9E7E96A1FFA81FAC9E7144B15499D
:109A300010B5044618681B79206284F8243015227A
:109A400004F125005CF058F80F4B93F8E8284FF02C
:109A5000010E84F83AE012B984F83B2010BD03F6F9
:109A6000EC0CBCE80F0020606160A260E360BCE821
:109A70000F0084F83BE020616161A261E36110BDE9
:109A8000E8D90608F0D90608D018002010B5002142
:109A9000382204465BF0DFFF0D490E4A0E48206174
:109AA000C4E905120D480E4AE061012341F61E612A
:109AB0004FF0090CE18484F808C0A37384F82130C6
:109AC000A26221460748BDE8104038F0AFB900BF98
:109AD0001A046C07001975036400DC0543080E00C6
:109AE0001E7D0101F8D90608084B10B5D3F80C39D2
:109AF00018440C46807D0EF07DFD18B18288036805
:109B00000CB11A8310BD5A83FCE700BFD0180020A7
:109B100010B42A492A4A91F804367BB3D2F808488F
:109B2000A04239D0012B29D0D2F82048844239D024
:109B3000022B23D0D2F83848A04235D0032B1DD0B9
:109B4000D2F85048A04231D0042B17D0D2F8684840
:109B5000A0422DD0052B11D0D2F88048A04229D0A8
:109B6000062B0BD0D2F89848A04225D0072B05D061
:109B7000D2F8B048844208BF07230ED003F1010C8D
:109B800081F804C603EB430102EBC1025DF8044B0C
:109B9000C2F80808184670470023DBB218465DF883
:109BA000044B70470123F8E70223F6E70323F4E7A9
:109BB0000423F2E70523F0E70623EEE70400001094
:109BC000D018002038B5424C8C2303FB004393F897
:109BD000933003B938BD94F8E4C494F8E5349C4557
:109BE0000ED003EB430204EBC20292F8E8E40EF15C
:109BF000FF35012D4FEA430246D9BEF1030F3ED097
:109C00008C2202FB0042A2F88410EFF31181902312
:109C100083F31288B2F8845092F8863043EA450301
:109C20000025C9B29BB282F8865081F31188294978
:109C30001A090D7882EA13225A4005B1D2431B015A
:109C40009BB202F00F021A4391F808365BBB8C23DB
:109C500003FB0044D1F8283AD4F80C0101219847BD
:109C6000D4F80811B4F890508A8AD4F804312A4301
:109C70008A8258601A6842F001021A6038BD5D1C81
:109C800005F003056545BBD0134404EBC30303444F
:109C900093F8F5140029B3D08C2303FB0043012271
:109CA00083F88620ACE78C2303FB0044D1F8285AC4
:109CB000D4F88C30D4F808115B79086903F0FC0300
:109CC00018440421A847D4F808318000988138BD91
:109CD000D01800200400001043680B4A23F04073A2
:109CE00023F4807343F48073436083681A4042F026
:109CF00002028260C36A0139CAB223F4700141EAE8
:109D00000251C162704700BFFDF7FFC0704700BF3E
:109D10000020FEF787B900BF0120FEF783B900BF1E
:109D20000220FEF77FB900BF10B1036882881A8352
:109D3000704700BF30B1036882881B691A4214BFA4
:109D400001200020704700BF10B1036882885A8349
:109D5000704700BF10B404698269E4684168146008
:109D60004024D460446900230C31C2E90433C2E9C1
:109D70000633C2E90833C2E90A33C2E90C339360FF
:109D80009363516084B1C269E0689363C2E90233AE
:109D9000C2E90433C2E90633C2E90833C2E90A332F
:109DA000C2E90C33C2E900015DF8044B704700BF03
:109DB000436800221A60037D1F2B08D9203B202214
:109DC000016802FA03F343F01803CB6070472022C6
:109DD000016802FA03F343F018038B60704700BF79
:109DE0000268136A11B1D96901B3143330B49C68A5
:109DF0001D689169DDB14FF4806088618D60104607
:109E000040690C6180B15968D369C9B10A464FF401
:109E100080619A609961224312F0010F14BF002201
:109E20004FF400521A621C6130BC704770478D615C
:109E3000054D4FF0FF0C05F804CF00688D60DFE79B
:109E4000024A9A609961E6E788010020E02100203B
:109E50000168F8B5D1E9042304465568002B49D0C0
:109E60009861107D5E681F2831D81768202202FA99
:109E700000F040F01800B8601A7D1F2A32D9186827
:109E8000203A202303FA02F242F01802C2600023B3
:109E90002B6033603368896943F0100333602846D0
:109EA00052F0BEFB23683046D96952F0B9FB2B68EB
:109EB000226843F001032B603368526843F00103CA
:109EC000336093889BB243F003039380F8BD176817
:109ED0002038202202FA00F040F01800F8601A7DC5
:109EE0001F2ACCD81868202303FA02F242F0180285
:109EF0008260CCE7137D90611F2B1CD81068202254
:109F000002FA03F343F01803836000232B602B68ED
:109F1000896943F010032B60284652F081FB2B68BF
:109F2000226843F0010352682B6093889BB243F090
:109F300002039380F8BD1068203B202202FA03F34D
:109F400043F01803C360E0E72DE9F0417F4D804EF8
:109F500007463C6897F888806368B888012284F8CF
:109F600024201A8822F040021204120C1A8022893E
:109F7000824223D0198821F038010904AB424FEA0C
:109F8000114100F0BF80734A934200F0BB8002464B
:109F9000B2F5807FA8BF4FF48072022AB8BF0222B8
:109FA000002A92FAA2F2B2FA82F208BF4FF0FF3210
:109FB000013A41EAC20292B21A802081397BA27A28
:109FC0008A420CD01A8822F003021204120C1A8062
:109FD0001A8892B2002900F092801A80A1721A8821
:109FE00092B242F040021A80226A9168002900F081
:109FF000A3804FF0000C1432E64652F8100C8E4449
:10A0000000EA060120B1B1F1805F23D0616909B394
:10A0100052F8140C143200EA060110B1B1F1805F5D
:10A0200018D052F80C1C0CF1010C0029E5D1227B50
:10A0300082B1B8F1000F0DD0BCF1010F6FD8BEF1A5
:10A04000070F6CD80CEB8C018900226A11440A7B43
:10A05000002A64D0226A92684FF00008002A53D088
:10A06000B8F1000F02D098F80C2022B1BA6812B1F2
:10A07000116892884A83226AD2F800E0226A516805
:10A08000226A9268501E9AB1BEF1000F23D01EF8CA
:10A0900001CB1A899207FCD5A3F80CC01A89D20704
:10A0A000FCD59A8992B209B101F8012B0138EBD2A3
:10A0B000236A1B7BE3B9236A1B697BB1236AD7F848
:10A0C00094001B69984701280DD0022806D100236F
:10A0D0002362BDE8F0814FF0FF0CDAE7D4F820806E
:10A0E000236A14332362236A9B686BB16368B7E702
:10A0F000BB68002BDFD01A689B881383DBE742F034
:10A1000003026AE7420843E7236A1B68DBB1236A5C
:10A11000D3E9007222620022C3E9002219E700217C
:10A120003846FFF75DFEBB6813B11A689B885383FE
:10A130003846BDE8F0418BE6227B002A8AD0B8F190
:10A14000000F82D186E72362C3E700BF00380040DA
:10A150000000FFFF003C004038B5D0F8E0102B4B6A
:10A1600004465A68D0F8D80071B1131A99420BDC32
:10A1700094F8D030C4F8D820012B10D0D4F8D430C3
:10A180000133C4F8D43038BDD4F8E430C4F8D82052
:10A190000344C4F8DC3094F8D030012BEED1616870
:10A1A000201D04F1E805EFF3118C102383F31288CE
:10A1B00063681B6A0BB3D4F8F0302A461BB1D3692D
:10A1C0001432002BFBD10B6A6BB1996839B99342F9
:10A1D00009D0196829B15B6899680029F7D0143350
:10A1E000F3E7C3E900055FFA8CFC8CF31188D4F81F
:10A1F000D4300133C4F8D43038BD0D625FFA8CFC22
:10A200008CF31188FFF7A0FEB8E700BF001000E054
:10A210002DE9F041826992F8DC30012B8AB00546C5
:10A220004CD0023B012B54D892F84C31D2F89C20F0
:10A230002E4C63F07F0313708669D6F8A030D6F8F1
:10A24000108003F1010E0FCCEC46ACE80F00D6F8FD
:10A250009C30CDE9003E0FCCACE80F0094E8030041
:10A2600006F110078CE80300EFF31180102383F34D
:10A27000128833691B6A002B2FD0029B6A461BB1E0
:10A28000D3691432002BFBD1D8F8203073B1996810
:10A2900039B993420AD0196829B15B6899680029D5
:10A2A000F7D01433F3E71F60C3F804D0C0B280F3D3
:10A2B0001188AA6911690B6A002BFCD1D2F8A03071
:10A2C0005A8852BAEA819A8852BA2A82DB885BBAE3
:10A2D0006B8201200AB0BDE8F081C8F820D0C0B27E
:10A2E00080F311883846FFF72FFEE2E71C69060865
:10A2F0002DE9F04190F8DC30D0F8A050012B8AB065
:10A30000044672D016D8D0F89C304FF0FF321A6055
:10A310005A609A60DA60D0F8E0300522B3F57A7FAF
:10A32000C0F8F0207CD8032380F8DC3001200AB08C
:10A33000BDE8F081023B012BF8D890F84D31D0F800
:10A340009C20524E63F07F031370D0F8A030D0F8F9
:10A35000108003F1010E00F110070FCEEC46ACE8BF
:10A360000F00D4F89C30CDE9003E0FCEACE80F00D2
:10A3700096E803008CE80300EFF31180102383F3C9
:10A38000128823691B6A002B73D0029B6A461BB19B
:10A39000D3691432002BFBD1D8F8203073B19968FF
:10A3A00039B993420AD0196829B15B6899680029C4
:10A3B000F7D01433F3E71F60C3F804D0C0B280F3C2
:10A3C00011882269136A002BFCD16B885BBAA4F850
:10A3D000D030AB885BBAA4F8D230EB8801205BBAEE
:10A3E000A4F8D4300AB0BDE8F08190F84C2190F880
:10A3F0004D319B1A5B100133DBB205EB430235F89C
:10A4000013305BBAA0F8D03053885BBAA0F8D230D2
:10A4100093885BBAA0F8D43001200AB0BDE8F0817F
:10A4200003691A7B72B35B6963B390F898304BB3DE
:10A4300090F84C31D0F89C20C4F8A40063F07F035E
:10A44000137090F84C1190F84D31D0F8A0201048BE
:10A45000C4F804015B1A07330121C4F8FC30D4F8B6
:10A460009C3084F800110A44C4E93D3284F8DC10C1
:10A470005CE7C8F820D0C0B280F311883846FFF7F7
:10A4800063FD9EE7022384F8DC304FE71C69060871
:10A4900001800008D3B2012B23D870B502EB420231
:10A4A000114C4FEA820E4FF0000C22460EF10805C7
:10A4B000634604E00133152B11D012F81CCF604520
:10A4C000F8D192F801C08C45F4D15659002EF1D044
:10A4D000C3EBC3030EEB83030433E01870BD00200D
:10A4E00070BD0020704700BF4469060810B40C4CD2
:10A4F000002304F6141C01E0152B0CD003EB4302DF
:10A5000001331CF802108142F6D122445DF8044B5D
:10A5100092F9160970474FF0FF305DF8044B704711
:10A52000D0180020D3B2022B21D830B502EB420262
:10A53000104D114C4FEA820C0CF10C0E2A460023F0
:10A5400004E00133172B10D052F82C4FA042F8D161
:10A5500014798C42F5D152F80E40002CF1D02C2207
:10A5600002FB03C30833E81830BD002030BD0020D3
:10A57000704700BF205B060800000140002838D06B
:10A5800030B51C4D90F804C0002305F6141401E00A
:10A59000152B2CD003EB43020133A15C6145F7D1AD
:10A5A0002A44046892F9163990F805E0DAB2022AD2
:10A5B0001DD803EB4303104810494FEA830C0246B1
:10A5C0000CF10C05002304E00133172B0FD052F8D7
:10A5D0002C1F8C42F8D111797145F5D151590029C0
:10A5E000F2D02C2202FB03C30833184430BD0020F4
:10A5F00030BD7047D0180020205B060800000140E5
:10A60000024883690BB10830184770478801002061
:10A610000248C36B0BB12C301847704788010020EB
:10A620000248036E0BB15030184770478801002074
:10A630000348D0F884300BB174301847704700BF1E
:10A64000880100200348D0F8A8300BB19830184793
:10A65000704700BF880100200348D0F8CC300BB110
:10A66000BC301847704700BF880100200348D0F86D
:10A67000F0300BB1E0301847704700BF8801002070
:10A680000348D0F8143113B100F5827018477047B1
:10A69000880100200348D0F8383113B100F59470D8
:10A6A00018477047880100200348D0F85C3113B187
:10A6B00000F5A67018477047880100200348D0F8BD
:10A6C000803113B100F5B870184770478801002039
:10A6D0000348D0F8A43113B100F5CA701847704789
:10A6E000880100200348D0F8C83113B100F5DC70B0
:10A6F00018477047880100200348D0F8EC3113B1A7
:10A7000000F5EE7018477047880100200348D0F824
:10A71000103213B100F5007018477047880100200F
:10A720000348D0F8343213B100F509701847704768
:10A7300088010020094B0A4A013800EBC00003EBF6
:10A740008000116B8368074883420CBF4FF40013ED
:10A750004FF480030B431363704700BF8801002050
:10A76000003802400060024070B501383B4C3C4D5F
:10A7700000EBC00C04EB8C0C9646DCF80860394A00
:10A78000AE420CBF4FF400154FF48005166B3543F5
:10A790001563CCF81810CCF820303349DCF80C30B5
:10A7A0008B424FEAC0023ED001F580618B423AD025
:10A7B000A1F57A718B4245D001F580618B4241D081
:10A7C000A1F57A718B423FD001F580618B423BD07D
:10A7D000A1F57A718B4233D001F580618B422FD085
:10A7E000A1F57A718B4231D001F580618B422DD079
:10A7F000A1F57A718B422BD001F580618B4227D075
:10A80000A1F57A718B4225D001F580618B4221D070
:10A81000A1F57A718B421FD0144D01F580618B42F6
:10A8200018BF002500E0124D104404EB8003CEF366
:10A8300087119D62587FBDE87040002256F0C8BD68
:10A840000C4DF1E70C4DEFE70C4DEDE70C4DEBE750
:10A850000C4DE9E70C4DE7E7044DE5E788010020E2
:10A860000060024000380240106002400080002872
:10A870002080001000800018008800100080201048
:10A880002080002000880020008020200D4B98426E
:10A8900014D0A3F58063984210D003F5804398420A
:10A8A0000CD003F58063984208D003F5806398428A
:10A8B00004D0054BD3F8B80740087047024BD3F8D3
:10A8C000B807704700040140D0180020800AA0F5A6
:10A8D0008010522808D8054B184490F8F4330D2BFB
:10A8E00002D8034AD056704700207047205B060804
:10A8F00034DA060858B183884FF00042B3FA83F384
:10A9000032FA03F303D002490A6813430B6070471D
:10A91000003C01400120FFF70BB800BF0220FFF709
:10A9200007B800BF0420FFF703B800BF0820FEF7F8
:10A93000FFBF00BF1020FEF7FBBF00BF4FF47870D1
:10A94000FEF7F6BF4FF47C40FEF7F2BF30B50C4681
:10A9500083B0054618B3036803F13F4303F57E0354
:10A960009B0A104A134413F8880C56F02FFEA9884E
:10A97000009104F00303C4F381028DF804302868C9
:10A980008DF80520C4F300136946C4F341148DF813
:10A9900006308DF8074051F015FD03B030BD4FF083
:10A9A000FF33DEE7186C060800B1CFE7704700BF41
:10A9B0002DE9F047CB781BB900273846BDE8F08772
:10A9C00000F110080D460646897840460DF078FBE8
:10A9D00007460028F0D0E8780DF00CFEB0612B7827
:10A9E0000133DBB210B1C371222383710921FFF758
:10A9F000DBFFB069DFF87C90FFF796F9D9F8DC3817
:10AA0000632BFBD91948DFF870A0194C0DF02EFB11
:10AA1000B08202E05AF8044B54B14046A0470346C6
:10AA20000028F7D0306986F8D83058F0DBF9C4E751
:10AA3000E8780DF0DFFDD9F85479002F0646BBDD2C
:10AA4000DFF8388002E00134A742B5D004EB4405BA
:10AA500018F805000DF0CEFD8642F4D1214608EB32
:10AA600005000DF00BFE0027A7E700BF40420F00D6
:10AA7000619E0508D01800209C6B06082822002043
:10AA80000B4B10B5D3F80C3903440446987D0DF0F8
:10AA9000B1FD60B12E228271621CC2710121FFF7EB
:10AAA00083FF20460021BDE81040FFF71DB810BD10
:10AAB000D018002070B50E4CD4F8246A002E15DD95
:10AAC00004F58164002503E0B54204F120040DD0B3
:10AAD000237F0135002BF7D0E0680028F4D0217DDA
:10AAE000FFF734FFB54204F12004F1D1012070BD1D
:10AAF00004000010F8B5037D85691F2B04464DD96D
:10AB00000168A3F120024E6820209040064234D014
:10AB100010239340C860CB604B68D340DE0700F140
:10AB20008380EFF31183502282F312882A6C11681C
:10AB3000C9075AD4516889B271B9D5E9096086420A
:10AB400050D0AF690744D76073D9301A80B25060D3
:10AB5000AE62002185F86410116841F00101DBB29A
:10AB6000116083F3118895F86430002B44D1237D64
:10AB70001F2B27D92168A3F120024C6808209040A0
:10AB8000044200D0C8604C68042000FA02F222425D
:10AB900003D0203B00FA03F3CB60F8BD026820200D
:10ABA00016689840064219460ED0102199409060D0
:10ABB00091601168D940C807B3D5012101FA03F3A8
:10ABC0009360AEE722681946106808238B4018424C
:10ABD00000D093601068042303FA01F10142DCD035
:10ABE0009160F8BD012285F86420DBB283F31188FF
:10ABF00095F86430002BBAD095F87C30002BB6D194
:10AC000095F871000DF0F6FC2A6E938923F0080385
:10AC10001B0401211B0C938185F87C100028A6D011
:10AC20002021FFF793FEA2E7012303FA02F2CA6094
:10AC300077E72E69301A80B25060A96289E700BFB9
:10AC400070B50C4682B015460646002839D0036818
:10AC500003F13F4303F57E039B0A1B4A134413F899
:10AC6000880C56F0B3FCB2880092B2FA82F304F07A
:10AC700003028DF80420C4F3810230688DF80520AA
:10AC8000C3F11F03C4F30012C4F341148DF807404D
:10AC9000C3F3CC0400EB840403F007038DF8062013
:10ACA0009B00226A0F269D4006FA03F322EA030363
:10ACB0002362226A15436946256251F083FB02B084
:10ACC00070BD4FF0FF33C8E7186C060800B1B7E756
:10ACD000704700BF2DE9F043774D05EB001683B0B8
:10ACE000D6F88839002B00F0938004464FEA00180C
:10ACF00096F8900956F06AFC96F89039590903F0D5
:10AD00001F0203294FF0010303FA02F300F09880B9
:10AD1000042900F0858002297DD005EB0803013469
:10AD200093F88C090DF066FCE4B2814610B1122351
:10AD30008371C47105EB080393F88D090DF05AFC7B
:10AD4000074610B11323C471837105EB080393F810
:10AD50008E090DF04FFC064610B11423C4718371A7
:10AD60004544484695F88F2901924A21FFF7AEFFE6
:10AD7000019A38462A21FFF7A9FF019A0A21304695
:10AD8000FFF7A4FFD5F888294C4B9A425DD04C4B75
:10AD90009A424AD04B4B9A4262D04B4B9A426AD06D
:10ADA0004A4B9A4272D04A4B9A427AD0494990888B
:10ADB000B1F84A42B1F84832B1F852522343B1F8DF
:10ADC0004C422343B1F84E4220F003002343B1F834
:10ADD00050420004000C2343B1F8544290802B43AE
:10ADE00010882343B1F85642B1F8581200F441508C
:10ADF000234303439BB21380938B23F400631B0410
:10AE00001B0C9383118213889BB243F04003138081
:10AE100003B0BDE8F083304A516A0B4353627CE7CC
:10AE20002D4A11690B43136177E703F50033196A63
:10AE300041F480411962196A21F480411962B5E731
:10AE4000254A116A0B43136267E703F58433596A95
:10AE500041F480515962596A21F480515962A5E741
:10AE600003F5FE33196A41F400411962196A21F4AD
:10AE7000004119629AE703F58233596A41F400519F
:10AE80005962596A21F4005159628FE703F568430A
:10AE9000596A41F480115962596A21F4801159624A
:10AEA00084E703F56443596A41F400115962596A11
:10AEB00021F40011596279E7D018002000300140D8
:10AEC00000380040003C0040003401400050014088
:10AED000005401408801002000380240431C00F06B
:10AEE00074812DE9F04F00EB8003BE4FDA0087B08C
:10AEF00057F8029081000546019107EBC303B9F1B1
:10AF0000000F05D09C68002C00F02F81A17911B1B1
:10AF100007B0BDE8F08FD3F80CA0BAF1000F00F035
:10AF2000A2819AF80630002BF2D11832B818D9F85D
:10AF30000480BB50691CC0E90133C3601523A371B1
:10AF4000C9B21623E1718AF807108AF8063099F819
:10AF5000180056F03BFBB8F804302268A18823F4AF
:10AF600040731B041B0CA8F80430DAF8003011837E
:10AF7000BAF804201A8311212046FFF7E7FC1121BB
:10AF80005046FFF7E3FC09264FF0330B05E0BBF119
:10AF9000010B00F0158112F019FD0A20002CF6D0EB
:10AFA0002268A18813691942F1D05183052012F05B
:10AFB0000DFD2368A2881A83052012F007FD013ECB
:10AFC000E2D1332604E0013E00F0308112F0FEFCB5
:10AFD0000A20002CF7D02368A28819690A42F2D00F
:10AFE0005A83052012F0F2FCBAF1000F00F05D81E7
:10AFF000DAF80030BAF804205A83052012F0E6FC93
:10B00000002C00F024812368A2881A83052012F006
:10B01000DDFCDAF80030BAF804201A83052012F0BB
:10B02000D5FC2368A2881B691A4240F0D580019B99
:10B030002B4407EBC3039A7C002A40F0CA801A7C99
:10B0400012212046FFF7FCFD019B2B4407EBC303B5
:10B050009B7C002B00F0C4803221BAF1000F07D096
:10B06000019B2B4407EBC30350465A7CFFF7E8FDD6
:10B070005D4B984500F028815C4B984500F02F818E
:10B080005B4B984500F03681019B2B4407EBC307CF
:10B090004FF47A73BC8A03FB04F4B8F8043023F449
:10B0A00040731B041B0CA8F80430B8F800309BB2A6
:10B0B00043F00103A8F80030B8F8045002A851F09A
:10B0C000CBF925F03F0504994A4B2D04A3FB01233E
:10B0D0002D0C45EA9345A8F80450B8F8002022F05A
:10B0E00001021204120CA8F80020434A980C944262
:10B0F000034600F383806200B1FBF2F292B20133A7
:10B10000042A38BF0422A8F82030A8F81C20B8F878
:10B1100000309BB243F00103A8F80030B8F80030CB
:10B1200023F4816323F002031B041B0C4FF48041C2
:10B1300043F48063A8F80030A8F80810B8F800308D
:10B1400023F080031B041B0C0022A8F8003099F8A0
:10B150001A00114656F03CF9002299F819001146E0
:10B1600007B0BDE8F04F56F033B9D3F80CA0BAF1F0
:10B17000000F00F0D4809AF80630002B7FF4C8AEA0
:10B180001832BB18D9F80480BC50C3E90144DC6014
:10B1900016238AF806306B1C8AF8073099F81800D5
:10B1A00056F014FAB8F80430BAF8042023F44073C7
:10B1B0001B041B0CA8F80430DAF800301A83DEE612
:10B1C00024B9052012F002FCF6E67047A188226837
:10B1D000EBE61A7C322134E7DAF800301B6926E707
:10B1E00012213AE7D01800200054004000580040D7
:10B1F000005C004083DE1B43A086010004EB440496
:10B20000B1FBF4F18AB2C1F30B0109B942F00102BA
:10B2100050494FF4967300FB03F3A1FB03139B0902
:10B22000013342F40042A8F820306EE7002C40F0D1
:10B230008D80052012F0CAFBBAF1000F65D0DAF854
:10B240000030BAF804205A83052012F0BFFB052015
:10B2500012F0BCFBDAF80030BAF804201A8305209B
:10B2600012F0B4FBF0E61832BB18D9F8048047F8A6
:10B2700002A0C3E901AAC3F80CA01523A371431CC3
:10B28000E37199F8180056F0A1F9B8F80430A288D3
:10B2900023F440731B041B0CA8F80430236811210D
:10B2A0001A832046FFF752FB6DE6052012F08EFB55
:10B2B0002368A2881A83052012F088FB052012F06B
:10B2C00085FB23681B69B2E603F5F2331A6A42F480
:10B2D00000121A621A6A22F400121A62D4E603F506
:10B2E000F0331A6A42F480021A621A6A22F4800267
:10B2F0001A62C9E603F5EE331A6A42F400021A62D2
:10B300001A6A22F400021A62BEE6052012F05EFB01
:10B31000052012F05BFB052012F058FB94E6183272
:10B32000BB18D9F8048047F802A0C3E901AAC3F802
:10B330000CA099F8180056F049F9B8F8043023F435
:10B3400040731B041B0CA8F804301CE6A288236879
:10B3500046E600BFD34D62102DE9F84307460EF0D4
:10B360000DF8DFF84C8007EB8709044608EBC905A8
:10B3700042F20F7604E00EF001F8031BB3420ADC40
:10B380006B7E002BF7D108EBC90898F8180080F005
:10B390000100BDE8F883B8F8B839013338469BB2EC
:10B3A000A8F8B839FFF79AFD0020BDE8F88300BF80
:10B3B000D018002010B582B08DF80730431C0CD097
:10B3C0000228044609DC0DF1070356F0A5F820B168
:10B3D0002046FFF7C1FF02B010BD002002B010BD33
:10B3E00070B500EB8003274D05EBC30255F83330F1
:10B3F0005C68A38A84B09BB20393039B13F4706FC1
:10B400001CBF01231376039B13F4E06F4FEA800601
:10B410000CD1A38A304423F4706305EBC0051B04F0
:10B420001B0C0022A3826A7604B070BD238BA38814
:10B4300023F480631B041B0CA380039B9A05E8D4B0
:10B4400023889B05E5D42388D9050FD52388DA0501
:10B45000FCD423889BB243F40073238023889B058C
:10B46000FCD40190FFF73AFD0198D2E723889BB204
:10B4700043F400732380A38823F440731B041B0C44
:10B48000A380C6E7D01800200020A9E70120A7E785
:10B490000220A5E72DE9F84F2F4F00EB800407EBC2
:10B4A000C404D4F80480B8F1000F04D09A46637E37
:10B4B00003F0FF0923B14FF000094846BDE8F88FBB
:10B4C0000E46934605460DF059FF0A9B7600F6B2EC
:10B4D000C4E908330123A67684F81BB084F81D90D4
:10B4E000A37784F81CA0637684F81890B8F8042039
:10B4F0009105064622D4B8F80030DA0512D442F29B
:10B500000F7404E00DF03AFF831BA3421ADCB8F875
:10B5100000309B05F6D4B8F800309BB243F480733A
:10B52000A8F80030B8F804309BB24FF0010943F49A
:10B530004073A8F804304846BDE8F88F994648465D
:10B54000BDE8F88FB7F8B83901339BB22846A7F8A1
:10B55000B839FFF7C3FCB0E7D0180020F8B590F871
:10B5600071301C09013C052C0FD81B4E06EB440220
:10B57000054632F8740C03F00F0340FA03F2D207C9
:10B5800003D595F87C70012F01D00120F8BD07FA92
:10B5900003F3013B1840344458F094FB14F8682C32
:10B5A0000E4C104454F8302004EBC0041069A388FA
:10B5B0001840EBD0EB6E002285F87C2093F8212018
:10B5C00020460221FFF73CFB2A6E93899BB243F091
:10B5D000080338469381F8BD186C06088C220020B9
:10B5E000094BD3F8BC2CD3F8C01C40F22A400023EE
:10B5F00050604B620B889BB243F001030B801368D1
:10B6000043F0010313607047D01800201D4B1E4803
:10B61000196C1E4A10B441F080510124196404626F
:10B620005321FF24CA205462506251625B6FDB00D9
:10B6300085B017D416480423002102910290029A83
:10B640001A440292029A04331C2B1160F5D1039123
:10B650000390039B0393039B0E4A1A6005B05DF8A9
:10B66000044B70470A4B002201920193019B019306
:10B67000019A084B12689A42DCD105B05DF8044B80
:10B68000704700BF0038024000000E420028004012
:10B69000502800403166654210B5174C84B001391E
:10B6A000002389B2A042ADF80C30ADF806308DF819
:10B6B0000E30029113D0114B984210D003F5804305
:10B6C00098420CD003F58063984208D003F580635C
:10B6D000984204D00A4BD3F8B8375B0802E0084B15
:10B6E000D3F8B837B3FBF2F201A9013AADF8042060
:10B6F00051F038F804B010BD0004014000000140D2
:10B70000D018002030B50446006EA268838923F467
:10B7100000531B041B0C8381637995B013F0040F55
:10B720004FF00001019214BF4FF480520A46ADF869
:10B7300008201A031B0203F48063ADF80C30237950
:10B74000ADF80E1002F40052ADF80A20DA0744BF3B
:10B750000422ADF80E209B07ADF8101005D5BDF8FA
:10B760000E3043F00803ADF80E3001A951F00CF98A
:10B770006279236ED50700F18B8012F0080F9A8A48
:10B7800048D092B242F008029A829A8992B242F468
:10B7900000529A812279D00732D5E06B002800F060
:10B7A00089800023E26D0893CDE90C33CDE9103395
:10B7B000CDE912334FF480750A936369E1680E9501
:10B7C00006920793626C05924FF480634FF48035C4
:10B7D0000B9309910F9550F08DFE05A9E06B50F089
:10B7E0001FFFE26B216E136843F0010313608B8A25
:10B7F0009BB243F040038B82536822799BB263650E
:10B8000091070DD4226E93899BB243F40053938128
:10B8100015B030BD22F008021204120C9A82B4E76F
:10B82000206C002852D02369A26D0993A36CCDE946
:10B830000532402300254FF4803108934FF4806394
:10B840000B930F91CDE90C55CDE91055CDE912556B
:10B8500007950A950E9550F04DFE206C05A950F005
:10B86000DFFE236C226E586940F080005861186832
:10B8700040F0160018605D60938A9BB243F080032D
:10B8800002F10C0193820B6843F040030B60BAE7AE
:10B890001E498B4224D0A1F54C418B421ED001F5AC
:10B8A00080618B421ED102200121FEF71DF96279D1
:10B8B000236E62E74FF6DF711980D96841F02001ED
:10B8C000D960D96841F01001D96099E7226ED36838
:10B8D00043F0800302F10C01D360D4E70120E3E7D9
:10B8E0000020E1E701F580618B420AD001F580611B
:10B8F0008B4208D001F544418B427FF43EAF0520D6
:10B90000D2E70320D0E70420CEE700BF00100140BB
:10B910002DE9F84F4F4C04EB8004D4F82C4A002C4E
:10B9200000F08180E56E002D79D01F46EB6A6361DF
:10B93000AB6AA3616B8EE3602B8E23616B68236619
:10B94000454B2360454BA160A366064620469046C2
:10B950000CF0DAFF94F871000CF04CFE814695F87B
:10B96000200094F870B0A24600284FD102213B0776
:10B9700084F87C1037D418F0020F11D0B9F1000F01
:10B980000ED00B2389F806303A0606F1010389F838
:10B9900007304AD495F8212048462221FFF750F974
:10B9A00018F0010F04D1E26B9AB15046BDE8F88F50
:10B9B00058460CF01FFE0028F5D00C220136C67147
:10B9C000827195F821202221FFF73AF9E26B002AD3
:10B9D000EBD195F8241095F82200890955F0F8FC70
:10B9E0005046BDE8F88F0136F6B2B9F1000FDAD053
:10B9F0000B23780689F8076089F8063009D595F891
:10BA0000212042214846FFF71BF9CCE755F0DEFD27
:10BA1000ACE7FB0695F82120F4D41221F2E7AA4600
:10BA20005046BDE8F88FA246BFE794F871000CF0CD
:10BA3000E1FD226E938923F008031B0401211B0CF6
:10BA4000938184F87C100028AAD02021FEF77EFF85
:10BA5000A6E700BF04000010B86B06085DB500083B
:10BA6000BFF34F8F0549064BCA6802F4E0621343E7
:10BA7000CB60BFF34F8F00BFFDE700BF00ED00E0DC
:10BA80000400FA0508B572B6FFF7EAFF00B583B007
:10BA90000D49002200920091009B0C330093009B03
:10BAA0001B68012B02D003B05DF804FB01920191E9
:10BAB000019B06490C330193019B1A600B6883F3C9
:10BAC00008884B689847FEE7502800400000FF1F99
:10BAD00038B5FFF79BFDFFF7D9FF012050F032FE8C
:10BAE000714A936823F003039360936813F00C0F7B
:10BAF000FBD113686C49002842D143F00103136065
:10BB000041F288330A6895075DD4013BFAD1674C4E
:10BB1000674D654B674AEA60596F674AC4F8DC1C99
:10BB2000AA60596B654821F080015963596F41F053
:10BB300080715967196B41F4CE0119635A6B5A63CE
:10BB40009A6B9A631A6C02431A64596C5C4A0A43F2
:10BB50005A640DF0CBFBD4F8B8375A4AA2FB032342
:10BB60009B09013BB3F1807F09D24FF0E022F02026
:10BB700053610021072385F823009161136138BDCB
:10BB800043F4803313600A68940341F2883304D489
:10BB9000013BBCD00A689403FAD5444C4A4A4B4B4B
:10BBA000B0FBF3F3B0FBF2F0B3EB400F18BF184655
:10BBB0004FF48002B3FBF0F3C4F8D82CC4F8C40CE3
:10BBC000C4F8C83C09E0394C002108220223C4F81B
:10BBD000D81CC4F8C42CC4F8C83C022050F0B2FDF4
:10BBE00003280FD83A4BD4F8C81C03EBC000858853
:10BBF000C2884388C4F8D05CB3FBF1F3C4F8D42CFA
:10BC0000C4F8CC3C284B33491A6C42F080521A6479
:10BC10000A6842F440420A609A689A609A6842F45C
:10BC200000429A609A6842F4A0529A60D4F8D80C04
:10BC3000D4F8C42CD4F8CC1C024342EA8112D4F8C4
:10BC4000D01CD4F8D40C490842EA0062013942EA17
:10BC500001425A601A6842F080721A601A689201B2
:10BC6000FCD51D4A40F205711160996821F003016D
:10BC70009960996841F00201A2F580629960936829
:10BC800003F00C03082BFAD1D4F8C80C1349D823BD
:10BC9000B3FBF0F39B0143F000530120C2F8843062
:10BCA0008866FCF777FE33E700380240D0180020A2
:10BCB00000ED00E00005FA0500000020FFC9FE3697
:10BCC000335F0700D34D621080841E0040420F0096
:10BCD000E86B060800700040003C0240000047424C
:10BCE00010B584B000230446ADF80C300068ADF800
:10BCF00006308DF80E3003F18043013903F58233AD
:10BD000089B29842029114D0A3F58063984210D072
:10BD100003F5804398420CD003F58063984208D025
:10BD200003F58063984204D0204BD3F8B8375B0802
:10BD300002E01E4BD3F8B837B3FBF2F301A9013B85
:10BD4000ADF8043050F00EFD2168194A0B881948EF
:10BD50009BB243F001030B80002301E050F8332035
:10BD6000914208D001330E2BF8D1002004B0BDE879
:10BD70001040FCF7BFBD104A02EBC30393F8114D0E
:10BD80002046FCF7B7FD1B2C05D1192004B0BDE8F7
:10BD90001040FCF7AFBD2E2C08BF2C2004D104B0FE
:10BDA000BDE81040FCF7A6BD04B010BDD0180020BF
:10BDB000000001402C680608205B060870B5046886
:10BDC000A30AA3F58013522B51D83C4D2B4493F872
:10BDD000F4530D2D4BD840798608002954D005EB3B
:10BDE000850305EB4303B4F80CE04FEA900C3344B1
:10BDF0000220334E00FA0CF040EA0E0006EB830CF2
:10BE000080B2CCF85015CCF86025A081EFF3118CEE
:10BE1000502383F312882C2305FB03F3F118D1F888
:10BE20004C2562B3274BC1F87025043226482C21DB
:10BE300005FB01F1084414310B4453F8041B19B1FC
:10BE4000116053F8042C04329842F6D100235FFAB3
:10BE50008CFC13608CF311882C2303FB0565D5F84B
:10BE600070352BB1A3899BB243F00103A38170BD50
:10BE7000A38923F001031B041B0CA38170BD03F1F4
:10BE80002402104B1A44D1E7B4F80CC005EB85032B
:10BE9000304605EB43034FF0020E33441FFA8CFC8F
:10BEA000074E0EFA00F02CEA0000A08106EB83009A
:10BEB000C0F85015C0F86025A8E700BF205B060851
:10BEC000D01800201C1E0020401E002001490248FE
:10BED000FDF74CBD1C1E00200000014010B5064CB3
:10BEE000064804F24C51FDF741FD04F5DB610448BE
:10BEF000BDE81040FDF73ABDD01800200000014019
:10BF00000044014002494FF08040FDF72FBD00BFC3
:10BF1000481E002001490248FDF728BD741E00207C
:10BF20000004004001490248FDF720BDA01E00208A
:10BF30000008004001490248FDF718BDCC1E002052
:10BF4000000C004001490248FDF710BD501F0020C1
:10BF50000004014010B5064C064804F5D061FDF719
:10BF600005FD04F25C710448BDE81040FDF7FEBC1D
:10BF7000D018002000040140001C00400149024884
:10BF8000FDF7F4BC7C1F002000400140014902483D
:10BF9000FDF7ECBCD41F00200048014001490248D5
:10BFA000FDF7E4BC002000200018004001490248D1
:10BFB000FDF7DCBC582000200020004010B50C2903
:10BFC00037D8DFE801F097363636663636363736FC
:10BFD00036360700038C5488B2F80CE023F4805303
:10BFE0001B041B0C0384038CB0F804C0818B21F468
:10BFF000E6414EEA040E0904148823F40053090CA8
:10C0000041EA04211B04754C1B0C43EA0E33A04289
:10C010001FFA8CFC9BB289B200F0AE8004F58064FC
:10C02000A04200F0A9809268A0F804C08183026455
:10C03000038410BD038CB2F80CC0548823F48073C1
:10C040001B041B0C0384038CB0F804E0818B23F4E5
:10C0500000731B044CEA040C21F073011B0C43EA2F
:10C060000C230904B2F800C0090C41EA0C0C5B492E
:10C0700088421FFA8EFE9BB268D001F5806188422B
:10C0800064D09268A0F804E0A0F81CC0C2630384E6
:10C0900010BD038CB2F80CC0548823F010031B04AD
:10C0A0001B0C0384038CB0F804E0018B23F0200305
:10C0B0001B044CEA040C21F4E6411B0C43EA0C136C
:10C0C0000904B2F800C0090C41EA0C211FFA81FCF6
:10C0D000424988421FFA8EFE9BB269D001F5806109
:10C0E000884265D09268A0F804E0A0F818C0826386
:10C0F000038410BD038C5488B2F80CE023F00103D4
:10C100001B041B0C0384038CB0F804C0018B21F0CA
:10C1100073014EEA040E0904148823F00203090C8B
:10C120001B0421432D4C1B0C43EA0E03A0421FFAB3
:10C130008CFC9BB228D004F58064A04224D0926885
:10C14000A0F804C001834263038410BDD189548ADE
:10C1500023F4006343EA0121138A2EF4405E234353
:10C160004EEA031E94884FF6FF330B4043EA042344
:10C170001FFA8EFE9BB284E7148A2CF4804C4CEAA2
:10C18000841C1FFA8CFC4EE7D489B2F810E023F02F
:10C1900008032343548A2CF4407C4EEA040E94880E
:10C1A00023F004034CEA0E0C1FFA8CFC2343C6E771
:10C1B000D189548A23F0800343EA0111138A2EF4B3
:10C1C000406E23434EEA830E94884FF6BF730B40B4
:10C1D00043EA04131FFA8EFE9BB283E7000001407E
:10C1E0002DE9F04FA24BDFF8A49293F8F23CA14E58
:10C1F000A14F8FB0CDE90139013BDBB2009300259F
:10C20000DFF88CB2DFF88CA25B46D3469A464FEA41
:10C210009A23A3F58013522B4CD8334493F8F4336C
:10C220000D2B47D8FC56019B012B40F00181012CBE
:10C2300035D14FF000084146204612F075F912F052
:10C2400001FA037813B1542B40F0F98008F1040887
:10C250001FFA88F8B8F1100FEDD14FF0000E8DB332
:10C26000494600200CE0334493F8F4330D2B0ED8EC
:10C27000FB56A3420ED00130A84201F580711EDAB0
:10C280008A6813689B0AA3F58013522BEBD900230D
:10C29000A342F0D153799BF805209A42EBD1774B1A
:10C2A0005B454BD05BF81CAF4FEA9A23A3F5801394
:10C2B000522BB2D9009B012BF1D90024B9E7BEF172
:10C2C000000FECD15846FCF77FF8C3B2022B9BF865
:10C2D00005C000F23083431C5BB203EB43034FEA1B
:10C2E000830E644B664903F5727004E0984200F0D7
:10C2F000228353F82C1F5145F8D11A796245F5D1A4
:10C3000053F80E40002CF1D05E4800234268A24250
:10C3100003F1010300F08980102B00F12400F5D116
:10C320004FF0FF33584A03EBC30302EB830393F848
:10C330002430002BB3D1029BC3F808B0029B013517
:10C3400003F58073042D02937FF45AAFDFF848B1F0
:10C350000BF59E730027ABF5816A9846DAF8243A0C
:10C36000BB425FDDDBF80C50002D5BD09BF810303A
:10C37000A88802932B68DAF80460019303F13F4127
:10C38000B0FA80F301F57E010393002EC3F11F0381
:10C390004FEA9121009340F38480002302E00133AF
:10C3A000B3427BD01C0259F804208A42F7D14C4496
:10C3B0000099029B8BF8103003260137CBF804104C
:10C3C000CBF80C50CBF81840AE71EF71636CE26C97
:10C3D0000D4649008E401E43012303FA01F111432B
:10C3E0009AF800206664E1647AB303FA05F11A460C
:10C3F000236D0B432365019B89B21883D4F8A000F9
:10C40000FCF71EF82046FCF771F90123082F8BF882
:10C410001C308BF81D3088F811300BF1200B08F11F
:10C4200018089BD10FB0BDE8F08FDBB2013B79E774
:10C43000022B7FF4FEAE082C3FF4FBAE2FE74FF04B
:10C44000010E002D7FF40CAF29E70399C1F12F05F0
:10C45000009903FA05F58B4099B2236D2B432365B0
:10C46000019B5883D4F8A000FBF7EAFFCAE700BF9E
:10C47000D0180020205B060834DA0608E86C0608AD
:10C480000000014090010020880100200C000010F5
:10C4900000040140086C06080C040010032B00F394
:10C4A0001D820AEB0623320218690492002800F06C
:10C4B0003B8299600131CAB283F805210692542269
:10C4C00083F804210136026805924479CAF80460B1
:10C4D000FBF77AFF924AC3B2022B92F809ED844629
:10C4E00000F22982461C76B206EB46068D498E483C
:10C4F000059AB600002305E00133172B00F01B82DC
:10C5000051F82C0F8242F7D10879A042F4D1885912
:10C510000028F1D02C2101FB03F30CEB4C0C03EBB6
:10C520008C0C804B63441969049B5344C3E9060196
:10C530007E4B00211E461C466368984215D001318F
:10C54000102904F12404F7D1794B1A78002A00F05D
:10C55000E6817849784A794BCAF8681ACAF8602A9D
:10C56000CAF8703A0FB0BDE8F08F01F1010C5FFA24
:10C570008CFC6F4B07960CF1FF3C0CEBCC0C03EBE7
:10C580008C0C9CF824300593002BE2D1049E069B72
:10C590008CF82530F31103EB262000EB00136848DC
:10C5A0008C2400EB83003112664B04FB01F103EB9A
:10C5B00041010AEB0603C3E93C145421019E8CF8A7
:10C5C00024103321C3F8AC10DE60C3F8A8005E4B22
:10C5D00004999A4209EB010400F07581524B9A428A
:10C5E00000F0718103F580439A4200F06C8103F5FD
:10C5F00080639A4200F0678103F580639A4200F0FD
:10C600006281474BD3F8B807BEF1060F4FEA5000DE
:10C6100000F060814D4B4E49BEF1070F18BF9C469C
:10C620004C4B08BF8C464C4918BF1946B0FBF1F182
:10C63000B0FBFCFC1046049A01390AEB020389B2F4
:10C640000CF1FF3CA3F8B0C0A3F868104FF000064F
:10C650000193A165002302F154014944A4F85C60F0
:10C66000636550F07FF8019B3C4A1B690193186891
:10C6700003889BB243F080030380038809920A2158
:10C680000B914FF48072022123F00103CDE90C12CB
:10C690001B04ADF828601B0C019E0380717909AA68
:10C6A000FFF78CFC3079002840F02181049B079E25
:10C6B0000AEB030200231069D2F818C001680A8847
:10C6C00092B242F001020A807268944503F10103BC
:10C6D00000F00981102B06F12406F5D14FF0FF334D
:10C6E000134A1F4E03EBC30302EB83031D4A9B68EF
:10C6F000B3420CBF4FF400134FF48003166B334367
:10C700001363427918480C2A9BBF184B03EB420372
:10C710000026B3F8EC60049B53449E8200232EE075
:10C72000D0180020205B0608000001409001002086
:10C730008801002029610108256101083161010893
:10C74000DC2500200C29002000040140449508004D
:10C7500010552200D0DD060040771B00600001006C
:10C76000006002400038024014060010186C0608F1
:10C77000914200F0DE800133042B00F0DF8050F89E
:10C780003320002AF4D1DAF80C260132CAF80C263C
:10C790000AEBC302DB00C2F81016034469499A8809
:10C7A000059816439E80049B0AEB030690222346BD
:10C7B000FDF7DAFFB0690268002342F01002026060
:10C7C000C4E92533A367C4F88830C4F89C30F26903
:10C7D00062664FF48062E26704214FF40032C4E9DC
:10C7E000232140222267D6F8AC206267F268049BBE
:10C7F0001832A2664FF48052C4F88020D6F8A820E0
:10C80000E26603F164014FF480424944C4F8842095
:10C810004FF006FFB069049BD0F800E0C4F81CE0BC
:10C82000D0F814E0C4F820E0D0F804E0C4F824E024
:10C8300003F1AC01D0F808E0C4F828E00023D0F8F8
:10C840000CE0C4F82CE0C4E93733C4F8B830C4F8BD
:10C85000C030C4F8D030C4F8E430F369C4F8AC3068
:10C860004FF48063C4F8C4304FF4403C0423C4E95F
:10C8700035C3D6F8F430C4F8BC30F3681033C4F8CC
:10C88000B0304FF40063C4F8C830D6F8F030C4F8C4
:10C89000B4304FF48042C4F8CC2049444FF0C0FE7D
:10C8A000B369A8881A6822635A6962635A68A263E6
:10C8B0009A68E263DA6822641A6842F010021A6029
:10C8C0002B68019374E5204BBEF1060FD3F8B8072F
:10C8D0007FF4A0AEDFF878C01C49A7E61A4A03230C
:10C8E00082F8083D35E6DBB20593013BF8E60BF034
:10C8F00081FE069038B1019B0221DA79FEF7A0F99A
:10C90000069B5422DA80019B1A68B2F844306FEA21
:10C9100043436FEA53439BB2A2F84430C6E6542225
:10C920001A70069A5A7014E6074A022382F8083DE4
:10C930000FE6DB0031E700235B68FFDE00239B8806
:10C94000FFDE00BF89840008D0180020A0BB0D00C6
:10C95000882A11000C2911D8DFE801F023101010EB
:10C9600019101010111010100700838B23F40063AE
:10C970001B041B0C43EA022292B282837047838B12
:10C9800023F008031B041B0C1A4382837047038B9C
:10C9900023F400631B041B0C43EA022292B20283BD
:10C9A0007047038B23F008031B041B0C1A430283FC
:10C9B000704700BF2DE9F04FDFF870B29BF80040E0
:10C9C00087B024B90124204607B0BDE8F08F934E0C
:10C9D000D6F8DC580CF000FD9BF8B43A0390002B1D
:10C9E00000F058828E4AA2FB05328E4B5209A3FBFF
:10C9F0000213DB0803EB8303A2EB4303DAB20492D6
:10CA00000BF23C6202EB830300930BF61C1306F15E
:10CA1000E40401934FF00009924635E03B6802932D
:10CA2000009B5C330093019B3046143301934FF01D
:10CA300061FD7A4B02988C2202FB0933002583F8B2
:10CA4000D85079792A46FFF785FF22467979FFF792
:10CA5000B5FA79790822FFF77DFF402344F83C3C82
:10CA6000A4F1480130464FF0DBFD336843F010037A
:10CA700033609BF8B43A09F1010999450AF15C0A5F
:10CA800004F18C0480F2D480DBF83836039AD31A90
:10CA900004D454F8082C9342C0F2AB815F4B54F895
:10CAA000587C266A8C2202FB093393F8D830002B7D
:10CAB000B4D03968736834F8542C02911FFA83FE9D
:10CAC0008B89CEF1160E9BB223EA0203BEF1070F4B
:10CAD0008B81A5D9DBF824390133CBF82439A36A3B
:10CAE00005939C4600225CF8045B012190461BE004
:10CAF000DCF80000B8F1140FA0EB05031DDC13F106
:10CB0000080548BF03F117052B1108EB251805464A
:10CB1000581E013102FA03F3012282408E4542EA97
:10CB200003020CF1040C08D38E45E1D8C8F11503BB
:10CB3000DCF800504FF01508EAE7B8F1150F60D1A6
:10CB40003948C2F38423C2F3441100EB830300EBA2
:10CB50008101D3F80831D1F808111B0243EA01130F
:10CB600002F01F0100EB8101C2F3C43200EB82022C
:10CB7000D1F80811D2F808210B4343EA023383EAC3
:10CB8000132282EA121202F00F020F2A39D1C3F3E4
:10CB90000F134FF6FF72934233D0B3F5606F00F07E
:10CBA0003681019A93819AF85820049DAA4211D0A7
:10CBB0000098DAF800208168521ACAF80020016B48
:10CBC000DAF80420521ACAF80420002282600263B4
:10CBD0008AF85850DAF8002000990132CAF800208B
:10CBE0008A6801328A604FF6FF7293427FF418AF71
:10CBF000DAF804300133CAF804300B6B01330B63ED
:10CC00000EE7DBF820390133CBF82039B9F1000FFA
:10CC100000F0E5804FF6FF73C5E700BFD018002095
:10CC20001F85EB51CDCCCCCC186C0608040000104D
:10CC300001228BF8202ACBF83856002B3FF4C2AEE5
:10CC4000974890F89410890700F1BE80D0F88C10B6
:10CC5000086849798A40018C92B289B221EA0201BE
:10CC60000184018C89B20A43012B02843FF4AAAEED
:10CC70008B4991F82021970700F1C080D1F8182145
:10CC800010685479018C012289B2A24092B221EA43
:10CC900002010184018C89B20A43022B02843FF411
:10CCA00091AE7F4991F8AC21960700F1C180D1F88F
:10CCB000A42110685479018C012289B2A24092B259
:10CCC00021EA02010184018C89B20A43032B028408
:10CCD0003FF478AE724991F83822950700F1B1809F
:10CCE000D1F8302210685479018C012289B2A24017
:10CCF00092B221EA02010184018C89B20A43042B19
:10CD000002843FF45FAE664991F8C422940700F1B3
:10CD1000A180D1F8BC2210685479018C012289B21B
:10CD2000A24092B221EA02010184018C89B20A4335
:10CD3000052B02843FF446AE594991F850239007E1
:10CD400000F19180D1F8482310685479018C0122B8
:10CD500089B2A24092B221EA02010184018C89B217
:10CD60000A43062B02843FF42DAE4D4991F8DC2393
:10CD7000920700F18180D1F8D42310685479018C96
:10CD8000012289B2A24092B221EA02010184018CFF
:10CD900089B20A43082B02847FF414AE404A92F809
:10CDA00068349B0771D5D2F8602404231168507948
:10CDB0000A8C83409BB292B222EA03020A840A8C54
:10CDC00092B213430B84FDE5354AD2F88C201068EB
:10CDD0005479018C0422A24089B292B23EE70599AF
:10CDE0003048582258F0D4FD3B6802934FF6FF7349
:10CDF000D9E60024204607B0BDE8F08F284AD2F8D3
:10CE0000182110685479018C042289B23DE7244925
:10CE100091F8E52402EB420201EBC2024A4492F887
:10CE2000F5240D2A7FF4BDAE019980228A77BAE6F7
:10CE30001B4AD2F8A42110685479018C042289B2CB
:10CE40003CE7174AD2F8302210685479018C04224A
:10CE500089B24CE7124AD2F8BC2210685479018C8E
:10CE6000042289B25CE70E4AD2F84823106854794C
:10CE7000018C042289B26CE7094AD2F8D4231068E5
:10CE80005479018C042289B27CE7054BD3F86024E5
:10CE900001238BE701228BF8202ACBF8383692E564
:10CEA000D0180020CC0900102DE9F04F002299B0D5
:10CEB0002F21074611F01CFCF8B1BC4ED0F80080C1
:10CEC000C6F8C08C0446FDF759FB0246A8B1D0F85D
:10CED00004C0C6F8BCCCBCF1000F0ED0B44D00238A
:10CEE00029464868844501F1240103F101030CD06F
:10CEF000102BF6D1AF4B187818B1002019B0BDE84F
:10CF0000F08F2F221A705870F8E7DBB2DFF8A49286
:10CF1000013B03EBC30309EB830393F824A0BAF1AD
:10CF2000000FEAD138469768DFF8BCB22F229A8406
:10CF30000BF060FB2F220346CBF8A80320B1DA8068
:10CF4000E2792A21FDF77CFE9B4A9C49002301E0FF
:10CF500051F83320904500F0228101330E2BF7D198
:10CF6000002054F033FBD6F8C00C954A038823F018
:10CF700001031B041B0C9042038000F070818E4B58
:10CF8000984216D003F58043984212D003F580638F
:10CF900098420ED003F580639842D6F8B8270AD09D
:10CFA0008849B1EB520F4FEA520340F252810021FF
:10CFB0000AE0D6F8B827834B9A4280F017814FF0E9
:10CFC000010C0021B2FBFCF37F4AADF804101B0AF0
:10CFD0007E49A2FB03231A09A1FB021252084FF05B
:10CFE00000081B09ABF8A62301A952000293ABF875
:10CFF000A423ADF80C80ADF806808DF80E804FF0BC
:10D00000B1FBCDE90688CDF82080A379ADF8148076
:10D01000602204929A0740F1AF80DB0003F008031E
:10D02000ADF81E300423ADF81430D6F8C00C617989
:10D0300004AAFEF7C3FF61790822FFF78BFCB0F862
:10D040004430D6F8BC8C6FEA43436FEA53439BB23B
:10D05000A0F8443003889BB243F080030380A37997
:10D060006179028C9B074CBF042301238B409BB248
:10D0700092B222EA03020284028C92B21343038426
:10D0800003889BB243F0010303802A4600235168C2
:10D09000884502F1240203F101037DD0102BF6D163
:10D0A0004FF0FF3303EBC30309EB8309484AD9F878
:10D0B000083048498B420CBF4FF400134FF48003F3
:10D0C000116B0B43136300236A68904505F1240537
:10D0D00003F101035DD0102BF6D13F4960220023FC
:10D0E0005046FDF741FB40464FF004FAD6F8BC0C21
:10D0F000036823F00103002503604FF0FBF9CDE93D
:10D100001455CDE91655D6F8C03C0E9512956279A6
:10D11000D6F8BC0C099734331344304A0B924022A2
:10D120000A930C924FF480434FF48052CDE91023C0
:10D1300040F22A414FF440330D91139309A94FF463
:10D1400080630F934FF06CFA6379D6F8C01C0C2BF8
:10D1500004D8234A02EB4303B3F8EC508B89D6F88A
:10D16000BC2C9BB21D438D811368012043F010033A
:10D17000136019B0BDE8F08F5B0003F00203ADF857
:10D180001C300123ADF812304FF48073ADF820301D
:10D190004BE75FFA83FAA0E7DBB2013B82E7114A73
:10D1A00002EBC30393F8100DDBE600BFD01800209C
:10D1B0009001002088010020000001402C68060832
:10D1C00000040140006CDC02598B4F01ABAAAAAAF3
:10D1D0000038024000600240418700085C77002070
:10D1E000186C0608205B0608C8290020254B9842C9
:10D1F0000BD003F58043984207D003F58063984233
:10D2000003D003F58063984222D102F1B7731E491F
:10D2100003F55853A1FB03139B0D013B99B2194B26
:10D22000984201F1010C3FF4CDAE03F580439842E2
:10D230003FF4C8AE03F5806398423FF4C3AE03F5F4
:10D24000806398423FF4BEAE5308B3FBFCF3BBE6E9
:10D25000530803F1B7730C4903F55853DAE7D6F8CE
:10D26000B8270A4B9A42FFF4AAAE074902F1B773F6
:10D2700003F55853A1FB03139B0D013B99B201F138
:10D28000010C9FE600000140819F5E16006CDC02ED
:10D29000F0B50C4689B03C49BDF838609DF83C704B
:10D2A000013B054620689BB2049388424FF000037F
:10D2B000ADF81430ADF80E308DF8163013D0334B76
:10D2C000984210D003F5804398420CD003F5806358
:10D2D000984208D003F58063984204D02C4BD3F8D1
:10D2E000B8375B0802E02A4BD3F8B837B3FBF2F249
:10D2F00003A9013AADF80C204FF034FA20686179A7
:10D30000A3790FB183F001030022CDE90622ADF825
:10D310001020602203929A0729D5DB0003F008034E
:10D32000ADF81A300423ADF8103003AA0191059628
:10D33000FEF744FE01990822FFF70CFB2268B2F8C1
:10D3400044306FEA43436FEA53439BB2A2F8443040
:10D35000138811469BB243F0010321F8343B6379F3
:10D360006A60C81800222860CA5009B0F0BD5B008E
:10D3700003F00203ADF818300123ADF80E304FF47E
:10D380008073ADF81C30D0E700040140000001407C
:10D39000D01800200E4A92F8B43703F0FF01002B9A
:10D3A000F9D10C4B4FF0010C82F8B4C7D3F8AC03A1
:10D3B000D3F8082FB3F8C0334360516213889BB28F
:10D3C00043EA0C031380036843EA0C0303607047CD
:10D3D000D0180020C82900201648174A174938B528
:10D3E000174C184D121A58F0D3FAD4F88820164B5F
:10D3F000164842F47002C4F888201A68002142F0EE
:10D4000001021A6099601A6822F0847222F4803254
:10D410001A6058601A6822F480221A600C4AD96097
:10D42000521B28460B4958F0B3FAA560BDE83840B6
:10D43000FBF7B0BA0000001004000010458D07088B
:10D4400000ED00E000000020003802401030002411
:10D450008801002000000008704700BF084B094900
:10D460008B4202460AD2184602E01C30884205D29E
:10D470000388C3F30B039A42F7D17047002070472B
:10D48000786A0708C473070870B585880B46044698
:10D49000C5F30B052A460021184658F0DCFA6169ED
:10D4A000084A9142034602D3074A914205D319B173
:10D4B000BDE870401846084770BD2A46BDE8704078
:10D4C00058F066BAC47307080176070838B5064CE9
:10D4D000064DAC4206D2A16820461C34FFF7D4FFAB
:10D4E000AC42F8D338BD00BF786A0708C473070898
:10D4F0000A44914219D000B501F1FF3C02F1FF3E10
:10D5000041F221011CF8012F082380EA022010F4C7
:10D51000004F81EA40020ABF400090B280B2013B56
:10D52000F5D1E645EED15DF804FB7047F8B5164D30
:10D530006B78BE2B26D1022229464FF6FF70FFF7EB
:10D54000D7FF124FAC1C22884AB1A618BE4219D28E
:10D55000052A17D92146FFF7CBFF3446F3E72146CA
:10D560000222FFF7C5FF0222A118FFF7C1FF063410
:10D57000074B641BA3F80C4F41F60F53C31A5842D4
:10D580005841F8BD0020FCE700400008008000087A
:10D59000C82900202DE9F041574F3B78B12B8AB0C4
:10D5A0006FD1FFF7C3FF80F00104E4B2534B544D39
:10D5B000B3F88831534EADF8003004F00104B542A1
:10D5C00061D3002C00F096801022002106A858F0AC
:10D5D00042FA4D4B0497DB1B05934C4B1A69002A0A
:10D5E00004DA4B4A5A6002F188325A6001228DF8FF
:10D5F0002420F322DA606946022204A80025089557
:10D6000055F031FC022269464FF6FF70FFF770FFBC
:10D610003B4F0446B74243D3022201A904A8002588
:10D62000ADF8045055F01FFC022201A92046FFF777
:10D630005FFF40BAC043ADF80800022204A802A967
:10D6400055F011FC079868B106ABC0F104022946F9
:10D65000184458F000FA089818B906A904A802F06E
:10D6600021FB08909DF82430089823B1274A1369BC
:10D6700043F000431361B0FA80F040090AB0BDE8FE
:10D68000F081012492E7A988A868C1F30B0152F048
:10D69000B7FBAB691B681C35834218BF01248EE7BA
:10D6A000B7F804808DF80D50C8F30B0808F1060395
:10D6B000ADF808303B88C3F30B02ADF80A201B0B12
:10D6C000062202A904A88DF80C3055F0CCFB0622E6
:10D6D00002A92046FFF70CFFB9680446424604A899
:10D6E00055F0C1FBB96820464246FFF701FF1C37E1
:10D6F00004468FE70120C1E700400008186C0608C7
:10D70000786A0708C473070800800008003C0240DC
:10D71000230167454840082310F0800F82EA40014A
:10D720000ABF4000C8B2C0B2013BF5D1704700BF8C
:10D7300030B505688D4219D901F1FF3E6C1E0023FA
:10D740001EF801CF082183EA0C0313F0800F82EA50
:10D75000430C0ABF5B005FFA8CF3DBB20139F4D1F2
:10D760007445EDD16A1C02602B7030BD00236A1C29
:10D7700002602B7030BD00BF07EE901AB8EE677ADA
:10D78000DFED7C7A27EE000A60EE277ABDEEE77ABD
:10D7900017EE103A2033402B00F2DB809FED767AB3
:10D7A000B4EEC70AF1EE10FAB0EE677A0CDDDFEDE9
:10D7B000735A9FED736AF0EE476AF4EEC66AF1EEB3
:10D7C00010FA37EE657AF6DCDFED6E6AB4EEE67AD3
:10D7D000F1EE10FA0CD5DFED695A9FED6B6AF0EEB1
:10D7E000476AF4EEC66AF1EE10FA37EE257AF6D4FF
:10D7F000DFED666AB4EEE67AF1EE10FA00F39D8092
:10D80000DFED636AB4EEE67AF1EE10FA44BFDFEDC5
:10D810005D6A36EEC77A27EE075ADFED5E5A9FED56
:10D820005E6ADFED5E6ADFED5E4AA5EE256A27EEF1
:10D83000054AE5EE066AF7EE005AA4EE267AF0EE07
:10D84000656AE7EE646AE7EE245A86EEA54A9FED24
:10D850004F7A77EE877ABDEEE77A17EE103A2033EB
:10D86000402B6FD89FED4F7AB4EEC70AF1EE10FA55
:10D870000CDD9FED426ADFED426AB0EE677AB4EEEE
:10D88000E67AF1EE10FA77EEC67AF6DC9FED3D7A95
:10D89000F4EEC77AF1EE10FA0CD59FED386ADFEDA1
:10D8A0003A6AB0EE677AB4EEE67AF1EE10FA77EE05
:10D8B000867AF6D49FED357AF4EEC77AF1EE10FA57
:10D8C0004CDD9FED397A77EE677A67EEA74A9FEDD8
:10D8D000317A9FED315ADFED316AA4EE875A67EE57
:10D8E000A43AE4EE856AB7EE006AE3EEA67AB6EEF5
:10D8F000007A36EE676AB8EE005A67EE857A26EE51
:10D90000077AB7EE005AC5EE256A002383614361AA
:10D910000362C36180ED044A26EE877A26EE866AAA
:10D9200066EEA77A80ED095A80ED007A80ED016AF3
:10D9300080ED027AC0ED037A7047DFED1B6A36EEA8
:10D94000C77A68E7DFED197AB6EE007AB7EE006ABB
